:100000000C94A2090C94BF090C94BF090C94BF096D
:100010000C94BF090C94BF090C94BF090C94BF0940
:100020000C94BF090C94BF090C94BF090C94C21E18
:100030000C94BF090C94BF090C94E81E0C94BF09E2
:100040000C94BF090C94BF090C94BF090C94BF0910
:100050000C94BF090C94BF090C94BF090C94BF0900
:100060000C94BF090C94BF097D1D9C1DA31DAA1DE6
:10007000A41EA41EA41EA41EA41EA41EA41EA41E70
:10008000A41EA41EA41EA41EBF1DC81DD31DDE1DBC
:10009000E91DF41DF91D021E0B1E101E191E2D1E3A
:1000A000221EA41E361E3F1E4A1E531E5C1E651EC7
:1000B0006E1E751E861E971EA41E9E1E3E3EA143EA
:1000C000616D62696F20657869746F736F21213C7F
:1000D0003C003D3D3D3D3D3D3D3D3D3D3D3D3D3D8E
:1000E0003D3D3D3D3D3D3D3D3D3D3D3D3D3D3D3D40
:1000F0003D3D3D3D3D3D3D3D3D3D3D3D3D3D3D3D30
:100100003D3D3D3D3D3D3D3D3D3D3D3D3D007C203A
:1001100020A14154454E43494F4E213A20434F4C74
:100120004F515545204E554D45524F532044454E55
:1001300054524F2044454C2052414E474F20504589
:10014000524D495449444F207C003D3D3D3D3D3D8D
:100150003D3D3D3D3D3D3D3D3D3D3D3D3D3D3D3DCF
:100160003D3D3D3D3D3D3D3D3D3D3D3D3D3D3D3DBF
:100170003D3D3D3D3D3D3D3D3D3D3D3D3D3D3D3DAF
:100180003D3D3D3D3D0032292D2041707265746535
:10019000202732272068617374612076657220738E
:1001A000752063616D62696F207265666C656A6156
:1001B000646F0020736920656C206E756D65726FC9
:1001C000206DE178696D6F206573203130302079C2
:1001D0002071756572656D6F7320706F6E6572202A
:1001E00032352D3E2027302720273227202735275C
:1001F000200031292D20436F6C6F71756520636974
:1002000066726120706F7220636966726120736527
:1002100067756E2073656120656C206D6178696D0E
:100220006F2E20506F7220656A656D706C6F3A009A
:1002300020506172612063616D62696172206C613E
:10024000207661726961626C652073696761206CF8
:100250006F73207369677569656E7465207061736B
:100260006F733A003D3D3D3D3D3D3D3D3D3D3D3D96
:100270003D3D3D3D3D3D3D3D3D3D3D3D3D3D3D3DAE
:100280003D3D3D3D3D3D3D3D3D3D3D3D3D3D3D3D9E
:10029000007C20A14154454E43494F4E213A203124
:1002A0003020434152414354455245532C20454E42
:1002B000204D4159555343554C412E207C003D3D26
:1002C0003D3D3D3D3D3D3D3D3D3D3D3D3D3D3D3D5E
:1002D0003D3D3D3D3D3D3D3D3D3D3D3D3D3D3D3D4E
:1002E0003D3D3D3D3D3D3D3D3D3D0033292D2041C2
:1002F00070726574652027322720686173746120ED
:100300007665722073752063616D62696F20726516
:10031000666C656A61646F0032292D20436F6C6FD3
:1003200071756520756E206775696F6E2062616AF0
:100330006F2028275F272920616C2066696E616C19
:100340000031292D20436F6C6F717565206C6574C9
:10035000726120706F72206C6574726120656C2010
:100360006E7565766F206E6F6D62726500205061EC
:1003700072612063616D62696172206465206E6FD5
:100380006D62726520756E612062656269646120CC
:1003900073696761206C6F73207369677569656E37
:1003A000746573207061736F733A0020572D20328B
:1003B00030204C0020562D203130204C003E3E5342
:1003C000656C656363696F6E6520656C206E75652D
:1003D000766F20766F6C756D656E207072657369CF
:1003E0006F6E616E646F20756E6120646520657349
:1003F000746173206C65747261733A0020552D54DA
:10040000616D61F16F206465204269646F6E202820
:100410003130204C202D3230204C29203D002054FA
:100420002D506F7263656E74616A65206465205437
:10043000646573636172676120426562696461200B
:100440003420283520612032352529203D002053D5
:100450002D506F7263656E74616A65206465205407
:1004600064657363617267612042656269646120DB
:100470003320283520612032352529203D002052A7
:100480002D506F7263656E74616A652064652054D7
:1004900064657363617267612042656269646120AB
:1004A0003220283520612032352529203D00205179
:1004B0002D506F7263656E74616A652064652054A7
:1004C000646573636172676120426562696461207B
:1004D0003120283520612032352529203D0020504B
:1004E0002D43616E74696461642064652061677581
:1004F000612043616C69656E746520426562696460
:100500006120342028313530206120333030206D97
:100510004C29203D00204F2D43616E746964616455
:1005200020646520616775612043616C69656E7444
:1005300065204265626964612033202831353020AE
:100540006120333030206D4C29203D00204E2D435A
:10055000616E7469646164206465206167756120FF
:1005600043616C69656E74652042656269646120EF
:10057000322028313530206120333030206D4C2935
:10058000203D00204D2D43616E74696461642064D8
:100590006520616775612043616C69656E746520D3
:1005A0004265626964612031202831353020612044
:1005B000333030206D4C29203D00204B2D43616E9F
:1005C0007469646164206465207072656D657A6326
:1005D0006C612042656269646120342028302061AA
:1005E00020343230206D4C29203D00204A2D4361BB
:1005F0006E7469646164206465207072656D657AEB
:10060000636C612042656269646120332028302078
:100610006120343230206D4C29203D0020492D438B
:10062000616E7469646164206465207072656D65D3
:100630007A636C61204265626964612032202830EF
:10064000206120343230206D4C29203D0020482D7F
:1006500043616E7469646164206465207072656DC5
:10066000657A636C6120426562696461203120288B
:1006700030206120343230206D4C29203D0020474D
:100680002D436F6E7374616E74652050726F706F5E
:100690007263696F6E616C20274B70273A002045AA
:1006A0002D4E6F6D627265206465206C612042651D
:1006B0006269646120342028313020636172E16313
:1006C000746572657329203D0020442D4E6F6D6264
:1006D0007265206465206C612042656269646120F6
:1006E000332028313020636172E163746572657371
:1006F00029203D0020432D4E6F6D62726520646598
:10070000206C6120426562696461203220283130AA
:1007100020636172E163746572657329203D002076
:10072000422D4E6F6D627265206465206C612042BF
:10073000656269646120312028313020636172E193
:1007400063746572657329203D0020412D54656DE9
:10075000706572617475726120446573656164616E
:10076000202836302D3935292A43203D00343434B1
:100770003636363636363636363434352020202076
:1007800020202020203330303036303030202020E0
:100790002020202020202020202020202035303024
:1007A0003030303030303030303030303030002089
:1007B00020203030303030303030362020202020A3
:1007C00020202020202020203930302038303036A2
:1007D0002020202020202037303030303030303082
:1007E0003030303030303030303030303030303009
:1007F0003000202020303030303030303039202070
:10080000202020202020202020202039303020309F
:1008100030303032203530303030303030303030E1
:1008200030303030303030303030303030303030C8
:100830003030303030002020203030303030303018
:10084000303032202020202020202020202020395D
:100850003030303030303030303030303030303098
:100860003030303030303030303030303030303088
:1008700030303030303030303000202020303030D8
:1008800030303030303920203920202020202020E6
:100890002020203030303030303030303030303088
:1008A0003030303030303030303030303030303048
:1008B0003030303030303030303030303030002078
:1008C000202030303030303030303033372020206E
:1008D0002020202020202036303030303030303082
:1008E0003030303030303030303030303030303008
:1008F00030303030303030303030303030303030F8
:1009000030303000202020202031202031202020B5
:10091000202020202020202020202039303030307E
:1009200030303030303030303030303030303030C7
:1009300030303030303030303030303030303030B7
:100940003030303030303030002020202020203136
:100950002020312020202020202020202020202086
:100960003030303030303030303030303030303087
:100970003030303030303030303030303030303077
:1009800030303030303030303030303030002020B7
:100990002020203120203120202020202020202035
:1009A000202020203930303030303030303030307E
:1009B0003030303030303030303030303030303037
:1009C0003030303030303030303030303030303027
:1009D0003000202020202020202020202020202027
:1009E000202020202020202039303030303030307E
:1009F00030303030303030303030303030303030F7
:100A000030303030303030303030303030303030E6
:100A100030303030002020202020202020202020B6
:100A20002020202020202020203030303030303056
:100A300030303030303030303030303030303030B6
:100A400030303030303030303030303030303030A6
:100A50003030303030002020202020202020202066
:100A60002020202020202020203130303030303015
:100A70003030303030303030303030303030303076
:100A80003030303030303030303030303030303066
:100A90003030303031202020202020202020202005
:100AA000202020434F4E534F4C4100202020202037
:100AB00020202020202020202020203030303030E6
:100AC0003030303030303030303030303030303026
:100AD0003030303030303030303030303030303016
:100AE0003030303030303036202020202020202080
:100AF000202020205554494C49434520455354411A
:100B000020202000202020202020202020202038ED
:100B100030303030303030303030303030303030D5
:100B200030303030303030303030303030303030C5
:100B300030303030303030303030303030303120C4
:100B4000202020202050415241204D4F4449464909
:100B5000434152204553544F532020002020202051
:100B600020202020202030303030303030303030E5
:100B70003030303030303030303030303030303075
:100B80003030303030303030303030303030303065
:100B9000303420202020202043414E5449444144F9
:100BA000204445205052454D455A434C412C455414
:100BB00043202000202020202020202020373030FB
:100BC0003030303030303030303030303030303025
:100BD0003030303030303030303030303020202045
:100BE0002020202020202020202020205055454457
:100BF000454E20434F4E54524F4C41522054454D88
:100C000050455241545552412C2000202020202094
:100C10002020202034303030303030303030303010
:100C200030303030303030303030303030303030C4
:100C30002020202020202020202020202027434169
:100C40004645544552412720455320554E20505289
:100C50004F594543544F20444F4E4445205345205F
:100C6000002020202020202020203030303020384C
:100C70003030303030303030303030303030303074
:100C80003030300020202020202020202034303020
:100C90003030303030303030302020333030303071
:100CA000303030352020202020204E4F4D425245FC
:100CB0003A20464142524943494F20444156494413
:100CC0002047414C4C4F0020202020202020202075
:100CD0002020203430303030303030303030303040
:100CE00030303030372020202020202020202020AD
:100CF00020202020202020202020202020202020F4
:100D000020202020204C4943204A554C49414E2068
:100D10004D494E4154454C002020202020202020C9
:100D20002020202020202031323332383030303023
:100D30003030303020202020202020202020202073
:100D4000202020202020202050524F4645534F5233
:100D500045533A20494E47204544554152444F207F
:100D600056454C415A5155455A00202020202020FC
:100D7000202020202020202020202020202039304A
:100D800020203430302020202020545046492E2E60
:100D90002E20434154454452413A202020205349BB
:100DA0005354454D4153204449474954414C4553C0
:100DB000204956003D3D3D3D3D3D3D3D3D3D3D3D98
:100DC0003D3D3D3D3D3D3D3D3D3D3D3E3E007C206C
:100DD0004D45444943494F4E4553204143545541A5
:100DE0004C4553207C3E3E003D3D3D3D3D3D3D3D1F
:100DF0003D3D3D3D3D3D3D3D3D3D3D3D3D3D3D3E22
:100E00003E003E3E203420436F6E66696775726116
:100E100072003E3E2033204461746F732064656C21
:100E20002050726F796563746F003E3E2032205609
:100E3000657220636F6E66696775726163696F6E54
:100E40006573003E3E203120566572204D65646911
:100E500063696F6E657300202B585858585858585E
:100E60002020202058582B202020585858585858B7
:100E7000582B20202B58782020207858583A2020B2
:100E800020202B5858585820202020207858585877
:100E90005858587820203A58582020203B58582B32
:100EA00020202058583B202020585858585858582F
:100EB0002B2020202078585858585878202000207F
:100EC0002B585820202058585820202058582B2084
:100ED000202058582B202020202020202B587820FC
:100EE000203A5858583A2020202078585858582EE0
:100EF00020202020785878202020202020203A58B8
:100F00005820202E5858582B20202058583B20205D
:100F10002058582B20203B58583A20202B58582E28
:100F2000202E58582B2000202B58582020202B589A
:100F3000582E202058582B20202058582B20202075
:100F4000202020202B58782020785858583A2020EC
:100F5000202058582B58582B2020202078587820B3
:100F60002020202020203A585820202B5858582B39
:100F700020202058583B20202058582B20203A5819
:100F8000583B20207858582020205858782000209E
:100F90002B585820202058585820202058582B20B3
:100FA000202058582B202020202020202B5878202B
:100FB0003A585858583A2020203B58583A3B5858ED
:100FC00020202020785878202020202020203A58E7
:100FD000582020585858582B20202058583B202063
:100FE0002058582B20203A58583B20207858582019
:100FF00020205858782000202B5858585858587896
:101000002020202058582B20202058585858585815
:101010003B2020202B58782078583B58583A2020E5
:1010200020585858202058583A202020785858588E
:101030005858782020203A58582078582B58582B48
:1010400020202058583B20202058582B20203A5848
:10105000583B2020785858202020585878200020CD
:101060002B58582E203B58583A20202058582B20D7
:10107000202058582B202020202020202B58783A40
:1010800058782058583A20202058582B202058585B
:101090003B202020785878202020202020203A58FB
:1010A000582058582058582B20202058583B202092
:1010B0002058582B20203A58583B20207858582048
:1010C00020205858782000202B585820202058588D
:1010D0007820202058582B20202058582B202020C2
:1010E000202020202B585858583A2058583A202071
:1010F0003A58583A2020785878202020785878207C
:101100002020202020203A585858583B2058582B4F
:1011100020202058583B20202058582B20203A5877
:10112000583B2020785858202020585878200020FC
:101130002B58582E203B58587820202058582B20C8
:10114000202058582B202020202020202B58585871
:1011500078202058583A20202B58582E20203A58D2
:10116000582E2020785878202020202020203A58FF
:10117000585858202058582B20202058583B2020C1
:101180002058582B20202B58582E20202B58582ED2
:10119000203A58582B00202B585858585858782027
:1011A00020202058582B202020585858585858583C
:1011B0002B20202B58585820202058583A202058AF
:1011C00058782020202058583B20207858585858CC
:1011D00058587820203A5858583A202058582B20F0
:1011E000202058583B202020585858585858583AD2
:1011F000202020207858585858587820003E3E4EDD
:101200006976656C6573206465206C6C656E6164DD
:101210006F206465206C6F7320646F736966696307
:1012200061646F726573206465207072656D657AA4
:10123000636C612028656E2025293A003E3E426994
:10124000646F6E3A00206D4C002D566F6C756D65A5
:101250006E3A00202A43002D54656D7065726174EA
:101260007572613A003E3E506F72206661766F7211
:101270002C20696E74656E74656C6F206E75657672
:10128000616D656E7465206DE173207461726465D3
:101290002E20414345505441523A204170726574AA
:1012A000652058003E3E4552524F523A204C412054
:1012B00043414E54494441442050524F50554553A8
:1012C000544120455354C120465545524120444580
:1012D0002052414E474F204F20454E20464F524D01
:1012E00041544F204552524F4E454F003E3E4170B3
:1012F000726574652058207061726120766F6C761B
:10130000657220616C206D656E7520696E69636918
:10131000616C003E3E53656C656363696F6E65206A
:10132000616C67756E61206465206C617320616E0D
:10133000746572696F726573206F7063696F6E6533
:101340007320000011241FBECFEFD8E0DEBFCDBF59
:1013500013E0A0E0B1E0E8E8F9E402C005900D92E6
:10136000A837B107D9F723E0A8E7B3E001C01D9281
:10137000AC3DB207E1F70E94AB1E0C94C2240C9462
:101380000000ECE7F0E080818064808380818F7DC5
:101390008083EAE7F0E080818760808380818068D5
:1013A00080830895ECE7F0E09081907F90839081B6
:1013B000892B8083EAE7F0E08081806480838091DC
:1013C0007A0086FDFCCF089507C025E137EC3A95F9
:1013D000F1F72A95E1F701979923BCF70895CF9289
:1013E000DF92EF92FF92CF93DF9343E050E06FEBF9
:1013F00073E088E191E00E94D90E8FEB93E00E94A8
:10140000B2219093790380937803BC01990F880BE4
:10141000990B0E948B2020E030E040E751E40E94CD
:10142000E11F20E030E04AE754E40E9417210E94C7
:101430005320709392036093910381E090E00E94A7
:10144000121380919103909192030E94E40944E069
:1014500050E06FEB73E084E690E00E94D90E8FEBD2
:1014600093E00E94B2219093790380937803BC01AA
:10147000990F880B990B0E948B2020E030E048ECFC
:1014800051E40E94E11F20E030E04AE754E40E946A
:1014900017210E9453207093900360938F0380E183
:1014A00090E00E94121380918F03909190030E940C
:1014B000E40944E050E06FEB73E08CE890E00E94B8
:1014C000D90E8FEB93E00E94B221EC019093790347
:1014D0008093780360918F0370919003072E000C26
:1014E000880B990B0E948B206B017C01CE0164E676
:1014F00070E00E948421072E000C880B990B0E943B
:101500008B2020E030E040E85FE30E94751F9B01E4
:10151000AC01C701B6010E94172120E030E04AE784
:1015200054E40E9417210E94532070939403609307
:10153000930380E091E00E941213809193039091B5
:1015400094030E94E4090E942813DF91CF91FF9039
:10155000EF90DF90CF900895CF92DF92EF92FF92BD
:10156000CF93DF9343E050E06FEB73E086E490E0CD
:101570000E94D90E8FEB93E00E94B22190937903E1
:1015800080937803BC01990F880B990B0E948B20E4
:1015900020E030E040E751E40E94E11F20E030E02D
:1015A0004AE754E40E9417210E945320709392034B
:1015B0006093910382E090E00E9412138091910366
:1015C000909192030E94E40944E050E06FEB73E0D5
:1015D0008EE690E00E94D90E8FEB93E00E94B2213C
:1015E0009093790380937803BC01990F880B990B32
:1015F0000E948B2020E030E048EC51E40E94E11F83
:1016000020E030E04AE754E40E9417210E94532072
:101610007093900360938F0380E290E00E94121316
:1016200080918F03909190030E94E40944E050E080
:101630006FEB73E081E990E00E94D90E8FEB93E0AD
:101640000E94B221EC01909379038093780360911A
:101650008F0370919003072E000C880B990B0E944A
:101660008B206B017C01CE0164E670E00E94842136
:10167000072E000C880B990B0E948B2020E030E095
:1016800040E85FE30E94751F9B01AC01C701B601F2
:101690000E94172120E030E04AE754E40E9417211D
:1016A0000E945320709394036093930380E092E030
:1016B0000E94121380919303909194030E94E40975
:1016C0000E942813DF91CF91FF90EF90DF90CF9091
:1016D0000895CF92DF92EF92FF92CF93DF9343E092
:1016E00050E06FEB73E080E590E00E94D90E8FEB45
:1016F00093E00E94B2219093790380937803BC0118
:10170000990F880B990B0E948B2020E030E040E776
:1017100051E40E94E11F20E030E04AE754E40E94D7
:1017200017210E945320709392036093910384E0E9
:1017300090E00E94121380919103909192030E9475
:10174000E40944E050E06FEB73E084E690E00E942F
:10175000D90E8FEB93E00E94B2219093790380938E
:101760007803BC01990F880B990B0E948B2020E015
:1017700030E048EC51E40E94E11F20E030E04AE70D
:1017800054E40E9417210E945320709390036093A9
:101790008F0380E490E00E94121380918F03909158
:1017A00090030E94E40944E050E06FEB73E086E9A7
:1017B00090E00E94D90E8FEB93E00E94B221EC01E1
:1017C000909379038093780360918F0370919003D5
:1017D000072E000C880B990B0E948B206B017C015B
:1017E000CE0164E670E00E948421072E000C880B75
:1017F000990B0E948B2020E030E040E85FE30E94DC
:10180000751F9B01AC01C701B6010E94172120E0A2
:1018100030E04AE754E40E9417210E94532070935D
:1018200094036093930380E094E00E9412138091EC
:101830009303909194030E94E4090E942813DF917E
:10184000CF91FF90EF90DF90CF900895CF92DF92ED
:10185000EF92FF92CF93DF9343E050E06FEB73E0A2
:101860008AE590E00E94D90E8FEB93E00E94B221AE
:101870009093790380937803BC01990F880B990B9F
:101880000E948B2020E030E040E751E40E94E11FFD
:1018900020E030E04AE754E40E9417210E945320E0
:1018A000709392036093910388E090E00E9412137A
:1018B00080919103909192030E94E40944E050E0EA
:1018C0006FEB73E082E890E00E94D90E8FEB93E01B
:1018D0000E94B2219093790380937803BC01990F01
:1018E000880B990B0E948B2020E030E048EC51E4FB
:1018F0000E94E11F20E030E04AE754E40E941721F3
:101900000E9453207093900360938F0380E890E0CF
:101910000E94121380918F03909190030E94E4091A
:1019200044E050E06FEB73E08BE990E00E94D90E49
:101930008FEB93E00E94B221EC01909379038093A6
:10194000780360918F0370919003072E000C880B31
:10195000990B0E948B206B017C01CE0164E670E044
:101960000E948421072E000C880B990B0E948B206B
:1019700020E030E040E85FE30E94751F9B01AC016E
:10198000C701B6010E94172120E030E04AE754E485
:101990000E9417210E945320709394036093930335
:1019A00080E098E00E941213809193039091940339
:1019B0000E94E4090E942813DF91CF91FF90EF90DD
:1019C000DF90CF9008958230910569F01CF4019763
:1019D00039F008958330910549F0049751F0089546
:1019E0000E94EF0908950E94AC0A08950E94690BB5
:1019F00008950E94260C0895883121E0920759F13C
:101A00008634910551F18035910549F18A3591056A
:101A100041F18436910539F18E36910531F18837DF
:101A2000910529F18238910521F18C38910519F140
:101A30008139910511F18639910509F18B399105AB
:101A400001F1803A9105F9F08A3A9105F1F0843B71
:101A50009105E9F0089584E4089584E4089584E408
:101A6000089584E4089581E4089581E4089581E46B
:101A7000089581E4089580E5089580E5089580E55E
:101A8000089580E5089586E508958BE4089584E53A
:101A90000895EF92FF921F93CF93DF9300D01F9290
:101AA000CDB7DEB77C010E94A9171092790310927E
:101AB00078030E94F413898381E090E09093790386
:101AC000809378030E94F4138A831B82C7010E94CB
:101AD000FC0C182F843591F4CE0101960E94B2219E
:101AE000803691054CF4CC973CF0BE016F5F7F4F80
:101AF000C7010E949F0E02C00E949A171B3479F4FE
:101B0000CE0101960E94B221892B39F0BE016F5F90
:101B10007F4FC7010E949F0E02C00E949A17103586
:101B200091F4CE0101960E94B2218A3191054CF4C4
:101B300005973CF0BE016F5F7F4FC7010E949F0E6B
:101B400002C00E949A170F900F900F90DF91CF91D3
:101B50001F91FF90EF9008950F931F93CF93DF9302
:101B6000CDB7DEB72B970FB6F894DEBF0FBECDBF53
:101B70008C0110927903109278030E94F4138983E8
:101B800081E090E090937903809378030E94F413AE
:101B90008A8382E090E090937903809378030E9497
:101BA000F4138B8383E090E0909379038093780320
:101BB0000E94F4138C8384E090E0909379038093E7
:101BC00078030E94F4138D8385E090E0909379036D
:101BD000809378030E94F4138E8386E090E09093C4
:101BE0007903809378030E94F4138F8387E090E059
:101BF00090937903809378030E94F413888788E098
:101C000090E090937903809378030E94F41389877E
:101C100089E090E090937903809378030E94F41315
:101C20008A871C86BE016F5F7F4FC8010E949F0E8E
:101C30008CEB90E00E94FF130E94E3132B960FB6EB
:101C4000F894DEBF0FBECDBFDF91CF911F910F91F2
:101C50000895EF92FF921F93CF93DF9300D000D0AF
:101C6000CDB7DEB77C010E94A917109279031092BC
:101C700078030E94F413898381E090E090937903C4
:101C8000809378030E94F4138A8382E090E090931B
:101C90007903809378030E94F4138B831C82C7011D
:101CA0000E94FC0C182F843499F4CE0101960E94F6
:101CB000B221853A21E092074CF499233CF0BE0111
:101CC0006F5F7F4FC7010E949F0E02C00E949A174C
:101CD0001134A1F4CE0101960E94B2218D3221E08F
:101CE000920754F4863991053CF0BE016F5F7F4F37
:101CF000C7010E949F0E02C00E949A170F900F907A
:101D00000F900F90DF91CF911F91FF90EF9008956A
:101D1000F894F999FECF92BD81BD60BD8FB3846008
:101D20008FBB8FB382608FBB78940895F999FECFF3
:101D300092BD81BD8FB381608FBB80B50895AF9296
:101D4000BF92CF92DF92EF92FF920F931F93CF93A8
:101D5000DF936C015B01C0E0D0E00EC07E01EC0CB3
:101D6000FD1CC7010E94960EF8016081861719F0CC
:101D7000C7010E94880E219685010C0F1D1FF801D6
:101D800080818111EBCFCC0DDD1DCE010E94960E1E
:101D9000882321F060E0CE010E94880EDF91CF9170
:101DA0001F910F91FF90EF90DF90CF90BF90AF9079
:101DB0000895AF92BF92CF92DF92EF92FF920F936E
:101DC0001F93CF93DF935C016B017A01C0E0D0E0F9
:101DD0000BC086010C0F1D1FCE018A0D9B1D0E949A
:101DE000960EF80180832196CE15DF0590F3F6015B
:101DF000EE0DFF1D1082DF91CF911F910F91FF908B
:101E0000EF90DF90CF90BF90AF90089589E18093DD
:101E1000B8001092B900089584EA8093BC008091C4
:101E2000BC008823E4F708958093BB0084E8809386
:101E3000BC008091BC008823E4F7089584E9809376
:101E4000BC008091BC0080FDFCCF0895EBEBF0E07E
:101E500080818260808384E88093BC008091BC0094
:101E60008823E4F789EF90E00197F1F700C00000C4
:101E7000EBEBF0E080818D7F808384E88093BC0071
:101E80008091BC008823E4F70895EBEBF0E09081AB
:101E90009E7F908394E89093BC009091BC0099231E
:101EA000E4F7EBEBF0E090819F70908394E89093DF
:101EB000BC009091BC009923E4F7EBEBF0E090813B
:101EC000807F892B808384E88093BC008091BC0054
:101ED0008823E4F70E94260F0895CF93C82FEBEBD9
:101EE000F0E080818E7F808384E88093BC008091C5
:101EF000BC008823E4F7EBEBF0E080818F708083F7
:101F000084E88093BC008091BC008823E4F7EBEB6D
:101F1000F0E080819C2F907F892B808384E88093E0
:101F2000BC008091BC008823E4F70E94260FEBEBF5
:101F3000F0E080818F70808384E88093BC00809182
:101F4000BC008823E4F7EBEBF0E0208130E1C39F95
:101F5000C0011124822B808384E88093BC0080918F
:101F6000BC008823E4F70E94260FCF910895CF93F9
:101F7000C82FEBEBF0E080818160808384E8809360
:101F8000BC008091BC008823E4F7EBEBF0E080819B
:101F90008F70808384E88093BC008091BC0088238C
:101FA000E4F7EBEBF0E080819C2F907F892B80831E
:101FB00084E88093BC008091BC008823E4F70E94F1
:101FC000260FEBEBF0E080818F70808384E88093B4
:101FD000BC008091BC008823E4F7EBEBF0E02081AB
:101FE00030E1C39FC0011124822B808384E8809359
:101FF000BC008091BC008823E4F70E94260FCF919B
:1020000008950E94060F0E940C0F80E40E94140F96
:1020100081EE94E00197F1F700C0000080E30E9498
:10202000450F81EE94E00197F1F700C0000080E3D6
:102030000E94450F80E20E94450F81EE94E00197D7
:10204000F1F700C0000088E20E946D0F8CE00E9452
:102050006D0F81E00E946D0F86E00E946D0F80E899
:102060000E946D0F0895CF93DF93EC0103C021967A
:102070000E94B70F88818111FACFDF91CF91089527
:1020800081E00E946D0F81E28A95F1F7000080E8FF
:102090000E946D0F089585E08093B800089584EA4A
:1020A0008093BC008091BC008823E4F7089580935E
:1020B000BB0084E88093BC008091BC008823E4F7D7
:1020C000089584EC8093BC008091BC008823E4F7E1
:1020D0008091BB0090E0A0E0B0E0809396039093E5
:1020E0009703A0939803B093990384EC8093BC006A
:1020F0008091BC008823E4F78091BB0090E0A0E0D1
:10210000B0E080939E0390939F03A093A003B093AD
:10211000A10384E88093BC008091BC008823E4F78D
:102120008091BB0090E0A0E0B0E080939A03909390
:102130009B03A0939C03B0939D03089584E980932F
:10214000BC0008950E944F1080ED0E9457108CE152
:102150000E9457100E949E100895CF93DF930E9413
:102160004B100E94A2100E944F1081ED0E94571048
:102170000E9461102091960380E090E0922F990FC9
:10218000990FC0919E03D0919F03CC0FDD1FCC0F00
:10219000DD1FC82BD92B80919A0390919B03082EA9
:1021A000892F000C881F990B000C881F991FC82BC2
:1021B000D92B22970E949E10CE01DF91CF910895D6
:1021C000CF92DF92EF92FF920F931F93CF93DF9303
:1021D00000D01F92CDB7DEB70E94AD107C0142E067
:1021E00050E0BE016F5F7F4F80EA90E00E94D90E01
:1021F000CE0101960E94B221BC01660F771F880FA5
:10220000991F880F991F880F991F8B01080F191F9D
:10221000B701FF0C880B990B0E948B2020E030E067
:1022200040E050E40E94751F20E030E04AE754E4AB
:102230000E94172120E030EE4FEF54E40E94E11F8E
:102240006B017C01B801110F880B990B0E948B2048
:10225000A70196010E9417210E945320CB010F90E5
:102260000F900F90DF91CF911F910F91FF90EF9002
:10227000DF90CF90089594EA9093BC009091BC00B9
:102280009923E4F79091B9009B7F983009F057C0EB
:1022900090E99093BB0094E89093BC009091BC00AF
:1022A0009923E4F79091B9009B7F983109F047C0DA
:1022B0008093BB0084E88093BC008091BC0088239D
:1022C000E4F78091B9008B7F8832C9F584EA809366
:1022D000BC008091BC008823E4F78091B9008B7F1B
:1022E000803169F581E98093BB0084E88093BC006C
:1022F0008091BC008823E4F78091B9008B7F803403
:10230000F1F415C02115310521F484E88093BC0057
:1023100003C084EC8093BC008091BC008823E4F768
:102320008091BB00FB018083A9016F5F7F4F9A0101
:1023300021503109452B31F784E98093BC00089581
:1023400094EA9093BC009091BC009923E4F790919B
:10235000B9009B7F9830D1F590E99093BB0094E849
:102360009093BC009091BC009923E4F79091B90040
:102370009B7F983159F58093BB0084E88093BC0023
:102380008091BC008823E4F78091B9008B7F88326C
:10239000E9F414C0FB013196DB018C918093BB0002
:1023A00084E88093BC008091BC008823E4F780918E
:1023B000B900A9018B7F883249F4BF019A012150ED
:1023C0003109452B39F784E98093BC0008951F93A8
:1023D000CF93DF931F92CDB7DEB7182F41E050E0C7
:1023E000BE016F5F7F4F81E00E943B118981282FE2
:1023F0002F7930E2139FC0011124822B898341E0A1
:1024000050E0BE016F5F7F4F81E00E94A0110F90EE
:10241000DF91CF911F9108951F93CF93DF931F9268
:10242000CDB7DEB7182F41E050E0BE016F5F7F4FA0
:1024300081E00E943B1189818E7F182B198341E036
:1024400050E0BE016F5F7F4F81E00E94A0110F90AE
:10245000DF91CF911F910895EF92FF921F93CF9339
:10246000DF9300D0CDB7DEB742E050E0BE016F5F32
:102470007F4F80E00E943B11E980FA80B701772707
:1024800080E090E00E9489201F2DF7FE06C020E02A
:1024900030E040E05FE30E94751F16FF06C020E0B9
:1024A00030E040E85EE30E94751F15FF06C020E0A3
:1024B00030E040E05EE30E94751F14FF06C020E09C
:1024C00030E040E85DE30E94751F0F900F90DF91B0
:1024D000CF911F91FF90EF9008958F929F92AF92AE
:1024E000BF92CF92DF92EF92FF920F931F93CF9301
:1024F000DF93CDB7DEB7AA970FB6F894DEBF0FBE55
:10250000CDBF0E94C31385EA9EE00197F1F700C09A
:10251000000083E00E94E71185EA9EE00197F1F751
:1025200000C0000080E00E940C1285EA9EE0019746
:10253000F1F700C0000001E010E03CC00E942C1246
:102540004B015C010E9453206B017C01072E000CA3
:10255000880B990B0E948B209B01AC01C501B40133
:102560000E94741F20E030E44CE156E40E941721E1
:102570000E9453209B01772324F422273327261B14
:10258000370B3F932F93DF92CF928EE191E09F9391
:102590008F93CE0101969F938F930E94D82185E35C
:1025A00091E00E94D6130F5F1F4F0FB6F894DEBF65
:1025B0000FBECDBF0B3F11050CF285E391E00E94E9
:1025C000D613CE0101960E94B2219F938F9386E38A
:1025D00091E09F938F938E010F5D1F4F1F930F9379
:1025E0000E94D821C8010E94B2218C010E941E0FB6
:1025F0000F900F900F900F900F900F90C801AA9618
:102600000FB6F894DEBF0FBECDBFDF91CF911F9103
:102610000F91FF90EF90DF90CF90BF90AF909F9081
:102620008F900895CF93DF93D82FC92FF8940E94ED
:102630000C0F8EE40E94140F8D2F0E94140F8C2F0C
:102640000E94140F0E941E0F7894DF91CF9108957D
:1026500080E090E00E94121308958AB1877F8AB9C2
:102660008AB18F7E8AB98BB188608BB98BB180615A
:102670008BB9089589B182958F7091E08927817017
:1026800080937C0390E0089589B186958695869520
:1026900091E08927817080937D0390E008958AB14D
:1026A0008F7D8AB98AB18F7B8AB98BB180628BB9F1
:1026B0008BB180648BB9089589B1829586958770B6
:1026C00091E08927817080937B0390E0089589B120
:1026D000829586958695837091E089278170809395
:1026E0007A0390E0089584B1886084B9E0EBF0E06B
:1026F000808183608083A1EBB0E08C9182608C93B9
:1027000080818068808308959C01629FC001639FDF
:10271000900D729F900D11248F3F910509F01CF4CC
:10272000992334F403C08FEF90E002C080E090E082
:102730008093B300089514BC15BC16BC84B58260A8
:1027400084BD85B5836085BD8FEF87BDEEE6F0E083
:10275000808182608083089510928000E1E8F0E03B
:10276000108280818860808388E09DE39093890057
:1027700080938800AFE6B0E08C9182608C9380817A
:102780008560808308951092C50080E18093C40025
:1027900088E18093C10086E08093C2000895909103
:1027A000C00095FFFCCF8093C6000895CF93DF93C0
:1027B000EC0103C00E94CF13219688818111FACFCA
:1027C000DF91CF9108958DE00E94CF138AE00E949F
:1027D000CF1308958091C0008823E4F78091C6004C
:1027E0008F3509F480E00895CF930E94EA13C82F33
:1027F0000E94CF130E94E3138C2FCF910895CF93A3
:10280000DF93FC0103C00E94CF13FE01EF0121966C
:1028100084918111F8CFDF91CF9108950E94E31345
:1028200086E991E10E94FF130E94E3138FE291E198
:102830000E94FF130E94E31387EC90E10E94FF13B4
:102840000E94E3138FE590E10E94FF130E94E313BF
:1028500087EF9FE00E94FF130E94E3138FE89FE041
:102860000E94FF130E94E31387E29FE00E94FF1380
:102870000E94E3138FEB9EE00E94FF130E94E3137C
:1028800087E59EE00E94FF130E94E3130E94E3137A
:1028900008950E94E3130E94E3138AE69DE00E94DC
:1028A000FF130E94E31388E19DE00E94FF130E9442
:1028B000E31387EC9CE00E94FF130E94E31384E87B
:1028C0009CE00E94FF130E94E31381E69CE00E94BB
:1028D000FF130E94E3138BE09CE00E94FF130E9411
:1028E000E31384EB9BE00E94FF130E94E3138CE54B
:1028F0009BE00E94FF130E94E31384E09BE00E9490
:10290000FF130E94E3138BEA9AE00E94FF130E94D8
:10291000E31386E59AE00E94FF130E94E31385E12A
:102920009AE00E94FF130E94E31382ED99E00E9457
:10293000FF130E94E3138EE899E00E94FF130E94A8
:10294000E31389E499E00E94FF130E94E31384E0FB
:1029500099E00E94FF130E94E3138FEB98E00E941E
:10296000FF130E94E3138AE798E00E94FF130E947E
:10297000E31386E398E00E94FF130E94E31382EFC3
:1029800097E00E94FF130E94E3138FEA97E00E94F2
:10299000FF130E94E3138DE697E00E94FF130E944D
:1029A000E3130E94E31383E193E10E94FF13089570
:1029B0000E94E31383E49EE00E94FF130E94E3134E
:1029C0008AE29EE00E94FF130E94E31382E19EE0F0
:1029D0000E94FF130E94E31382E09EE00E94FF1317
:1029E0000E94E3138CEE92E10E94FF130E94E31316
:1029F00083E193E10E94FF1308956F927F928F927B
:102A00009F92AF92BF92CF92DF92EF92FF920F937D
:102A10001F93CF93DF93782E692EC62FD72F942E36
:102A2000852EB22EA32E0E94E31388EE9DE00E9415
:102A3000FF130E94E3138EEC9DE00E94FF130E949F
:102A4000E31384EB9DE00E94FF130E94E3138CE3E9
:102A500092E10E94FF130E94E31387E592E10E9436
:102A6000FF13DF93CF930F2EF6E3CF2EF1E0DF2E8F
:102A7000F02DDF92CF92CFEBD3E0DF93CF930E9484
:102A8000D821CE010E94D61383E592E10E94FF1364
:102A90000E94E31389E492E10E94FF136F927F92F8
:102AA000DF92CF92DF93CF930E94D821CE010E9474
:102AB000D61385E492E10E94FF130E94E3138DEF89
:102AC00091E10E94FF130E94E31389E391E00E94C9
:102AD000D6134CE050E0BE018AE090E00E94D90E8F
:102AE000CE010E94D61383E391E00E94D6138F9209
:102AF0009F92DF92CF92DF93CF930E94D821CE0195
:102B00000E94D6138DEB92E00E94D6130E94E3132D
:102B100085E491E00E94D6134CE050E0BE0189E1CB
:102B200090E00E94D90ECE010E94D61383E391E07B
:102B30000E94D613AF92BF92DF92CF92DF93CF93D2
:102B40000E94D821CE010E94D6138DEB92E00E9404
:102B5000D6130E94E31381E591E00E94D6134CE066
:102B600050E0BE0188E290E00E94D90ECE010E94A2
:102B7000D61383E391E00E94D6131F930F93DF9245
:102B8000CF92DF93CF930E94D821CE010E94D6131B
:102B90008DEB92E00E94D6130E94E3138DE591E045
:102BA0000E94D6134CE050E0BE0187E390E00E9403
:102BB000D90ECE010E94D61383E391E00E94D61372
:102BC000FF92EF92DF92CF92DF93CF930E94D821B2
:102BD0008DB79EB784960FB6F8949EBF0FBE8DBF7B
:102BE000CE010E94D6138DEB92E00E94D6130E9474
:102BF000E3138CEE92E10E94FF13DF91CF911F91BE
:102C00000F91FF90EF90DF90CF90BF90AF909F908B
:102C10008F907F906F9008950E94E3138AE497E06D
:102C20000E94FF134AE050E06FEB73E084EB90E00A
:102C30000E94D90E8FEB93E00E94D6130E94E313FB
:102C40008FE197E00E94FF134CE050E06FEB73E0E0
:102C50008AE090E00E94D90E8FEB93E00E94D61399
:102C60000E94E31384EF96E00E94FF134CE050E0D3
:102C70006FEB73E089E190E00E94D90E8FEB93E057
:102C80000E94D6130E94E31389EC96E00E94FF1382
:102C90004AE050E06FEB73E088E290E00E94D90ECA
:102CA0008FEB93E00E94D6130E94E3138EE996E027
:102CB0000E94FF134AE050E06FEB73E087E390E07F
:102CC0000E94D90E8FEB93E00E94D6130E94E3136B
:102CD0008EE796E00E94FF1343E050E06FEB73E055
:102CE0008AEA90E00E94D90E8FEB93E00E94D613FF
:102CF0000E94E3138DE496E00E94FF1343E050E04E
:102D00006FEB73E088E191E00E94D90E8FEB93E0C6
:102D10000E94D6130E94E3138CE196E00E94FF13F9
:102D200043E050E06FEB73E086E490E00E94D90E40
:102D30008FEB93E00E94D6130E94E3138BEE95E095
:102D40000E94FF1343E050E06FEB73E080E590E0FA
:102D50000E94D90E8FEB93E00E94D6130E94E313DA
:102D60008AEB95E00E94FF1343E050E06FEB73E0C5
:102D70008AE590E00E94D90E8FEB93E00E94D61373
:102D80000E94E31383E895E00E94FF1343E050E0C4
:102D90006FEB73E084E690E00E94D90E8FEB93E036
:102DA0000E94D6130E94E3138CE495E00E94FF1367
:102DB00043E050E06FEB73E08EE690E00E94D90EA6
:102DC0008FEB93E00E94D6130E94E31385E195E018
:102DD0000E94FF1343E050E06FEB73E088E790E060
:102DE0000E94D90E8FEB93E00E94D6130E94E3134A
:102DF0008EED94E00E94FF1343E050E06FEB73E030
:102E000082E890E00E94D90E8FEB93E00E94D613E7
:102E10000E94E3138EEA94E00E94FF1343E050E027
:102E20006FEB73E08CE890E00E94D90E8FEB93E09B
:102E30000E94D6130E94E3138EE794E00E94FF13D2
:102E400043E050E06FEB73E081E990E00E94D90E1F
:102E50008FEB93E00E94D6130E94E3138EE494E07C
:102E60000E94FF1343E050E06FEB73E086E990E0CF
:102E70000E94D90E8FEB93E00E94D6130E94E313B9
:102E80008EE194E00E94FF1343E050E06FEB73E0AB
:102E90008BE990E00E94D90E8FEB93E00E94D6134D
:102EA0000E94E3138CEF93E00E94FF1343E050E095
:102EB0006FEB73E080EA90E00E94D90E8FEB93E015
:102EC0000E94D61389E691E00E94D6130E94E31374
:102ED0008CEE92E10E94FF1308950E94E3138DE6A9
:102EE00093E00E94FF130E94E31381E493E00E94A9
:102EF000FF130E94E31388E193E00E94FF130E94F6
:102F0000E3138BEE92E00E94FF130E94E3138EEB1B
:102F100092E00E94FF130E94E31381E992E00E9475
:102F2000FF130E94E31384E692E00E94FF130E94C5
:102F3000E31308950E94E31384EA92E10E94FF13D1
:102F40000E94E31385E692E10E94FF130E94E313BF
:102F500008950E94E31380E392E00E94FF130E9411
:102F6000E31382EF91E00E94FF130E94E31383EBCF
:102F700091E00E94FF130E94E31386E891E00E9413
:102F8000FF130E94E3138AE491E00E94FF130E9462
:102F9000E3138EE091E00E94FF130E94E31382EDA1
:102FA00090E00E94FF130E94E31308950E94E31330
:102FB0008DEB93E00E94FF130E94E31384EB93E0F8
:102FC0000E94FF130E94E3138BEA93E00E94FF1319
:102FD0000E94E31308958091C00088231CF480911F
:102FE000C60008958BE308950E94441380938E03D6
:102FF0000E943A1380938D03811106C080918E0345
:10300000882321F081E003C081E001C080E080934B
:103010007E0380917E038823E9F10E9401100E94C3
:1030200040100E94011082E791E00E94331027E7D0
:103030008BE292E0215080409040E1F700C0000018
:103040000E94401081E891E00E94331027E78BE254
:1030500092E0215080409040E1F700C000000E94C3
:1030600040108CE891E00E94331027E78BE292E059
:10307000215080409040E1F700C000000E944010C5
:103080000E94E3138DE991E00E94D6130E94281359
:103090000C94000008950E94F41780918003882307
:1030A00061F180917E03811128C00E9401100E946D
:1030B00040100E94E31380EE91E00E94D61388EF47
:1030C00091E00E94D61388E292E00E94331085EAD4
:1030D0009EE00197F1F700C0000080918C0390E022
:1030E0000E94E30C0E9401100E9440101092800385
:1030F00086E392E00E94D61308950E94F417089583
:10310000CF92DF92EF92FF920F931F93CF93DF93B3
:10311000CDB7DEB7C055D1090FB6F894DEBF0FBEEC
:10312000CDBF02E310E01A830983FE01339688E0E5
:10313000DF011D928A95E9F7BE016F5F7F4F80EA3C
:1031400090E00E949F0E86E0E0E0F1E0DE011B9639
:1031500001900D928A95E1F76894FF24F2F8FE0140
:103160007196DF018F2D1D928A95E9F7BE01655F8B
:103170007F4F8AE090E00E949F0E4AE050E06FEBA4
:1031800073E08AE090E00E94D90E81E491E00E9411
:10319000D6138FEB93E00E94D61384E595E49E8BC3
:1031A0008D8B188E1F8AFE01799686E0DF011D92B5
:1031B0008A95E9F7BE016B5E7F4F89E190E00E943E
:1031C0009F0E4AE050E06FEB73E089E190E00E94CF
:1031D000D90E81E491E00E94D6138FEB93E00E9418
:1031E000D61389E0EAE0F1E0DE015F9601900D92EE
:1031F0008A95E1F718A6BE01615E7F4F88E290E0F4
:103200000E949F0E4AE050E06FEB73E088E290E08E
:103210000E94D90E81E491E00E94D6138FEB93E0D7
:103220000E94D61386E0E4E1F1E0DE019996019078
:103230000D928A95E1F7FE01BF96DF011D92FA9487
:10324000E9F7BE01675D7F4F87E390E00E949F0E24
:103250004AE050E06FEB73E087E390E00E94D90E04
:1032600081E491E00E94D6138FEB93E00E94D61385
:103270000F2EF1E3EF2EF0E3FF2EF02DFCAAEBAAC8
:103280000F2EF0E3CF2ED12CF02DDEAACDAA1FAA4F
:10329000BE016D5C7F4F88E191E00E949F0EBE01F0
:1032A0006D5C7F4F86E490E00E949F0EBE016D5CD6
:1032B0007F4F80E590E00E949F0EBE016D5C7F4FC6
:1032C0008AE590E00E949F0E82E390E399AF88AF79
:1032D000DBAECAAE1CAEBE01685C7F4F84E690E0F8
:1032E0000E949F0EBE01685C7F4F8EE690E00E94B8
:1032F0009F0EBE01685C7F4F88E790E00E949F0EA2
:10330000BE01685C7F4F82E890E00E949F0EFEAE97
:10331000EDAE21961FAE1EAE219722961FAE2297CC
:10332000BE01635C7F4F8CE890E00E949F0EBE015F
:10333000635C7F4F81E990E00E949F0EBE01635C59
:103340007F4F86E990E00E949F0EBE01635C7F4F35
:103350008BE990E00E949F0EFE01EE5BFF4F019310
:10336000119313E0DF01812F1D928A95E9F7BE01C9
:103370006E5B7F4F80EA90E00E949F0E88E395E3AA
:1033800029969FAF8EAF29972B961FAE1EAE2B9717
:103390002C961FAE2C97BE01695B7F4F84EB90E0AB
:1033A0000E949F0EFE01E45BFF4F81E390E081935A
:1033B0009193DF011D921A95E9F7BE01645B7F4F7F
:1033C0008AEA90E00E949F0EC05BDF4F0FB6F89430
:1033D000DEBF0FBECDBFDF91CF911F910F91FF9048
:1033E000EF90DF90CF9008954AE050E06FEB73E0EC
:1033F00080EA90E00E94D90E8FEB93E00E94B22108
:103400000197029748F00E9480180E94E3138BE412
:1034100092E00E94D61308950E94E31388E792E099
:103420000E94D61308950E944B100E94A2100E9481
:10343000E0109093B7038093B6030E949E100E9401
:103440006D129093D9038093D80308950F931F931F
:10345000CF93DF930E94131AC0E0D0E031C02196D1
:1034600044E050E06FEB73E08AEA90E00E94D90EEE
:103470008FEB93E00E94B2218C0144E050E06FEBAF
:1034800073E084EB90E00E94D90E8FEB93E00E94F2
:10349000B2212091D8033091D903821B930B209144
:1034A000B6033091B703232B29F0BC01C8010E9459
:1034B000841306C060E070E081E090E00E94841315
:1034C000C530D10561F6DF91CF911F910F9108951D
:1034D0000F931F93CF93DF93F8940E941E0F0E94C7
:1034E000060F0E94011080EA92E00E94331027E349
:1034F00081E796E0215080409040E1F700C0000055
:103500000E94401089EA92E00E94331027E381E78D
:1035100096E0215080409040E1F700C000000E94FA
:10352000401085EB92E00E94331027E381E796E09C
:10353000215080409040E1F700C000000E94401000
:103540008FEB92E00E94331027EB8BE89CE0215038
:1035500080409040E1F700C000000E94401084E3EA
:1035600091E00E9433104AE050E06FEB73E08AE094
:1035700090E00E94D90E8FEB93E00E94331027EB6E
:103580008BE89CE0215080409040E1F700C00000B3
:103590000E94401084E391E00E9433108091B503B3
:1035A0008F938091B4038F9306E311E01F930F93E1
:1035B000CFEBD3E0DF93CF930E94D821CE010E94BE
:1035C000331097EB2BE88CE0915020408040E1F7DE
:1035D00000C000000E94401084E391E00E9433107C
:1035E0004AE050E0BE0189E190E00E94D90ECE0190
:1035F0000E94331097EB2BE88CE0915020408040E4
:10360000E1F700C000000E9440100E94401084E3D7
:1036100091E00E9433108091BD038F938091BC0391
:103620008F931F930F93DF93CF930E94D821CE01E6
:103630000E94331087EB9BE82CE0815090402040A3
:10364000E1F700C000000E94401084E391E00E9476
:1036500033104AE050E0BE0188E290E00E94D90EAB
:10366000CE010E94331087EB9BE82CE08150904004
:103670002040E1F700C000000E94401084E391E088
:103680000E9433108091BB038F938091BA038F9374
:103690001F930F93DF93CF930E94D821CE010E94F6
:1036A000331027EB8BE89CE0215080409040E1F7FD
:1036B00000C000000E94401084E391E00E9433109B
:1036C0004AE050E0BE0187E390E00E94D90ECE01AF
:1036D0000E94331027EB8BE89CE021508040904003
:1036E000E1F700C000000E9440100E94401084E3F7
:1036F00091E00E9433108091B9038F938091B803B9
:103700008F931F930F93DF93CF930E94D821CE0105
:103710000E94331097EB2BE88CE0915020408040C2
:10372000E1F700C000000E94401088EC92E00E9487
:10373000331097EB2BE88CE0915020408040E1F76C
:1037400000C000000E94401084E391E00E9433100A
:1037500080ED92E00E94331097EB2BE88CE09150C3
:1037600020408040E1F700C000000E94401084E348
:1037700091E00E9433108091D8039091D9039F93D8
:103780008F931F930F93DF93CF930E94D821CE0185
:103790000E9433108DED92E00E94331087EB9BE87E
:1037A0002CE0815090402040E1F700C000000E94D2
:1037B000401084E391E00E94331080EE92E00E947A
:1037C000331087EB9BE82CE0815090402040E1F7DC
:1037D00000C000000E94401084E391E00E9433107A
:1037E0008091B6039091B7039F938F931F930F938C
:1037F000DF93CF930E94D8218DB79EB784960FB6E2
:10380000F8949EBF0FBE8DBFCE010E94331089EE8B
:1038100092E00E9433109FED22EB83E09150204014
:103820008040E1F700C0000097EB2BE88CE091505E
:1038300020408040E1F700C000000E944010DF916E
:10384000CF911F910F9108950E945C1380938B0379
:103850000E94671380938A0380918003811173C053
:1038600080918B03813009F06EC080918C038F5F53
:1038700080938C03853019F481E080938C030E943F
:1038800001108091830390918403019731F40E9489
:10389000681A109284031092830380918C03823003
:1038A000D1F018F4813031F049C0833029F18430EF
:1038B000A1F144C04AE050E06FEB73E08AE090E091
:1038C0000E94D90E86E291E00E9433108FEB93E0C4
:1038D0000E94331008954AE050E06FEB73E089E1F5
:1038E00090E00E94D90E86E291E00E9433108FEBA7
:1038F00093E00E94331008954AE050E06FEB73E0CC
:1039000088E290E00E94D90E86E291E00E94331096
:103910008FEB93E00E94331008954AE050E06FEB84
:1039200073E087E390E00E94D90E86E291E00E9466
:1039300033108FEB93E00E943310089581E0809361
:103940008C030E94241C08950E94441380938E03CC
:103950000E943A1380938D03811106C080918E03DB
:10396000882321F081E003C081E001C080E08093E2
:103970007E0380917E0381110E94F4170895CF93F6
:10398000DF9380E00E94D209C8E7D0E068817981A6
:1039900080E090E00E94892020E030EC4FE754E482
:1039A0000E94E11F20E030E048EC52E40E94172121
:1039B0000E9453207093B5036093B40381E00E948A
:1039C000D2096881798180E090E00E94892020E01E
:1039D00030EC4FE754E40E94E11F20E030E048EC77
:1039E00052E40E9417210E9453207093BD036093FC
:1039F000BC0382E00E94D2096881798180E090E076
:103A00000E94892020E030EC4FE754E40E94E11F3F
:103A100020E030E048EC52E40E9417210E9453203D
:103A20007093BB036093BA0383E00E94D20968815C
:103A3000798180E090E00E94892020E030EC4FE71F
:103A400054E40E94E11F20E030E048EC52E40E9480
:103A500017210E9453207093B9036093B803DF913C
:103A6000CF9108950E94BF1C0E94131A0E94A41CAB
:103A70000E94241C08950E9428130E94C1090E94DC
:103A8000C3130E942D130E944F130E947313809141
:103A90007F03811111C080917E0381110DC00E94AE
:103AA0000E1481E080937F030E9401108CEE92E05F
:103AB0000E9433100E941E0F0E94F4190E94D81415
:103AC0000E949B130E94AC130895EF92FF920F93F4
:103AD0001F93CF93DF930E94EB178093D703E0915E
:103AE000D7038E2F90E0FC01F197EA32F10508F040
:103AF0002BC1EC5CFF4F0C9498216091D80370911E
:103B0000D9038091B6039091B703E090B803F09089
:103B1000B9030091BA031091BB032091BC0330910B
:103B2000BD034091B4035091B5030E94FD148CEF86
:103B300092E08093D70308C10E940C168CEF92E0AC
:103B40008093D70301C10E9449148CEF92E08093C7
:103B5000D703FAC00E94E3138EEF92E00E94D613BF
:103B60000E940C160E94E3138EE293E00E94D6138B
:103B70000E94E3138CEF92E08093D703E5C084EBBF
:103B800090E00E94490D8CEF92E08093D703DCC057
:103B90000E946D178AE090E00E94AC0D8CEF92E0DD
:103BA0008093D703D1C00E946D1789E190E00E94F5
:103BB000AC0D8CEF92E08093D703C6C00E946D17C6
:103BC00088E290E00E94AC0D8CEF92E08093D703E6
:103BD000BBC00E946D1787E390E00E94AC0D8CEF94
:103BE00092E08093D703B0C08CEF92E08093D7032C
:103BF000ABC08AEA90E00E94490D8CEF92E080937E
:103C0000D703A2C088E191E00E94290E8CEF92E0D8
:103C10008093D70399C086E490E00E94290E94C057
:103C200080E590E00E94290E8CEF92E08093D7030C
:103C30008BC08AE590E00E94290E8CEF92E0809381
:103C4000D70382C084E690E00E94290E8CEF92E0B8
:103C50008093D7038093D70377C08CEF92E0809353
:103C6000D7038EE690E00E94290E6EC08CEF92E0A2
:103C70008093D70388E790E00E94290E65C0CCEFBF
:103C8000D2E0C093D70382E890E00E94290EC0934F
:103C9000D7035AC08CEF92E08093D7038CE890E072
:103CA0000E94490D51C08CEF92E08093D70381E9C7
:103CB00090E00E94490D48C08CEF92E08093D703BA
:103CC00086E990E00E94490D3FC08CEF92E080931E
:103CD000D7038BE990E00E94490D36C00E94D617A9
:103CE0008CEF92E08093D7032FC064E773E080EA03
:103CF00090E00E949F0E0E94E3130E94D8140E943D
:103D0000E3138CEF92E08093D7031EC00E94E3136D
:103D100066E773E080EA90E00E949F0E0E94D8144C
:103D20000E94E3138CEF92E08093D7030DC00E94B2
:103D3000D8148CEF92E08093D70306C00E948018BD
:103D40008CEF92E08093D703DF91CF911F910F9179
:103D5000FF90EF900895F8940E943B1DC0E0D0E0E2
:103D600003C00E94321D2196C630D105D4F3789449
:103D70000E94F41778940E94F4170E944B180E9436
:103D8000651DF8CF1F920F920FB60F9211242F933B
:103D90003F934F935F936F937F938F939F93AF93D3
:103DA000BF93EF93FF930E94321D0E94261AFF914A
:103DB000EF91BF91AF919F918F917F916F915F91A3
:103DC0004F913F912F910F900FBE0F901F9018951C
:103DD0001F920F920FB60F9211242F933F934F9380
:103DE0005F936F937F938F939F93AF93BF93CF9383
:103DF000EF93FF9389B1C82FC07480918103909194
:103E000082030196909382038093810380918103C2
:103E100090918203C79741F40E94241C0E94A41C25
:103E2000109282031092810380918A03882329F0E3
:103E300080918B03811103C003C080E001C081E049
:103E400080938903809189038823A1F08091850361
:103E500090918603A0918703B09188030196A11DDC
:103E6000B11D8093850390938603A0938703B0933D
:103E7000880309C0C11107C080918B03811103C061
:103E800081E080938003809189038823D9F0809119
:103E9000850390918603A0918703B0918803843CA9
:103EA0009940A105B10570F081E090E09093840302
:103EB00080938303109285031092860310928703E8
:103EC00010928803FF91EF91CF91BF91AF919F9195
:103ED0008F917F916F915F914F913F912F910F90B3
:103EE0000FBE0F901F9018955058BB27AA270E940D
:103EF0008C1F0C94DD200E94CF2038F00E94D62029
:103F000020F039F49F3F19F426F40C94CC200EF4E1
:103F1000E095E7FB0C94C620E92F0E94EE2058F3B1
:103F2000BA17620773078407950720F079F4A6F59E
:103F30000C9410210EF4E0950B2EBA2FA02D0B013E
:103F4000B90190010C01CA01A0011124FF27591BDE
:103F500099F0593F50F4503E68F11A16F040A22FE4
:103F6000232F342F4427585FF3CF46953795279555
:103F7000A795F0405395C9F77EF41F16BA0B620B54
:103F8000730B840BBAF09150A1F0FF0FBB1F661F9B
:103F9000771F881FC2F70EC0BA0F621F731F841FDE
:103FA00048F4879577956795B795F7959E3F08F004
:103FB000B0CF9395880F08F09927EE0F97958795C6
:103FC00008950E94F51F0C94DD200E94D62058F021
:103FD0000E94CF2040F029F45F3F29F00C94C620C6
:103FE00051110C9411210C94CC200E94EE2068F306
:103FF0009923B1F3552391F3951B550BBB27AA27A2
:1040000062177307840738F09F5F5F4F220F331FDB
:10401000441FAA1FA9F335D00E2E3AF0E0E832D0A3
:1040200091505040E695001CCAF72BD0FE2F29D0A6
:10403000660F771F881FBB1F261737074807AB0778
:10404000B0E809F0BB0B802DBF01FF2793585F4FED
:104050003AF09E3F510578F00C94C6200C94112143
:104060005F3FE4F3983ED4F3869577956795B795CF
:10407000F7959F5FC9F7880F911D9695879597F9DA
:104080000895E1E0660F771F881FBB1F6217730753
:104090008407BA0720F0621B730B840BBA0BEE1F68
:1040A00088F7E09508950E945A206894B1110C9405
:1040B000112108950E94F62088F09F5798F0B92F9B
:1040C0009927B751B0F0E1F0660F771F881F991F4D
:1040D0001AF0BA95C9F714C0B13091F00E941021BE
:1040E000B1E008950C941021672F782F8827B85FCE
:1040F00039F0B93FCCF3869577956795B395D9F7A5
:104100003EF490958095709561957F4F8F4F9F4FAE
:104110000895E89409C097FB3EF4909580957095BA
:1041200061957F4F8F4F9F4F9923A9F0F92F96E903
:10413000BB279395F695879577956795B795F11178
:10414000F8CFFAF4BB0F11F460FF1BC06F5F7F4F15
:104150008F4F9F4F16C0882311F096E911C0772327
:1041600021F09EE8872F762F05C0662371F096E830
:10417000862F70E060E02AF09A95660F771F881FFF
:10418000DAF7880F9695879597F9089597F99F67BD
:1041900080E870E060E008959FEF80EC08950024CF
:1041A0000A941616170618060906089500240A949C
:1041B00012161306140605060895092E0394000C22
:1041C00011F4882352F0BB0F40F4BF2B11F460FFB1
:1041D00004C06F5F7F4F8F4F9F4F089557FD9058DA
:1041E000440F551F59F05F3F71F04795880F97FBBB
:1041F000991F61F09F3F79F0879508951216130675
:104200001406551FF2CF4695F1DF08C016161706A3
:104210001806991FF1CF86957105610508940895D8
:10422000E894BB2766277727CB0197F908950E946A
:104230002A210C94DD200E94CF2038F00E94D62045
:1042400020F0952311F00C94C6200C94CC2011245E
:104250000C9411210E94EE2070F3959FC1F3950FED
:1042600050E0551F629FF001729FBB27F00DB11DFA
:10427000639FAA27F00DB11DAA1F649F6627B00D8A
:10428000A11D661F829F2227B00DA11D621F739F73
:10429000B00DA11D621F839FA00D611D221F749F81
:1042A0003327A00D611D231F849F600D211D822FC8
:1042B000762F6A2F11249F5750409AF0F1F08823EF
:1042C0004AF0EE0FFF1FBB1F661F771F881F91501C
:1042D0005040A9F79E3F510580F00C94C6200C94E5
:1042E00011215F3FE4F3983ED4F386957795679567
:1042F000B795F795E7959F5FC1F7FE2B880F911D46
:104300009695879597F9089597FB072E16F40094D4
:1043100007D077FD09D00E949E2107FC05D03EF40E
:10432000909581959F4F0895709561957F4F089561
:10433000EE0FFF1F0590F491E02D0994AA1BBB1B03
:1043400051E107C0AA1FBB1FA617B70710F0A61B95
:10435000B70B881F991F5A95A9F780959095BC01B6
:10436000CD010895FC0188279927E89421912032F6
:10437000E9F3293010F02E30C8F32B3241F02D3202
:1043800039F4689404C00E94D021820F911D2191BC
:1043900020532A30C0F31EF4909581959F4F0895C5
:1043A0007AE0979F902D879F802D910D112408957D
:1043B000AEE0B0E0EEEDF1E20C9499240D891E8997
:1043C00086E08C831A8309838FEF9FE79E838D831A
:1043D000AE01475E5F4F6F89788DCE0101960E94D6
:1043E000FA21EF81F885E00FF11F10822E96E4E0AC
:1043F0000C94B524ABE0B0E0E0E0F2E20C948B2446
:104400006C017B018A01FC0117821682838181FF86
:10441000CCC1CE0101963C01F6019381F70193FDD9
:10442000859193FF81917F01882309F4BAC1853278
:1044300039F493FD859193FF81917F01853229F4B1
:10444000B60190E00E94F123E7CF912C212C312C72
:10445000FFE1F315D8F08B3279F038F4803279F03F
:104460008332A1F4232D20611DC08D3261F0803391
:1044700069F4232D216016C0832D8260382EE32D30
:10448000E4603E2E2AC0F32DF8601DC037FC2DC01D
:1044900020ED280F2A3040F08E32B9F436FC81C16D
:1044A000232D2064322E19C036FE06C08AE0989E65
:1044B000200D1124922E11C0EAE02E9E200D112411
:1044C000222EF32DF0623F2E08C08C3621F4832D6E
:1044D0008068382E02C0883641F4F70193FD85913B
:1044E00093FF81917F018111B3CF982F9F7D9554C8
:1044F000933028F40C5F1F4F9FE399830DC08336E0
:1045000031F0833771F0833509F059C021C0F801CB
:10451000808189830E5F1F4F88248394912C5301DF
:1045200013C02801F2E04F0E511CF801A080B180A9
:1045300036FE03C0692D70E002C06FEF7FEFC5014A
:104540000E94E6234C018201F32DFF773F2E16C017
:10455000280122E0420E511CF801A080B18036FEF5
:1045600003C0692D70E002C06FEF7FEFC5010E94AC
:10457000DB234C01F32DF0683F2E820133FC1BC07E
:10458000822D90E088169906B0F4B60180E290E0A2
:104590000E94F1232A94F4CFF50137FC859137FE70
:1045A00081915F01B60190E00E94F12321102A94CD
:1045B00021E0821A91088114910471F7E8C08436D1
:1045C00011F0893641F5F80137FE07C0608171812D
:1045D000828193810C5F1F4F08C060817181072E1B
:1045E000000C880B990B0E5F1F4FF32DFF763F2EAB
:1045F00097FF09C090958095709561957F4F8F4F7B
:104600009F4FF0683F2E2AE030E0A3010E942D2446
:10461000882E861845C0853731F4232D2F7EB22E83
:104620002AE030E025C0932D997FB92E8F36C1F056
:1046300018F4883579F0B5C0803719F0883721F043
:10464000B0C0E92FE061BE2EB4FE0DC0FB2DF460BA
:10465000BF2E09C034FE0AC0292F2660B22E06C024
:1046600028E030E005C020E130E002C020E132E087
:10467000F801B7FE07C060817181828193810C5F70
:104680001F4F06C06081718180E090E00E5F1F4F78
:10469000A3010E942D24882E8618FB2DFF773F2E24
:1046A00036FE0DC0232D2E7FA22E891458F434FE21
:1046B0000BC032FC09C0832D8E7EA82E05C0B82CFD
:1046C000A32C03C0B82C01C0B92CA4FE0FC0FE015E
:1046D000E80DF11D8081803321F49A2D997EA92E59
:1046E00009C0A2FE06C0B394B39404C08A2D867894
:1046F00009F0B394A3FC11C0A0FE06C0B21488F464
:10470000280C922C9B180EC0B21460F4B60180E203
:1047100090E00E94F123B394F7CFB21418F42B1851
:1047200002C0982C212CA4FE10C0B60180E390E0BA
:104730000E94F123A2FE17C0A1FC03C088E790E00D
:1047400002C088E590E0B6010CC08A2D867859F049
:10475000A1FE02C08BE201C080E2A7FC8DE2B6019F
:1047600090E00E94F123891438F4B60180E390E0D0
:104770000E94F1239A94F7CF8A94F301E80DF11D7A
:104780008081B60190E00E94F1238110F5CF2220B4
:1047900009F442CEB60180E290E00E94F1232A940F
:1047A000F6CFF6018681978102C08FEF9FEF2B969F
:1047B000E2E10C94A724FC010590615070400110C7
:1047C000D8F7809590958E0F9F1F0895FC0161503A
:1047D000704001900110D8F7809590958E0F9F1F23
:1047E00008950F931F93CF93DF93FB01238121FD46
:1047F00003C08FEF9FEF2CC022FF16C04681578168
:10480000248135814217530744F4A081B1819D0171
:104810002F5F3F4F318320838C93268137812F5F19
:104820003F4F3783268314C08B01EC01FB010084CA
:10483000F185E02D0995892BE1F6D80116968D9129
:104840009C911797019617969C938E931697CE017D
:10485000DF91CF911F910F910895FA01AA27283077
:1048600051F1203181F1E8946F936E7F6E5F7F4F3D
:104870008F4F9F4FAF4FB1E03ED0B4E03CD0670FB9
:10488000781F891F9A1FA11D680F791F8A1F911D0C
:10489000A11D6A0F711D811D911DA11D20D009F45C
:1048A00068943F912AE0269F11243019305D31939E
:1048B000DEF6CF010895462F4770405D4193B3E087
:1048C0000FD0C9F7F6CF462F4F70405D4A3318F02E
:1048D000495D31FD4052419302D0A9F7EACFB4E0DF
:1048E000A6959795879577956795BA95C9F7009797
:1048F0006105710508959B01AC010A2E0694579538
:10490000479537952795BA95C9F7620F731F841F8E
:10491000951FA01D08952F923F924F925F926F9224
:104920007F928F929F92AF92BF92CF92DF92EF923F
:10493000FF920F931F93CF93DF93CDB7DEB7CA1BC0
:10494000DB0B0FB6F894DEBF0FBECDBF09942A88EB
:10495000398848885F846E847D848C849B84AA8493
:10496000B984C884DF80EE80FD800C811B81AA8120
:10497000B981CE0FD11D0FB6F894DEBF0FBECDBFEB
:08498000ED010895F894FFCF4A
:10498800434146464500000000005945524249410E
:10499800444F00004C415454450000000000256479
:1049A8002E25303464002D0054656D706572617475
:1049B8007572613A2000256400426562696461206D
:1049C80031202D3E004265626964612032202D3E0F
:1049D800004265626964612033202D3E00426562B1
:1049E8006964612034202D3E0030204C6974726F58
:1049F8007300204552524F52205055455254412081
:104A0800002041424945525441204F002054415A08
:104A180041204D414C20505545535441003E3E45A0
:104A280052524F523A20436965727265206C612078
:104A3800707565727461206F20636F6C6F71756536
:104A4800206269656E206C612074617A61207061F2
:104A5800726120636F6E74696E7561722E2E2E00FE
:104A6800536520696E696369F320656C207365720C
:104A78007669646F2E2E2E00436F6E736F6C612003
:104A8800626C6F717565616461206861737461201F
:104A98007465726D696E61722020656C2070726F2A
:104AA8006365736F2E2E2E00205369727669656ECA
:104AB800646F2E2E2E003E3E5365727669646F2019
:104AC80066696E616C697A61646F00204C6120636D
:104AD800616665746572612066756520636F6E66D0
:104AE8006967757261646120657869746F73616D57
:104AF800656E7465203A29004C61206361666574AF
:104B0800657261206573746120636F6E666967758D
:104B1800726164612079206C69737461203A29009C
:104B2800204D65646964617300204E6976656C6523
:104B3800732064650020506F6C766F732025002009
:104B48002820656E20252900204269646F6E3A008E
:104B58003E54656D7065726174757261002A430018
:104B68003E566F6C756D656E006D6C002042696510
:104B78006E76656E69646F20557755002C003E3E51
:104B880044656C207369677569656E7465206C6926
:104B9800737461646F2C206573636F6A612071752B
:104BA8006520636F6E666967757261723A003E3E92
:104BB80053656C656363696F6E6520756E6120640B
:104BC80065206C617320616E746572696F726573BC
:104BD800206F7063696F6E657320792073696761F0
:104BE800206C617320696E737472756363696F6E8C
:084BF80065732000310032005A
:00000001FF
