:100000000C9434000C9451000C9451000C94510049
:100010000C9451000C9451000C9451000C9451001C
:100020000C9451000C9451000C9451000C948705D1
:100030000C9451000C9451000C9451000C945100FC
:100040000C9451000C9451000C9451000C945100EC
:100050000C9451000C9451000C9451000C945100DC
:100060000C9451000C94510011241FBECFEFD8E026
:10007000DEBFCDBF11E0A0E0B1E0E6E1F8E102C0F3
:1000800005900D92AC38B107D9F721E0ACE8B1E0AA
:1000900001C01D92A93DB207E1F70E94E4060C944D
:1000A000090C0C940000ECE7F0E080818064808310
:1000B00080818F7D8083EAE7F0E0808187608083A4
:1000C0008081806880830895ECE7F0E09081907FE4
:1000D00090839081892B8083EAE7F0E080818064BF
:1000E000808380917A0086FDFCCF089589E180931A
:1000F000B8001092B900089584EA8093BC00809102
:10010000BC008823E4F708958093BB0084E88093C3
:10011000BC008091BC008823E4F7089584E98093B3
:10012000BC008091BC0080FDFCCF0895EBEBF0E0BB
:1001300080818260808384E88093BC008091BC00D1
:100140008823E4F789EF90E00197F1F700C0000001
:10015000EBEBF0E080818D7F808384E88093BC00AE
:100160008091BC008823E4F70895EBEBF0E09081E8
:100170009E7F908394E89093BC009091BC0099235B
:10018000E4F7EBEBF0E090819F70908394E890931C
:10019000BC009091BC009923E4F7EBEBF0E0908178
:1001A000807F892B808384E88093BC008091BC0091
:1001B0008823E4F70E9496000895CF93C82FEBEBB5
:1001C000F0E080818E7F808384E88093BC00809102
:1001D000BC008823E4F7EBEBF0E080818F70808334
:1001E00084E88093BC008091BC008823E4F7EBEBAB
:1001F000F0E080819C2F907F892B808384E880931E
:10020000BC008091BC008823E4F70E949600EBEBD1
:10021000F0E080818F70808384E88093BC008091BF
:10022000BC008823E4F7EBEBF0E0208130E1C39FD2
:10023000C0011124822B808384E88093BC008091CC
:10024000BC008823E4F70E949600CF910895CF93D5
:10025000C82FEBEBF0E080818160808384E880939D
:10026000BC008091BC008823E4F7EBEBF0E08081D8
:100270008F70808384E88093BC008091BC008823C9
:10028000E4F7EBEBF0E080819C2F907F892B80835B
:1002900084E88093BC008091BC008823E4F70E942E
:1002A0009600EBEBF0E080818F70808384E8809390
:1002B000BC008091BC008823E4F7EBEBF0E02081E8
:1002C00030E1C39FC0011124822B808384E8809396
:1002D000BC008091BC008823E4F70E949600CF9177
:1002E00008950E9476000E947C0080E40E948400B1
:1002F00081EE94E00197F1F700C0000080E30E94D6
:10030000B50081EE94E00197F1F700C0000080E3B2
:100310000E94B50080E20E94B50081EE94E0019752
:10032000F1F700C0000088E20E94DD008CE00E942E
:10033000DD0081E00E94DD0086E00E94DD0080E8B3
:100340000E94DD000895CF93DF93EC0103C0219656
:100350000E94270188818111FACFDF91CF91089502
:1003600081E00E94DD0081E28A95F1F7000080E8DB
:100370000E94DD0008952FEF86E496E8215080402A
:100380009040E1F700C000000E94B00186E191E0DA
:100390000E94A30183EC99E00197F1F700C00000EF
:1003A000089585E08093B800089584EA8093BC00A6
:1003B0008091BC008823E4F708958093BB0084E813
:1003C0008093BC008091BC008823E4F7089584ECFE
:1003D0008093BC008091BC008823E4F78091BB002F
:1003E00090E0A0E0B0E08093990190939A01A093EF
:1003F0009B01B0939C0184EC8093BC008091BC0075
:100400008823E4F78091BB0090E0A0E0B0E0809307
:10041000A1019093A201A093A301B093A40184E849
:100420008093BC008091BC008823E4F78091BB00DE
:1004300090E0A0E0B0E080939D0190939E01A09396
:100440009F01B093A001089584E98093BC000895B2
:100450000E94D50180ED0E94DD018CE10E94DD014A
:100460000E9424020895CF93DF930E94D1010E943D
:1004700028020E94D50181ED0E94DD010E94E70162
:100480002091990180E090E0922F990F990FC091EF
:10049000A101D091A201CC0FDD1FCC0FDD1FC82B15
:1004A000D92B80919D0190919E01082E892F000CDF
:1004B000881F990B000C881F991FC82BD92B2297D6
:1004C0000E942402CE01DF91CF9108950E94330251
:1004D000BC01990F880B990B0E94000820E030E0C6
:1004E00040E050E40E94EA0620E030E04AE754E4AD
:1004F0000E948C0820E030EE4FEF54E40E94560733
:1005000020E030E040EA51E40E948C080E94C807D5
:10051000CB01089594EA9093BC009091BC0099237C
:10052000E4F79091B9009B7F983009F057C090E9AB
:100530009093BB0094E89093BC009091BC009923E9
:10054000E4F79091B9009B7F983109F047C0809300
:10055000BB0084E88093BC008091BC008823E4F752
:100560008091B9008B7F8832C9F584EA8093BC0002
:100570008091BC008823E4F78091B9008B7F8031A3
:1005800069F581E98093BB0084E88093BC00809189
:10059000BC008823E4F78091B9008B7F8034F1F4AC
:1005A00015C02115310521F484E88093BC0003C0F7
:1005B00084EC8093BC008091BC008823E4F7809198
:1005C000BB00FB018083A9016F5F7F4F9A0121501F
:1005D0003109452B31F784E98093BC00089594EAF2
:1005E0009093BC009091BC009923E4F79091B900DE
:1005F0009B7F9830D1F590E99093BB0094E890935D
:10060000BC009091BC009923E4F79091B9009B7FC6
:10061000983159F58093BB0084E88093BC008091A9
:10062000BC008823E4F78091B9008B7F8832E9F41D
:1006300014C0FB013196DB018C918093BB0084E8F0
:100640008093BC008091BC008823E4F78091B900BE
:10065000A9018B7F883249F4BF019A0121503109E9
:10066000452B39F784E98093BC0008951F93CF93FD
:10067000DF931F92CDB7DEB7182F41E050E0BE01E7
:100680006F5F7F4F81E00E948A028981282F2F7936
:1006900030E2139FC0011124822B898341E050E096
:1006A000BE016F5F7F4F81E00E94EF020F90DF91EC
:1006B000CF911F9108951F93CF93DF931F92CDB7D2
:1006C000DEB7182F41E050E0BE016F5F7F4F81E041
:1006D0000E948A0289818E7F182B198341E050E0A5
:1006E000BE016F5F7F4F81E00E94EF020F90DF91AC
:1006F000CF911F910895EF92FF921F93CF93DF93B5
:1007000000D0CDB7DEB742E050E0BE016F5F7F4F53
:1007100080E00E948A02E980FA80B701772780E0B2
:1007200090E00E94FE071F2DF7FE06C020E030E09B
:1007300040E05FE30E94EA0616FF06C020E030E0DA
:1007400040E85EE30E94EA0615FF06C020E030E0C4
:1007500040E05EE30E94EA0614FF06C020E030E0BD
:1007600040E85DE30E94EA060F900F90DF91CF9181
:100770001F91FF90EF9008958F929F92AF92BF923A
:10078000CF92DF92EF92FF920F931F93CF93DF935D
:10079000CDB7DEB7AA970FB6F894DEBF0FBECDBFB8
:1007A0000E94910483E00E94360380E00E945B0374
:1007B00001E010E03CC00E947B034B015C010E9401
:1007C000C8076B017C01072E000C880B990B0E9457
:1007D00000089B01AC01C501B4010E94E90620E0BC
:1007E00030E44CE156E40E948C080E94C8079B014B
:1007F000772324F422273327261B370B3F932F938D
:10080000DF92CF9280E091E09F938F93CE0101968B
:100810009F938F930E941F0987E191E00E94A40497
:100820000F5F1F4F0FB6F894DEBF0FBECDBF0B3F5B
:1008300011050CF287E191E00E94A404CE0101961B
:100840000E94F9089F938F9388E191E09F938F9383
:100850008E010F5D1F4F1F930F930E941F09C80148
:100860000E94F9080F900F900F900F900F900F902B
:10087000AA960FB6F894DEBF0FBECDBFDF91CF9121
:100880001F910F91FF90EF90DF90CF90BF90AF90AE
:100890009F908F9008958AB1877F8AB98AB18F7EA1
:1008A0008AB98BB188608BB98BB180618BB908959F
:1008B00089B182958F7091E08927817080938E0134
:1008C00090E0089589B186958695869591E089276F
:1008D000817080938F0190E008958AB18F7D8AB9ED
:1008E0008AB18F7B8AB98BB180628BB98BB18064FE
:1008F0008BB9089589B182958695877091E0892793
:10090000817080938D0190E0089589B182958695DC
:100910008695837091E08927817080938C0190E0A7
:1009200008951092C50087E68093C40088E1809303
:10093000C10086E08093C20008959091C00095FFA9
:10094000FCCF8093C6000895CF93DF93EC0103C0E2
:100950000E949D04219688818111FACFDF91CF9169
:1009600008958DE00E949D048AE00E949D040895F0
:100970000F931F93CF93DF938BE191E00E94A3012C
:100980000E94BB0184E291E00E94A3010E94BB018E
:100990008FE291E00E94A3010E94BB0188E391E0F5
:1009A0000E94A3010E94BB018091B6018F938091A8
:1009B000B5018F9308E111E01F930F93CFEBD1E0C6
:1009C000DF93CF930E941F09CE010E94A3010E94D2
:1009D000BB018091BE018F938091BD018F931F93C6
:1009E0000F93DF93CF930E941F09CE010E94A301B2
:1009F0000E94BB018091BC018F938091BB018F93BA
:100A00001F930F93DF93CF930E941F09CE010E9483
:100A1000A3010E94BB018091BA018F938091B9011B
:100A20008F931F930F93DF93CF930E941F09CE01E3
:100A30000E94A3010E94BB0180E491E00E94A301F7
:100A40000E94BB0187E491E00E94A3010E94BB01C8
:100A50008091D8018F938091D7018F931F930F932B
:100A6000DF93CF930E941F09CE010E94A30184E56A
:100A700091E00E94A3010E94BB0187E591E00E94E2
:100A8000A3010E94BB018091B8018F938091B701AF
:100A90008F931F930F93DF93CF930E941F098DB7FE
:100AA0009EB784960FB6F8949EBF0FBE8DBFCE0141
:100AB0000E94A30180E691E00E94A3010E94B1047C
:100AC000CE010E94A4049FED22EB83E091502040D0
:100AD0008040E1F700C000000E94BB01DF91CF9190
:100AE0001F910F910895E1E8F0E080818860808394
:100AF00080E490E09093890080938800AFE6B0E0B6
:100B00008C9182608C9380818360808308951F9292
:100B10000F920FB60F9211242F933F934F935F9331
:100B20006F937F938F939F93AF93BF93EF93FF93B5
:100B300080919401813081F480919301813061F43E
:100B400080919101909192010196909392018093EE
:100B500091011092900106C01092920110929101A1
:100B600010929001809191019091920187339A4463
:100B700019F581E0809390011092920110929101F9
:100B80001F928F9388E191E09F938F938FEB91E079
:100B90009F938F930E941F098FEB91E00E94A40402
:100BA0000E9471010E94B8040E948E000F900F9065
:100BB0000F900F900F900F90FF91EF91BF91AF9119
:100BC0009F918F917F916F915F914F913F912F9165
:100BD0000F900FBE0F901F9018950E947A0480937B
:100BE00094010E9485048093930180919401813047
:100BF00009F041C0809195018F5F80939501853008
:100C000061F481E08093950108C080919001811189
:100C100004C00E947A0480939401809194018130F1
:100C2000A1F30E94710180919501823071F018F456
:100C3000813031F019C0833069F0843081F014C004
:100C400083E691E00E94A30108958DE691E00E9461
:100C5000A301089587E791E00E94A301089581E828
:100C600091E00E94A301089581E08093950183E6BD
:100C700091E00E94A30108950E946204809397016D
:100C80000E945804809396010895CF93DF9380E0EB
:100C900090E00E946400C8E7D0E06881798180E03C
:100CA00090E00E94FE0720E030EC4FE754E40E9401
:100CB000560720E030E048EC52E40E948C080E9485
:100CC000C8077093B6016093B50181E090E00E947F
:100CD00064006881798180E090E00E94FE0720E056
:100CE00030EC4FE754E40E94560720E030E048EC37
:100CF00052E40E948C080E94C8077093BE01609362
:100D0000BD0182E090E00E9464006881798180E00A
:100D100090E00E94FE0720E030EC4FE754E40E9490
:100D2000560720E030E048EC52E40E948C080E9414
:100D3000C8077093BC016093BB0183E090E00E9400
:100D400064006881798180E090E00E94FE0720E0E5
:100D500030EC4FE754E40E94560720E030E048ECC6
:100D600052E40E948C080E94C8077093BA016093F5
:100D7000B901DF91CF9108950E94D1010E9428020C
:100D80000E9466029093B8018093B7010E942402EA
:100D90000E94BC039093D8018093D70108950E94CC
:100DA00045060E94BC060E943C060E94ED0508957F
:100DB0000E9453000E9491040E944B040E946D0403
:100DC0000E947305789408950E94D8060E94CF0669
:100DD000FDCF5058BB27AA270E9401070C94520848
:100DE0000E94440838F00E944B0820F039F49F3FDD
:100DF00019F426F40C9441080EF4E095E7FB0C94EA
:100E00003B08E92F0E94630858F3BA17620773077B
:100E10008407950720F079F4A6F50C9485080EF464
:100E2000E0950B2EBA2FA02D0B01B90190010C01FA
:100E3000CA01A0011124FF27591B99F0593F50F412
:100E4000503E68F11A16F040A22F232F342F44276A
:100E5000585FF3CF469537952795A795F040539562
:100E6000C9F77EF41F16BA0B620B730B840BBAF032
:100E70009150A1F0FF0FBB1F661F771F881FC2F79D
:100E80000EC0BA0F621F731F841F48F487957795B1
:100E90006795B795F7959E3F08F0B0CF9395880F6B
:100EA00008F09927EE0F9795879508950E946A0795
:100EB0000C9452080E944B0858F00E94440840F0DD
:100EC00029F45F3F29F00C943B0851110C948608DB
:100ED0000C9441080E94630868F39923B1F35523E9
:100EE00091F3951B550BBB27AA276217730784073D
:100EF00038F09F5F5F4F220F331F441FAA1FA9F3D3
:100F000035D00E2E3AF0E0E832D091505040E695C0
:100F1000001CCAF72BD0FE2F29D0660F771F881F21
:100F2000BB1F261737074807AB07B0E809F0BB0B14
:100F3000802DBF01FF2793585F4F3AF09E3F510528
:100F400078F00C943B080C9486085F3FE4F3983EDD
:100F5000D4F3869577956795B795F7959F5FC9F711
:100F6000880F911D9695879597F90895E1E0660F92
:100F7000771F881FBB1F621773078407BA0720F00B
:100F8000621B730B840BBA0BEE1F88F7E095089574
:100F90000E94CF076894B1110C94860808950E94AE
:100FA0006B0888F09F5798F0B92F9927B751B0F088
:100FB000E1F0660F771F881F991F1AF0BA95C9F7DD
:100FC00014C0B13091F00E948508B1E008950C94EE
:100FD0008508672F782F8827B85F39F0B93FCCF3A1
:100FE000869577956795B395D9F73EF4909580955A
:100FF000709561957F4F8F4F9F4F0895E89409C07A
:1010000097FB3EF490958095709561957F4F8F4F3B
:101010009F4F9923A9F0F92F96E9BB279395F69551
:10102000879577956795B795F111F8CFFAF4BB0FCF
:1010300011F460FF1BC06F5F7F4F8F4F9F4F16C033
:10104000882311F096E911C0772321F09EE8872FBD
:10105000762F05C0662371F096E8862F70E060E079
:101060002AF09A95660F771F881FDAF7880F9695F2
:10107000879597F9089597F99F6780E870E060E099
:1010800008959FEF80EC089500240A941616170621
:1010900018060906089500240A9412161306140669
:1010A00005060895092E0394000C11F4882352F0CC
:1010B000BB0F40F4BF2B11F460FF04C06F5F7F4F84
:1010C0008F4F9F4F089557FD9058440F551F59F06B
:1010D0005F3F71F04795880F97FB991F61F09F3F25
:1010E00079F087950895121613061406551FF2CF4E
:1010F0004695F1DF08C0161617061806991FF1CF9E
:1011000086957105610508940895E894BB276627C4
:101110007727CB0197F908950E949F080C945208F5
:101120000E94440838F00E944B0820F0952311F0EB
:101130000C943B080C94410811240C9486080E94DE
:10114000630870F3959FC1F3950F50E0551F629FA0
:10115000F001729FBB27F00DB11D639FAA27F00D10
:10116000B11DAA1F649F6627B00DA11D661F829F37
:101170002227B00DA11D621F739FB00DA11D621F1C
:10118000839FA00D611D221F749F3327A00D611D39
:10119000231F849F600D211D822F762F6A2F11241B
:1011A0009F5750409AF0F1F088234AF0EE0FFF1F4E
:1011B000BB1F661F771F881F91505040A9F79E3FA5
:1011C000510580F00C943B080C9486085F3FE4F3D3
:1011D000983ED4F3869577956795B795F795E795FB
:1011E0009F5FC1F7FE2B880F911D9695879597F904
:1011F0000895FC0188279927E89421912032E9F38A
:10120000293010F02E30C8F32B3241F02D3239F452
:10121000689404C00E941709820F911D21912053E8
:101220002A30C0F31EF4909581959F4F08957AE07F
:10123000979F902D879F802D910D11240895AEE0EA
:10124000B0E0E5E2F9E00C94E00B0D891E8986E040
:101250008C831A8309838FEF9FE79E838D83AE0172
:10126000475E5F4F6F89788DCE0101960E944109DC
:10127000EF81F885E00FF11F10822E96E4E00C94C8
:10128000FC0BABE0B0E0E7E4F9E00C94D20B6C01AE
:101290007B018A01FC0117821682838181FFCCC108
:1012A000CE0101963C01F6019381F70193FD8591F2
:1012B00093FF81917F01882309F4BAC1853239F403
:1012C00093FD859193FF81917F01853229F4B601C9
:1012D00090E00E94380BE7CF912C212C312CFFE1BC
:1012E000F315D8F08B3279F038F4803279F083320C
:1012F000A1F4232D20611DC08D3261F0803369F48B
:10130000232D216016C0832D8260382EE32DE460EA
:101310003E2E2AC0F32DF8601DC037FC2DC020EDF5
:10132000280F2A3040F08E32B9F436FC81C1232DCB
:101330002064322E19C036FE06C08AE0989E200D29
:101340001124922E11C0EAE02E9E200D1124222E8F
:10135000F32DF0623F2E08C08C3621F4832D806877
:10136000382E02C0883641F4F70193FD859193FF32
:1013700081917F018111B3CF982F9F7D9554933038
:1013800028F40C5F1F4F9FE399830DC0833631F023
:10139000833771F0833509F059C021C0F80180818D
:1013A00089830E5F1F4F88248394912C530113C0AF
:1013B0002801F2E04F0E511CF801A080B18036FEEA
:1013C00003C0692D70E002C06FEF7FEFC5010E947E
:1013D0002D0B4C018201F32DFF773F2E16C0280103
:1013E00022E0420E511CF801A080B18036FE03C0FD
:1013F000692D70E002C06FEF7FEFC5010E94220BE4
:101400004C01F32DF0683F2E820133FC1BC0822D6E
:1014100090E088169906B0F4B60180E290E00E9450
:10142000380B2A94F4CFF50137FC859137FE819172
:101430005F01B60190E00E94380B21102A9421E050
:10144000821A91088114910471F7E8C0843611F072
:10145000893641F5F80137FE07C0608171818281CC
:1014600093810C5F1F4F08C060817181072E000CB3
:10147000880B990B0E5F1F4FF32DFF763F2E97FFC2
:1014800009C090958095709561957F4F8F4F9F4FC4
:10149000F0683F2E2AE030E0A3010E94740B882EF2
:1014A000861845C0853731F4232D2F7EB22E2AE0D1
:1014B00030E025C0932D997FB92E8F36C1F018F4F6
:1014C000883579F0B5C0803719F0883721F0B0C081
:1014D000E92FE061BE2EB4FE0DC0FB2DF460BF2EDF
:1014E00009C034FE0AC0292F2660B22E06C028E0AB
:1014F00030E005C020E130E002C020E132E0F80138
:10150000B7FE07C060817181828193810C5F1F4F9C
:1015100006C06081718180E090E00E5F1F4FA301E3
:101520000E94740B882E8618FB2DFF773F2E36FE07
:101530000DC0232D2E7FA22E891458F434FE0BC02B
:1015400032FC09C0832D8E7EA82E05C0B82CA32C9A
:1015500003C0B82C01C0B92CA4FE0FC0FE01E80DD9
:10156000F11D8081803321F49A2D997EA92E09C026
:10157000A2FE06C0B394B39404C08A2D867809F005
:10158000B394A3FC11C0A0FE06C0B21488F4280CCA
:10159000922C9B180EC0B21460F4B60180E290E069
:1015A0000E94380BB394F7CFB21418F42B1802C072
:1015B000982C212CA4FE10C0B60180E390E00E947C
:1015C000380BA2FE17C0A1FC03C088E790E002C060
:1015D00088E590E0B6010CC08A2D867859F0A1FE0E
:1015E00002C08BE201C080E2A7FC8DE2B60190E070
:1015F0000E94380B891438F4B60180E390E00E9411
:10160000380B9A94F7CF8A94F301E80DF11D80818D
:10161000B60190E00E94380B8110F5CF222009F42A
:1016200042CEB60180E290E00E94380B2A94F6CFB9
:10163000F6018681978102C08FEF9FEF2B96E2E142
:101640000C94EE0BFC010590615070400110D8F72E
:10165000809590958E0F9F1F0895FC0161507040FA
:1016600001900110D8F7809590958E0F9F1F0895D7
:101670000F931F93CF93DF93FB01238121FD03C0C1
:101680008FEF9FEF2CC022FF16C046815781248127
:1016900035814217530744F4A081B1819D012F5F2A
:1016A0003F4F318320838C93268137812F5F3F4FBB
:1016B0003783268314C08B01EC01FB010084F18584
:1016C000E02D0995892BE1F6D80116968D919C9114
:1016D0001797019617969C938E931697CE01DF91DC
:1016E000CF911F910F910895FA01AA27283051F147
:1016F000203181F1E8946F936E7F6E5F7F4F8F4F43
:101700009F4FAF4FB1E03ED0B4E03CD0670F781FA1
:10171000891F9A1FA11D680F791F8A1F911DA11D86
:101720006A0F711D811D911DA11D20D009F46894BF
:101730003F912AE0269F11243019305D3193DEF667
:10174000CF010895462F4770405D4193B3E00FD01D
:10175000C9F7F6CF462F4F70405D4A3318F0495D08
:1017600031FD4052419302D0A9F7EACFB4E0A695EB
:101770009795879577956795BA95C9F7009761050D
:10178000710508959B01AC010A2E06945795479563
:1017900037952795BA95C9F7620F731F841F951F58
:1017A000A01D08952F923F924F925F926F927F9269
:1017B0008F929F92AF92BF92CF92DF92EF92FF9261
:1017C0000F931F93CF93DF93CDB7DEB7CA1BDB0B0D
:1017D0000FB6F894DEBF0FBECDBF09942A883988B2
:1017E00048885F846E847D848C849B84AA84B984B9
:1017F000C884DF80EE80FD800C811B81AA81B981C5
:10180000CE0FD11D0FB6F894DEBF0FBECDBFED01D8
:061810000895F894FFCFDB
:1018160025642E25303464002D0054656D70657284
:1018260061747572613A2000256400204D65646913
:10183600646173004E6976656C657320646500505B
:101846006F6C766F732025002820656E2025290091
:101856004269646F6E3A003E54656D7065726174DC
:10186600757261002A43003E566F6C756D656E0099
:101876006D6C00204265626964612031002042651A
:1018860062696461203200204265626964612033C6
:0C1896000020426562696461203400009B
:00000001FF
