:100000000C9469090C9486090C9486090C94860951
:100010000C9486090C9486090C9486090C94860924
:100020000C9486090C9486090C9486090C946D191D
:100030000C9486090C9486090C9491190C948609E9
:100040000C9486090C9486090C9486090C948609F4
:100050000C9486090C9486090C9486090C948609E4
:100060000C9486090C9486098A18A918B018B71838
:100070004D194D194D194D194D194D194D194D1950
:100080004D194D194D194D19CC18D518E018E51812
:10009000EA18F118F618FB180019031908191219B3
:1000A0000D194D1919191E19231928192D1932194D
:1000B00037193C19411946193E3EA143616D6269E9
:1000C0006F20657869746F736F21213C3C003D3D62
:1000D0003D3D3D3D3D3D3D3D3D3D3D3D3D3D3D3D50
:1000E0003D3D3D3D3D3D3D3D3D3D3D3D3D3D3D3D40
:1000F0003D3D3D3D3D3D3D3D3D3D3D3D3D3D3D3D30
:100100003D3D3D3D3D3D3D3D3D007C2020A14154D8
:10011000454E43494F4E213A20434F4C4F51554590
:10012000204E554D45524F532044454E54524F207A
:1001300044454C2052414E474F205045524D495462
:1001400049444F207C003D3D3D3D3D3D3D3D3D3DD5
:100150003D3D3D3D3D3D3D3D3D3D3D3D3D3D3D3DCF
:100160003D3D3D3D3D3D3D3D3D3D3D3D3D3D3D3DBF
:100170003D3D3D3D3D3D3D3D3D3D3D3D3D3D3D3DAF
:100180003D0032292D204170726574652027322789
:1001900020686173746120766572207375206361D5
:1001A0006D62696F207265666C656A61646F0020BC
:1001B000736920656C206E756D65726F206DE178D6
:1001C000696D6F206573203130302079207175653D
:1001D00072656D6F7320706F6E65722032352D3EC3
:1001E00020273027202732272027352720003129B4
:1001F0002D20436F6C6F7175652063696672612095
:10020000706F7220636966726120736567756E2016
:1002100073656120656C206D6178696D6F2E20506B
:100220006F7220656A656D706C6F3A002050617264
:10023000612063616D62696172206C612076617218
:100240006961626C652073696761206C6F732073EC
:1002500069677569656E7465207061736F733A00C4
:100260003D3D3D3D3D3D3D3D3D3D3D3D3D3D3D3DBE
:100270003D3D3D3D3D3D3D3D3D3D3D3D3D3D3D3DAE
:100280003D3D3D3D3D3D3D3D3D3D3D3D007C20A155
:100290004154454E43494F4E213A2031302043418D
:1002A00052414354455245532C20454E204D41590F
:1002B000555343554C412E207C003D3D3D3D3D3D39
:1002C0003D3D3D3D3D3D3D3D3D3D3D3D3D3D3D3D5E
:1002D0003D3D3D3D3D3D3D3D3D3D3D3D3D3D3D3D4E
:1002E0003D3D3D3D3D3D0033292D204170726574FB
:1002F000652027322720686173746120766572203B
:1003000073752063616D62696F207265666C656AE2
:1003100061646F0032292D20436F6C6F7175652009
:10032000756E206775696F6E2062616A6F2028277D
:100330005F272920616C2066696E616C0031292D70
:1003400020436F6C6F717565206C657472612070ED
:100350006F72206C6574726120656C206E756576B5
:100360006F206E6F6D627265002050617261206354
:10037000616D62696172206465206E6F6D62726585
:1003800020756E61206265626964612073696761CE
:10039000206C6F73207369677569656E746573206F
:1003A0007061736F733A0020552D54616D61F16F68
:1003B000206465204269646F6E20283130204C2013
:1003C0002D3230204C29203D0020542D506F726377
:1003D000656E74616A652064652054646573636149
:1003E000726761204265626964612034202835208B
:1003F000612032352529203D0020532D506F726336
:10040000656E74616A652064652054646573636118
:10041000726761204265626964612033202835205B
:10042000612032352529203D0020522D506F726306
:10043000656E74616A6520646520546465736361E8
:10044000726761204265626964612032202835202C
:10045000612032352529203D0020512D506F7263D7
:10046000656E74616A6520646520546465736361B8
:1004700072676120426562696461203120283520FD
:10048000612032352529203D0020502D43616E74B6
:100490006964616420646520616775612043616CF3
:1004A00069656E7465204265626964612034202844
:1004B000313530206120333030206D4C29203D0013
:1004C000204F2D43616E746964616420646520610E
:1004D0006775612043616C69656E74652042656271
:1004E0006964612033202831353020612033303079
:1004F000206D4C29203D00204E2D43616E746964AF
:10050000616420646520616775612043616C696581
:100510006E7465204265626964612032202831353D
:1005200030206120333030206D4C29203D00204D9B
:100530002D43616E74696461642064652061677530
:10054000612043616C69656E74652042656269640F
:100550006120312028313530206120333030206D4A
:100560004C29203D00204B2D43616E746964616409
:10057000206465207072656D657A636C61204265E8
:1005800062696461203420283020612034323020B8
:100590006D4C29203D00204A2D43616E74696461D1
:1005A00064206465207072656D657A636C612042B9
:1005B0006562696461203320283020612034323044
:1005C000206D4C29203D0020492D43616E746964E3
:1005D0006164206465207072656D657A636C61206A
:1005E0004265626964612032202830206120343203
:1005F00030206D4C29203D0020482D43616E7469E8
:10060000646164206465207072656D657A636C61F5
:1006100020426562696461203120283020612034E5
:100620003230206D4C29203D0020472D436F6E73E2
:1006300074616E74652050726F706F7263696F6E53
:10064000616C20274B70273A0020452D4E6F6D625C
:100650007265206465206C61204265626964612076
:10066000342028313020636172E1637465726573F0
:1006700029203D0020442D4E6F6D62726520646517
:10068000206C61204265626964612033202831302A
:1006900020636172E163746572657329203D0020F7
:1006A000432D4E6F6D627265206465206C6120423F
:1006B000656269646120322028313020636172E113
:1006C00063746572657329203D0020422D4E6F6D65
:1006D000627265206465206C6120426562696461B4
:1006E00020312028313020636172E16374657265C6
:1006F0007329203D0020412D54656D706572617431
:100700007572612044657365616461202836302DFF
:100710003935292A43203D003434343636363636CE
:100720003636363634343520202020202020202034
:100730003330303036303030202020202020202030
:100740002020202020202020353030303030303024
:1007500030303030303030303000202020303030F9
:100760003030303030362020202020202020202023
:1007700020202039303020383030362020202020F2
:100780002020373030303030303030303030303082
:1007900030303030303030303030303000202020B9
:1007A00030303030303030303920202020202020B0
:1007B00020202020202039303020303030303220AE
:1007C0003530303030303030303030303030303024
:1007D0003030303030303030303030303030303019
:1007E0000020202030303030303030303032202087
:1007F0002020202020202020202039303030303090
:1008000030303030303030303030303030303030E8
:1008100030303030303030303030303030303030D8
:100820003030303000202020303030303030303028
:100830003920203920202020202020202020303066
:1008400030303030303030303030303030303030A8
:100850003030303030303030303030303030303098
:1008600030303030303030303000202020303030E8
:1008700030303030303033372020202020202020EE
:100880002020363030303030303030303030303082
:100890003030303030303030303030303030303058
:1008A0003030303030303030303030303030002088
:1008B0002020202031202031202020202020202016
:1008C000202020202020393030303030303030307F
:1008D0003030303030303030303030303030303018
:1008E0003030303030303030303030303030303008
:1008F00030303000202020202020312020312020C6
:100900002020202020202020202020303030303097
:1009100030303030303030303030303030303030D7
:1009200030303030303030303030303030303030C7
:100930003030303030303030002020202020312046
:10094000203120202020202020202020202020397D
:100950003030303030303030303030303030303097
:100960003030303030303030303030303030303087
:1009700030303030303030303030303000202020D7
:100980002020202020202020202020202020202067
:10099000202020393030303030303030303030307E
:1009A0003030303030303030303030303030303047
:1009B0003030303030303030303030303030300067
:1009C0002020202020202020202020202020202027
:1009D0002020202030303030303030303030303057
:1009E0003030303030303030303030303030303007
:1009F00030303030303030303030303030303030F7
:100A00000020202020202020202020202020202006
:100A10002020202031303030303030303030303015
:100A200030303030303030303030303030303030C6
:100A300030303030303030303030303030303031B5
:100A40002020202020202020202020202020434F54
:100A50004E534F4C410020202020202020202020D9
:100A600020202020202030303030303030303030E6
:100A70003030303030303030303030303030303076
:100A80003030303030303030303030303030303066
:100A900030303620202020202020202020202055EB
:100AA00054494C49434520455354412020200020BF
:100AB00020202020202020202020383030303030CE
:100AC0003030303030303030303030303030303026
:100AD0003030303030303030303030303030303016
:100AE0003030303030303030303120202020202065
:100AF00050415241204D4F444946494341522045BF
:100B000053544F532020002020202020202020203C
:100B100020303030303030303030303030303030E5
:100B200030303030303030303030303030303030C5
:100B300030303030303030303030303034202020E1
:100B400020202043414E54494441442044452050F4
:100B500052454D455A434C412C45544320200020DA
:100B600020202020202020203730303030303030FE
:100B70003030303030303030303030303030303075
:100B800030303030303030302020202020202020E5
:100B90002020202020202050554544454E20434F02
:100BA0004E54524F4C41522054454D5045524154A1
:100BB0005552412C200020202020202020202034AD
:100BC0003030303030303030303030303030303025
:100BD0003030303030303030303030202020202065
:100BE00020202020202020202743414645544552E4
:100BF000412720455320554E2050524F59454354CC
:100C00004F20444F4E4445205345200020202020B3
:100C1000202020202030303030203830303030302C
:100C20003030303030303030303030303030002004
:100C30002020202020202020343030303030303030
:100C400030303030202033303030303030303520CC
:100C500020202020204E4F4D4252453A204641420E
:100C6000524943494F2044415649442047414C4C46
:100C70004F00202020202020202020202020343041
:100C8000303030303030303030303030303030375D
:100C90002020202020202020202020202020202054
:100CA0002020202020202020202020202020202044
:100CB0004C4943204A554C49414E204D494E4154E0
:100CC000454C0020202020202020202020202020F3
:100CD0002020313233323830303030303030302034
:100CE0002020202020202020202020202020202004
:100CF00020202050524F4645534F5245533A2049E9
:100D00004E47204544554152444F2056454C415A88
:100D10005155455A0020202020202020202020202E
:100D20002020202020202020203930202034303066
:100D30002020202020545046492E2E2E204341545E
:100D4000454452413A2020202053495354454D41B7
:100D500053204449474954414C4553204956003D8E
:100D60003D3D3D3D3D3D3D3D3D3D3D3D3D3D3D3DB3
:100D70003D3D3D3D3D3D3E3E007C204D454449438B
:100D8000494F4E45532041435455414C4553207CD7
:100D90003E3E003D3D3D3D3D3D3D3D3D3D3D3D3DBE
:100DA0003D3D3D3D3D3D3D3D3D3D3E3E003E3E20C9
:100DB0003420436F6E66696775726172003E3E2033
:100DC00033204461746F732064656C2050726F79B6
:100DD0006563746F003E3E20322056657220636F5B
:100DE0006E66696775726163696F6E6573003E3E1A
:100DF000203120566572204D65646963696F6E65A8
:100E00007300202B585858585858582020202058E4
:100E1000582B202020585858585858582B20202BF1
:100E200058782020207858583A202020202B5858D5
:100E30005858202020202078585858585858782042
:100E4000203A58582020203B58582B202020585812
:100E50003B202020585858585858582B20202020E4
:100E600078585858585878202000202B585820205F
:100E70002058585820202058582B20202058582BD4
:100E8000202020202020202B587820203A58585805
:100E90003A2020202078585858582E20202020789A
:100EA0005878202020202020203A585820202E58E2
:100EB00058582B20202058583B20202058582B20B1
:100EC000203B58583A20202B58582E202E58582B6B
:100ED0002000202B58582020202B58582E202058F6
:100EE000582B20202058582B202020202020202B39
:100EF00058782020785858583A2020202058582BCD
:100F000058582B202020207858782020202020207E
:100F1000203A585820202B5858582B202020585819
:100F20003B20202058582B20203A58583B2020782E
:100F300058582020205858782000202B585820201E
:100F40002058585820202058582B20202058582B03
:100F5000202020202020202B5878203A58585858FC
:100F60003A2020203B58583A3B58582020202078DF
:100F70005878202020202020203A585820205858E7
:100F800058582B20202058583B20202058582B20E0
:100F9000203A58583B20207858582020205858781C
:100FA0002000202B58585858585878202020205876
:100FB000582B2020205858585858583B2020202B78
:100FC00058782078583B58583A20202058585820B4
:100FD0002058583A202020785858585858782020BF
:100FE000203A58582078582B58582B2020205858F1
:100FF0003B20202058582B20203A58583B2020785E
:1010000058582020205858782000202B58582E203F
:101010003B58583A20202058582B20202058582B35
:10102000202020202020202B58783A58782058580B
:101030003A20202058582B202058583B2020207838
:101040005878202020202020203A58582058582016
:1010500058582B20202058583B20202058582B200F
:10106000203A58583B20207858582020205858784B
:101070002000202B58582020205858782020205815
:10108000582B20202058582B202020202020202B97
:10109000585858583A2058583A20203A58583A2028
:1010A0002078587820202078587820202020202070
:1010B000203A585858583B2058582B202020585830
:1010C0003B20202058582B20203A58583B2020788D
:1010D00058582020205858782000202B58582E206F
:1010E0003B58587820202058582B20202058582B27
:1010F000202020202020202B585858782020585875
:101100003A20202B58582E20203A58582E2020784C
:101110005878202020202020203A58585858202045
:1011200058582B20202058583B20202058582B203E
:10113000202B58582E20202B58582E203A58582B08
:1011400000202B585858585858782020202058589C
:101150002B202020585858585858582B20202B58AE
:10116000585820202058583A2020585878202020BD
:101170002058583B202078585858585858782020E4
:101180003A5858583A202058582B20202058583B7D
:10119000202020585858585858583A202020207855
:1011A00058585858587820003E3E4E6976656C6510
:1011B00073206465206C6C656E61646F20646520CB
:1011C0006C6F7320646F736966696361646F7265C5
:1011D00073206465207072656D657A636C61202888
:1011E000656E2025293A003E3E4269646F6E3A00E2
:1011F000206D4C002D566F6C756D656E3A00202A7F
:1012000043002D54656D70657261747572613A00AA
:101210003E3E506F72206661766F722C20696E744C
:10122000656E74656C6F206E756576616D656E7444
:1012300065003E3E4552524F523A204C41204341B8
:101240004E54494441442050524F50554553544107
:1012500020455354C1204655455241204445205213
:10126000414E474F204F20454E20464F524D41544E
:101270004F204552524F4E454F003E3E41707265E1
:1012800074652058207061726120766F6C7665728B
:1012900020616C206D656E7520696E696369616C93
:1012A000003E3E53656C656363696F6E6520616CDB
:1012B00067756E61206465206C617320616E746572
:1012C00072696F726573206F7063696F6E657320EA
:1012D000000011241FBECFEFD8E0DEBFCDBF12E06B
:1012E000A0E0B1E0EAE6FEE302C005900D92AC3862
:1012F000B107D9F722E0ACE8B2E001C01D92A43EEC
:10130000B207E1F70E9454190C94331F0C940000AB
:10131000ECE7F0E080818064808380818F7D808332
:10132000EAE7F0E080818760808380818068808345
:101330000895ECE7F0E09081907F90839081892B75
:101340008083EAE7F0E080818064808380917A0086
:1013500086FDFCCF0895883121E0920759F186344B
:10136000910551F18035910549F18A35910541F199
:101370008436910539F18E36910531F18837910522
:1013800029F18238910521F18C38910519F18139C3
:10139000910511F18639910509F18B39910501F11A
:1013A000803A9105F9F08A3A9105F1F0843B910574
:1013B000E9F0089584E4089584E4089584E40895A8
:1013C00084E4089581E4089581E4089581E4089512
:1013D00081E4089580E5089580E5089580E5089505
:1013E00080E5089586E508958BE4089584E50895E1
:1013F000EF92FF921F93CF93DF9300D01F92CDB750
:10140000DEB77C010E94AA1310928D0210928C020A
:101410000E94F50F898381E090E090938D02809384
:101420008C020E94F50F8A831B82C7010E94AB09C0
:10143000182F843591F4CE0101960E94231C80362A
:1014400091054CF4CC973CF0BE016F5F7F4FC70114
:101450000E94EF0A02C00E949B131B3479F4CE0154
:1014600001960E94231C892B39F0BE016F5F7F4FCC
:10147000C7010E94EF0A02C00E949B13143591F429
:10148000CE0101960E94231C8A3191054CF40597E8
:101490003CF0BE016F5F7F4FC7010E94EF0A02C0A0
:1014A0000E949B130F900F900F90DF91CF911F918F
:1014B000FF90EF9008950F931F93CF93DF93CDB7D5
:1014C000DEB72B970FB6F894DEBF0FBECDBF8C01F1
:1014D00010928D0210928C020E94F50F898381E098
:1014E00090E090938D0280938C020E94F50F8A8386
:1014F00082E090E090938D0280938C020E94F50F21
:101500008B8383E090E090938D0280938C020E9405
:10151000F50F8C8384E090E090938D0280938C0291
:101520000E94F50F8D8385E090E090938D0280936B
:101530008C020E94F50F8E8386E090E090938D02DE
:1015400080938C020E94F50F8F8387E090E0909348
:101550008D0280938C020E94F50F888788E090E0CE
:1015600090938D0280938C020E94F50F898789E009
:1015700090E090938D0280938C020E94F50F8A87F1
:101580001C86BE016F5F7F4FC8010E94EF0A88EB87
:1015900090E00E9400100E94E40F2B960FB6F89482
:1015A000DEBF0FBECDBFDF91CF911F910F91089588
:1015B000F894F999FECF92BD81BD60BD8FB3846070
:1015C0008FBB8FB382608FBB78940895F999FECF5B
:1015D00092BD81BD8FB381608FBB80B50895AF92FE
:1015E000BF92CF92DF92EF92FF920F931F93CF9310
:1015F000DF936C015B01C0E0D0E00EC07E01EC0C1B
:10160000FD1CC7010E94E60AF8016081861719F0E7
:10161000C7010E94D80A219685010C0F1D1FF801F1
:1016200080818111EBCFCC0DDD1DCE010E94E60A39
:10163000882321F060E0CE010E94D80ADF91CF918B
:101640001F910F91FF90EF90DF90CF90BF90AF90E0
:101650000895AF92BF92CF92DF92EF92FF920F93D5
:101660001F93CF93DF935C016B017A01C0E0D0E060
:101670000BC086010C0F1D1FCE018A0D9B1D0E9401
:10168000E60AF80180832196CE15DF0590F3F60176
:10169000EE0DFF1D1082DF91CF911F910F91FF90F2
:1016A000EF90DF90CF90BF90AF90089589E1809345
:1016B000B8001092B900089584EA8093BC0080912C
:1016C000BC008823E4F708958093BB0084E88093EE
:1016D000BC008091BC008823E4F7089584E98093DE
:1016E000BC008091BC0080FDFCCF0895EBEBF0E0E6
:1016F00080818260808384E88093BC008091BC00FC
:101700008823E4F789EF90E00197F1F700C000002B
:10171000EBEBF0E080818D7F808384E88093BC00D8
:101720008091BC008823E4F70895EBEBF0E0908112
:101730009E7F908394E89093BC009091BC00992385
:10174000E4F7EBEBF0E090819F70908394E8909346
:10175000BC009091BC009923E4F7EBEBF0E09081A2
:10176000807F892B808384E88093BC008091BC00BB
:101770008823E4F70E94760B0895CF93C82FEBEBF4
:10178000F0E080818E7F808384E88093BC0080912C
:10179000BC008823E4F7EBEBF0E080818F7080835E
:1017A00084E88093BC008091BC008823E4F7EBEBD5
:1017B000F0E080819C2F907F892B808384E8809348
:1017C000BC008091BC008823E4F70E94760BEBEB11
:1017D000F0E080818F70808384E88093BC008091EA
:1017E000BC008823E4F7EBEBF0E0208130E1C39FFD
:1017F000C0011124822B808384E88093BC008091F7
:10180000BC008823E4F70E94760BCF910895CF9314
:10181000C82FEBEBF0E080818160808384E88093C7
:10182000BC008091BC008823E4F7EBEBF0E0808102
:101830008F70808384E88093BC008091BC008823F3
:10184000E4F7EBEBF0E080819C2F907F892B808385
:1018500084E88093BC008091BC008823E4F70E9458
:10186000760BEBEBF0E080818F70808384E88093CF
:10187000BC008091BC008823E4F7EBEBF0E0208112
:1018800030E1C39FC0011124822B808384E88093C0
:10189000BC008091BC008823E4F70E94760BCF91B6
:1018A00008950E94560B0E945C0B80E40E94640B1A
:1018B00081EE94E00197F1F700C0000080E30E9400
:1018C000950B81EE94E00197F1F700C0000080E3F2
:1018D0000E94950B80E20E94950B81EE94E00197A7
:1018E000F1F700C0000088E20E94BD0B8CE00E946E
:1018F000BD0B81E00E94BD0B86E00E94BD0B80E81D
:101900000E94BD0B0895CF93DF93EC0103C0219695
:101910000E94070C88818111FACFDF91CF91089541
:1019200081E00E94BD0B81E28A95F1F7000080E81A
:101930000E94BD0B089585E08093B800089584EA65
:101940008093BC008091BC008823E4F708958093C5
:10195000BB0084E88093BC008091BC008823E4F73E
:10196000089584EC8093BC008091BC008823E4F748
:101970008091BB0090E0A0E0B0E08093A102909342
:10198000A202A093A302B093A40284EC8093BC00B3
:101990008091BC008823E4F78091BB0090E0A0E038
:1019A000B0E08093A9029093AA02A093AB02B093F7
:1019B000AC0284E88093BC008091BC008823E4F7EB
:1019C0008091BB0090E0A0E0B0E08093A5029093EE
:1019D000A602A093A702B093A802089584E9809379
:1019E000BC0008950E949F0C80ED0E94A70C8CE122
:1019F0000E94A70C0E94EE0C0895CF93DF930E94E3
:101A00009B0C0E94F20C0E949F0C81ED0E94A70C7F
:101A10000E94B10C2091A10280E090E0922F990FDA
:101A2000990FC091A902D091AA02CC0FDD1FCC0F53
:101A3000DD1FC82BD92B8091A5029091A602082EFC
:101A4000892F000C881F990B000C881F991FC82B29
:101A5000D92B22970E94EE0CCE01DF91CF910895F1
:101A60000E94FD0CBC01990F880B990B0E94241B4E
:101A700020E030E040E050E40E940E1A20E030E028
:101A80004AE754E40E94B01B20E030EE4FEF54E4EC
:101A90000E947A1A20E030E040EA51E40E94B01B34
:101AA0000E94EC1ACB01089594EA9093BC009091A7
:101AB000BC009923E4F79091B9009B7F983009F01E
:101AC00057C090E99093BB0094E89093BC0090912C
:101AD000BC009923E4F79091B9009B7F983109F0FD
:101AE00047C08093BB0084E88093BC008091BC0019
:101AF0008823E4F78091B9008B7F8832C9F584EAA6
:101B00008093BC008091BC008823E4F78091B900E9
:101B10008B7F803169F581E98093BB0084E88093F5
:101B2000BC008091BC008823E4F78091B9008B7FD2
:101B30008034F1F415C02115310521F484E8809337
:101B4000BC0003C084EC8093BC008091BC0088235F
:101B5000E4F78091BB00FB018083A9016F5F7F4F99
:101B60009A0121503109452B31F784E98093BC005B
:101B7000089594EA9093BC009091BC009923E4F7F7
:101B80009091B9009B7F9830D1F590E99093BB007C
:101B900094E89093BC009091BC009923E4F7909155
:101BA000B9009B7F983159F58093BB0084E88093FE
:101BB000BC008091BC008823E4F78091B9008B7F42
:101BC0008832E9F414C0FB013196DB018C918093DB
:101BD000BB0084E88093BC008091BC008823E4F7BC
:101BE0008091B900A9018B7F883249F4BF019A0125
:101BF00021503109452B39F784E98093BC000895C1
:101C00001F93CF93DF931F92CDB7DEB7182F41E01C
:101C100050E0BE016F5F7F4F81E00E94540D8981CB
:101C2000282F2F7930E2139FC0011124822B898342
:101C300041E050E0BE016F5F7F4F81E00E94B90D2F
:101C40000F90DF91CF911F9108951F93CF93DF9352
:101C50001F92CDB7DEB7182F41E050E0BE016F5F95
:101C60007F4F81E00E94540D89818E7F182B19834C
:101C700041E050E0BE016F5F7F4F81E00E94B90DEF
:101C80000F90DF91CF911F910895EF92FF921F93D4
:101C9000CF93DF9300D0CDB7DEB742E050E0BE0176
:101CA0006F5F7F4F80E00E94540DE980FA80B7019A
:101CB000772780E090E00E94221B1F2DF7FE06C0D0
:101CC00020E030E040E05FE30E940E1A16FF06C0FD
:101CD00020E030E040E85EE30E940E1A15FF06C0E7
:101CE00020E030E040E05EE30E940E1A14FF06C0E0
:101CF00020E030E040E85DE30E940E1A0F900F9064
:101D0000DF91CF911F91FF90EF9008958F929F9256
:101D1000AF92BF92CF92DF92EF92FF920F931F93F9
:101D2000CF93DF93CDB7DEB7AA970FB6F894DEBF97
:101D30000FBECDBF0E94C40F83E00E94000E80E062
:101D40000E94250E01E010E03CC00E94450E4B01B0
:101D50005C010E94EC1A6B017C01072E000C880BC1
:101D6000990B0E94241B9B01AC01C501B4010E9488
:101D70000D1A20E030E44CE156E40E94B01B0E94B2
:101D8000EC1A9B01772324F422273327261B370BD9
:101D90003F932F93DF92CF928EE191E09F938F93A9
:101DA000CE0101969F938F930E94491C85E391E099
:101DB0000E94D70F0F5F1F4F0FB6F894DEBF0FBE04
:101DC000CDBF0B3F11050CF285E391E00E94D70FC8
:101DD000CE0101960E94231C9F938F9386E391E08E
:101DE0009F938F938E010F5D1F4F1F930F930E9440
:101DF000491CC8010E94231C0F900F900F900F9058
:101E00000F900F90AA960FB6F894DEBF0FBECDBF0D
:101E1000DF91CF911F910F91FF90EF90DF90CF90C6
:101E2000BF90AF909F908F900895CF93DF93D82F5E
:101E3000C92F0E945C0B8EE40E94640B8D2F0E94C0
:101E4000640B8C2F0E94640B0E946E0BDF91CF916C
:101E5000089580E090E00E94150F08958AB1877F71
:101E60008AB98AB18F7E8AB98BB188608BB98BB100
:101E700080618BB9089589B182958F7091E089272F
:101E800081708093900290E0089589B1869586953F
:101E9000869591E0892781708093910290E0089562
:101EA0008AB18F7D8AB98AB18F7B8AB98BB1806202
:101EB0008BB98BB180648BB9089589B18295869571
:101EC000877091E08927817080938F0290E0089558
:101ED00089B1829586958695837091E08927817076
:101EE00080938E0290E0089584B1886084B9E0EB1D
:101EF000F0E0808183608083A1EBB0E08C91826010
:101F00008C9380818068808308959C01629FC001CA
:101F1000639F900D729F900D11248F3F910509F0E2
:101F20001CF4992334F403C08FEF90E002C080E0EA
:101F300090E08093B300089514BC15BC16BC84B522
:101F4000826084BD85B5836085BD8FEF87BDEEE679
:101F5000F0E0808182608083089510928000E1E843
:101F6000F0E0108280818860808388E09DE3909318
:101F7000890080938800AFE6B0E08C9182608C93FA
:101F800080818560808308951092C50080E18093F0
:101F9000C40088E18093C10086E08093C200089568
:101FA0009091C00095FFFCCF8093C6000895CF9319
:101FB000DF93EC0103C00E94D00F2196888181112C
:101FC000FACFDF91CF9108958DE00E94D00F8AE083
:101FD0000E94D00F08958091C0008823E4F780917B
:101FE000C6008F3509F480E00895CF930E94EB0F6F
:101FF000C82F0E94D00F0E94E40F8C2FCF9108951C
:10200000CF93DF93FC0103C00E94D00FFE01EF01CC
:10201000219684918111F8CFDF91CF9108950E948C
:10202000E40F81E491E10E9400100E94E40F8AED28
:1020300090E10E9400100E94E40F82E790E10E946C
:1020400000100E94E40F8AE090E10E9400100E94BC
:10205000E40F82EA9FE00E9400100E94E40F8AE3EE
:102060009FE00E9400100E94E40F82ED9EE00E941B
:1020700000100E94E40F8AE69EE00E9400100E9479
:10208000E40F82E09EE00E9400100E94E40F0E9494
:10209000E40F08950E94E40F0E94E40F85E19DE0A3
:1020A0000E9400100E94E40F83EC9CE00E9400104C
:1020B0000E94E40F82E79CE00E9400100E94E40F5F
:1020C0008FE29CE00E9400100E94E40F8CE09CE0F4
:1020D0000E9400100E94E40F86EB9BE00E9400101B
:1020E0000E94E40F8FE59BE00E9400100E94E40F25
:1020F00087E09BE00E9400100E94E40F8FEA9AE0C4
:102100000E9400100E94E40F86E59AE00E940010F1
:102110000E94E40F81E09AE00E9400100E94E40F08
:1021200080EC99E00E9400100E94E40F8DE799E096
:102130000E9400100E94E40F89E399E00E940010C1
:102140000E94E40F84EF98E00E9400100E94E40FC8
:102150008FEA98E00E9400100E94E40F8AE698E05F
:102160000E9400100E94E40F85E298E00E94001097
:102170000E94E40F81EE97E00E9400100E94E40F9D
:102180008DE997E00E9400100E94E40F8AE597E035
:102190000E9400100E94E40F88E197E00E94001066
:1021A0000E94E40F0E94E40F81EA92E10E94001075
:1021B00008950E94E40F8EEE9DE00E9400100E94A0
:1021C000E40F85ED9DE00E9400100E94E40F8DEB6E
:1021D0009DE00E9400100E94E40F8DEA9DE00E94A5
:1021E00000100E94E40F8AE792E10E9400100E9412
:1021F000E40F81EA92E10E94001008956F927F92AD
:102200008F929F92AF92BF92CF92DF92EF92FF9206
:102210000F931F93CF93DF93782E692EC62FD72F5E
:10222000942E852EB22EA32E0E94E40F83E99DE00A
:102230000E9400100E94E40F89E79DE00E940010B8
:102240000E94E40F8FE59DE00E9400100E94E40FC1
:1022500087EE91E10E9400100E94E40F82E092E17B
:102260000E940010DF93CF930F2EF6E3CF2EF1E004
:10227000DF2EF02DDF92CF92C7ECD2E0DF93CF9329
:102280000E94491CCE010E94D70F8EEF91E10E945F
:1022900000100E94E40F84EF91E10E9400106F9201
:1022A0007F92DF92CF92DF93CF930E94491CCE01A1
:1022B0000E94D70F80EF91E10E9400100E94E40F6E
:1022C00088EA91E10E9400100E94E40F89E391E006
:1022D0000E94D70F4CE050E0BE018AE090E00E94DF
:1022E000290BCE010E94D70F83E391E00E94D70F04
:1022F0008F929F92DF92CF92DF93CF930E94491CDF
:10230000CE010E94D70F84EE91E00E94D70F0E9469
:10231000E40F85E491E00E94D70F4CE050E0BE014D
:1023200089E190E00E94290BCE010E94D70F83E340
:1023300091E00E94D70FAF92BF92DF92CF92DF93CE
:10234000CF930E94491CCE010E94D70F84EE91E0EA
:102350000E94D70F0E94E40F81E591E00E94D70F01
:102360004CE050E0BE0188E290E00E94290BCE01D3
:102370000E94D70F83E391E00E94D70F1F930F9322
:10238000DF92CF92DF93CF930E94491CCE010E942F
:10239000D70F84EE91E00E94D70F0E94E40F8DE5E5
:1023A00091E00E94D70F4CE050E0BE0187E390E03F
:1023B0000E94290BCE010E94D70F83E391E00E9477
:1023C000D70FFF92EF92DF92CF92DF93CF930E94CD
:1023D000491C8DB79EB784960FB6F8949EBF0FBE6A
:1023E0008DBFCE010E94D70F84EE91E00E94D70FDF
:1023F0000E94E40F8AE792E10E940010DF91CF91E2
:102400001F910F91FF90EF90DF90CF90BF90AF9012
:102410009F908F907F906F9008950E94E40F85EFBA
:1024200096E00E9400104AE050E067EC72E084EB16
:1024300090E00E94290B87EC92E00E94D70F0E9447
:10244000E40F8AEC96E00E9400104CE050E067EC4C
:1024500072E08AE090E00E94290B87EC92E00E94F3
:10246000D70F0E94E40F8FE996E00E9400104CE025
:1024700050E067EC72E089E190E00E94290B87EC64
:1024800092E00E94D70F0E94E40F84E796E00E943A
:1024900000104AE050E067EC72E088E290E00E94B1
:1024A000290B87EC92E00E94D70F0E94E40F89E489
:1024B00096E00E9400104AE050E067EC72E087E38B
:1024C00090E00E94290B87EC92E00E94D70F0E94B7
:1024D000E40F89E296E00E94001043E050E067ECD0
:1024E00072E08AEA90E00E94290B87EC92E00E9459
:1024F000D70F0E94E40F88EF95E00E94001043E0A0
:1025000050E067EC72E088E191E00E94290B87ECD3
:1025100092E00E94D70F0E94E40F87EC95E00E94A2
:10252000001043E050E067EC72E086E490E00E9427
:10253000290B87EC92E00E94D70F0E94E40F86E9F6
:1025400095E00E94001043E050E067EC72E080E507
:1025500090E00E94290B87EC92E00E94D70F0E9426
:10256000E40F85E695E00E94001043E050E067EC40
:1025700072E08AE590E00E94290B87EC92E00E94CD
:10258000D70F0E94E40F8EE295E00E94001043E016
:1025900050E067EC72E084E690E00E94290B87EC43
:1025A00092E00E94D70F0E94E40F87EF94E00E9410
:1025B000001043E050E067EC72E08EE690E00E948D
:1025C000290B87EC92E00E94D70F0E94E40F80EC69
:1025D00094E00E94001043E050E067EC72E088E76E
:1025E00090E00E94290B87EC92E00E94D70F0E9496
:1025F000E40F89E894E00E94001043E050E067ECAB
:1026000072E082E890E00E94290B87EC92E00E9441
:10261000D70F0E94E40F89E594E00E94001043E088
:1026200050E067EC72E08CE890E00E94290B87ECA8
:1026300092E00E94D70F0E94E40F89E294E00E948A
:10264000001043E050E067EC72E081E990E00E9406
:10265000290B87EC92E00E94D70F0E94E40F89EFCC
:1026600093E00E94001043E050E067EC72E086E9DE
:1026700090E00E94290B87EC92E00E94D70F0E9405
:10268000E40F89EC93E00E94001043E050E067EC17
:1026900072E08BE990E00E94290B87EC92E00E94A7
:1026A000D70F0E94E40F87EA93E00E94001043E0F6
:1026B00050E067EC72E080EA90E00E94290B87EC22
:1026C00092E00E94D70F89E691E00E94D70F0E9406
:1026D000E40F8AE792E10E94001008950E94E40F3F
:1026E00089E693E00E9400100E94E40F8DE393E0DE
:1026F0000E9400100E94E40F84E193E00E94001009
:102700000E94E40F87EE92E00E9400100E94E40F06
:102710008AEB92E00E9400100E94E40F8DE892E0A4
:102720000E9400100E94E40F80E692E00E940010D8
:102730000E94E40F08950E94E40F82E392E10E9458
:1027400000100E94E40F80E192E10E9400100E94BC
:10275000E40F08950E94E40F8CE292E00E940010C2
:102760000E94E40F8EEE91E00E9400100E94E40FA0
:102770000E94E40F8FEA91E00E9400100E94E40F93
:1027800082E891E00E9400100E94E40F86E491E04C
:102790000E9400100E94E40F8AE091E00E94001065
:1027A0000E94E40F8EEC90E00E9400100E94E40F63
:1027B0000895CF92DF92EF92FF920F931F93CF93E2
:1027C000DF93CDB7DEB7C055D1090FB6F894DEBFA1
:1027D0000FBECDBF02E310E01A830983FE013396DA
:1027E00088E0DF011D928A95E9F7BE016F5F7F4F98
:1027F00080EA90E00E94EF0A86E0E0E0F1E0DE018E
:102800001B9601900D928A95E1F76894FF24F2F8E7
:10281000FE017196DF018F2D1D928A95E9F7BE01A9
:10282000655F7F4F8AE090E00E94EF0A4AE050E047
:1028300067EC72E08AE090E00E94290B81E491E06D
:102840000E94D70F87EC92E00E94D70F84E595E4B1
:102850009E8B8D8B188E1F8AFE01799686E0DF0194
:102860001D928A95E9F7BE016B5E7F4F89E190E08A
:102870000E94EF0A4AE050E067EC72E089E190E0E4
:102880000E94290B81E491E00E94D70F87EC92E02F
:102890000E94D70F89E0EAE0F1E0DE015F96019047
:1028A0000D928A95E1F718A6BE01615E7F4F88E21E
:1028B00090E00E94EF0A4AE050E067EC72E088E2A4
:1028C00090E00E94290B81E491E00E94D70F87ECF1
:1028D00092E00E94D70F86E0E4E1F1E0DE019996F4
:1028E00001900D928A95E1F7FE01BF96DF011D92DE
:1028F000FA94E9F7BE01675D7F4F87E390E00E949D
:10290000EF0A4AE050E067EC72E087E390E00E9453
:10291000290B81E491E00E94D70F87EC92E00E949E
:10292000D70F0F2EF1E3EF2EF0E3FF2EF02DFCAAD0
:10293000EBAA0F2EF0E3CF2ED12CF02DDEAACDAADC
:102940001FAABE016D5C7F4F88E191E00E94EF0AF3
:10295000BE016D5C7F4F86E490E00E94EF0ABE01ED
:102960006D5C7F4F80E590E00E94EF0ABE016D5CD8
:102970007F4F8AE590E00E94EF0A82E390E399AFEF
:1029800088AFDBAECAAE1CAEBE01685C7F4F84E68A
:1029900090E00E94EF0ABE01685C7F4F8EE690E0F7
:1029A0000E94EF0ABE01685C7F4F88E790E00E94BA
:1029B000EF0ABE01685C7F4F82E890E00E94EF0A58
:1029C000FEAEEDAE21961FAE1EAE219722961FAE33
:1029D0002297BE01635C7F4F8CE890E00E94EF0A73
:1029E000BE01635C7F4F81E990E00E94EF0ABE0167
:1029F000635C7F4F86E990E00E94EF0ABE01635C52
:102A00007F4F8BE990E00E94EF0AFE01EE5BFF4FE3
:102A10000193119313E0DF01812F1D928A95E9F74D
:102A2000BE016E5B7F4F80EA90E00E94EF0A88E370
:102A300095E329969FAF8EAF29972B961FAE1EAEBA
:102A40002B972C961FAE2C97BE01695B7F4F84EBB2
:102A500090E00E94EF0AFE01E45BFF4F81E390E00B
:102A600081939193DF011D921A95E9F7BE01645B92
:102A70007F4F8AEA90E00E94EF0AC05BDF4F0FB6FB
:102A8000F894DEBF0FBECDBFDF91CF911F910F91A4
:102A9000FF90EF90DF90CF9008954AE050E067EC10
:102AA00072E080EA90E00E94290B87EC92E00E949D
:102AB000231C0197029748F00E94D9130E94E40F4B
:102AC00082E791E00E94D70F08950E94E40F8FE9FA
:102AD00091E00E94D70F08950E949B0C0E94F20C77
:102AE0000E94300D9093C0028093BF020E94EE0CB2
:102AF0000E94860E9093E1028093E0020895CF93A6
:102B0000DF93C0E0D0E01CC00E946C15219680913C
:102B1000E0029091E1026AE570E0681B790B809118
:102B2000BF029091C002892B29F081E090E00E94C1
:102B3000850F06C060E070E081E090E00E94850FA4
:102B4000C530D10509F7DF91CF9108950F931F93F9
:102B5000CF93DF93F89487EC91E00E94830C27E3F6
:102B600081E796E0215080409040E1F700C00000EE
:102B70000E94900C80ED91E00E94830C27E381E796
:102B800096E0215080409040E1F700C000000E9494
:102B9000900C8CED91E00E94830C27E381E796E096
:102BA000215080409040E1F700C000000E94900C4E
:102BB00086EE91E00E94830C27EB8BE89CE021508D
:102BC00080409040E1F700C000000E94900C84E338
:102BD00091E00E94830C4AE050E067EC72E08AE0EA
:102BE00090E00E94290B87EC92E00E94830C27EB77
:102BF0008BE89CE0215080409040E1F700C000004D
:102C00000E94900C84E391E00E94830C8091BE02AC
:102C10008F938091BD028F9306E311E01F930F9372
:102C2000C7ECD2E0DF93CF930E94491CCE010E94F3
:102C3000830C97EB2BE88CE0915020408040E1F72B
:102C400000C000000E94900C84E391E00E94830C7D
:102C50004AE050E0BE0189E190E00E94290BCE01DC
:102C60000E94830C97EB2BE88CE091502040804031
:102C7000E1F700C000000E94900C0E94900C84E3D9
:102C800091E00E94830C8091C6028F938091C502CF
:102C90008F931F930F93DF93CF930E94491CCE0114
:102CA0000E94830C87EB9BE82CE0815090402040F1
:102CB000E1F700C000000E94900C84E391E00E94C4
:102CC000830C4AE050E0BE0188E290E00E94290BAC
:102CD000CE010E94830C87EB9BE82CE08150904052
:102CE0002040E1F700C000000E94900C84E391E0D6
:102CF0000E94830C8091C4028F938091C3028F93B2
:102D00001F930F93DF93CF930E94491CCE010E9423
:102D1000830C27EB8BE89CE0215080409040E1F74A
:102D200000C000000E94900C84E391E00E94830C9C
:102D30004AE050E0BE0187E390E00E94290BCE01FB
:102D40000E94830C27EB8BE89CE021508040904050
:102D5000E1F700C000000E94900C0E94900C84E3F8
:102D600091E00E94830C8091C2028F938091C102F6
:102D70008F931F930F93DF93CF930E94491CCE0133
:102D80000E94830C97EB2BE88CE091502040804010
:102D9000E1F700C000000E94900C8FEE91E00E94CD
:102DA000830C97EB2BE88CE0915020408040E1F7BA
:102DB00000C000000E94900C84E391E00E94830C0C
:102DC00087EF91E00E94830C97EB2BE88CE0915009
:102DD00020408040E1F700C000000E94900C84E396
:102DE00091E00E94830C8091E0029091E1029F9318
:102DF0008F931F930F93DF93CF930E94491CCE01B3
:102E00000E94830C84E092E00E94830C87EB9BE895
:102E10002CE0815090402040E1F700C000000E946B
:102E2000900C84E391E00E94830C87E092E00E9482
:102E3000830C87EB9BE82CE0815090402040E1F729
:102E400000C000000E94900C84E391E00E94830C7B
:102E50008091BF029091C0029F938F931F930F9315
:102E6000DF93CF930E94491C8DB79EB784960FB60F
:102E7000F8949EBF0FBE8DBFCE010E94830C80E1EF
:102E800092E00E94830C9FED22EB83E09150204062
:102E90008040E1F700C0000097EB2BE88CE09150F8
:102EA00020408040E1F700C000000E94900CDF91BC
:102EB000CF911F910F9108950E945D0F80939C0206
:102EC0000E94680F80939B0280919C02813009F0E0
:102ED0006EC080919D028F5F80939D02853019F4B2
:102EE00081E080939D020E94510C80919402909108
:102EF0009502019731F40E94A61510929502109246
:102F0000940280919D028230D1F018F4813031F02A
:102F100049C0833029F18430A1F144C04AE050E037
:102F200067EC72E08AE090E00E94290B86E291E073
:102F30000E94830C87EC92E00E94830C08954AE083
:102F400050E067EC72E089E190E00E94290B86E294
:102F500091E00E94830C87EC92E00E94830C08951C
:102F60004AE050E067EC72E088E290E00E94290BB2
:102F700086E291E00E94830C87EC92E00E94830C31
:102F800008954AE050E067EC72E087E390E00E9429
:102F9000290B86E291E00E94830C87EC92E00E946C
:102FA000830C089581E080939D020E945C17089530
:102FB0000E94450F80939F020E943B0F80939E02C8
:102FC0000895CF93DF9380E00E949909C8E7D0E08D
:102FD0006881798180E090E00E94221B20E030EC43
:102FE0004FE754E40E947A1A20E030E048EC52E4C3
:102FF0000E94B01B0E94EC1A7093BE026093BD0247
:1030000081E00E9499096881798180E090E00E94C6
:10301000221B20E030EC4FE754E40E947A1A20E0B3
:1030200030E048EC52E40E94B01B0E94EC1A70930E
:10303000C6026093C50282E00E9499096881798185
:1030400080E090E00E94221B20E030EC4FE754E447
:103050000E947A1A20E030E048EC52E40E94B01B53
:103060000E94EC1A7093C4026093C30283E00E9432
:1030700099096881798180E090E00E94221B20E01C
:1030800030EC4FE754E40E947A1A20E030E048EC3C
:1030900052E40E94B01B0E94EC1A7093C20260932B
:1030A000C102DF91CF9108950E94E1170E946C1533
:1030B0000E94D8170E945C1708950E94290F0E9451
:1030C00088090E94C40F0E942E0F0E94500F0E9478
:1030D000740F0E940F100E944D150E94D9100E947B
:1030E0009C0F0E94AD0F0895EF92FF920F931F93D4
:1030F0000E94F50F8093DF02E091DF028E2F90E0B7
:10310000FC01F197E832F10508F0C7C0EC5CFF4F15
:103110000C941D1C6091E0027091E1028091BF024D
:103120009091C002E090C102F090C2020091C302EF
:103130001091C4022091C5023091C6024091BD0297
:103140005091BE020E94FE1083E192E08093DF0264
:10315000A6C00E940D1283E192E08093DF029FC01F
:103160000E944A1083E192E08093DF0298C00E949F
:10317000E40F85E192E00E94D70F0E940D120E9499
:10318000E40F85E492E00E94D70F0E94E40F83E1F0
:1031900092E08093DF0283C084EB90E00E94F80904
:1031A00083E192E08093DF027AC00E946E138AE08E
:1031B00090E00E945B0A83E192E08093DF026FC09F
:1031C00083E192E08093DF026AC083E192E0809322
:1031D000DF0265C00E944A1083E192E08093DF0223
:1031E0005EC083E192E08093DF0259C083E192E008
:1031F0008093DF0254C083E192E08093DF024FC0EE
:103200000E944A104CC083E192E08093DF0247C0E5
:1032100083E192E08093DF0242C083E192E08093F9
:10322000DF023DC00E944A1083E192E08093DF02FA
:1032300036C083E192E08093DF0231C083E192E007
:103240008093DF022CC083E192E08093DF0227C0ED
:1032500083E192E08093DF0222C083E192E08093D9
:10326000DF021DC083E192E08093DF0218C083E19A
:1032700092E08093DF0213C083E192E08093DF024B
:103280000EC083E192E08093DF0209C00E94D91052
:1032900083E192E08093DF0202C00E94D9101F9167
:1032A0000F91FF90EF900895CF93DF9300D0CDB7AB
:1032B000DEB7F89480E393E39A838983BE016F5F5E
:1032C0007F4F80EA90E00E94EF0A0E945D18789498
:1032D0000E9454180E947418FACF1F920F920FB6D2
:1032E0000F9211242F933F934F935F936F937F938C
:1032F0008F939F93AF93BF93EF93FF930E947F159C
:10330000FF91EF91BF91AF919F918F917F916F91BD
:103310005F914F913F912F910F900FBE0F901F9093
:1033200018951F920F920FB60F9211242F933F936F
:103330004F935F936F937F938F939F93AF93BF93BD
:10334000EF93FF9380919202909193020196909354
:1033500093028093920280919202909193028D3712
:10336000910531F40E945C17109293021092920220
:1033700080919B02882329F080919C02811103C0D7
:1033800003C080E001C081E080939A0280919A029C
:10339000882399F08091960290919702A0919802CB
:1033A000B09199020196A11DB11D80939602909350
:1033B0009702A0939802B093990280919A02882371
:1033C000D9F08091960290919702A0919802B091C5
:1033D0009902843C9940A105B10570F081E090E02C
:1033E0009093950280939402109296021092970205
:1033F0001092980210929902FF91EF91BF91AF91B4
:103400009F918F917F916F915F914F913F912F91FC
:103410000F900FBE0F901F9018955058BB27AA27EA
:103420000E94251A0C94761B0E94681B38F00E949B
:103430006F1B20F039F49F3F19F426F40C94651BA0
:103440000EF4E095E7FB0C945F1BE92F0E94871BAD
:1034500058F3BA17620773078407950720F079F4C9
:10346000A6F50C94A91B0EF4E0950B2EBA2FA02DF7
:103470000B01B90190010C01CA01A0011124FF2721
:10348000591B99F0593F50F4503E68F11A16F0401C
:10349000A22F232F342F4427585FF3CF469537951B
:1034A0002795A795F0405395C9F77EF41F16BA0BE0
:1034B000620B730B840BBAF09150A1F0FF0FBB1F8E
:1034C000661F771F881FC2F70EC0BA0F621F731FD7
:1034D000841F48F4879577956795B795F7959E3F34
:1034E00008F0B0CF9395880F08F09927EE0F9795C5
:1034F000879508950E948E1A0C94761B0E946F1B6C
:1035000058F00E94681B40F029F45F3F29F00C94AA
:103510005F1B51110C94AA1B0C94651B0E94871B06
:1035200068F39923B1F3552391F3951B550BBB27F2
:10353000AA2762177307840738F09F5F5F4F220F37
:10354000331F441FAA1FA9F335D00E2E3AF0E0E82E
:1035500032D091505040E695001CCAF72BD0FE2F78
:1035600029D0660F771F881FBB1F2617370748070C
:10357000AB07B0E809F0BB0B802DBF01FF279358C4
:103580005F4F3AF09E3F510578F00C945F1B0C940E
:10359000AA1B5F3FE4F3983ED4F386957795679531
:1035A000B795F7959F5FC9F7880F911D96958795F9
:1035B00097F90895E1E0660F771F881FBB1F621718
:1035C00073078407BA0720F0621B730B840BBA0BD6
:1035D000EE1F88F7E09508950E94F31A6894B111E0
:1035E0000C94AA1B08950E948F1B88F09F5798F097
:1035F000B92F9927B751B0F0E1F0660F771F881FF8
:10360000991F1AF0BA95C9F714C0B13091F00E9411
:10361000A91BB1E008950C94A91B672F782F882768
:10362000B85F39F0B93FCCF3869577956795B39538
:10363000D9F73EF490958095709561957F4F8F4FA7
:103640009F4F0895E89409C097FB3EF490958095AC
:10365000709561957F4F8F4F9F4F9923A9F0F92F58
:1036600096E9BB279395F695879577956795B795D6
:10367000F111F8CFFAF4BB0F11F460FF1BC06F5FBC
:103680007F4F8F4F9F4F16C0882311F096E911C0CE
:10369000772321F09EE8872F762F05C0662371F0EF
:1036A00096E8862F70E060E02AF09A95660F771F03
:1036B000881FDAF7880F9695879597F9089597F9F7
:1036C0009F6780E870E060E008959FEF80EC0895C8
:1036D00000240A94161617061806090608950024F1
:1036E0000A9412161306140605060895092E03946B
:1036F000000C11F4882352F0BB0F40F4BF2B11F4DF
:1037000060FF04C06F5F7F4F8F4F9F4F089557FD3D
:103710009058440F551F59F05F3F71F04795880F3F
:1037200097FB991F61F09F3F79F0879508951216D6
:1037300013061406551FF2CF4695F1DF08C0161682
:1037400017061806991FF1CF869571056105089433
:103750000895E894BB2766277727CB0197F908954A
:103760000E94C31B0C94761B0E94681B38F00E94B9
:103770006F1B20F0952311F00C945F1B0C94651BBC
:1037800011240C94AA1B0E94871B70F3959FC1F310
:10379000950F50E0551F629FF001729FBB27F00DFF
:1037A000B11D639FAA27F00DB11DAA1F649F662754
:1037B000B00DA11D661F829F2227B00DA11D621FA3
:1037C000739FB00DA11D621F839FA00D611D221F5D
:1037D000749F3327A00D611D231F849F600D211D41
:1037E000822F762F6A2F11249F5750409AF0F1F0C4
:1037F00088234AF0EE0FFF1FBB1F661F771F881F2D
:1038000091505040A9F79E3F510580F00C945F1BEA
:103810000C94AA1B5F3FE4F3983ED4F3869577950A
:103820006795B795F795E7959F5FC1F7FE2B880FD2
:10383000911D9695879597F90895EE0FFF1F0590B6
:10384000F491E02D0994FC0188279927E8942191AF
:103850002032E9F3293010F02E30C8F32B3241F03A
:103860002D3239F4689404C00E94411C820F911DCE
:10387000219120532A30C0F31EF4909581959F4FDB
:1038800008957AE0979F902D879F802D910D1124A8
:103890000895AEE0B0E0EFE4FCE10C940A1F0D895E
:1038A0001E8986E08C831A8309838FEF9FE79E83AE
:1038B0008D83AE01475E5F4F6F89788DCE01019693
:1038C0000E946B1CEF81F885E00FF11F10822E968D
:1038D000E4E00C94261FABE0B0E0E1E7FCE10C94DF
:1038E000FC1E6C017B018A01FC0117821682838118
:1038F00081FFCCC1CE0101963C01F6019381F70115
:1039000093FD859193FF81917F01882309F4BAC1CA
:10391000853239F493FD859193FF81917F01853242
:1039200029F4B60190E00E94621EE7CF912C212C71
:10393000312CFFE1F315D8F08B3279F038F4803276
:1039400079F08332A1F4232D20611DC08D3261F006
:10395000803369F4232D216016C0832D8260382EB8
:10396000E32DE4603E2E2AC0F32DF8601DC037FC25
:103970002DC020ED280F2A3040F08E32B9F436FCED
:1039800081C1232D2064322E19C036FE06C08AE084
:10399000989E200D1124922E11C0EAE02E9E200D3B
:1039A0001124222EF32DF0623F2E08C08C3621F414
:1039B000832D8068382E02C0883641F4F70193FDCC
:1039C000859193FF81917F018111B3CF982F9F7DC6
:1039D0009554933028F40C5F1F4F9FE399830DC0DB
:1039E000833631F0833771F0833509F059C021C037
:1039F000F801808189830E5F1F4F88248394912C66
:103A0000530113C02801F2E04F0E511CF801A080B1
:103A1000B18036FE03C0692D70E002C06FEF7FEF0A
:103A2000C5010E94571E4C018201F32DFF773F2EE6
:103A300016C0280122E0420E511CF801A080B1807E
:103A400036FE03C0692D70E002C06FEF7FEFC50145
:103A50000E944C1E4C01F32DF0683F2E820133FC76
:103A60001BC0822D90E088169906B0F4B60180E262
:103A700090E00E94621E2A94F4CFF50137FC8591F4
:103A800037FE81915F01B60190E00E94621E211015
:103A90002A9421E0821A91088114910471F7E8C0F8
:103AA000843611F0893641F5F80137FE07C0608190
:103AB0007181828193810C5F1F4F08C06081718189
:103AC000072E000C880B990B0E5F1F4FF32DFF760E
:103AD0003F2E97FF09C090958095709561957F4F17
:103AE0008F4F9F4FF0683F2E2AE030E0A3010E94E5
:103AF0009E1E882E861845C0853731F4232D2F7ED3
:103B0000B22E2AE030E025C0932D997FB92E8F3652
:103B1000C1F018F4883579F0B5C0803719F08837CE
:103B200021F0B0C0E92FE061BE2EB4FE0DC0FB2D28
:103B3000F460BF2E09C034FE0AC0292F2660B22EC1
:103B400006C028E030E005C020E130E002C020E1FE
:103B500032E0F801B7FE07C06081718182819381F4
:103B60000C5F1F4F06C06081718180E090E00E5FA6
:103B70001F4FA3010E949E1E882E8618FB2DFF77E3
:103B80003F2E36FE0DC0232D2E7FA22E891458F411
:103B900034FE0BC032FC09C0832D8E7EA82E05C0DA
:103BA000B82CA32C03C0B82C01C0B92CA4FE0FC0A4
:103BB000FE01E80DF11D8081803321F49A2D997E5C
:103BC000A92E09C0A2FE06C0B394B39404C08A2DE6
:103BD000867809F0B394A3FC11C0A0FE06C0B2140D
:103BE00088F4280C922C9B180EC0B21460F4B60115
:103BF00080E290E00E94621EB394F7CFB21418F4F2
:103C00002B1802C0982C212CA4FE10C0B60180E312
:103C100090E00E94621EA2FE17C0A1FC03C088E7CC
:103C200090E002C088E590E0B6010CC08A2D86784D
:103C300059F0A1FE02C08BE201C080E2A7FC8DE238
:103C4000B60190E00E94621E891438F4B60180E348
:103C500090E00E94621E9A94F7CF8A94F301E80DD7
:103C6000F11D8081B60190E00E94621E8110F5CFA7
:103C7000222009F442CEB60180E290E00E94621E4A
:103C80002A94F6CFF6018681978102C08FEF9FEFCD
:103C90002B96E2E10C94181FFC01059061507040D6
:103CA0000110D8F7809590958E0F9F1F0895FC0105
:103CB0006150704001900110D8F7809590958E0F5B
:103CC0009F1F08950F931F93CF93DF93FB012381D1
:103CD00021FD03C08FEF9FEF2CC022FF16C046814D
:103CE0005781248135814217530744F4A081B18163
:103CF0009D012F5F3F4F318320838C932681378135
:103D00002F5F3F4F3783268314C08B01EC01FB01EB
:103D10000084F185E02D0995892BE1F6D8011696EE
:103D20008D919C911797019617969C938E93169759
:103D3000CE01DF91CF911F910F910895FA01AA272B
:103D4000283051F1203181F1E8946F936E7F6E5FDE
:103D50007F4F8F4F9F4FAF4FB1E03ED0B4E03CD08C
:103D6000670F781F891F9A1FA11D680F791F8A1F6F
:103D7000911DA11D6A0F711D811D911DA11D20D0D6
:103D800009F468943F912AE0269F11243019305D90
:103D90003193DEF6CF010895462F4770405D419381
:103DA000B3E00FD0C9F7F6CF462F4F70405D4A33CE
:103DB00018F0495D31FD4052419302D0A9F7EACF96
:103DC000B4E0A6959795879577956795BA95C9F7C5
:103DD00000976105710508959B01AC010A2E0694B8
:103DE0005795479537952795BA95C9F7620F731F71
:103DF000841F951FA01D08952F923F924F925F92AE
:103E00006F927F928F929F92AF92BF92CF92DF92EA
:103E1000EF92FF920F931F93CF93DF93CDB7DEB74F
:103E2000CA1BDB0B0FB6F894DEBF0FBECDBF0994E3
:103E30002A88398848885F846E847D848C849B843A
:103E4000AA84B984C884DF80EE80FD800C811B8148
:103E5000AA81B981CE0FD11D0FB6F894DEBF0FBE77
:0A3E6000CDBFED010895F894FFCFE7
:103E6A004341464645000000000059455242494137
:103E7A00444F00004C4154544500000000002564A2
:103E8A002E25303464002D0054656D70657261749E
:103E9A007572613A20002564004265626964612096
:103EAA0031202D3E004265626964612032202D3E38
:103EBA00004265626964612033202D3E00426562DA
:103ECA006964612034202D3E0030204C6974726F81
:103EDA007300204C612063616665746572612066B7
:103EEA00756520636F6E66696775726164612065C6
:103EFA007869746F73616D656E7465203A29004C38
:103F0A0061206361666574657261206573746120FE
:103F1A00636F6E66696775726164612079206C6986
:103F2A00737461203A2900204D65646964617300E5
:103F3A00204E6976656C65732064650020506F6C4D
:103F4A00766F73202500202820656E202529002001
:103F5A004269646F6E3A003E54656D7065726174B1
:103F6A00757261002A43003E566F6C756D656E006E
:103F7A006D6C002C003E3E44656C20736967756960
:103F8A00656E7465206C69737461646F2C20657347
:103F9A00636F6A612071756520636F6E6669677504
:103FAA007261723A003E3E53656C656363696F6E77
:103FBA006520756E61206465206C617320616E7482
:103FCA006572696F726573206F7063696F6E65736E
:103FDA0020792073696761206C617320696E73743C
:0C3FEA0072756363696F6E6573200000E0
:00000001FF
