:100000000C9434000C9451000C9451000C94510049
:100010000C9451000C9451000C9451000C9451001C
:100020000C9451000C9451000C9451000C9451000C
:100030000C9451000C9451000C9451000C945100FC
:100040000C9451000C9451000C9451000C945100EC
:100050000C9451000C9451000C9451000C945100DC
:100060000C9451000C94510011241FBECFEFD8E026
:10007000DEBFCDBF17E0A0E0B1E0E2E0FBE002C0F0
:1000800005900D92A63FB107D9F727E0A6EFB7E09C
:1000900001C01D92A63FB207E1F70E9489010C94AE
:1000A0007F050C94000089E18093B8001092B9009C
:1000B000089584EA8093BC008091BC008823E4F713
:1000C00008958093BB0084E88093BC008091BC00BD
:1000D0008823E4F70895EBEBF0E080818260808371
:1000E00084E88093BC008091BC008823E4F789EF0A
:1000F00090E00197F1F700C00000EBEBF0E08081A9
:100100008D7F808384E88093BC008091BC0088232D
:10011000E4F70895EBEBF0E090819E7F908394E804
:100120009093BC009091BC009923E4F7EBEBF0E0D6
:1001300090819F70908394E89093BC009091BC0054
:100140009923E4F7EBEBF0E09081807F892B8083AB
:1001500084E88093BC008091BC008823E4F70E946F
:100160006B000895CF93C82FEBEBF0E080818E7F7A
:10017000808384E88093BC008091BC008823E4F7EE
:10018000EBEBF0E080818F70808384E88093BC008B
:100190008091BC008823E4F7EBEBF0E080819C2F9A
:1001A000907F892B808384E88093BC008091BC0081
:1001B0008823E4F70E946B00EBEBF0E080818F7006
:1001C000808384E88093BC008091BC008823E4F79E
:1001D000EBEBF0E0208130E1C39FC0011124822BC2
:1001E000808384E88093BC008091BC008823E4F77E
:1001F0000E946B00CF910895CF93C82FEBEBF0E0F6
:1002000080818160808384E88093BC008091BC0001
:100210008823E4F7EBEBF0E080818F70808384E843
:100220008093BC008091BC008823E4F7EBEBF0E006
:1002300080819C2F907F892B808384E88093BC00F1
:100240008091BC008823E4F70E946B00EBEBF0E0A8
:1002500080818F70808384E88093BC008091BC0093
:100260008823E4F7EBEBF0E0208130E1C39FC0018D
:100270001124822B808384E88093BC008091BC0091
:100280008823E4F70E946B00CF91089581EE94E0FB
:100290000197F1F700C0000080E30E948A0081EE20
:1002A00094E00197F1F700C0000080E30E948A000B
:1002B00080E20E948A0081EE94E00197F1F700C08D
:1002C000000088E20E94B2008CE00E94B20081E04F
:1002D0000E94B20086E00E94B20080E80E94B20054
:1002E0000895CF93DF93EC0103C021960E94FC0098
:1002F00088818111FACFDF91CF91089581E00E942A
:10030000B20081E28A95F1F7000080E80E94B20015
:100310000895CF93DF93CDB7DEB72A970FB6F89441
:10032000DEBF0FBECDBF0E94E90180E091E00E94D8
:10033000FC010E9410020E9409020E9453000E94C8
:10034000590080E40E9461000E9446018CE091E027
:100350000E9471012FE38DE093E021508040904096
:10036000E1F700C000000E947E0188E191E00E9458
:1003700071010E947E0100E010E01F930F9381E263
:1003800091E09F938F93CE0101967C019F938F9371
:100390000E949502C7010E94710197E525EB80E15B
:1003A000915020408040E1F700C000000E947E0193
:1003B00088E191E00E9471010F5F1F4F84E291E09C
:1003C0000E94FC010F900F900F900F900F900F90D4
:1003D000D4CF1092C50087E68093C40088E1809353
:1003E000C10086E08093C20008959091C00095FFFF
:1003F000FCCF8093C6000895CF93DF93EC0103C038
:100400000E94F501219688818111FACFDF91CF9169
:1004100008958DE00E94F5018AE00E94F50108959B
:1004200080E391E00E94FC010E9409028EE791E0C6
:100430000E94FC010E94090286ED91E00E94FC01ED
:100440000E9409028EE292E00E94FC010E940902D1
:1004500086E892E00E94FC010E94090281ED92E090
:100460000E94FC010E94090289E293E00E94FC01C3
:100470000E94090282E893E00E94FC010E940902A6
:100480008CED93E00E94FC010E94090286E394E057
:100490000E94FC010E9409028FE894E00E94FC0186
:1004A0000E94090282ED94E00E94FC010E94090270
:1004B00086E195E00E94FC010E9409028DE595E02D
:1004C0000E94FC010E94090285EA95E00E94FC015D
:1004D0000E9409028CEE95E00E94FC010E94090234
:1004E00085E396E00E94FC010E9409028EE796E0F7
:1004F0000E94FC010E94090287EC96E00E94FC0128
:100500000E9409028FE097E00E94FC010E9409020C
:1005100088E597E00E94FC010E9409028FE997E0BC
:100520000E94FC010E9409020895AEE0B0E0EBE9F0
:10053000F2E00C9456050D891E8986E08C831A839F
:1005400009838FEF9FE79E838D83AE01475E5F4FE8
:100550006F89788DCE0101960E94B702EF81F885F0
:10056000E00FF11F10822E96E4E00C947205ABE0D0
:10057000B0E0EDEBF2E00C9448056C017B018A01E0
:10058000FC0117821682838181FFCCC1CE010196C6
:100590003C01F6019381F70193FD859193FF8191D1
:1005A0007F01882309F4BAC1853239F493FD85911E
:1005B00093FF81917F01853229F4B60190E00E947A
:1005C000AE04E7CF912C212C312CFFE1F315D8F0AC
:1005D0008B3279F038F4803279F08332A1F4232D14
:1005E00020611DC08D3261F0803369F4232D2160BC
:1005F00016C0832D8260382EE32DE4603E2E2AC083
:10060000F32DF8601DC037FC2DC020ED280F2A30D7
:1006100040F08E32B9F436FC81C1232D2064322E95
:1006200019C036FE06C08AE0989E200D1124922E35
:1006300011C0EAE02E9E200D1124222EF32DF0622F
:100640003F2E08C08C3621F4832D8068382E02C0DE
:10065000883641F4F70193FD859193FF81917F01E5
:100660008111B3CF982F9F7D9554933028F40C5F60
:100670001F4F9FE399830DC0833631F0833771F0AC
:10068000833509F059C021C0F801808189830E5F4C
:100690001F4F88248394912C530113C02801F2E04A
:1006A0004F0E511CF801A080B18036FE03C0692DA9
:1006B00070E002C06FEF7FEFC5010E94A3044C0100
:1006C0008201F32DFF773F2E16C0280122E0420E53
:1006D000511CF801A080B18036FE03C0692D70E086
:1006E00002C06FEF7FEFC5010E9498044C01F32D0B
:1006F000F0683F2E820133FC1BC0822D90E08816EB
:100700009906B0F4B60180E290E00E94AE042A940B
:10071000F4CFF50137FC859137FE81915F01B60179
:1007200090E00E94AE0421102A9421E0821A9108E0
:100730008114910471F7E8C0843611F0893641F5CF
:10074000F80137FE07C060817181828193810C5F5F
:100750001F4F08C060817181072E000C880B990B18
:100760000E5F1F4FF32DFF763F2E97FF09C0909528
:100770008095709561957F4F8F4F9F4FF0683F2E0A
:100780002AE030E0A3010E94EA04882E861845C0C2
:10079000853731F4232D2F7EB22E2AE030E025C09C
:1007A000932D997FB92E8F36C1F018F4883579F0E2
:1007B000B5C0803719F0883721F0B0C0E92FE0616B
:1007C000BE2EB4FE0DC0FB2DF460BF2E09C034FE5A
:1007D0000AC0292F2660B22E06C028E030E005C0EE
:1007E00020E130E002C020E132E0F801B7FE07C0AE
:1007F00060817181828193810C5F1F4F06C060818F
:10080000718180E090E00E5F1F4FA3010E94EA0417
:10081000882E8618FB2DFF773F2E36FE0DC0232D28
:100820002E7FA22E891458F434FE0BC032FC09C06E
:10083000832D8E7EA82E05C0B82CA32C03C0B82C07
:1008400001C0B92CA4FE0FC0FE01E80DF11D80818E
:10085000803321F49A2D997EA92E09C0A2FE06C0EC
:10086000B394B39404C08A2D867809F0B394A3FCA2
:1008700011C0A0FE06C0B21488F4280C922C9B185C
:100880000EC0B21460F4B60180E290E00E94AE04A3
:10089000B394F7CFB21418F42B1802C0982C212C63
:1008A000A4FE10C0B60180E390E00E94AE04A2FE58
:1008B00017C0A1FC03C088E790E002C088E590E083
:1008C000B6010CC08A2D867859F0A1FE02C08BE2D9
:1008D00001C080E2A7FC8DE2B60190E00E94AE0468
:1008E000891438F4B60180E390E00E94AE049A9433
:1008F000F7CF8A94F301E80DF11D8081B60190E0F5
:100900000E94AE048110F5CF222009F442CEB60138
:1009100080E290E00E94AE042A94F6CFF601868130
:10092000978102C08FEF9FEF2B96E2E10C94640554
:10093000FC010590615070400110D8F780959095AA
:100940008E0F9F1F0895FC016150704001900110AF
:10095000D8F7809590958E0F9F1F08950F931F9342
:10096000CF93DF93FB01238121FD03C08FEF9FEF26
:100970002CC022FF16C04681578124813581421741
:10098000530744F4A081B1819D012F5F3F4F318314
:1009900020838C93268137812F5F3F4F37832683B7
:1009A00014C08B01EC01FB010084F185E02D099559
:1009B000892BE1F6D80116968D919C911797019697
:1009C00017969C938E931697CE01DF91CF911F912E
:1009D0000F910895FA01AA27283051F1203181F1B1
:1009E000E8946F936E7F6E5F7F4F8F4F9F4FAF4F37
:1009F000B1E03ED0B4E03CD0670F781F891F9A1F4A
:100A0000A11D680F791F8A1F911DA11D6A0F711DFD
:100A1000811D911DA11D20D009F468943F912AE009
:100A2000269F11243019305D3193DEF6CF010895F1
:100A3000462F4770405D4193B3E00FD0C9F7F6CF22
:100A4000462F4F70405D4A3318F0495D31FD4052EA
:100A5000419302D0A9F7EACFB4E0A6959795879580
:100A600077956795BA95C9F700976105710508955F
:100A70009B01AC010A2E069457954795379527950B
:100A8000BA95C9F7620F731F841F951FA01D0895A3
:100A90002F923F924F925F926F927F928F929F928E
:100AA000AF92BF92CF92DF92EF92FF920F931F937C
:100AB000CF93DF93CDB7DEB7CA1BDB0B0FB6F8942D
:100AC000DEBF0FBECDBF09942A88398848885F846D
:100AD0006E847D848C849B84AA84B984C884DF80DE
:100AE000EE80FD800C811B81AA81B981CE0FD11DC2
:100AF0000FB6F894DEBF0FBECDBFED010895F89498
:020B0000FFCF25
:100B020009486F6C61206D756E646F0020486F6CD0
:100B120061204D756E646F0020486F6C6120796FA3
:100B22000025640020486F6C61206D756E646F0053
:100B320020202020202020202020202020202020B3
:100B42002020202020202020393020203430302046
:100B520020202020545046492E2E2E204341544519
:100B62004452413A2020202053495354454D415389
:100B7200204449474954414C4553204956002020BE
:100B82002020202020202020202020202020202063
:100B92002020203132333238303030303030303073
:100BA2002020202020202020202020202020202043
:100BB2002020202050524F4645534F5245533A2051
:100BC200494E47204544554152444F2056454C41D9
:100BD2005A5155455A002020202020202020202034
:100BE200202020202020343030303030303030305F
:100BF200303030303030303720202020202020206C
:100C020020202020202020202020202020202020E2
:100C120020202020202020204C4943204A554C49A6
:100C2200414E204D494E4154454C20202000202069
:100C3200202020202020202020202034303030305E
:100C420030303030303030202033303030303030BF
:100C520030352020202020204E4F4D4252453A2050
:100C6200464142524943494F204441564944204754
:100C7200414C4C4F202020202020202020202020CA
:100C82002020202020002020202020202020202082
:100C9200202030303030203830303030303030307A
:100CA2003030303030303030303030302020202082
:100CB2002020202020202020202020202020202032
:100CC2002020202020202020202020202020202022
:100CD20000202020202020202020202034303030EE
:100CE2003030303030303030303030303030303002
:100CF2003030303030303030302020202020202062
:100D02002020202020274341464554455241272098
:100D1200455320554E2050524F594543544F20447D
:100D22004F4E4445205345200020202020202020E3
:100D320020202020373030303030303030303030EA
:100D420030303030303030303030303030303030A1
:100D5200303030303720202020202020202020203A
:100D620020202050554544454E20434F4E54524F6B
:100D72004C41522054454D50455241545552412CFC
:100D82002000202020202020202020202020303061
:100D92003030303030303030303030303030303051
:100DA2003030303030303030303030303030303041
:100DB200303030303030303030342020202020208D
:100DC20043414E5449444144204445205052454DEC
:100DD200455A434C412C45544320200020202020DA
:100DE2002020202020202020203830303030303089
:100DF20030303030303030303030303030303030F1
:100E020030303030303030303030303030303030E0
:100E1200303030303030303031202020202020500F
:100E2200415241204D4F4449464943415220455386
:100E3200544F53202000202020202020202020203A
:100E42002020202020202020303030303030303020
:100E52003030303030303030303030303030303090
:100E62003030303030303030303030303030303080
:100E72003030303036202020202020205554494C5C
:100E8200494345204C412055415254202020002006
:100E92002020202020202020202020202020202050
:100EA200202020203130303030303030303030307F
:100EB2003030303030303030303030303030303030
:100EC200303030303030303030303030303030311F
:100ED2002000202020202020202020202020202030
:100EE2002020202020202020303030303030303080
:100EF20030303030303030303030303030303030F0
:100F020030303030303030303030303030303030DF
:100F120030303030200020202020202020202020AF
:100F22002020202020202020202020202020393096
:100F320030303030303030303030303030303030AF
:100F4200303030303030303030303030303030309F
:100F520030303030303030303030302000202020FF
:100F6200202020203120203120202020202020205D
:100F720020202020203930303030303030303030B6
:100F8200303030303030303030303030303030305F
:100F9200303030303030303030303030303030304F
:100FA200303030200020202020202020203120201E
:100FB20031202020202020202020202020203030FE
:100FC200303030303030303030303030303030301F
:100FD200303030303030303030303030303030300F
:100FE200303030303030303030303000202020206F
:100FF20020202031202031202020202020202020CD
:101002002020202020393030303030303030303025
:1010120030303030303030303030303030303030CE
:1010220030303030303030303030303030303030BE
:101032003030382000202020202030303030303036
:10104200303030333720202020202020202020362E
:10105200303030303030303030303030303030308E
:10106200303030303030303030303030303030307E
:1010720030303030303030303030303520002020C9
:1010820020202030303030303030303920203920AC
:1010920020202020202020202030303030303030DE
:1010A200303030303030303030303030303030303E
:1010B200303030303030303030303030303030302E
:1010C20030303030202000202020202030303030BE
:1010D20030303030303220202020202020202020AC
:1010E2002020393030303030303030303030303015
:1010F20030303030303030303030303030303030EE
:10110200303030303030303030303030202000203D
:101112002020202030303030303030303920202034
:101122002020202020202020202039303020303064
:1011320030303220353030303030303030303030B6
:10114200303030303030303030303030303030309D
:10115200303030302020200020202020203030303D
:101162003030303030362020202020202020202017
:1011720020202039303020383030362020202020E6
:101182002020373030303030303030303030303076
:1011920030303030303030303030303020200020AD
:1011A20020343434363636363636363636343435FE
:1011B20020202020202020202033303030363030B4
:1011C200302020202020202020202020202020200D
:1011D2002035303030303030303030303030303018
:1011E2003030202020004564697461722076616C81
:0611F2006F72657300003E
:00000001FF
