:100000000C9434000C9451000C9451000C94510049
:100010000C9451000C9451000C9451000C9451001C
:100020000C9451000C9451000C9451000C949904C0
:100030000C9451000C9451000C9451000C945100FC
:100040000C9451000C9451000C9451000C945100EC
:100050000C9451000C9451000C9451000C945100DC
:100060000C9451000C94510011241FBECFEFD8E026
:10007000DEBFCDBF11E0A0E0B1E0E2E2F7E102C0F7
:1000800005900D92A236B107D9F721E0A2E6B1E0C2
:1000900001C01D92AF3AB207E1F70E9438060C94F6
:1000A0008F0B0C940000ECE7F0E08081806480838B
:1000B00080818F7D8083EAE7F0E0808187608083A4
:1000C0008081806880830895ECE7F0E09081907FE4
:1000D00090839081892B8083EAE7F0E080818064BF
:1000E000808380917A0086FDFCCF089589E180931A
:1000F000B8001092B900089584EA8093BC00809102
:10010000BC008823E4F708958093BB0084E88093C3
:10011000BC008091BC008823E4F7089584E98093B3
:10012000BC008091BC0080FDFCCF0895EBEBF0E0BB
:1001300080818260808384E88093BC008091BC00D1
:100140008823E4F789EF90E00197F1F700C0000001
:10015000EBEBF0E080818D7F808384E88093BC00AE
:100160008091BC008823E4F70895EBEBF0E09081E8
:100170009E7F908394E89093BC009091BC0099235B
:10018000E4F7EBEBF0E090819F70908394E890931C
:10019000BC009091BC009923E4F7EBEBF0E0908178
:1001A000807F892B808384E88093BC008091BC0091
:1001B0008823E4F70E9496000895CF93C82FEBEBB5
:1001C000F0E080818E7F808384E88093BC00809102
:1001D000BC008823E4F7EBEBF0E080818F70808334
:1001E00084E88093BC008091BC008823E4F7EBEBAB
:1001F000F0E080819C2F907F892B808384E880931E
:10020000BC008091BC008823E4F70E949600EBEBD1
:10021000F0E080818F70808384E88093BC008091BF
:10022000BC008823E4F7EBEBF0E0208130E1C39FD2
:10023000C0011124822B808384E88093BC008091CC
:10024000BC008823E4F70E949600CF910895CF93D5
:10025000C82FEBEBF0E080818160808384E880939D
:10026000BC008091BC008823E4F7EBEBF0E08081D8
:100270008F70808384E88093BC008091BC008823C9
:10028000E4F7EBEBF0E080819C2F907F892B80835B
:1002900084E88093BC008091BC008823E4F70E942E
:1002A0009600EBEBF0E080818F70808384E8809390
:1002B000BC008091BC008823E4F7EBEBF0E02081E8
:1002C00030E1C39FC0011124822B808384E8809396
:1002D000BC008091BC008823E4F70E949600CF9177
:1002E00008950E9476000E947C0080E40E948400B1
:1002F00081EE94E00197F1F700C0000080E30E94D6
:10030000B50081EE94E00197F1F700C0000080E3B2
:100310000E94B50080E20E94B50081EE94E0019752
:10032000F1F700C0000088E20E94DD008CE00E942E
:10033000DD0081E00E94DD0086E00E94DD0080E8B3
:100340000E94DD000895CF93DF93EC0103C0219656
:100350000E94270188818111FACFDF91CF91089502
:1003600085E08093B800089584EA8093BC00809172
:10037000BC008823E4F708958093BB0084E8809351
:10038000BC008091BC008823E4F7089584EC80933E
:10039000BC008091BC008823E4F78091BB0090E012
:1003A000A0E0B0E080936F0190937001A093710181
:1003B000B093720184EC8093BC008091BC008823D0
:1003C000E4F78091BB0090E0A0E0B0E0809377017B
:1003D00090937801A0937901B0937A0184E8809397
:1003E000BC008091BC008823E4F78091BB0090E0C2
:1003F000A0E0B0E08093730190937401A093750125
:10040000B0937601089584E98093BC0008950E941A
:10041000B40180ED0E94BC018CE10E94BC010E94ED
:1004200003020895CF93DF930E94B0010E94070258
:100430000E94B40181ED0E94BC010E94C60120917E
:100440006F0180E090E0922F990F990FC091770192
:10045000D0917801CC0FDD1FCC0FDD1FC82BD92B1D
:100460008091730190917401082E892F000C881FD0
:10047000990B000C881F991FC82BD92B22970E941B
:100480000302CE01DF91CF91089594EA9093BC00CE
:100490009091BC009923E4F79091B9009B7F98302C
:1004A00009F057C090E99093BB0094E89093BC008A
:1004B0009091BC009923E4F79091B9009B7F98310B
:1004C00009F047C08093BB0084E88093BC00809112
:1004D000BC008823E4F78091B9008B7F8832C9F58E
:1004E00084EA8093BC008091BC008823E4F780916B
:1004F000B9008B7F803169F581E98093BB0084E886
:100500008093BC008091BC008823E4F78091B900FF
:100510008B7F8034F1F415C02115310521F484E876
:100520008093BC0003C084EC8093BC008091BC002D
:100530008823E4F78091BB00FB018083A9016F5FF2
:100540007F4F9A0121503109452B31F784E980937F
:10055000BC00089594EA9093BC009091BC0099234C
:10056000E4F79091B9009B7F9830D1F590E9909392
:10057000BB0094E89093BC009091BC009923E4F7F1
:100580009091B9009B7F983159F58093BB0084E826
:100590008093BC008091BC008823E4F78091B9006F
:1005A0008B7F8832E9F414C0FB013196DB018C911A
:1005B0008093BB0084E88093BC008091BC008823BA
:1005C000E4F78091B900A9018B7F883249F4BF011B
:1005D0009A0121503109452B39F784E98093BC00F9
:1005E00008951F93CF93DF931F92CDB7DEB7182FD7
:1005F00041E050E0BE016F5F7F4F81E00E94450205
:100600008981282F2F7930E2139FC0011124822B7A
:10061000898341E050E0BE016F5F7F4F81E00E941F
:10062000AA020F90DF91CF911F9108951F93CF934E
:10063000DF931F92CDB7DEB7182F41E050E0BE0127
:100640006F5F7F4F81E00E94450289818E7F182B6A
:10065000198341E050E0BE016F5F7F4F81E00E944F
:10066000AA020F90DF91CF911F910895EF92FF9210
:100670001F93CF93DF9300D0CDB7DEB742E050E0B9
:10068000BE016F5F7F4F80E00E944502E980FA80E3
:10069000B701772780E090E00E945C071F2DF7FEEE
:1006A00006C020E030E040E05FE30E94480616FF0D
:1006B00006C020E030E040E85EE30E94480615FFF7
:1006C00006C020E030E040E05EE30E94480614FFF0
:1006D00006C020E030E040E85DE30E9448060F904D
:1006E0000F90DF91CF911F91FF90EF9008958F921F
:1006F0009F92AF92BF92CF92DF92EF92FF920F93B1
:100700001F93CF93DF93CDB7DEB7AA970FB6F894B8
:10071000DEBF0FBECDBF0E944C0483E00E94F102F9
:1007200080E00E94160301E010E03CC00E94360306
:100730004B015C010E9426076B017C01072E000C17
:10074000880B990B0E945E079B01AC01C501B401A7
:100750000E94470620E030E44CE156E40E94EA079C
:100760000E9426079B01772324F422273327261B88
:10077000370B3F932F93DF92CF9280E091E09F93CE
:100780008F93CE0101969F938F930E94A50887E1D6
:1007900091E00E945F040F5F1F4F0FB6F894DEBF19
:1007A0000FBECDBF0B3F11050CF287E191E00E9417
:1007B0005F04CE0101960E947F089F938F9388E18A
:1007C00091E09F938F938E010F5D1F4F1F930F93A7
:1007D0000E94A508C8010E947F080F900F900F90FB
:1007E0000F900F900F90AA960FB6F894DEBF0FBE31
:1007F000CDBFDF91CF911F910F91FF90EF90DF90D0
:10080000CF90BF90AF909F908F9008958AB1877FCF
:100810008AB98AB18F7E8AB98BB188608BB98BB166
:1008200080618BB9089589B182958F7091E0892795
:1008300081708093640190E0089589B186958695D2
:10084000869591E0892781708093650190E00895F5
:100850008AB18F7D8AB98AB18F7B8AB98BB1806268
:100860008BB98BB180648BB9089589B182958695D7
:10087000877091E0892781708093630190E00895EB
:1008800089B1829586958695837091E089278170DC
:100890008093620190E008951092C50087E68093EE
:1008A000C40088E18093C10086E08093C20008956F
:1008B0009091C00095FFFCCF8093C6000895CF9320
:1008C000DF93EC0103C00E945804219688818111B6
:1008D000FACFDF91CF9108958DE00E9458048AE00D
:1008E0000E94580408950E9471018BE191E00E94DA
:1008F000A30127E689EB95E6215080409040E1F77F
:1009000000C000000E948E000895E1E8F0E08081C0
:100910008860808380E490E09093890080938800D1
:10092000AFE6B0E08C9182608C938081836080839D
:1009300008951F920F920FB60F9211240F931F93D9
:100940002F933F934F935F936F937F938F939F93D7
:10095000AF93BF93CF93DF93EF93FF9380916A019F
:10096000813081F480916901813061F48091670167
:1009700090916801019690936801809367011092AD
:10098000660106C01092680110926701109266011C
:10099000809167019091680187332AE49207B1F54D
:1009A0006CEA7EE00E9457087F936F9308E111E0A4
:1009B0001F930F93C5E9D1E0DF93CF930E94A50861
:1009C00081E0809366010E946C041092680110928D
:1009D0006701809166011F928F931F930F93DF939E
:1009E000CF930E94A508CE010E945F040E9471016E
:1009F00084E291E00E94A3010E948E008DB79EB711
:100A00000C960FB6F8949EBF0FBE8DBFFF91EF916D
:100A1000DF91CF91BF91AF919F918F917F916F9116
:100A20005F914F913F912F911F910F910F900FBEAA
:100A30000F901F9018950E94350480936A010E94C0
:100A400040048093690180916A01813009F047C0B8
:100A500080916B018F5F80936B01853061F481E041
:100A600080936B0108C080916601811104C00E94CF
:100A7000350480936A0180916A018130A1F38091ED
:100A8000660181112CC00E94710180916B0182303E
:100A900071F018F4813031F019C0833069F084307E
:100AA00081F014C08AE291E00E94A30116C084E3A1
:100AB00091E00E94A30111C08EE391E00E94A30186
:100AC0000CC088E491E00E94A30107C081E08093FC
:100AD0006B018AE291E00E94A3010E948E000895BA
:100AE0000E941D0480936D010E94130480936C0189
:100AF0000895CF93DF9380E090E00E946400C8E700
:100B0000D0E06881798180E090E00E945C0720E07D
:100B100030EC4FE754E40E94B40620E030E048ECAB
:100B200052E40E94EA070E94260770938C016093AA
:100B30008B0181E090E00E9464006881798180E00F
:100B400090E00E945C0720E030EC4FE754E40E9404
:100B5000B40620E030E048EC52E40E94EA070E942C
:100B60002607709394016093930182E090E00E94C5
:100B700064006881798180E090E00E945C0720E059
:100B800030EC4FE754E40E94B40620E030E048EC3B
:100B900052E40E94EA070E94260770939201609334
:100BA000910183E090E00E9464006881798180E097
:100BB00090E00E945C0720E030EC4FE754E40E9494
:100BC000B40620E030E048EC52E40E94EA070E94BC
:100BD00026077093900160938F01DF91CF91089564
:100BE0000E94B0010E9407020E94120280916F01D0
:100BF00020E030E0382F330F330F80917701909150
:100C00007801880F991F880F991F822B932B2091B1
:100C1000730130917401022E232F000C221F330B1D
:100C2000000C221F331F822B932B029790938E016F
:100C300080938D010E9403020E9477039093AE017E
:100C40008093AD0108950E9479050E94F0050E94ED
:100C500070050E941B0508950E9453000E944C04D9
:100C60000E9406040E9428040E9485047894089536
:100C70000E942C0680916601882331F00E94730443
:100C800082E591E00E945F040E942306F3CF505852
:100C9000BB27AA270E945F060C94B0070E94A207F8
:100CA00038F00E94A90720F039F49F3F19F426F488
:100CB0000C949F070EF4E095E7FB0C949907E92F3D
:100CC0000E94C10758F3BA17620773078407950794
:100CD00020F079F4A6F50C94E3070EF4E0950B2EC2
:100CE000BA2FA02D0B01B90190010C01CA01A0017E
:100CF0001124FF27591B99F0593F50F4503E68F1D9
:100D00001A16F040A22F232F342F4427585FF3CF19
:100D1000469537952795A795F0405395C9F77EF4EA
:100D20001F16BA0B620B730B840BBAF09150A1F033
:100D3000FF0FBB1F661F771F881FC2F70EC0BA0FB9
:100D4000621F731F841F48F4879577956795B79541
:100D5000F7959E3F08F0B0CF9395880F08F099273C
:100D6000EE0F9795879508950E94C8060C94B007DA
:100D70000E94A90758F00E94A20740F029F45F3FA3
:100D800029F00C94990751110C94E4070C949F07D7
:100D90000E94C10768F39923B1F3552391F3951B82
:100DA000550BBB27AA2762177307840738F09F5F8C
:100DB0005F4F220F331F441FAA1FA9F335D00E2EF9
:100DC0003AF0E0E832D091505040E695001CCAF766
:100DD0002BD0FE2F29D0660F771F881FBB1F261729
:100DE00037074807AB07B0E809F0BB0B802DBF0100
:100DF000FF2793585F4F3AF09E3F510578F00C94CF
:100E000099070C94E4075F3FE4F3983ED4F386958A
:100E100077956795B795F7959F5FC9F7880F911DEF
:100E20009695879597F90895E1E0660F771F881FDB
:100E3000BB1F621773078407BA0720F0621B730B8E
:100E4000840BBA0BEE1F88F7E09508950E942D07DA
:100E50006894B1110C94E40708950E94C90788F0C2
:100E60009F5798F0B92F9927B751B0F0E1F0660F6E
:100E7000771F881F991F1AF0BA95C9F714C0B130AF
:100E800091F00E94E307B1E008950C94E307672F07
:100E9000782F8827B85F39F0B93FCCF386957795DE
:100EA0006795B395D9F73EF49095809570956195C7
:100EB0007F4F8F4F9F4F0895E89409C097FB3EF4F2
:100EC00090958095709561957F4F8F4F9F4F992397
:100ED000A9F0F92F96E9BB279395F6958795779515
:100EE0006795B795F111F8CFFAF4BB0F11F460FFD5
:100EF0001BC06F5F7F4F8F4F9F4F16C0882311F02D
:100F000096E911C0772321F09EE8872F762F05C040
:100F1000662371F096E8862F70E060E02AF09A95DB
:100F2000660F771F881FDAF7880F9695879597F9D0
:100F3000089597F99F6780E870E060E008959FEF5B
:100F400080EC089500240A94161617061806090660
:100F5000089500240A94121613061406050608952F
:100F6000092E0394000C11F4882352F0BB0F40F4B7
:100F7000BF2B11F460FF04C06F5F7F4F8F4F9F4FF7
:100F8000089557FD9058440F551F59F05F3F71F079
:100F90004795880F97FB991F61F09F3F79F08795E0
:100FA0000895121613061406551FF2CF4695F1DF69
:100FB00008C0161617061806991FF1CF86957105F9
:100FC000610508940895E894BB2766277727CB012D
:100FD00097F908950E94FD070C94B0070E94A2079C
:100FE00038F00E94A90720F0952311F00C9499077E
:100FF0000C949F0711240C94E4070E94C10770F31E
:10100000959FC1F3950F50E0551F629FF001729FAD
:10101000BB27F00DB11D639FAA27F00DB11DAA1FBC
:10102000649F6627B00DA11D661F829F2227B00D09
:10103000A11D621F739FB00DA11D621F839FA00D94
:10104000611D221F749F3327A00D611D231F849FE4
:10105000600D211D822F762F6A2F11249F5750403B
:101060009AF0F1F088234AF0EE0FFF1FBB1F661FB6
:10107000771F881F91505040A9F79E3F510580F07F
:101080000C9499070C94E4075F3FE4F3983ED4F383
:10109000869577956795B795F795E7959F5FC1F723
:1010A000FE2B880F911D9695879597F9089597FBCC
:1010B000072E16F4009407D077FD09D00E946B0824
:1010C00007FC05D03EF4909581959F4F089570954B
:1010D00061957F4F0895AA1BBB1B51E107C0AA1F52
:1010E000BB1FA617B70710F0A61BB70B881F991FC9
:1010F0005A95A9F780959095BC01CD010895FC0102
:1011000088279927E89421912032E9F3293010F0BB
:101110002E30C8F32B3241F02D3239F4689404C0DC
:101120000E949D08820F911D219120532A30C0F307
:101130001EF4909581959F4F08957AE0979F902D8A
:10114000879F802D910D11240895AEE0B0E0EBEA69
:10115000F8E00C94660B0D891E8986E08C831A8357
:1011600009838FEF9FE79E838D83AE01475E5F4FBC
:101170006F89788DCE0101960E94C708EF81F885AE
:10118000E00FF11F10822E96E4E00C94820BABE08E
:10119000B0E0EDECF8E00C94580B6C017B018A0197
:1011A000FC0117821682838181FFCCC1CE0101969A
:1011B0003C01F6019381F70193FD859193FF8191A5
:1011C0007F01882309F4BAC1853239F493FD8591F2
:1011D00093FF81917F01853229F4B60190E00E944E
:1011E000BE0AE7CF912C212C312CFFE1F315D8F06A
:1011F0008B3279F038F4803279F08332A1F4232DE8
:1012000020611DC08D3261F0803369F4232D21608F
:1012100016C0832D8260382EE32DE4603E2E2AC056
:10122000F32DF8601DC037FC2DC020ED280F2A30AB
:1012300040F08E32B9F436FC81C1232D2064322E69
:1012400019C036FE06C08AE0989E200D1124922E09
:1012500011C0EAE02E9E200D1124222EF32DF06203
:101260003F2E08C08C3621F4832D8068382E02C0B2
:10127000883641F4F70193FD859193FF81917F01B9
:101280008111B3CF982F9F7D9554933028F40C5F34
:101290001F4F9FE399830DC0833631F0833771F080
:1012A000833509F059C021C0F801808189830E5F20
:1012B0001F4F88248394912C530113C02801F2E01E
:1012C0004F0E511CF801A080B18036FE03C0692D7D
:1012D00070E002C06FEF7FEFC5010E94B30A4C01BE
:1012E0008201F32DFF773F2E16C0280122E0420E27
:1012F000511CF801A080B18036FE03C0692D70E05A
:1013000002C06FEF7FEFC5010E94A80A4C01F32DC8
:10131000F0683F2E820133FC1BC0822D90E08816BE
:101320009906B0F4B60180E290E00E94BE0A2A94C9
:10133000F4CFF50137FC859137FE81915F01B6014D
:1013400090E00E94BE0A21102A9421E0821A91089E
:101350008114910471F7E8C0843611F0893641F5A3
:10136000F80137FE07C060817181828193810C5F33
:101370001F4F08C060817181072E000C880B990BEC
:101380000E5F1F4FF32DFF763F2E97FF09C09095FC
:101390008095709561957F4F8F4F9F4FF0683F2EDE
:1013A0002AE030E0A3010E94FA0A882E861845C080
:1013B000853731F4232D2F7EB22E2AE030E025C070
:1013C000932D997FB92E8F36C1F018F4883579F0B6
:1013D000B5C0803719F0883721F0B0C0E92FE0613F
:1013E000BE2EB4FE0DC0FB2DF460BF2E09C034FE2E
:1013F0000AC0292F2660B22E06C028E030E005C0C2
:1014000020E130E002C020E132E0F801B7FE07C081
:1014100060817181828193810C5F1F4F06C0608162
:10142000718180E090E00E5F1F4FA3010E94FA0AD5
:10143000882E8618FB2DFF773F2E36FE0DC0232DFC
:101440002E7FA22E891458F434FE0BC032FC09C042
:10145000832D8E7EA82E05C0B82CA32C03C0B82CDB
:1014600001C0B92CA4FE0FC0FE01E80DF11D808162
:10147000803321F49A2D997EA92E09C0A2FE06C0C0
:10148000B394B39404C08A2D867809F0B394A3FC76
:1014900011C0A0FE06C0B21488F4280C922C9B1830
:1014A0000EC0B21460F4B60180E290E00E94BE0A61
:1014B000B394F7CFB21418F42B1802C0982C212C37
:1014C000A4FE10C0B60180E390E00E94BE0AA2FE16
:1014D00017C0A1FC03C088E790E002C088E590E057
:1014E000B6010CC08A2D867859F0A1FE02C08BE2AD
:1014F00001C080E2A7FC8DE2B60190E00E94BE0A26
:10150000891438F4B60180E390E00E94BE0A9A94F0
:10151000F7CF8A94F301E80DF11D8081B60190E0C8
:101520000E94BE0A8110F5CF222009F442CEB601F6
:1015300080E290E00E94BE0A2A94F6CFF6018681EE
:10154000978102C08FEF9FEF2B96E2E10C94740B12
:10155000FC010590615070400110D8F7809590957E
:101560008E0F9F1F0895FC01615070400190011083
:10157000D8F7809590958E0F9F1F08950F931F9316
:10158000CF93DF93FB01238121FD03C08FEF9FEFFA
:101590002CC022FF16C04681578124813581421715
:1015A000530744F4A081B1819D012F5F3F4F3183E8
:1015B00020838C93268137812F5F3F4F378326838B
:1015C00014C08B01EC01FB010084F185E02D09952D
:1015D000892BE1F6D80116968D919C91179701966B
:1015E00017969C938E931697CE01DF91CF911F9102
:1015F0000F910895FA01AA27283051F1203181F185
:10160000E8946F936E7F6E5F7F4F8F4F9F4FAF4F0A
:10161000B1E03ED0B4E03CD0670F781F891F9A1F1D
:10162000A11D680F791F8A1F911DA11D6A0F711DD1
:10163000811D911DA11D20D009F468943F912AE0DD
:10164000269F11243019305D3193DEF6CF010895C5
:10165000462F4770405D4193B3E00FD0C9F7F6CFF6
:10166000462F4F70405D4A3318F0495D31FD4052BE
:10167000419302D0A9F7EACFB4E0A6959795879554
:1016800077956795BA95C9F7009761057105089533
:101690009B01AC010A2E06945795479537952795DF
:1016A000BA95C9F7620F731F841F951FA01D089577
:1016B0002F923F924F925F926F927F928F929F9262
:1016C000AF92BF92CF92DF92EF92FF920F931F9350
:1016D000CF93DF93CDB7DEB7CA1BDB0B0FB6F89401
:1016E000DEBF0FBECDBF09942A88398848885F8441
:1016F0006E847D848C849B84AA84B984C884DF80B2
:10170000EE80FD800C811B81AA81B981CE0FD11D95
:101710000FB6F894DEBF0FBECDBFED010895F8946B
:02172000FFCFF9
:1017220025642E25303464002D0054656D70657279
:1017320061747572613A2000256400204D65646908
:101742006461730041414141410020426562696424
:1017520061203100204265626964612032002042CA
:1017620065626964612033002042656269646120B8
:1017720034006161616161616161616161616161E5
:02178200000065
:00000001FF
