:100000000C9434000C9451000C9451000C94510049
:100010000C9451000C9451000C9451000C9451001C
:100020000C9451000C9451000C9451000C9451000C
:100030000C9451000C9451000C9451000C945100FC
:100040000C9451000C9451000C9451000C945100EC
:100050000C9451000C9451000C9451000C945100DC
:100060000C9451000C94510011241FBECFEFD8E026
:10007000DEBFCDBF17E0A0E0B1E0E0E2FCE002C0EF
:1000800005900D92AC3FB107D9F727E0ACEFB7E090
:1000900001C01D92AE3FB207E1F70E9489010C94A6
:1000A0000E060C94000089E18093B8001092B9000C
:1000B000089584EA8093BC008091BC008823E4F713
:1000C00008958093BB0084E88093BC008091BC00BD
:1000D0008823E4F70895EBEBF0E080818260808371
:1000E00084E88093BC008091BC008823E4F789EF0A
:1000F00090E00197F1F700C00000EBEBF0E08081A9
:100100008D7F808384E88093BC008091BC0088232D
:10011000E4F70895EBEBF0E090819E7F908394E804
:100120009093BC009091BC009923E4F7EBEBF0E0D6
:1001300090819F70908394E89093BC009091BC0054
:100140009923E4F7EBEBF0E09081807F892B8083AB
:1001500084E88093BC008091BC008823E4F70E946F
:100160006B000895CF93C82FEBEBF0E080818E7F7A
:10017000808384E88093BC008091BC008823E4F7EE
:10018000EBEBF0E080818F70808384E88093BC008B
:100190008091BC008823E4F7EBEBF0E080819C2F9A
:1001A000907F892B808384E88093BC008091BC0081
:1001B0008823E4F70E946B00EBEBF0E080818F7006
:1001C000808384E88093BC008091BC008823E4F79E
:1001D000EBEBF0E0208130E1C39FC0011124822BC2
:1001E000808384E88093BC008091BC008823E4F77E
:1001F0000E946B00CF910895CF93C82FEBEBF0E0F6
:1002000080818160808384E88093BC008091BC0001
:100210008823E4F7EBEBF0E080818F70808384E843
:100220008093BC008091BC008823E4F7EBEBF0E006
:1002300080819C2F907F892B808384E88093BC00F1
:100240008091BC008823E4F70E946B00EBEBF0E0A8
:1002500080818F70808384E88093BC008091BC0093
:100260008823E4F7EBEBF0E0208130E1C39FC0018D
:100270001124822B808384E88093BC008091BC0091
:100280008823E4F70E946B00CF91089581EE94E0FB
:100290000197F1F700C0000080E30E948A0081EE20
:1002A00094E00197F1F700C0000080E30E948A000B
:1002B00080E20E948A0081EE94E00197F1F700C08D
:1002C000000088E20E94B2008CE00E94B20081E04F
:1002D0000E94B20086E00E94B20080E80E94B20054
:1002E0000895CF93DF93EC0103C021960E94FC0098
:1002F00088818111FACFDF91CF91089581E00E942A
:10030000B20081E28A95F1F7000080E80E94B20015
:100310000895CF93DF93CDB7DEB72C970FB6F8943F
:10032000DEBF0FBECDBF0E945B020E94620280E072
:1003300091E00E9475020E9489020E9482020E943E
:1003400053000E94590080E40E9461000E9446010F
:100350008CE091E00E9471012FE38DE093E0215049
:1003600080409040E1F700C000000E947E0188E1DB
:1003700091E00E9471010E947E0161E480E090E0C2
:100380000E94C90580E090E00E94C1051F928F93F2
:1003900081E291E09F938F938E010F5F1F4F1F9318
:1003A0000F930E940E03C8010E9475020F900F90D8
:1003B0000F900F900F900F90C12CD12CDF92CF9205
:1003C0000F2EF4E2EF2EF1E0FF2EF02DFF92EF92D0
:1003D0008E010D5F1F4F1F930F930E940E03C801E4
:1003E0000E94710127E585EB90E12150804090400B
:1003F000E1F700C000000E947E0188E191E00E94C8
:1004000071012FEFC21AD20AC8010E94710187E55B
:1004100095EB20E1815090402040E1F700C00000C2
:100420000E947E0187E291E00E94750289B183FB00
:10043000882780F98093FD0799B1929591709093E8
:10044000FC071F928F93FF92EF921F930F930E94CE
:100450000E03C8010E94710183E391E00E947101C3
:100460008091FC071F928F93FF92EF921F930F933F
:100470000E940E03C8010E94710187E595EB20E1FF
:10048000815090402040E1F700C000000E947E01B2
:10049000CE0101960E94750287E595EB20E181501F
:1004A00090402040E1F700C000000FB6F894DEBF96
:1004B0000FBECDBF83CF8AB1877F8AB98AB18F7EC5
:1004C0008AB908951092C50087E68093C40088E138
:1004D0008093C10086E08093C20008959091C0008F
:1004E00095FFFCCF8093C6000895CF93DF93EC0176
:1004F00003C00E946E02219688818111FACFDF919C
:10050000CF9108958DE00E946E028AE00E946E02F3
:10051000089587E391E00E9475020E94820285E8B7
:1005200091E00E9475020E9482028DED91E00E948E
:1005300075020E94820285E392E00E9475020E9489
:1005400082028DE892E00E9475020E94820288ED8C
:1005500092E00E9475020E94820280E393E00E9472
:1005600075020E94820289E893E00E9475020E944F
:10057000820283EE93E00E9475020E9482028DE364
:1005800094E00E9475020E94820286E994E00E9433
:1005900075020E94820289ED94E00E9475020E9419
:1005A00082028DE195E00E9475020E94820284E63B
:1005B00095E00E9475020E9482028CEA95E00E94FA
:1005C00075020E94820283EF95E00E9475020E94EC
:1005D00082028CE396E00E9475020E94820285E806
:1005E00096E00E9475020E9482028EEC96E00E94C4
:1005F00075020E94820286E197E00E9475020E94C5
:1006000082028FE597E00E9475020E94820286EACC
:1006100097E00E9475020E9482020895AEE0B0E069
:10062000E4E1F3E00C94E5050D891E8986E08C83F6
:100630001A8309838FEF9FE79E838D83AE01475E08
:100640005F4F6F89788DCE0101960E943003EF8154
:10065000F885E00FF11F10822E96E4E00C9401065D
:10066000ABE0B0E0E6E3F3E00C94D7056C017B016E
:100670008A01FC0117821682838181FFCCC1CE01E1
:1006800001963C01F6019381F70193FD859193FF5B
:1006900081917F01882309F4BAC1853239F493FD31
:1006A000859193FF81917F01853229F4B60190E015
:1006B0000E942705E7CF912C212C312CFFE1F31567
:1006C000D8F08B3279F038F4803279F08332A1F4AB
:1006D000232D20611DC08D3261F0803369F4232DFC
:1006E000216016C0832D8260382EE32DE4603E2EFB
:1006F0002AC0F32DF8601DC037FC2DC020ED280F57
:100700002A3040F08E32B9F436FC81C1232D2064AA
:10071000322E19C036FE06C08AE0989E200D1124A4
:10072000922E11C0EAE02E9E200D1124222EF32DD0
:10073000F0623F2E08C08C3621F4832D8068382E5D
:1007400002C0883641F4F70193FD859193FF8191B2
:100750007F018111B3CF982F9F7D9554933028F45A
:100760000C5F1F4F9FE399830DC0833631F08337B1
:1007700071F0833509F059C021C0F8018081898367
:100780000E5F1F4F88248394912C530113C02801BE
:10079000F2E04F0E511CF801A080B18036FE03C07C
:1007A000692D70E002C06FEF7FEFC5010E941C054C
:1007B0004C018201F32DFF773F2E16C0280122E065
:1007C000420E511CF801A080B18036FE03C0692D95
:1007D00070E002C06FEF7FEFC5010E9411054C0170
:1007E000F32DF0683F2E820133FC1BC0822D90E078
:1007F00088169906B0F4B60180E290E00E942705C1
:100800002A94F4CFF50137FC859137FE81915F0181
:10081000B60190E00E94270521102A9421E0821A57
:1008200091088114910471F7E8C0843611F089367B
:1008300041F5F80137FE07C06081718182819381A3
:100840000C5F1F4F08C060817181072E000C880B60
:10085000990B0E5F1F4FF32DFF763F2E97FF09C0B8
:1008600090958095709561957F4F8F4F9F4FF06861
:100870003F2E2AE030E0A3010E946305882E8618EF
:1008800045C0853731F4232D2F7EB22E2AE030E08B
:1008900025C0932D997FB92E8F36C1F018F4883575
:1008A00079F0B5C0803719F0883721F0B0C0E92F52
:1008B000E061BE2EB4FE0DC0FB2DF460BF2E09C05A
:1008C00034FE0AC0292F2660B22E06C028E030E090
:1008D00005C020E130E002C020E132E0F801B7FEBF
:1008E00007C060817181828193810C5F1F4F06C0B8
:1008F0006081718180E090E00E5F1F4FA3010E9434
:100900006305882E8618FB2DFF773F2E36FE0DC01F
:10091000232D2E7FA22E891458F434FE0BC032FCF6
:1009200009C0832D8E7EA82E05C0B82CA32C03C031
:10093000B82C01C0B92CA4FE0FC0FE01E80DF11DBA
:100940008081803321F49A2D997EA92E09C0A2FEC0
:1009500006C0B394B39404C08A2D867809F0B3948A
:10096000A3FC11C0A0FE06C0B21488F4280C922C7F
:100970009B180EC0B21460F4B60180E290E00E94B1
:100980002705B394F7CFB21418F42B1802C0982C93
:10099000212CA4FE10C0B60180E390E00E94270540
:1009A000A2FE17C0A1FC03C088E790E002C088E562
:1009B00090E0B6010CC08A2D867859F0A1FE02C0E5
:1009C0008BE201C080E2A7FC8DE2B60190E00E94BC
:1009D0002705891438F4B60180E390E00E942705CA
:1009E0009A94F7CF8A94F301E80DF11D8081B60146
:1009F00090E00E9427058110F5CF222009F442CE15
:100A0000B60180E290E00E9427052A94F6CFF60115
:100A10008681978102C08FEF9FEF2B96E2E10C94C5
:100A2000F305FC010590615070400110D8F78095E6
:100A300090958E0F9F1F0895FC01615070400190AA
:100A40000110D8F7809590958E0F9F1F08950F93F2
:100A50001F93CF93DF93FB01238121FD03C08FEF11
:100A60009FEF2CC022FF16C046815781248135811B
:100A70004217530744F4A081B1819D012F5F3F4F7E
:100A8000318320838C93268137812F5F3F4F3783BB
:100A9000268314C08B01EC01FB010084F185E02D5D
:100AA0000995892BE1F6D80116968D919C9117979F
:100AB000019617969C938E931697CE01DF91CF9156
:100AC0001F910F910895FA01AA27283051F1203182
:100AD00081F1E8946F936E7F6E5F7F4F8F4F9F4FD2
:100AE000AF4FB1E03ED0B4E03CD0670F781F891F14
:100AF0009A1FA11D680F791F8A1F911DA11D6A0FE2
:100B0000711D811D911DA11D20D009F468943F9194
:100B10002AE0269F11243019305D3193DEF6CF0193
:100B20000895462F4770405D4193B3E00FD0C9F759
:100B3000F6CF462F4F70405D4A3318F0495D31FDC6
:100B40004052419302D0A9F7EACFB4E0A695979519
:100B5000879577956795BA95C9F7009761057105EF
:100B600008959B01AC010A2E069457954795379539
:100B70002795BA95C9F7620F731F841F951FA01D93
:100B80000895F999FECF92BD81BDF89A992780B555
:100B90000895262FF999FECF1FBA92BD81BD20BDC1
:100BA0000FB6F894FA9AF99A0FBE019608952F920B
:100BB0003F924F925F926F927F928F929F92AF92ED
:100BC000BF92CF92DF92EF92FF920F931F93CF933A
:100BD000DF93CDB7DEB7CA1BDB0B0FB6F894DEBFD1
:100BE0000FBECDBF09942A88398848885F846E84F7
:100BF0007D848C849B84AA84B984C884DF80EE8041
:100C0000FD800C811B81AA81B981CE0FD11D0FB649
:100C1000F894DEBF0FBECDBFED010895F894FFCF6D
:100C200009486F6C61206D756E646F0020486F6CB1
:100C300061204D756E646F0020486F6C6120796F84
:100C40000025630025640020486F6C61206D756E7F
:100C5000646F00203E3E0020202020202020202005
:100C6000202020202020202020202020202020396B
:100C70003020203430302020202020545046492E6F
:100C80002E2E20434154454452413A2020202053E7
:100C9000495354454D4153204449474954414C45DB
:100CA00053204956002020202020202020202020D2
:100CB00020202020202020202020313233323830C4
:100CC00030303030303030202020202020202020B4
:100CD000202020202020202020202050524F464538
:100CE000534F5245533A20494E47204544554152AF
:100CF000444F2056454C415A5155455A002020201A
:100D000020202020202020202020202020343030AF
:100D100030303030303030303030303030303720DC
:100D200020202020202020202020202020202020C3
:100D30002020202020202020202020202020204C87
:100D40004943204A554C49414E204D494E41544556
:100D50004C20202000202020202020202020202087
:100D600020203430303030303030303030302020BF
:100D70003330303030303030352020202020204EAD
:100D80004F4D4252453A20464142524943494F2035
:100D900044415649442047414C4C4F2020202020BC
:100DA0002020202020202020202020200020202063
:100DB00020202020202020202030303030203830CB
:100DC0003030303030303030303030303030303023
:100DD00030303020202020202020202020202020E3
:100DE0002020202020202020202020202020202003
:100DF0002020202020202000202020202020202013
:100E0000202020343030303030303030303030300E
:100E100030303030303030303030303030303030D2
:100E20002020202020202020202020202743414651
:100E300045544552412720455320554E2050524F8E
:100E4000594543544F20444F4E44452053452000BC
:100E5000202020202020202020202037303030303B
:100E60003030303030303030303030303030303082
:100E700030303030303030303030303720202020AB
:100E80002020202020202020202050554544454E61
:100E900020434F4E54524F4C41522054454D5045E3
:100EA0005241545552412C20002020202020202047
:100EB0002020202020303030303030303030303082
:100EC0003030303030303030303030303030303022
:100ED0003030303030303030303030303030303012
:100EE0003420202020202043414E544944414420B6
:100EF0004445205052454D455A434C412C4554439E
:100F00002020002020202020202020202020202001
:100F100038303030303030303030303030303030C9
:100F200030303030303030303030303030303030C1
:100F300030303030303030303030303030303031B0
:100F400020202020202050415241204D4F4449462E
:100F500049434152204553544F5320200020202024
:100F60002020202020202020202020202020203071
:100F70003030303030303030303030303030303071
:100F80003030303030303030303030303030303061
:100F9000303030303030303030303036202020208B
:100FA0002020205554494C494345204C412055416F
:100FB00052542020200020202020202020202020EB
:100FC00020202020202020202020203130303030D0
:100FD0003030303030303030303030303030303011
:100FE0003030303030303030303030303030303001
:100FF00030303030303031200020202020202020A0
:1010000020202020202020202020202020202030D0
:1010100030303030303030303030303030303030D0
:1010200030303030303030303030303030303030C0
:101030003030303030303030303030200020202020
:1010400020202020202020202020202020202020A0
:1010500020202020203930303030303030303030D7
:101060003030303030303030303030303030303080
:101070003030303030303030303030303030303070
:10108000303020002020202020202031202031203E
:101090002020202020202020202020203930303007
:1010A0003030303030303030303030303030303040
:1010B0003030303030303030303030303030303030
:1010C00030303030303030303030200020202020A0
:1010D00020202020312020312020202020202020EE
:1010E0002020202020303030303030303030303050
:1010F00030303030303030303030303030303030F0
:1011000030303030303030303030303030303030DF
:1011100030300020202020202020312020312020AD
:101120002020202020202020202020203930303076
:1011300030303030303030303030303030303030AF
:10114000303030303030303030303030303030309F
:101150003030303030303030303820002020202007
:1011600020303030303030303030333720202020C5
:1011700020202020202036303030303030303030C9
:10118000303030303030303030303030303030305F
:10119000303030303030303030303030303030304F
:1011A00030303520002020202020303030303030CA
:1011B00030303920203920202020202020202020DD
:1011C000303030303030303030303030303030301F
:1011D000303030303030303030303030303030300F
:1011E000303030303030303030303020200020206F
:1011F000202020303030303030303030322020204D
:101200002020202020202020203930303030303065
:1012100030303030303030303030303030303030CE
:1012200030303030303030303030303030303030BE
:10123000303030202000202020202030303030304E
:101240003030303920202020202020202020202055
:1012500020393030203030303032203530303030AE
:10126000303030303030303030303030303030307E
:1012700030303030303030303030302020200020DE
:1012800020202020303030303030303036202020C8
:1012900020202020202020202020393030203830ED
:1012A00030362020202020202037303030303030A1
:1012B000303030303030303030303030303030302E
:1012C0003030302020002020343434363636363664
:1012D0003636363634343520202020202020202079
:1012E0003330303036303030202020202020202075
:1012F0002020202020202020353030303030303069
:1013000030303030303030303020202000456469BB
:0C1310007461722076616C6F726573006E
:00000001FF
