:100000000C9434000C9451000C9451000C94510049
:100010000C9451000C9451000C9451000C9451001C
:100020000C9451000C9451000C9451000C9451000C
:100030000C9451000C9451000C9451000C945100FC
:100040000C9451000C9451000C9451000C945100EC
:100050000C9451000C9451000C9451000C945100DC
:100060000C9451000C94510011241FBECFEFD8E026
:10007000DEBFCDBF11E0A0E0B1E0E2EBF5E102C0F0
:1000800005900D92A832B107D9F721E0A8E2B1E0BE
:1000900001C01D92AE34B207E1F70E9457050C94DF
:1000A000D70A0C940000ECE7F0E080818064808344
:1000B00080818F7D8083EAE7F0E0808187608083A4
:1000C0008081806880830895ECE7F0E09081907FE4
:1000D00090839081892B8083EAE7F0E080818064BF
:1000E000808380917A0086FDFCCF089589E180931A
:1000F000B8001092B900089584EA8093BC00809102
:10010000BC008823E4F708958093BB0084E88093C3
:10011000BC008091BC008823E4F7089584E98093B3
:10012000BC008091BC0080FDFCCF0895EBEBF0E0BB
:1001300080818260808384E88093BC008091BC00D1
:100140008823E4F789EF90E00197F1F700C0000001
:10015000EBEBF0E080818D7F808384E88093BC00AE
:100160008091BC008823E4F70895EBEBF0E09081E8
:100170009E7F908394E89093BC009091BC0099235B
:10018000E4F7EBEBF0E090819F70908394E890931C
:10019000BC009091BC009923E4F7EBEBF0E0908178
:1001A000807F892B808384E88093BC008091BC0091
:1001B0008823E4F70E9496000895CF93C82FEBEBB5
:1001C000F0E080818E7F808384E88093BC00809102
:1001D000BC008823E4F7EBEBF0E080818F70808334
:1001E00084E88093BC008091BC008823E4F7EBEBAB
:1001F000F0E080819C2F907F892B808384E880931E
:10020000BC008091BC008823E4F70E949600EBEBD1
:10021000F0E080818F70808384E88093BC008091BF
:10022000BC008823E4F7EBEBF0E0208130E1C39FD2
:10023000C0011124822B808384E88093BC008091CC
:10024000BC008823E4F70E949600CF910895CF93D5
:10025000C82FEBEBF0E080818160808384E880939D
:10026000BC008091BC008823E4F7EBEBF0E08081D8
:100270008F70808384E88093BC008091BC008823C9
:10028000E4F7EBEBF0E080819C2F907F892B80835B
:1002900084E88093BC008091BC008823E4F70E942E
:1002A0009600EBEBF0E080818F70808384E8809390
:1002B000BC008091BC008823E4F7EBEBF0E02081E8
:1002C00030E1C39FC0011124822B808384E8809396
:1002D000BC008091BC008823E4F70E949600CF9177
:1002E00008950E9476000E947C0080E40E948400B1
:1002F00081EE94E00197F1F700C0000080E30E94D6
:10030000B50081EE94E00197F1F700C0000080E3B2
:100310000E94B50080E20E94B50081EE94E0019752
:10032000F1F700C0000088E20E94DD008CE00E942E
:10033000DD0081E00E94DD0086E00E94DD0080E8B3
:100340000E94DD000895CF93DF93EC0103C0219656
:100350000E94270188818111FACFDF91CF91089502
:1003600081E00E94DD0081E28A95F1F7000080E8DB
:100370000E94DD0008952FED88EC90E1215080402F
:100380009040E1F700C000000E94B00184E191E0DC
:100390000E94A30183EC99E00197F1F700C00000EF
:1003A000089585E08093B800089584EA8093BC00A6
:1003B0008091BC008823E4F708958093BB0084E813
:1003C0008093BC008091BC008823E4F7089584ECFE
:1003D0008093BC008091BC008823E4F78091BB002F
:1003E00090E0A0E0B0E08093290190932A01A093CF
:1003F0002B01B0932C0184EC8093BC008091BC0055
:100400008823E4F78091BB0090E0A0E0B0E0809307
:10041000310190933201A0933301B093340184E809
:100420008093BC008091BC008823E4F78091BB00DE
:1004300090E0A0E0B0E080932D0190932E01A09376
:100440002F01B0933001089584E98093BC00089592
:100450000E94D50180ED0E94DD018CE10E94DD014A
:100460000E9424020895CF93DF930E94D1010E943D
:1004700028020E94D50181ED0E94DD010E94E70162
:100480002091290180E090E0922F990F990FC0915F
:100490003101D0913201CC0FDD1FCC0FDD1FC82BF5
:1004A000D92B80912D0190912E01082E892F000CBF
:1004B000881F990B000C881F991FC82BD92B2297D6
:1004C0000E942402CE01DF91CF9108950E94330251
:1004D000BC01990F880B990B0E94CE0620E030E0FA
:1004E00040E050E40E94B80520E030E04AE754E4E0
:1004F0000E945A0720E030EE4FEF54E40E94240699
:1005000020E030E040EA51E40E945A070E9496063B
:10051000CB01089594EA9093BC009091BC0099237C
:10052000E4F79091B9009B7F983009F057C090E9AB
:100530009093BB0094E89093BC009091BC009923E9
:10054000E4F79091B9009B7F983109F047C0809300
:10055000BB0084E88093BC008091BC008823E4F752
:100560008091B9008B7F8832C9F584EA8093BC0002
:100570008091BC008823E4F78091B9008B7F8031A3
:1005800069F581E98093BB0084E88093BC00809189
:10059000BC008823E4F78091B9008B7F8034F1F4AC
:1005A00015C02115310521F484E88093BC0003C0F7
:1005B00084EC8093BC008091BC008823E4F7809198
:1005C000BB00FB018083A9016F5F7F4F9A0121501F
:1005D0003109452B31F784E98093BC00089594EAF2
:1005E0009093BC009091BC009923E4F79091B900DE
:1005F0009B7F9830D1F590E99093BB0094E890935D
:10060000BC009091BC009923E4F79091B9009B7FC6
:10061000983159F58093BB0084E88093BC008091A9
:10062000BC008823E4F78091B9008B7F8832E9F41D
:1006300014C0FB013196DB018C918093BB0084E8F0
:100640008093BC008091BC008823E4F78091B900BE
:10065000A9018B7F883249F4BF019A0121503109E9
:10066000452B39F784E98093BC0008951F93CF93FD
:10067000DF931F92CDB7DEB7182F41E050E0BE01E7
:100680006F5F7F4F81E00E948A028981282F2F7936
:1006900030E2139FC0011124822B898341E050E096
:1006A000BE016F5F7F4F81E00E94EF020F90DF91EC
:1006B000CF911F9108951F93CF93DF931F92CDB7D2
:1006C000DEB7182F41E050E0BE016F5F7F4F81E041
:1006D0000E948A0289818E7F182B198341E050E0A5
:1006E000BE016F5F7F4F81E00E94EF020F90DF91AC
:1006F000CF911F910895EF92FF921F93CF93DF93B5
:1007000000D0CDB7DEB742E050E0BE016F5F7F4F53
:1007100080E00E948A02E980FA80B701772780E0B2
:1007200090E00E94CC061F2DF7FE06C020E030E0CE
:1007300040E05FE30E94B80516FF06C020E030E00D
:1007400040E85EE30E94B80515FF06C020E030E0F7
:1007500040E05EE30E94B80514FF06C020E030E0F0
:1007600040E85DE30E94B8050F900F90DF91CF91B4
:100770001F91FF90EF9008958F929F92AF92BF923A
:10078000CF92DF92EF92FF920F931F93CF93DF935D
:10079000CDB7DEB7AA970FB6F894DEBF0FBECDBFB8
:1007A0000E94490483E00E94360380E00E945B03BC
:1007B00001E010E03CC00E947B034B015C010E9401
:1007C00096066B017C01072E000C880B990B0E948A
:1007D000CE069B01AC01C501B4010E94B70520E023
:1007E00030E44CE156E40E945A070E9496069B01B1
:1007F000772324F422273327261B370B3F932F938D
:10080000DF92CF9280E091E09F938F93CE0101968B
:100810009F938F930E94ED0784E191E00E945C0416
:100820000F5F1F4F0FB6F894DEBF0FBECDBF0B3F5B
:1008300011050CF20E946904CE0101960E94C707BF
:100840009F938F9386E191E09F938F938E010F5D2D
:100850001F4F1F930F930E94ED07C8010E94C70707
:100860000F900F900F900F900F900F90AA960FB6C9
:10087000F894DEBF0FBECDBFDF91CF911F910F91D6
:10088000FF90EF90DF90CF90BF90AF909F908F90B0
:1008900008951092C50087E68093C40088E1809394
:1008A000C10086E08093C20008959091C00095FF3A
:1008B000FCCF8093C6000895CF93DF93EC0103C073
:1008C0000E945504219688818111FACFDF91CF9142
:1008D00008958DE00E9455048AE00E945504089511
:1008E000CF92DF92EF92FF920F931F93CF93DF93FC
:1008F000CDB7DEB72A970FB6F894DEBF0FBECDBFD7
:100900000E94530080E090E00E9464000F2EF8E700
:10091000CF2ED12CF02DF6016081718180E090E026
:100920000E94CC0620E030EC4FE754E40E942406FD
:1009300020E030E048EC52E40E945A070E949606FC
:1009400060934501709346017F936F930F2EF9E1F9
:10095000EF2EF1E0FF2EF02DFF92EF928E010F5F50
:100960001F4F1F930F930E94ED070E94BB01C80108
:100970000E94A30181E090E00E946400F601608182
:10098000718180E090E00E94CC0620E030EC4FE7DF
:1009900054E40E94240620E030E048EC52E40E9437
:1009A0005A070E94960660934B0170934C017F9307
:1009B0006F93FF92EF921F930F930E94ED070E9497
:1009C000BB01C8010E94A30182E090E00E94640084
:1009D000F6016081718180E090E00E94CC0620E009
:1009E00030EC4FE754E40E94240620E030E048EC6D
:1009F00052E40E945A070E94960660934901709340
:100A00004A017F936F930F2EF6E1EF2EF1E0FF2E58
:100A1000F02DFF92EF921F930F930E94ED070E941B
:100A2000BB01C8010E94A30183E090E00E94640022
:100A3000F6016081718180E090E00E94CC0620E0A8
:100A400030EC4FE754E40E94240620E030E048EC0C
:100A500052E40E945A070E949606609347017093E1
:100A600048017F936F93FF92EF921F930F930E9421
:100A7000ED070E94BB01C8010E94A3010E94BB01B7
:100A80000FB6F894DEBF0FBECDBF2A960FB6F8940E
:100A9000DEBF0FBECDBFDF91CF911F910F91FF90B1
:100AA000EF90DF90CF9008950E9470040895CF9347
:100AB000DF93CDB7DEB766970FB6F894DEBF0FBEF3
:100AC000CDBF0E94BC039F938F930F2EF6E1EF2EB4
:100AD000F1E0FF2EF02DFF92EF928E010F5F1F4F7E
:100AE0001F930F930E94ED070E9471018DE191E029
:100AF0000E94A301C8010E94A30183E291E00E9429
:100B0000A3012FE382E49FE0215080409040E1F771
:100B100000C000000E94B0010E948E000E94660288
:100B20009F938F93FF92EF921F930F930E94ED0775
:100B30000E94710185E291E00E94A301C8010E9418
:100B4000A301C8010E945C042FE382E49FE02150CE
:100B500080409040E1F700C000000E9454050E94D0
:100B60008E000FB6F894DEBF0FBECDBFAACF50588F
:100B7000BB27AA270E94CF050C9420070E941207CA
:100B800038F00E94190720F039F49F3F19F426F439
:100B90000C940F070EF4E095E7FB0C940907E92F7E
:100BA0000E94310758F3BA17620773078407950745
:100BB00020F079F4A6F50C9453070EF4E0950B2E73
:100BC000BA2FA02D0B01B90190010C01CA01A0019F
:100BD0001124FF27591B99F0593F50F4503E68F1FA
:100BE0001A16F040A22F232F342F4427585FF3CF3B
:100BF000469537952795A795F0405395C9F77EF40C
:100C00001F16BA0B620B730B840BBAF09150A1F054
:100C1000FF0FBB1F661F771F881FC2F70EC0BA0FDA
:100C2000621F731F841F48F4879577956795B79562
:100C3000F7959E3F08F0B0CF9395880F08F099275D
:100C4000EE0F9795879508950E9438060C9420071B
:100C50000E94190758F00E94120740F029F45F3FE4
:100C600029F00C94090751110C9454070C940F07A8
:100C70000E94310768F39923B1F3552391F3951B33
:100C8000550BBB27AA2762177307840738F09F5FAD
:100C90005F4F220F331F441FAA1FA9F335D00E2E1A
:100CA0003AF0E0E832D091505040E695001CCAF787
:100CB0002BD0FE2F29D0660F771F881FBB1F26174A
:100CC00037074807AB07B0E809F0BB0B802DBF0121
:100CD000FF2793585F4F3AF09E3F510578F00C94F0
:100CE00009070C9454075F3FE4F3983ED4F38695CC
:100CF00077956795B795F7959F5FC9F7880F911D11
:100D00009695879597F90895E1E0660F771F881FFC
:100D1000BB1F621773078407BA0720F0621B730BAF
:100D2000840BBA0BEE1F88F7E09508950E949D068C
:100D30006894B1110C94540708950E94390788F003
:100D40009F5798F0B92F9927B751B0F0E1F0660F8F
:100D5000771F881F991F1AF0BA95C9F714C0B130D0
:100D600091F00E945307B1E008950C945307672F48
:100D7000782F8827B85F39F0B93FCCF386957795FF
:100D80006795B395D9F73EF49095809570956195E8
:100D90007F4F8F4F9F4F0895E89409C097FB3EF413
:100DA00090958095709561957F4F8F4F9F4F9923B8
:100DB000A9F0F92F96E9BB279395F6958795779536
:100DC0006795B795F111F8CFFAF4BB0F11F460FFF6
:100DD0001BC06F5F7F4F8F4F9F4F16C0882311F04E
:100DE00096E911C0772321F09EE8872F762F05C062
:100DF000662371F096E8862F70E060E02AF09A95FD
:100E0000660F771F881FDAF7880F9695879597F9F1
:100E1000089597F99F6780E870E060E008959FEF7C
:100E200080EC089500240A94161617061806090681
:100E3000089500240A941216130614060506089550
:100E4000092E0394000C11F4882352F0BB0F40F4D8
:100E5000BF2B11F460FF04C06F5F7F4F8F4F9F4F18
:100E6000089557FD9058440F551F59F05F3F71F09A
:100E70004795880F97FB991F61F09F3F79F0879501
:100E80000895121613061406551FF2CF4695F1DF8A
:100E900008C0161617061806991FF1CF869571051A
:100EA000610508940895E894BB2766277727CB014E
:100EB00097F908950E946D070C9420070E9412076D
:100EC00038F00E94190720F0952311F00C940907BF
:100ED0000C940F0711240C9454070E94310770F3EF
:100EE000959FC1F3950F50E0551F629FF001729FCF
:100EF000BB27F00DB11D639FAA27F00DB11DAA1FDE
:100F0000649F6627B00DA11D661F829F2227B00D2A
:100F1000A11D621F739FB00DA11D621F839FA00DB5
:100F2000611D221F749F3327A00D611D231F849F05
:100F3000600D211D822F762F6A2F11249F5750405C
:100F40009AF0F1F088234AF0EE0FFF1FBB1F661FD7
:100F5000771F881F91505040A9F79E3F510580F0A0
:100F60000C9409070C9454075F3FE4F3983ED4F3C4
:100F7000869577956795B795F795E7959F5FC1F744
:100F8000FE2B880F911D9695879597F90895FC0182
:100F900088279927E89421912032E9F3293010F02D
:100FA0002E30C8F32B3241F02D3239F4689404C04E
:100FB0000E94E507820F911D219120532A30C0F332
:100FC0001EF4909581959F4F08957AE0979F902DFC
:100FD000879F802D910D11240895AEE0B0E0E3EFDE
:100FE000F7E00C94AE0A0D891E8986E08C831A8383
:100FF00009838FEF9FE79E838D83AE01475E5F4F2E
:101000006F89788DCE0101960E940F08EF81F885D7
:10101000E00FF11F10822E96E4E00C94CA0AABE0B8
:10102000B0E0E5E1F8E00C94A00A6C017B018A01D4
:10103000FC0117821682838181FFCCC1CE0101960B
:101040003C01F6019381F70193FD859193FF819116
:101050007F01882309F4BAC1853239F493FD859163
:1010600093FF81917F01853229F4B60190E00E94BF
:10107000060AE7CF912C212C312CFFE1F315D8F093
:101080008B3279F038F4803279F08332A1F4232D59
:1010900020611DC08D3261F0803369F4232D216001
:1010A00016C0832D8260382EE32DE4603E2E2AC0C8
:1010B000F32DF8601DC037FC2DC020ED280F2A301D
:1010C00040F08E32B9F436FC81C1232D2064322EDB
:1010D00019C036FE06C08AE0989E200D1124922E7B
:1010E00011C0EAE02E9E200D1124222EF32DF06275
:1010F0003F2E08C08C3621F4832D8068382E02C024
:10110000883641F4F70193FD859193FF81917F012A
:101110008111B3CF982F9F7D9554933028F40C5FA5
:101120001F4F9FE399830DC0833631F0833771F0F1
:10113000833509F059C021C0F801808189830E5F91
:101140001F4F88248394912C530113C02801F2E08F
:101150004F0E511CF801A080B18036FE03C0692DEE
:1011600070E002C06FEF7FEFC5010E94FB094C01E8
:101170008201F32DFF773F2E16C0280122E0420E98
:10118000511CF801A080B18036FE03C0692D70E0CB
:1011900002C06FEF7FEFC5010E94F0094C01F32DF3
:1011A000F0683F2E820133FC1BC0822D90E0881630
:1011B0009906B0F4B60180E290E00E94060A2A94F3
:1011C000F4CFF50137FC859137FE81915F01B601BF
:1011D00090E00E94060A21102A9421E0821A9108C8
:1011E0008114910471F7E8C0843611F0893641F515
:1011F000F80137FE07C060817181828193810C5FA5
:101200001F4F08C060817181072E000C880B990B5D
:101210000E5F1F4FF32DFF763F2E97FF09C090956D
:101220008095709561957F4F8F4F9F4FF0683F2E4F
:101230002AE030E0A3010E94420A882E861845C0A9
:10124000853731F4232D2F7EB22E2AE030E025C0E1
:10125000932D997FB92E8F36C1F018F4883579F027
:10126000B5C0803719F0883721F0B0C0E92FE061B0
:10127000BE2EB4FE0DC0FB2DF460BF2E09C034FE9F
:101280000AC0292F2660B22E06C028E030E005C033
:1012900020E130E002C020E132E0F801B7FE07C0F3
:1012A00060817181828193810C5F1F4F06C06081D4
:1012B000718180E090E00E5F1F4FA3010E94420AFF
:1012C000882E8618FB2DFF773F2E36FE0DC0232D6E
:1012D0002E7FA22E891458F434FE0BC032FC09C0B4
:1012E000832D8E7EA82E05C0B82CA32C03C0B82C4D
:1012F00001C0B92CA4FE0FC0FE01E80DF11D8081D4
:10130000803321F49A2D997EA92E09C0A2FE06C031
:10131000B394B39404C08A2D867809F0B394A3FCE7
:1013200011C0A0FE06C0B21488F4280C922C9B18A1
:101330000EC0B21460F4B60180E290E00E94060A8A
:10134000B394F7CFB21418F42B1802C0982C212CA8
:10135000A4FE10C0B60180E390E00E94060AA2FE3F
:1013600017C0A1FC03C088E790E002C088E590E0C8
:10137000B6010CC08A2D867859F0A1FE02C08BE21E
:1013800001C080E2A7FC8DE2B60190E00E94060A4F
:10139000891438F4B60180E390E00E94060A9A941A
:1013A000F7CF8A94F301E80DF11D8081B60190E03A
:1013B0000E94060A8110F5CF222009F442CEB60120
:1013C00080E290E00E94060A2A94F6CFF601868118
:1013D000978102C08FEF9FEF2B96E2E10C94BC0A3D
:1013E000FC010590615070400110D8F780959095F0
:1013F0008E0F9F1F0895FC016150704001900110F5
:10140000D8F7809590958E0F9F1F08950F931F9387
:10141000CF93DF93FB01238121FD03C08FEF9FEF6B
:101420002CC022FF16C04681578124813581421786
:10143000530744F4A081B1819D012F5F3F4F318359
:1014400020838C93268137812F5F3F4F37832683FC
:1014500014C08B01EC01FB010084F185E02D09959E
:10146000892BE1F6D80116968D919C9117970196DC
:1014700017969C938E931697CE01DF91CF911F9173
:101480000F910895FA01AA27283051F1203181F1F6
:10149000E8946F936E7F6E5F7F4F8F4F9F4FAF4F7C
:1014A000B1E03ED0B4E03CD0670F781F891F9A1F8F
:1014B000A11D680F791F8A1F911DA11D6A0F711D43
:1014C000811D911DA11D20D009F468943F912AE04F
:1014D000269F11243019305D3193DEF6CF01089537
:1014E000462F4770405D4193B3E00FD0C9F7F6CF68
:1014F000462F4F70405D4A3318F0495D31FD405230
:10150000419302D0A9F7EACFB4E0A69597958795C5
:1015100077956795BA95C9F70097610571050895A4
:101520009B01AC010A2E0694579547953795279550
:10153000BA95C9F7620F731F841F951FA01D0895E8
:101540002F923F924F925F926F927F928F929F92D3
:10155000AF92BF92CF92DF92EF92FF920F931F93C1
:10156000CF93DF93CDB7DEB7CA1BDB0B0FB6F89472
:10157000DEBF0FBECDBF09942A88398848885F84B2
:101580006E847D848C849B84AA84B984C884DF8023
:10159000EE80FD800C811B81AA81B981CE0FD11D07
:1015A0000FB6F894DEBF0FBECDBFED010895F894DD
:0215B000FFCF6B
:1015B20025642E253034640054656D706572617443
:1015C2007572613A2000256400252E640061616114
:0815D2006161002D2D2D0000C8
:00000001FF
