:100000000C94A0090C94BD090C94BD090C94BD0975
:100010000C94BD090C94BD090C94BD090C94BD0948
:100020000C94BD090C94BD090C94BD090C94931A51
:100030000C94BD090C94BD090C94B71A0C94BD091D
:100040000C94BD090C94BD090C94BD090C94BD0918
:100050000C94BD090C94BD090C94BD090C94BD0908
:100060000C94BD090C94BD09691988198F1996194A
:10007000811A811A811A811A811A811A811A811AA8
:10008000811A811A811A811AAB19B419BF19CA19B8
:10009000D519E019E519EE19F719FC19051A131A03
:1000A0000E1A811A1C1A251A2E1A371A401A491AC2
:1000B000521A591A6A1A7B1A3E3EA143616D62694F
:1000C0006F20657869746F736F21213C3C003D3D62
:1000D0003D3D3D3D3D3D3D3D3D3D3D3D3D3D3D3D50
:1000E0003D3D3D3D3D3D3D3D3D3D3D3D3D3D3D3D40
:1000F0003D3D3D3D3D3D3D3D3D3D3D3D3D3D3D3D30
:100100003D3D3D3D3D3D3D3D3D007C2020A14154D8
:10011000454E43494F4E213A20434F4C4F51554590
:10012000204E554D45524F532044454E54524F207A
:1001300044454C2052414E474F205045524D495462
:1001400049444F207C003D3D3D3D3D3D3D3D3D3DD5
:100150003D3D3D3D3D3D3D3D3D3D3D3D3D3D3D3DCF
:100160003D3D3D3D3D3D3D3D3D3D3D3D3D3D3D3DBF
:100170003D3D3D3D3D3D3D3D3D3D3D3D3D3D3D3DAF
:100180003D0032292D204170726574652027322789
:1001900020686173746120766572207375206361D5
:1001A0006D62696F207265666C656A61646F0020BC
:1001B000736920656C206E756D65726F206DE178D6
:1001C000696D6F206573203130302079207175653D
:1001D00072656D6F7320706F6E65722032352D3EC3
:1001E00020273027202732272027352720003129B4
:1001F0002D20436F6C6F7175652063696672612095
:10020000706F7220636966726120736567756E2016
:1002100073656120656C206D6178696D6F2E20506B
:100220006F7220656A656D706C6F3A002050617264
:10023000612063616D62696172206C612076617218
:100240006961626C652073696761206C6F732073EC
:1002500069677569656E7465207061736F733A00C4
:100260003D3D3D3D3D3D3D3D3D3D3D3D3D3D3D3DBE
:100270003D3D3D3D3D3D3D3D3D3D3D3D3D3D3D3DAE
:100280003D3D3D3D3D3D3D3D3D3D3D3D007C20A155
:100290004154454E43494F4E213A2031302043418D
:1002A00052414354455245532C20454E204D41590F
:1002B000555343554C412E207C003D3D3D3D3D3D39
:1002C0003D3D3D3D3D3D3D3D3D3D3D3D3D3D3D3D5E
:1002D0003D3D3D3D3D3D3D3D3D3D3D3D3D3D3D3D4E
:1002E0003D3D3D3D3D3D0033292D204170726574FB
:1002F000652027322720686173746120766572203B
:1003000073752063616D62696F207265666C656AE2
:1003100061646F0032292D20436F6C6F7175652009
:10032000756E206775696F6E2062616A6F2028277D
:100330005F272920616C2066696E616C0031292D70
:1003400020436F6C6F717565206C657472612070ED
:100350006F72206C6574726120656C206E756576B5
:100360006F206E6F6D627265002050617261206354
:10037000616D62696172206465206E6F6D62726585
:1003800020756E61206265626964612073696761CE
:10039000206C6F73207369677569656E746573206F
:1003A0007061736F733A0020572D203230204C005B
:1003B00020562D203130204C003E3E53656C656345
:1003C00063696F6E6520656C206E7565766F20764B
:1003D0006F6C756D656E2070726573696F6E616E9E
:1003E000646F20756E61206465206573746173208D
:1003F0006C65747261733A0020552D54616D61F122
:100400006F206465204269646F6E20283130204C73
:10041000202D3230204C29203D0020542D506F7269
:1004200063656E74616A65206465205464657363F6
:1004300061726761204265626964612034202835F9
:1004400020612032352529203D0020532D506F7228
:1004500063656E74616A65206465205464657363C6
:1004600061726761204265626964612033202835CA
:1004700020612032352529203D0020522D506F72F9
:1004800063656E74616A6520646520546465736396
:10049000617267612042656269646120322028359B
:1004A00020612032352529203D0020512D506F72CA
:1004B00063656E74616A6520646520546465736366
:1004C000617267612042656269646120312028356C
:1004D00020612032352529203D0020502D43616EBA
:1004E000746964616420646520616775612043619B
:1004F0006C69656E746520426562696461203420B0
:1005000028313530206120333030206D4C29203D9A
:1005100000204F2D43616E7469646164206465201E
:10052000616775612043616C69656E746520426521
:1005300062696461203320283135302061203330F6
:1005400030206D4C29203D00204E2D43616E746992
:1005500064616420646520616775612043616C6932
:10056000656E7465204265626964612032202831BD
:100570003530206120333030206D4C29203D002063
:100580004D2D43616E746964616420646520616708
:1005900075612043616C69656E74652042656269AE
:1005A0006461203120283135302061203330302003
:1005B0006D4C29203D00204B2D43616E74696461B0
:1005C00064206465207072656D657A636C61204299
:1005D0006562696461203420283020612034323023
:1005E000206D4C29203D00204A2D43616E746964C2
:1005F0006164206465207072656D657A636C61204A
:1006000042656269646120332028302061203432E1
:1006100030206D4C29203D0020492D43616E7469C6
:10062000646164206465207072656D657A636C61D5
:1006300020426562696461203220283020612034C4
:100640003230206D4C29203D0020482D43616E74CE
:1006500069646164206465207072656D657A636C9D
:100660006120426562696461203120283020612068
:10067000343230206D4C29203D0020472D436F6ED1
:100680007374616E74652050726F706F7263696FFE
:100690006E616C20274B70273A0020452D4E6F6D00
:1006A000627265206465206C6120426562696461E4
:1006B00020342028313020636172E16374657265F3
:1006C0007329203D0020442D4E6F6D6272652064B9
:1006D00065206C61204265626964612033202831A5
:1006E0003020636172E163746572657329203D0097
:1006F00020432D4E6F6D627265206465206C612011
:100700004265626964612032202831302063617261
:10071000E163746572657329203D0020422D4E6FA0
:100720006D627265206465206C6120426562696457
:100730006120312028313020636172E16374657279
:10074000657329203D0020412D54656D70657261EF
:100750007475726120446573656164612028363068
:100760002D3935292A43203D003434343636363687
:1007700036363636363434352020202020202020CE
:1007800020333030303630303020202020202020E0
:1007900020202020202020202035303030303030E4
:1007A00030303030303030303030002020203030A9
:1007B00030303030303036202020202020202020C3
:1007C00020202020393030203830303620202020A2
:1007D0002020203730303030303030303030303042
:1007E0003030303030303030303030303000202059
:1007F0002030303030303030303920202020202060
:10080000202020202020203930302030303030325D
:1008100020353030303030303030303030303030E3
:1008200030303030303030303030303030303030C8
:100830003000202020303030303030303030322026
:10084000202020202020202020202039303030304F
:100850003030303030303030303030303030303098
:100860003030303030303030303030303030303088
:1008700030303030300020202030303030303030D8
:100880003039202039202020202020202020203016
:100890003030303030303030303030303030303058
:1008A0003030303030303030303030303030303048
:1008B0003030303030303030303000202020303098
:1008C000303030303030303337202020202020208E
:1008D0002020203630303030303030303030303042
:1008E0003030303030303030303030303030303008
:1008F0003030303030303030303030303030300028
:1009000020202020203120203120202020202020C5
:10091000202020202020203930303030303030303E
:1009200030303030303030303030303030303030C7
:1009300030303030303030303030303030303030B7
:100940003030303000202020202020312020312065
:100950002020202020202020202020203030303057
:100960003030303030303030303030303030303087
:100970003030303030303030303030303030303077
:1009800030303030303030303000202020202031E6
:100990002020312020202020202020202020202046
:1009A000393030303030303030303030303030303E
:1009B0003030303030303030303030303030303037
:1009C0003030303030303030303030303000202077
:1009D0002020202020202020202020202020202017
:1009E000202020203930303030303030303030303E
:1009F00030303030303030303030303030303030F7
:100A000030303030303030303030303030303030E6
:100A100000202020202020202020202020202020F6
:100A20002020202020303030303030303030303016
:100A300030303030303030303030303030303030B6
:100A400030303030303030303030303030303030A6
:100A500030002020202020202020202020202020A6
:100A600020202020203130303030303030303030D5
:100A70003030303030303030303030303030303076
:100A80003030303030303030303030303030303066
:100A90003120202020202020202020202020204322
:100AA0004F4E534F4C41002020202020202020205A
:100AB00020202020202020303030303030303030A6
:100AC0003030303030303030303030303030303026
:100AD0003030303030303030303030303030303016
:100AE00030303036202020202020202020202020C0
:100AF0005554494C4943452045535441202020003A
:100B0000202020202020202020202038303030308D
:100B100030303030303030303030303030303030D5
:100B200030303030303030303030303030303030C5
:100B30003030303030303030303031202020202004
:100B40002050415241204D4F444946494341522093
:100B50004553544F532020002020202020202020C7
:100B600020203030303030303030303030303030A5
:100B70003030303030303030303030303030303075
:100B80003030303030303030303030303034202081
:100B90002020202043414E544944414420444520D4
:100BA0005052454D455A434C412C4554432020005A
:100BB00020202020202020202037303030303030BE
:100BC0003030303030303030303030303030303025
:100BD0003030303030303030302020202020202085
:100BE000202020202020202050554544454E2043E1
:100BF0004F4E54524F4C41522054454D5045524156
:100C0000545552412C20002020202020202020203C
:100C100034303030303030303030303030303030D0
:100C20003030303030303030303030302020202004
:100C300020202020202020202027434146455445C5
:100C400052412720455320554E2050524F5945437D
:100C5000544F20444F4E444520534520002020202F
:100C600020202020202030303030203830303030EC
:100C700030303030303030303030303030303000A4
:100C800020202020202020202034303030303030F0
:100C9000303030303020203330303030303030356C
:100CA0002020202020204E4F4D4252453A204641E0
:100CB00042524943494F2044415649442047414C00
:100CC0004C4F0020202020202020202020202034D5
:100CD0003030303030303030303030303030303014
:100CE00037202020202020202020202020202020ED
:100CF00020202020202020202020202020202020F4
:100D0000204C4943204A554C49414E204D494E41C3
:100D100054454C002020202020202020202020206E
:100D200020202031323332383030303030303030E3
:100D300020202020202020202020202020202020B3
:100D40002020202050524F4645534F5245533A20C1
:100D5000494E47204544554152444F2056454C4149
:100D60005A5155455A0020202020202020202020A4
:100D70002020202020202020202039302020343026
:100D8000302020202020545046492E2E2E20434132
:100D900054454452413A2020202053495354454D54
:100DA0004153204449474954414C4553204956003A
:100DB0003D3D3D3D3D3D3D3D3D3D3D3D3D3D3D3D63
:100DC0003D3D3D3D3D3D3D3E3E007C204D45444941
:100DD00043494F4E45532041435455414C455320C0
:100DE0007C3E3E003D3D3D3D3D3D3D3D3D3D3D3D2F
:100DF0003D3D3D3D3D3D3D3D3D3D3D3E3E003E3E5C
:100E0000203420436F6E66696775726172003E3EE2
:100E10002033204461746F732064656C2050726FBE
:100E2000796563746F003E3E203220566572206300
:100E30006F6E66696775726163696F6E6573003E98
:100E40003E203120566572204D65646963696F6E7E
:100E5000657300202B585858585858582020202087
:100E600058582B202020585858585858582B202074
:100E70002B58782020207858583A202020202B58B2
:100E800058585820202020207858585858585878BA
:100E900020203A58582020203B58582B20202058FA
:100EA000583B202020585858585858582B2020205C
:100EB0002078585858585878202000202B5858200F
:100EC000202058585820202058582B20202058588F
:100ED0002B202020202020202B587820203A5858E2
:100EE000583A2020202078585858582E202020206A
:100EF000785878202020202020203A585820202E72
:100F00005858582B20202058583B20202058582B28
:100F100020203B58583A20202B58582E202E585825
:100F20002B2000202B58582020202B58582E2020D2
:100F300058582B20202058582B20202020202020BB
:100F40002B58782020785858583A2020202058587C
:100F50002B58582B20202020785878202020202023
:100F600020203A585820202B5858582B2020205801
:100F7000583B20202058582B20203A58583B2020FE
:100F80007858582020205858782000202B58582076
:100F9000202058585820202058582B2020205858BE
:100FA0002B202020202020202B5878203A585858D9
:100FB000583A2020203B58583A3B585820202020AF
:100FC000785878202020202020203A585820205877
:100FD0005858582B20202058583B20202058582B58
:100FE00020203A58583B2020785858202020585824
:100FF000782000202B585858585858782020202006
:1010000058582B2020205858585858583B202020FA
:101010002B58782078583B58583A20202058585858
:10102000202058583A20202078585858585878206E
:1010300020203A58582078582B58582B20202058D8
:10104000583B20202058582B20203A58583B20202D
:101050007858582020205858782000202B58582E97
:10106000203B58583A20202058582B2020205858F0
:101070002B202020202020202B58783A58782058E8
:10108000583A20202058582B202058583B20202008
:10109000785878202020202020203A58582058586E
:1010A0002058582B20202058583B20202058582BBF
:1010B00020203A58583B2020785858202020585853
:1010C000782000202B5858202020585878202020A5
:1010D00058582B20202058582B202020202020201A
:1010E0002B585858583A2058583A20203A58583ACD
:1010F0002020785878202020785878202020202020
:1011000020203A585858583B2058582B2020205817
:10111000583B20202058582B20203A58583B20205C
:101120007858582020205858782000202B58582EC6
:10113000203B58587820202058582B2020205858E1
:101140002B202020202020202B5858587820205851
:10115000583A20202B58582E20203A58582E20201C
:10116000785878202020202020203A58585858209D
:101170002058582B20202058583B20202058582BEE
:1011800020202B58582E20202B58582E203A5858C3
:101190002B00202B58585858585878202020205879
:1011A000582B202020585858585858582B20202B5E
:1011B00058585820202058583A2020585878202035
:1011C000202058583B202078585858585858782094
:1011D000203A5858583A202058582B202020585848
:1011E0003B202020585858585858583A2020202042
:1011F0007858585858587820003E3E4E6976656CAD
:101200006573206465206C6C656E61646F20646535
:10121000206C6F7320646F736966696361646F72B9
:101220006573206465207072656D657A636C6120FA
:1012300028656E2025293A003E3E4269646F6E3A69
:1012400000206D4C002D566F6C756D656E3A002058
:101250002A43002D54656D70657261747572613A30
:10126000003E3E506F72206661766F722C20696E70
:1012700074656E74656C6F206E756576616D656EF4
:101280007465206DE1732074617264652E204143A2
:1012900045505441523A204170726574652058009F
:1012A0003E3E4552524F523A204C412043414E540B
:1012B000494441442050524F5055455354412045D4
:1012C0005354C12046554552412044452052414E79
:1012D000474F204F20454E20464F524D41544F20FE
:1012E0004552524F4E454F003E3E41707265746507
:1012F0002058207061726120766F6C766572206173
:101300006C206D656E7520696E696369616C003E65
:101310003E53656C656363696F6E6520616C6775CC
:101320006E61206465206C617320616E7465726902
:101330006F726573206F7063696F6E657320000054
:1013400011241FBECFEFD8E0DEBFCDBF12E0A0E07A
:10135000B1E0EAECF0E402C005900D92A439B107C7
:10136000D9F722E0A4E9B2E001C01D92A03FB20784
:10137000E1F70E94861A0C9463200C940000ECE7BD
:10138000F0E080818064808380818F7D8083EAE7C4
:10139000F0E0808187608083808180688083089509
:1013A000ECE7F0E09081907F90839081892B80839F
:1013B000EAE7F0E080818064808380917A0086FD96
:1013C000FCCF0895883121E0920759F186349105C8
:1013D00051F18035910549F18A35910541F1843605
:1013E000910539F18E36910531F18837910529F152
:1013F0008238910521F18C38910519F181399105D7
:1014000011F18639910509F18B39910501F1803A85
:101410009105F9F08A3A9105F1F0843B9105E9F0E4
:10142000089584E4089584E4089584E4089584E4A8
:10143000089581E4089581E4089581E4089581E4A4
:10144000089580E5089580E5089580E5089580E594
:10145000089586E508958BE4089584E50895EF9254
:10146000FF921F93CF93DF9300D01F92CDB7DEB7CB
:101470007C010E94491410929502109294020E94DD
:101480009410898381E090E0909395028093940278
:101490000E9494108A831B82C7010E94E209182FC0
:1014A000843591F4CE0101960E94531D803691053A
:1014B0004CF4CC973CF0BE016F5F7F4FC7010E9498
:1014C000850B02C00E943A141B3479F4CE010196B8
:1014D0000E94531D892B39F0BE016F5F7F4FC701FA
:1014E0000E94850B02C00E943A14103591F4CE017F
:1014F00001960E94531D8A3191054CF405973CF0EA
:10150000BE016F5F7F4FC7010E94850B02C00E9422
:101510003A140F900F900F90DF91CF911F91FF9091
:10152000EF9008950F931F93CF93DF93CDB7DEB75E
:101530002B970FB6F894DEBF0FBECDBF8C01109273
:101540009502109294020E949410898381E090E0A9
:1015500090939502809394020E9494108A8382E073
:1015600090E090939502809394020E9494108B8354
:1015700083E090E090939502809394020E949410EF
:101580008C8384E090E090939502809394020E9473
:1015900094108D8385E090E090939502809394025F
:1015A0000E9494108E8386E090E090939502809341
:1015B00094020E9494108F8387E090E090939502AC
:1015C000809394020E949410888788E090E0909322
:1015D0009502809394020E949410898789E090E09C
:1015E00090939502809394020E9494108A871C869F
:1015F000BE016F5F7F4FC8010E94850B88EB90E0B2
:101600000E949F100E947A102B960FB6F894DEBFAE
:101610000FBECDBFDF91CF911F910F910895EF9233
:10162000FF921F93CF93DF9300D000D0CDB7DEB7EA
:101630007C010E94491410929502109294020E941B
:101640009410898381E090E09093950280939402B6
:101650000E9494108A8382E090E090939502809398
:1016600094020E9494108B831C82C7010E94E2099D
:10167000182F843499F4CE0101960E94531D853AA7
:1016800021E092074CF499233CF0BE016F5F7F4F3D
:10169000C7010E94850B02C00E943A141134A1F4C4
:1016A000CE0101960E94531D8D3221E0920754F421
:1016B000863991053CF0BE016F5F7F4FC7010E94E4
:1016C000850B02C00E943A140F900F900F900F905C
:1016D000DF91CF911F91FF90EF900895F894F999C1
:1016E000FECF92BD81BD60BD8FB384608FBB8FB3D1
:1016F00082608FBB78940895F999FECF92BD81BD29
:101700008FB381608FBB80B50895AF92BF92CF92A7
:10171000DF92EF92FF920F931F93CF93DF936C01B1
:101720005B01C0E0D0E00EC07E01EC0CFD1CC701E7
:101730000E947C0BF8016081861719F0C7010E9496
:101740006E0B219685010C0F1D1FF8018081811100
:10175000EBCFCC0DDD1DCE010E947C0B882321F048
:1017600060E0CE010E946E0BDF91CF911F910F912F
:10177000FF90EF90DF90CF90BF90AF900895AF9221
:10178000BF92CF92DF92EF92FF920F931F93CF936E
:10179000DF935C016B017A01C0E0D0E00BC08601F1
:1017A0000C0F1D1FCE018A0D9B1D0E947C0BF801A2
:1017B00080832196CE15DF0590F3F601EE0DFF1D17
:1017C0001082DF91CF911F910F91FF90EF90DF90EA
:1017D000CF90BF90AF90089589E18093B8001092A8
:1017E000B900089584EA8093BC008091BC008823EE
:1017F000E4F708958093BB0084E88093BC00809157
:10180000BC008823E4F7089584E98093BC008091AC
:10181000BC0080FDFCCF0895EBEBF0E0808182609E
:10182000808384E88093BC008091BC008823E4F727
:1018300089EF90E00197F1F700C00000EBEBF0E0DA
:1018400080818D7F808384E88093BC008091BC0080
:101850008823E4F70895EBEBF0E090819E7F90837E
:1018600094E89093BC009091BC009923E4F7EBEBD3
:10187000F0E090819F70908394E89093BC009091E9
:10188000BC009923E4F7EBEBF0E09081807F892B9B
:10189000808384E88093BC008091BC008823E4F7B7
:1018A0000E940C0C0895CF93C82FEBEBF0E08081E1
:1018B0008E7F808384E88093BC008091BC00882365
:1018C000E4F7EBEBF0E080818F70808384E8809315
:1018D000BC008091BC008823E4F7EBEBF0E0808152
:1018E0009C2F907F892B808384E88093BC0080911B
:1018F000BC008823E4F70E940C0CEBEBF0E0808145
:101900008F70808384E88093BC008091BC00882322
:10191000E4F7EBEBF0E0208130E1C39FC00111243C
:10192000822B808384E88093BC008091BC00882354
:10193000E4F70E940C0CCF910895CF93C82FEBEBE6
:10194000F0E080818160808384E88093BC00809196
:10195000BC008823E4F7EBEBF0E080818F7080839C
:1019600084E88093BC008091BC008823E4F7EBEB13
:10197000F0E080819C2F907F892B808384E8809386
:10198000BC008091BC008823E4F70E940C0CEBEBB8
:10199000F0E080818F70808384E88093BC00809128
:1019A000BC008823E4F7EBEBF0E0208130E1C39F3B
:1019B000C0011124822B808384E88093BC00809135
:1019C000BC008823E4F70E940C0CCF9108950E947C
:1019D000EC0B0E94F20B80E40E94FA0B81EE94E083
:1019E0000197F1F700C0000080E30E942B0C81EE0C
:1019F00094E00197F1F700C0000080E30E942B0CF7
:101A000080E20E942B0C81EE94E00197F1F700C078
:101A1000000088E20E94530C8CE00E94530C81E08D
:101A20000E94530C86E00E94530C80E80E94530CE5
:101A30000895CF93DF93EC0103C021960E949D0C83
:101A400088818111FACFDF91CF91089581E00E94C2
:101A5000530C81E28A95F1F7000080E80E94530C54
:101A6000089585E08093B800089584EA8093BC00CF
:101A70008091BC008823E4F708958093BB0084E83C
:101A80008093BC008091BC008823E4F7089584EC27
:101A90008093BC008091BC008823E4F78091BB0058
:101AA00090E0A0E0B0E08093AB029093AC02A093F2
:101AB000AD02B093AE0284EC8093BC008091BC0078
:101AC0008823E4F78091BB0090E0A0E0B0E0809331
:101AD000B3029093B402A093B502B093B60284E827
:101AE0008093BC008091BC008823E4F78091BB0008
:101AF00090E0A0E0B0E08093AF029093B002A0939A
:101B0000B102B093B202089584E98093BC000895B5
:101B10000E94350D80ED0E943D0D8CE10E943D0D2F
:101B20000E94840D0895CF93DF930E94310D0E948F
:101B3000880D0E94350D81ED0E943D0D0E94470DDC
:101B40002091AB0280E090E0922F990F990FC09105
:101B5000B302D091B402CC0FDD1FCC0FDD1FC82B18
:101B6000D92B8091AF029091B002082E892F000CE2
:101B7000881F990B000C881F991FC82BD92B2297FF
:101B80000E94840DCE01DF91CF9108950E94930DA4
:101B9000BC01990F880B990B0E94541C20E030E087
:101BA00040E050E40E943E1B20E030E04AE754E46D
:101BB0000E94E01C20E030EE4FEF54E40E94AA1B8C
:101BC00020E030E040EA51E40E94E01C0E941C1C2E
:101BD000CB01089594EA9093BC009091BC009923A6
:101BE000E4F79091B9009B7F983009F057C090E9D5
:101BF0009093BB0094E89093BC009091BC00992313
:101C0000E4F79091B9009B7F983109F047C0809329
:101C1000BB0084E88093BC008091BC008823E4F77B
:101C20008091B9008B7F8832C9F584EA8093BC002B
:101C30008091BC008823E4F78091B9008B7F8031CC
:101C400069F581E98093BB0084E88093BC008091B2
:101C5000BC008823E4F78091B9008B7F8034F1F4D5
:101C600015C02115310521F484E88093BC0003C020
:101C700084EC8093BC008091BC008823E4F78091C1
:101C8000BB00FB018083A9016F5F7F4F9A01215048
:101C90003109452B31F784E98093BC00089594EA1B
:101CA0009093BC009091BC009923E4F79091B90007
:101CB0009B7F9830D1F590E99093BB0094E8909386
:101CC000BC009091BC009923E4F79091B9009B7FF0
:101CD000983159F58093BB0084E88093BC008091D3
:101CE000BC008823E4F78091B9008B7F8832E9F447
:101CF00014C0FB013196DB018C918093BB0084E81A
:101D00008093BC008091BC008823E4F78091B900E7
:101D1000A9018B7F883249F4BF019A012150310912
:101D2000452B39F784E98093BC0008951F93CF9326
:101D3000DF931F92CDB7DEB7182F41E050E0BE0110
:101D40006F5F7F4F81E00E94EA0D8981282F2F79F4
:101D500030E2139FC0011124822B898341E050E0BF
:101D6000BE016F5F7F4F81E00E944F0E0F90DF91A9
:101D7000CF911F9108951F93CF93DF931F92CDB7FB
:101D8000DEB7182F41E050E0BE016F5F7F4F81E06A
:101D90000E94EA0D89818E7F182B198341E050E063
:101DA000BE016F5F7F4F81E00E944F0E0F90DF9169
:101DB000CF911F910895EF92FF921F93CF93DF93DE
:101DC00000D0CDB7DEB742E050E0BE016F5F7F4F7D
:101DD00080E00E94EA0DE980FA80B701772780E071
:101DE00090E00E94521C1F2DF7FE06C020E030E05C
:101DF00040E05FE30E943E1B16FF06C020E030E09B
:101E000040E85EE30E943E1B15FF06C020E030E084
:101E100040E05EE30E943E1B14FF06C020E030E07D
:101E200040E85DE30E943E1B0F900F90DF91CF9141
:101E30001F91FF90EF9008958F929F92AF92BF9263
:101E4000CF92DF92EF92FF920F931F93CF93DF9386
:101E5000CDB7DEB7AA970FB6F894DEBF0FBECDBFE1
:101E60000E945A1083E00E94960E80E00E94BB0EF2
:101E700001E010E03CC00E94DB0E4B015C010E94BF
:101E80001C1C6B017C01072E000C880B990B0E9417
:101E9000541C9B01AC01C501B4010E943D1B20E014
:101EA00030E44CE156E40E94E01C0E941C1C9B01A3
:101EB000772324F422273327261B370B3F932F93B6
:101EC000DF92CF928EE191E09F938F93CE010196A6
:101ED0009F938F930E94791D85E391E00E946D107E
:101EE0000F5F1F4F0FB6F894DEBF0FBECDBF0B3F85
:101EF00011050CF285E391E00E946D10CE01019670
:101F00000E94531D9F938F9386E391E09F938F933D
:101F10008E010F5D1F4F1F930F930E94791DC80103
:101F20000E94531D0F900F900F900F900F900F90E5
:101F3000AA960FB6F894DEBF0FBECDBFDF91CF914A
:101F40001F910F91FF90EF90DF90CF90BF90AF90D7
:101F50009F908F900895CF93DF93D82FC92F0E9421
:101F6000F20B8EE40E94FA0B8D2F0E94FA0B8C2F3D
:101F70000E94FA0B0E94040CDF91CF91089580E03B
:101F800090E00E94AB0F08958AB1877F8AB98AB129
:101F90008F7E8AB98BB188608BB98BB180618BB928
:101FA000089589B182958F7091E08927817080931F
:101FB000980290E0089589B186958695869591E07E
:101FC000892781708093990290E008958AB18F7D6E
:101FD0008AB98AB18F7B8AB98BB180628BB98BB198
:101FE00080648BB9089589B182958695877091E058
:101FF000892781708093970290E0089589B1829536
:1020000086958695837091E08927817080939602EA
:1020100090E0089584B1886084B9E0EBF0E08081BD
:1020200083608083A1EBB0E08C9182608C9380818F
:102030008068808308959C01629FC001639F900D1A
:10204000729F900D11248F3F910509F01CF4992384
:1020500034F403C08FEF90E002C080E090E0809302
:10206000B300089514BC15BC16BC84B5826084BD51
:1020700085B5836085BD8FEF87BDEEE6F0E080819A
:1020800082608083089510928000E1E8F0E0108281
:1020900080818860808388E09DE3909389008093AD
:1020A0008800AFE6B0E08C9182608C93808185607F
:1020B000808308951092C50080E18093C40088E178
:1020C0008093C10086E08093C20008959091C00083
:1020D00095FFFCCF8093C6000895CF93DF93EC016A
:1020E00003C00E946610219688818111FACFDF918A
:1020F000CF9108958DE00E9466108AE00E946610DC
:1021000008958091C0008823E4F78091C6008F3540
:1021100009F480E00895CF930E948110C82F0E9497
:1021200066108C2FCF910895CF930E948110C82FF5
:102130000E9466100E947A108C2FCF910895CF9341
:10214000DF93FC0103C00E946610FE01EF0121969F
:1021500084918111F8CFDF91CF9108950E947A1078
:1021600082E991E10E949F100E947A108BE291E136
:102170000E949F100E947A1083EC90E10E949F10B1
:102180000E947A108BE590E10E949F100E947A10C5
:1021900083EF9FE00E949F100E947A108BE89FE0DF
:1021A0000E949F100E947A1083E29FE00E949F107D
:1021B0000E947A108BEB9EE00E949F100E947A1082
:1021C00083E59EE00E949F100E947A100E947A1080
:1021D00008950E947A100E947A1086E69DE00E947F
:1021E0009F100E947A1084E19DE00E949F100E943F
:1021F0007A1083EC9CE00E949F100E947A1080E885
:102200009CE00E949F100E947A108DE59CE00E9445
:102210009F100E947A1087E09CE00E949F100E940D
:102220007A1080EB9BE00E949F100E947A1088E554
:102230009BE00E949F100E947A1080E09BE00E9429
:102240009F100E947A1087EA9AE00E949F100E94D5
:102250007A1082E59AE00E949F100E947A1081E134
:102260009AE00E949F100E947A108EEC99E00E94E2
:102270009F100E947A108AE899E00E949F100E94A5
:102280007A1085E499E00E949F100E947A1080E005
:1022900099E00E949F100E947A108BEB98E00E94B8
:1022A0009F100E947A1086E798E00E949F100E947B
:1022B0007A1082E398E00E949F100E947A108EEEBE
:1022C00097E00E949F100E947A108BEA97E00E948C
:1022D0009F100E947A1089E697E00E949F100E944A
:1022E0007A100E947A108FE093E10E949F10089567
:1022F0000E947A108FE39EE00E949F100E947A1045
:1023000086E29EE00E949F100E947A108EE09EE07E
:102310000E949F100E947A108EEF9DE00E949F10F5
:102320000E947A1088EE92E10E949F100E947A101B
:102330008FE093E10E949F1008956F927F928F9299
:102340009F92AF92BF92CF92DF92EF92FF920F9344
:102350001F93CF93DF93782E692EC62FD72F942EFD
:10236000852EB22EA32E0E947A1084EE9DE00E944C
:102370009F100E947A108AEC9DE00E949F100E949C
:102380007A1080EB9DE00E949F100E947A1088E3F3
:1023900092E10E949F100E947A1083E592E10E94D0
:1023A0009F10DF93CF930F2EF6E3CF2EF1E0DF2EB9
:1023B000F02DDF92CF92C3EDD2E0DF93CF930E9456
:1023C000791DCE010E946D108FE492E10E949F1052
:1023D0000E947A1085E492E10E949F106F927F9292
:1023E000DF92CF92DF93CF930E94791DCE010E949E
:1023F0006D1081E492E10E949F100E947A1089EF93
:1024000091E10E949F100E947A1089E391E00E945E
:102410006D104CE050E0BE018AE090E00E94BF0BDE
:10242000CE010E946D1083E391E00E946D108F92A7
:102430009F92DF92CF92DF93CF930E94791DCE01BE
:102440000E946D1088EE91E00E946D100E947A103B
:1024500085E491E00E946D104CE050E0BE0189E1FE
:1024600090E00E94BF0BCE010E946D1083E391E0CB
:102470000E946D10AF92BF92DF92CF92DF93CF9305
:102480000E94791DCE010E946D1088EE91E00E949D
:102490006D100E947A1081E591E00E946D104CE071
:1024A00050E0BE0188E290E00E94BF0BCE010E9486
:1024B0006D1083E391E00E946D101F930F93DF92E4
:1024C000CF92DF93CF930E94791DCE010E946D10B1
:1024D00088EE91E00E946D100E947A108DE591E0E7
:1024E0000E946D104CE050E0BE0187E390E00E9436
:1024F000BF0BCE010E946D1083E391E00E946D102E
:10250000FF92EF92DF92CF92DF93CF930E94791DDB
:102510008DB79EB784960FB6F8949EBF0FBE8DBF41
:10252000CE010E946D1088EE91E00E946D100E9415
:102530007A1088EE92E10E949F10DF91CF911F9157
:102540000F91FF90EF90DF90CF90BF90AF909F9052
:102550008F907F906F9008950E947A1086E497E0A4
:102560000E949F104AE050E063ED72E084EB90E03F
:102570000E94BF0B83ED92E00E946D100E947A10C2
:102580008BE197E00E949F104CE050E063ED72E019
:102590008AE090E00E94BF0B83ED92E00E946D10F4
:1025A0000E947A1080EF96E00E949F104CE050E06D
:1025B00063ED72E089E190E00E94BF0B83ED92E051
:1025C0000E946D100E947A1085EC96E00E949F1088
:1025D0004AE050E063ED72E088E290E00E94BF0BB9
:1025E00083ED92E00E946D100E947A108AE996E0D5
:1025F0000E949F104AE050E063ED72E087E390E0B4
:102600000E94BF0B83ED92E00E946D100E947A1031
:102610008AE796E00E949F1043E050E063ED72E08D
:102620008AEA90E00E94BF0B83ED92E00E946D1059
:102630000E947A1089E496E00E949F1043E050E0E7
:1026400063ED72E088E191E00E94BF0B83ED92E0C0
:102650000E946D100E947A1088E196E00E949F10FF
:1026600043E050E063ED72E086E490E00E94BF0B2F
:1026700083ED92E00E946D100E947A1087EE95E043
:102680000E949F1043E050E063ED72E080E590E02F
:102690000E94BF0B83ED92E00E946D100E947A10A1
:1026A00086EB95E00E949F1043E050E063ED72E0FE
:1026B0008AE590E00E94BF0B83ED92E00E946D10CE
:1026C0000E947A108FE795E00E949F1043E050E04F
:1026D00063ED72E084E690E00E94BF0B83ED92E030
:1026E0000E946D100E947A1088E495E00E949F106D
:1026F00043E050E063ED72E08EE690E00E94BF0B95
:1027000083ED92E00E946D100E947A1081E195E0C5
:102710000E949F1043E050E063ED72E088E790E094
:102720000E94BF0B83ED92E00E946D100E947A1010
:102730008AED94E00E949F1043E050E063ED72E068
:1027400082E890E00E94BF0B83ED92E00E946D1042
:102750000E947A108AEA94E00E949F1043E050E0C1
:1027600063ED72E08CE890E00E94BF0B83ED92E095
:102770000E946D100E947A108AE794E00E949F10D8
:1027800043E050E063ED72E081E990E00E94BF0B0E
:1027900083ED92E00E946D100E947A108AE494E02A
:1027A0000E949F1043E050E063ED72E086E990E004
:1027B0000E94BF0B83ED92E00E946D100E947A1080
:1027C0008AE194E00E949F1043E050E063ED72E0E4
:1027D0008BE990E00E94BF0B83ED92E00E946D10A8
:1027E0000E947A1088EF93E00E949F1043E050E02F
:1027F00063ED72E080EA90E00E94BF0B83ED92E00F
:102800000E946D1089E691E00E946D100E947A107E
:1028100088EE92E10E949F1008950E947A1089E646
:1028200093E00E949F100E947A108DE393E00E9433
:102830009F100E947A1084E193E00E949F100E94F2
:102840007A1087EE92E00E949F100E947A108AEB25
:1028500092E00E949F100E947A108DE892E00E9400
:102860009F100E947A1080E692E00E949F100E94C2
:102870007A1008950E947A1080EA92E10E949F10D7
:102880000E947A1081E692E10E949F100E947A10C5
:1028900008950E947A108CE292E00E949F100E949C
:1028A0007A108EEE91E00E949F100E947A108FEABB
:1028B00091E00E949F100E947A1082E891E00E94AD
:1028C0009F100E947A1086E491E00E949F100E945F
:1028D0007A108AE091E00E949F100E947A108EEC9C
:1028E00090E00E949F100E947A1008950E947A1032
:1028F00089EB93E00E949F100E947A1080EB93E096
:102900000E949F100E947A1087EA93E00E949F1015
:102910000E947A10089580919B02813031F482E701
:1029200091E00E946D1010929B020895CF92DF9269
:10293000EF92FF920F931F93CF93DF93CDB7DEB744
:10294000C055D1090FB6F894DEBF0FBECDBF02E36C
:1029500010E01A830983FE01339688E0DF011D929F
:102960008A95E9F7BE016F5F7F4F80EA90E00E9491
:10297000850B86E0E0E0F1E0DE011B9601900D9210
:102980008A95E1F76894FF24F2F8FE017196DF0161
:102990008F2D1D928A95E9F7BE01655F7F4F8AE012
:1029A00090E00E94850B4AE050E063ED72E08AE01F
:1029B00090E00E94BF0B81E491E00E946D1083EDD6
:1029C00092E00E946D1084E595E49E8B8D8B188EAD
:1029D0001F8AFE01799686E0DF011D928A95E9F74C
:1029E000BE016B5E7F4F89E190E00E94850B4AE05B
:1029F00050E063ED72E089E190E00E94BF0B81E45A
:102A000091E00E946D1083ED92E00E946D1089E0CC
:102A1000EAE0F1E0DE015F9601900D928A95E1F720
:102A200018A6BE01615E7F4F88E290E00E94850B90
:102A30004AE050E063ED72E088E290E00E94BF0B54
:102A400081E491E00E946D1083ED92E00E946D1090
:102A500086E0E4E1F1E0DE01999601900D928A951D
:102A6000E1F7FE01BF96DF011D92FA94E9F7BE017E
:102A7000675D7F4F87E390E00E94850B4AE050E05E
:102A800063ED72E087E390E00E94BF0B81E491E088
:102A90000E946D1083ED92E00E946D100F2EF1E305
:102AA000EF2EF0E3FF2EF02DFCAAEBAA0F2EF0E3A1
:102AB000CF2ED12CF02DDEAACDAA1FAABE016D5CAF
:102AC0007F4F88E191E00E94850BBE016D5C7F4FD6
:102AD00086E490E00E94850BBE016D5C7F4F80E52F
:102AE00090E00E94850BBE016D5C7F4F8AE590E00F
:102AF0000E94850B82E390E399AF88AFDBAECAAE4C
:102B00001CAEBE01685C7F4F84E690E00E94850B9E
:102B1000BE01685C7F4F8EE690E00E94850BBE018F
:102B2000685C7F4F88E790E00E94850BBE01685C7F
:102B30007F4F82E890E00E94850BFEAEEDAE2196BD
:102B40001FAE1EAE219722961FAE2297BE01635C78
:102B50007F4F8CE890E00E94850BBE01635C7F4F45
:102B600081E990E00E94850BBE01635C7F4F86E99E
:102B700090E00E94850BBE01635C7F4F8BE990E083
:102B80000E94850BFE01EE5BFF4F0193119313E052
:102B9000DF01812F1D928A95E9F7BE016E5B7F4FA1
:102BA00080EA90E00E94850B88E395E329969FAF29
:102BB0008EAF29972B961FAE1EAE2B972C961FAE6D
:102BC0002C97BE01695B7F4F84EB90E00E94850BE0
:102BD000FE01E45BFF4F81E390E081939193DF017D
:102BE0001D921A95E9F7BE01645B7F4F8AEA90E077
:102BF0000E94850BC05BDF4F0FB6F894DEBF0FBE9F
:102C0000CDBFDF91CF911F910F91FF90EF90DF909B
:102C1000CF9008954AE050E063ED72E080EA90E0E2
:102C20000E94BF0B83ED92E00E94531D0197029713
:102C300048F00E9496140E947A1086E791E00E9464
:102C40006D1008950E947A1083EA91E00E946D1041
:102C500008950E94310D0E94880D0E94C60D909328
:102C6000CC028093CB020E94840D0E941C0F909393
:102C7000ED028093EC0208950F931F93CF93DF939F
:102C8000C0E0D0E033C00E942916219644E050E015
:102C900063ED72E08AEA90E00E94BF0B83ED92E060
:102CA0000E94531D8C0144E050E063ED72E084EB20
:102CB00090E00E94BF0B83ED92E00E94531D209193
:102CC000EC023091ED02821B930B2091CB023091EC
:102CD000CC02232B29F0BC01C8010E941B1006C0A6
:102CE00060E070E081E090E00E941B10C530D105EB
:102CF00051F6DF91CF911F910F9108950F931F937C
:102D0000CF93DF93F8948BEC91E00E94190D27E3A9
:102D100081E796E0215080409040E1F700C000003C
:102D20000E94260D84ED91E00E94190D27E381E7B2
:102D300096E0215080409040E1F700C000000E94E2
:102D4000260D80EE91E00E94190D27E381E796E0C1
:102D5000215080409040E1F700C000000E94260D05
:102D60008AEE91E00E94190D27EB8BE89CE0215040
:102D700080409040E1F700C000000E94260D84E3EF
:102D800091E00E94190D4AE050E063ED72E08AE0A4
:102D900090E00E94BF0B83ED92E00E94190D27EB9B
:102DA0008BE89CE0215080409040E1F700C000009B
:102DB0000E94260D84E391E00E94190D8091CA02C1
:102DC0008F938091C9028F9306E311E01F930F93B5
:102DD000C3EDD2E0DF93CF930E94791DCE010E9414
:102DE000190D97EB2BE88CE0915020408040E1F7E3
:102DF00000C000000E94260D84E391E00E94190D9E
:102E00004AE050E0BE0189E190E00E94BF0BCE0194
:102E10000E94190D97EB2BE88CE0915020408040E8
:102E2000E1F700C000000E94260D0E94260D84E3F9
:102E300091E00E94190D8091D2028F938091D1026E
:102E40008F931F930F93DF93CF930E94791DCE0131
:102E50000E94190D87EB9BE82CE0815090402040A8
:102E6000E1F700C000000E94260D84E391E00E947B
:102E7000190D4AE050E0BE0188E290E00E94BF0BCD
:102E8000CE010E94190D87EB9BE82CE08150904009
:102E90002040E1F700C000000E94260D84E391E08D
:102EA0000E94190D8091D0028F938091CF028F9351
:102EB0001F930F93DF93CF930E94791DCE010E9441
:102EC000190D27EB8BE89CE0215080409040E1F702
:102ED00000C000000E94260D84E391E00E94190DBD
:102EE0004AE050E0BE0187E390E00E94BF0BCE01B4
:102EF0000E94190D27EB8BE89CE021508040904008
:102F0000E1F700C000000E94260D0E94260D84E318
:102F100091E00E94190D8091CE028F938091CD0295
:102F20008F931F930F93DF93CF930E94791DCE0150
:102F30000E94190D97EB2BE88CE0915020408040C7
:102F4000E1F700C000000E94260D83EF91E00E948F
:102F5000190D97EB2BE88CE0915020408040E1F771
:102F600000C000000E94260D84E391E00E94190D2C
:102F70008BEF91E00E94190D97EB2BE88CE09150BC
:102F800020408040E1F700C000000E94260D84E34D
:102F900091E00E94190D8091EC029091ED029F93B7
:102FA0008F931F930F93DF93CF930E94791DCE01D0
:102FB0000E94190D88E092E00E94190D87EB9BE8B2
:102FC0002CE0815090402040E1F700C000000E94BA
:102FD000260D84E391E00E94190D8BE092E00E949F
:102FE000190D87EB9BE82CE0815090402040E1F7E1
:102FF00000C000000E94260D84E391E00E94190D9C
:103000008091CB029091CC029F938F931F930F934B
:10301000DF93CF930E94791D8DB79EB784960FB62C
:10302000F8949EBF0FBE8DBFCE010E94190D84E1A2
:1030300092E00E94190D9FED22EB83E09150204019
:103040008040E1F700C0000097EB2BE88CE0915046
:1030500020408040E1F700C000000E94260DDF9173
:10306000CF911F910F9108950E94F30F8093A602B4
:103070000E94FE0F8093A5028091A602813009F084
:103080006EC08091A7028F5F8093A702853019F4EC
:1030900081E08093A7020E94E70C80919E029091AC
:1030A0009F02019731F40E947E1610929F021092A7
:1030B0009E028091A7028230D1F018F4813031F065
:1030C00049C0833029F18430A1F144C04AE050E086
:1030D00063ED72E08AE090E00E94BF0B86E291E02F
:1030E0000E94190D83ED92E00E94190D08954AE0A7
:1030F00050E063ED72E089E190E00E94BF0B86E250
:1031000091E00E94190D83ED92E00E94190D08953F
:103110004AE050E063ED72E088E290E00E94BF0B6D
:1031200086E291E00E94190D83ED92E00E94190D54
:1031300008954AE050E063ED72E087E390E00E947A
:10314000BF0B86E291E00E94190D83ED92E00E9490
:10315000190D089581E08093A7020E943418089504
:103160000E94DB0F8093A9020E94D10F8093A802D6
:103170000895CF93DF9380E00E94D009C8E7D0E0A4
:103180006881798180E090E00E94521C20E030EC60
:103190004FE754E40E94AA1B20E030E048EC52E4E0
:1031A0000E94E01C0E941C1C7093CA026093C9021A
:1031B00081E00E94D0096881798180E090E00E94DE
:1031C000521C20E030EC4FE754E40E94AA1B20E0A0
:1031D00030E048EC52E40E94E01C0E941C1C7093FA
:1031E000D2026093D10282E00E94D0096881798185
:1031F00080E090E00E94521C20E030EC4FE754E465
:103200000E94AA1B20E030E048EC52E40E94E01C3F
:103210000E941C1C7093D0026093CF0283E00E9436
:10322000D0096881798180E090E00E94521C20E002
:1032300030EC4FE754E40E94AA1B20E030E048EC59
:1032400052E40E94E01C0E941C1C7093CE0260930A
:10325000CD02DF91CF9108950E94B9180E942916DE
:103260000E94B0180E94341808950E94BF0F0E9457
:10327000BF090E945A100E94C40F0E94E60F0E94CC
:103280000A1080919A02811105C00E94AE1081E05F
:1032900080939A020E940A160E9478110E943210AE
:1032A0000E9443100895EF92FF920F931F930E9484
:1032B0008B108093EB02E091EB028E2F90E0FC01EB
:1032C000F197E832F10508F01CC1EC5CFF4F0C945B
:1032D0004D1D6091EC027091ED028091CB029091B6
:1032E000CC02E090CD02F090CE020091CF0210917E
:1032F000D0022091D1023091D2024091C902509166
:10330000CA020E949D1187E192E08093EB02F9C00E
:103310000E94AC1287E192E08093EB02F2C00E941F
:10332000E91087E192E08093EB02EBC00E947A10F3
:1033300089E192E00E946D100E94AC120E947A1006
:1033400089E492E00E946D100E947A1087E192E079
:103350008093EB02D6C084EB90E00E942F0A87E1B5
:1033600092E08093EB02CDC00E940D148AE090E0C1
:103370000E94920A87E192E08093EB02C2C00E9411
:103380000D1489E190E00E94920A87E192E0809317
:10339000EB02B7C00E940D1488E290E00E94920AEE
:1033A00087E192E08093EB02ACC00E940D1487E3AA
:1033B00090E00E94920A87E192E08093EB02A1C024
:1033C00087E192E08093EB029CC08AEA90E00E9441
:1033D0002F0A87E192E08093EB0293C088E191E0AD
:1033E0000E940F0B87E192E08093EB028AC086E493
:1033F00090E00E940F0B85C080E590E00E940F0BCB
:1034000087E192E08093EB027CC08AE590E00E9425
:103410000F0B87E192E08093EB0273C087E192E0AB
:103420008093EB026EC08EE690E00E940F0B87E166
:1034300092E08093EB0265C087E192E08093EB021B
:1034400088E790E00E940F0B5CC087E192E08093D8
:10345000EB0282E890E00E940F0B53C087E192E0FC
:103460008093EB028CE890E00E942F0A4AC087E12B
:1034700092E08093EB0281E990E00E942F0A41C024
:1034800087E192E08093EB0286E990E00E942F0AA8
:1034900038C087E192E08093EB028BE990E00E94D4
:1034A0002F0A2FC00E94761487E192E08093EB02EE
:1034B00028C06FE872E080EA90E00E94850B0E94CD
:1034C0007A100E9478110E947A1087E192E080932E
:1034D000EB0217C00E947A1061E972E080EA90E086
:1034E0000E94850B0E9478110E947A1087E192E079
:1034F0008093EB0206C00E94781187E192E08093EE
:10350000EB021F910F91FF90EF900895F8940E94A5
:1035100035190E942C1978940E948B140E942C1942
:103520000E945319F9CF1F920F920FB60F921124D8
:103530002F933F934F935F936F937F938F939F93BB
:10354000AF93BF93EF93FF930E943C16FF91EF91CF
:10355000BF91AF919F918F917F916F915F914F91AB
:103560003F912F910F900FBE0F901F9018951F92B3
:103570000F920FB60F9211242F933F934F935F93A7
:103580006F937F938F939F93AF93BF93EF93FF932B
:1035900080919C0290919D02019690939D02809350
:1035A0009C0280919C0290919D028D37910531F48F
:1035B0000E94341810929D0210929C028091A502E4
:1035C000882329F09091A602911103C003C090E0D6
:1035D00001C091E09093A4029091A4029923A1F0DC
:1035E0004091A0025091A1026091A2027091A302A9
:1035F0004F5F5F4F6F4F7F4F4093A0025093A102E8
:103600006093A2027093A3029091A4029923D9F02F
:103610004091A0025091A1026091A2027091A30278
:10362000443C59406105710570F021E030E0309371
:103630009F0220939E021092A0021092A10210926B
:10364000A2021092A302813039F48091A602811166
:1036500003C081E080939B02FF91EF91BF91AF91F6
:103660009F918F917F916F915F914F913F912F919A
:103670000F900FBE0F901F9018955058BB27AA2788
:103680000E94551B0C94A61C0E94981C38F00E94A6
:103690009F1C20F039F49F3F19F426F40C94951CDC
:1036A0000EF4E095E7FB0C948F1CE92F0E94B71CE9
:1036B00058F3BA17620773078407950720F079F467
:1036C000A6F50C94D91C0EF4E0950B2EBA2FA02D64
:1036D0000B01B90190010C01CA01A0011124FF27BF
:1036E000591B99F0593F50F4503E68F11A16F040BA
:1036F000A22F232F342F4427585FF3CF46953795B9
:103700002795A795F0405395C9F77EF41F16BA0B7D
:10371000620B730B840BBAF09150A1F0FF0FBB1F2B
:10372000661F771F881FC2F70EC0BA0F621F731F74
:10373000841F48F4879577956795B795F7959E3FD1
:1037400008F0B0CF9395880F08F09927EE0F979562
:10375000879508950E94BE1B0C94A61C0E949F1C76
:1037600058F00E94981C40F029F45F3F29F00C9417
:103770008F1C51110C94DA1C0C94951C0E94B71CE0
:1037800068F39923B1F3552391F3951B550BBB2790
:10379000AA2762177307840738F09F5F5F4F220FD5
:1037A000331F441FAA1FA9F335D00E2E3AF0E0E8CC
:1037B00032D091505040E695001CCAF72BD0FE2F16
:1037C00029D0660F771F881FBB1F261737074807AA
:1037D000AB07B0E809F0BB0B802DBF01FF27935862
:1037E0005F4F3AF09E3F510578F00C948F1C0C947B
:1037F000DA1C5F3FE4F3983ED4F38695779567959E
:10380000B795F7959F5FC9F7880F911D9695879596
:1038100097F90895E1E0660F771F881FBB1F6217B5
:1038200073078407BA0720F0621B730B840BBA0B73
:10383000EE1F88F7E09508950E94231C6894B1114B
:103840000C94DA1C08950E94BF1C88F09F5798F0D2
:10385000B92F9927B751B0F0E1F0660F771F881F95
:10386000991F1AF0BA95C9F714C0B13091F00E94AF
:10387000D91CB1E008950C94D91C672F782F8827A4
:10388000B85F39F0B93FCCF3869577956795B395D6
:10389000D9F73EF490958095709561957F4F8F4F45
:1038A0009F4F0895E89409C097FB3EF4909580954A
:1038B000709561957F4F8F4F9F4F9923A9F0F92FF6
:1038C00096E9BB279395F695879577956795B79574
:1038D000F111F8CFFAF4BB0F11F460FF1BC06F5F5A
:1038E0007F4F8F4F9F4F16C0882311F096E911C06C
:1038F000772321F09EE8872F762F05C0662371F08D
:1039000096E8862F70E060E02AF09A95660F771FA0
:10391000881FDAF7880F9695879597F9089597F994
:103920009F6780E870E060E008959FEF80EC089565
:1039300000240A941616170618060906089500248E
:103940000A9412161306140605060895092E039408
:10395000000C11F4882352F0BB0F40F4BF2B11F47C
:1039600060FF04C06F5F7F4F8F4F9F4F089557FDDB
:103970009058440F551F59F05F3F71F04795880FDD
:1039800097FB991F61F09F3F79F087950895121674
:1039900013061406551FF2CF4695F1DF08C0161620
:1039A00017061806991FF1CF8695710561050894D1
:1039B0000895E894BB2766277727CB0197F90895E8
:1039C0000E94F31C0C94A61C0E94981C38F00E94C4
:1039D0009F1C20F0952311F00C948F1C0C94951CC7
:1039E00011240C94DA1C0E94B71C70F3959FC1F34C
:1039F000950F50E0551F629FF001729FBB27F00D9D
:103A0000B11D639FAA27F00DB11DAA1F649F6627F1
:103A1000B00DA11D661F829F2227B00DA11D621F40
:103A2000739FB00DA11D621F839FA00D611D221FFA
:103A3000749F3327A00D611D231F849F600D211DDE
:103A4000822F762F6A2F11249F5750409AF0F1F061
:103A500088234AF0EE0FFF1FBB1F661F771F881FCA
:103A600091505040A9F79E3F510580F00C948F1C57
:103A70000C94DA1C5F3FE4F3983ED4F38695779577
:103A80006795B795F795E7959F5FC1F7FE2B880F70
:103A9000911D9695879597F90895EE0FFF1F059054
:103AA000F491E02D0994FC0188279927E89421914D
:103AB0002032E9F3293010F02E30C8F32B3241F0D8
:103AC0002D3239F4689404C00E94711D820F911D3B
:103AD000219120532A30C0F31EF4909581959F4F79
:103AE00008957AE0979F902D879F802D910D112446
:103AF0000895AEE0B0E0EFE7FDE10C943A200D89C7
:103B00001E8986E08C831A8309838FEF9FE79E834B
:103B10008D83AE01475E5F4F6F89788DCE01019630
:103B20000E949B1DEF81F885E00FF11F10822E96F9
:103B3000E4E00C945620ABE0B0E0E1EAFDE10C9447
:103B40002C206C017B018A01FC0117821682838183
:103B500081FFCCC1CE0101963C01F6019381F701B2
:103B600093FD859193FF81917F01882309F4BAC168
:103B7000853239F493FD859193FF81917F018532E0
:103B800029F4B60190E00E94921FE7CF912C212CDE
:103B9000312CFFE1F315D8F08B3279F038F4803214
:103BA00079F08332A1F4232D20611DC08D3261F0A4
:103BB000803369F4232D216016C0832D8260382E56
:103BC000E32DE4603E2E2AC0F32DF8601DC037FCC3
:103BD0002DC020ED280F2A3040F08E32B9F436FC8B
:103BE00081C1232D2064322E19C036FE06C08AE022
:103BF000989E200D1124922E11C0EAE02E9E200DD9
:103C00001124222EF32DF0623F2E08C08C3621F4B1
:103C1000832D8068382E02C0883641F4F70193FD69
:103C2000859193FF81917F018111B3CF982F9F7D63
:103C30009554933028F40C5F1F4F9FE399830DC078
:103C4000833631F0833771F0833509F059C021C0D4
:103C5000F801808189830E5F1F4F88248394912C03
:103C6000530113C02801F2E04F0E511CF801A0804F
:103C7000B18036FE03C0692D70E002C06FEF7FEFA8
:103C8000C5010E94871F4C018201F32DFF773F2E53
:103C900016C0280122E0420E511CF801A080B1801C
:103CA00036FE03C0692D70E002C06FEF7FEFC501E3
:103CB0000E947C1F4C01F32DF0683F2E820133FCE3
:103CC0001BC0822D90E088169906B0F4B60180E200
:103CD00090E00E94921F2A94F4CFF50137FC859161
:103CE00037FE81915F01B60190E00E94921F211082
:103CF0002A9421E0821A91088114910471F7E8C096
:103D0000843611F0893641F5F80137FE07C060812D
:103D10007181828193810C5F1F4F08C06081718126
:103D2000072E000C880B990B0E5F1F4FF32DFF76AB
:103D30003F2E97FF09C090958095709561957F4FB4
:103D40008F4F9F4FF0683F2E2AE030E0A3010E9482
:103D5000CE1F882E861845C0853731F4232D2F7E3F
:103D6000B22E2AE030E025C0932D997FB92E8F36F0
:103D7000C1F018F4883579F0B5C0803719F088376C
:103D800021F0B0C0E92FE061BE2EB4FE0DC0FB2DC6
:103D9000F460BF2E09C034FE0AC0292F2660B22E5F
:103DA00006C028E030E005C020E130E002C020E19C
:103DB00032E0F801B7FE07C0608171818281938192
:103DC0000C5F1F4F06C06081718180E090E00E5F44
:103DD0001F4FA3010E94CE1F882E8618FB2DFF7750
:103DE0003F2E36FE0DC0232D2E7FA22E891458F4AF
:103DF00034FE0BC032FC09C0832D8E7EA82E05C078
:103E0000B82CA32C03C0B82C01C0B92CA4FE0FC041
:103E1000FE01E80DF11D8081803321F49A2D997EF9
:103E2000A92E09C0A2FE06C0B394B39404C08A2D83
:103E3000867809F0B394A3FC11C0A0FE06C0B214AA
:103E400088F4280C922C9B180EC0B21460F4B601B2
:103E500080E290E00E94921FB394F7CFB21418F45E
:103E60002B1802C0982C212CA4FE10C0B60180E3B0
:103E700090E00E94921FA2FE17C0A1FC03C088E739
:103E800090E002C088E590E0B6010CC08A2D8678EB
:103E900059F0A1FE02C08BE201C080E2A7FC8DE2D6
:103EA000B60190E00E94921F891438F4B60180E3B5
:103EB00090E00E94921F9A94F7CF8A94F301E80D44
:103EC000F11D8081B60190E00E94921F8110F5CF14
:103ED000222009F442CEB60180E290E00E94921FB7
:103EE0002A94F6CFF6018681978102C08FEF9FEF6B
:103EF0002B96E2E10C944820FC0105906150704043
:103F00000110D8F7809590958E0F9F1F0895FC01A2
:103F10006150704001900110D8F7809590958E0FF8
:103F20009F1F08950F931F93CF93DF93FB0123816E
:103F300021FD03C08FEF9FEF2CC022FF16C04681EA
:103F40005781248135814217530744F4A081B18100
:103F50009D012F5F3F4F318320838C9326813781D2
:103F60002F5F3F4F3783268314C08B01EC01FB0189
:103F70000084F185E02D0995892BE1F6D80116968C
:103F80008D919C911797019617969C938E931697F7
:103F9000CE01DF91CF911F910F910895FA01AA27C9
:103FA000283051F1203181F1E8946F936E7F6E5F7C
:103FB0007F4F8F4F9F4FAF4FB1E03ED0B4E03CD02A
:103FC000670F781F891F9A1FA11D680F791F8A1F0D
:103FD000911DA11D6A0F711D811D911DA11D20D074
:103FE00009F468943F912AE0269F11243019305D2E
:103FF0003193DEF6CF010895462F4770405D41931F
:10400000B3E00FD0C9F7F6CF462F4F70405D4A336B
:1040100018F0495D31FD4052419302D0A9F7EACF33
:10402000B4E0A6959795879577956795BA95C9F762
:1040300000976105710508959B01AC010A2E069455
:104040005795479537952795BA95C9F7620F731F0E
:10405000841F951FA01D08952F923F924F925F924B
:104060006F927F928F929F92AF92BF92CF92DF9288
:10407000EF92FF920F931F93CF93DF93CDB7DEB7ED
:10408000CA1BDB0B0FB6F894DEBF0FBECDBF099481
:104090002A88398848885F846E847D848C849B84D8
:1040A000AA84B984C884DF80EE80FD800C811B81E6
:1040B000AA81B981CE0FD11D0FB6F894DEBF0FBE15
:0A40C000CDBFED010895F894FFCF85
:1040CA0043414646450000000000594552424941D5
:1040DA00444F00004C415454450000000000256440
:1040EA002E25303464002D0054656D70657261743C
:1040FA007572613A20002564004265626964612034
:10410A0031202D3E004265626964612032202D3ED5
:10411A00004265626964612033202D3E0042656277
:10412A006964612034202D3E0030204C6974726F1E
:10413A0073004F774F00204C612063616665746598
:10414A0072612066756520636F6E66696775726154
:10415A00646120657869746F73616D656E7465203A
:10416A003A29004C61206361666574657261206555
:10417A0073746120636F6E6669677572616461202A
:10418A0079206C69737461203A2900204D6564694D
:10419A0064617300204E6976656C657320646500FE
:1041AA0020506F6C766F73202500202820656E20C2
:1041BA00252900204269646F6E3A003E54656D708D
:1041CA0065726174757261002A43003E566F6C75A0
:1041DA006D656E006D6C002C003E3E44656C20736C
:1041EA0069677569656E7465206C69737461646F5B
:1041FA002C206573636F6A612071756520636F6E29
:10420A00666967757261723A003E3E53656C656312
:10421A0063696F6E6520756E61206465206C6173D9
:10422A0020616E746572696F726573206F7063695D
:10423A006F6E657320792073696761206C617320E2
:10424A00696E737472756363696F6E65732000318A
:04425A00003200002E
:00000001FF
