:100000000C94E8070C9405080C9405080C9405085A
:100010000C9405080C9405080C9405080C9405082C
:100020000C9405080C9405080C9405080C94F71220
:100030000C9405080C9405080C9405080C9405080C
:100040000C9405080C9405080C9405080C940508FC
:100050000C9405080C9405080C9405080C940508EC
:100060000C9405080C9405082D124C1253125A12C8
:10007000DD12DD12DD12DD12DD12DD12DD12DD1208
:10008000DD12DD12DD12DD1267126C1271127612B2
:100090007B12821287128C12911294129912A3125F
:1000A0009E12DD12AA12AF12B412B912BE12C312FE
:1000B000C812CD12D212D71220552D54616D61F1A4
:1000C0006F206465204269646F6E20283130204CB7
:1000D000202D3230204C290020542D506F72636542
:1000E0006E74616A6520646520546465736361722F
:1000F000676120426562696461203420283520618F
:1001000020323525290020532D506F7263656E749F
:10011000616A652064652054646573636172676118
:1001200020426562696461203320283520612032D5
:100130003525290020522D506F7263656E74616AF7
:100140006520646520546465736361726761204251
:1001500065626964612032202835206120323525AE
:10016000290020512D506F7263656E74616A65209D
:1001700064652054646573636172676120426562DF
:10018000696461203120283520612032352529001D
:1001900020502D43616E7469646164206465206140
:1001A0006775612043616C69656E746520426562A4
:1001B00069646120342028313530206120333030AB
:1001C000206D4C2900204F2D43616E746964616479
:1001D00020646520616775612043616C69656E7498
:1001E0006520426562696461203320283135302002
:1001F0006120333030206D4C2900204E2D43616E3C
:10020000746964616420646520616775612043617D
:100210006C69656E74652042656269646120322094
:1002200028313530206120333030206D4C290020BA
:100230004D2D43616E74696461642064652061675B
:1002400075612043616C69656E7465204265626901
:100250006461203120283135302061203330302056
:100260006D4C2900204B2D43616E746964616420DC
:100270006465207072656D657A636C6120426562A9
:100280006964612034202830206120343230206DB0
:100290004C2900204A2D43616E74696461642064B6
:1002A00065207072656D657A636C61204265626974
:1002B00064612033202830206120343230206D4C9E
:1002C000290020492D43616E74696461642064656E
:1002D000207072656D657A636C6120426562696445
:1002E000612032202830206120343230206D4C29AA
:1002F0000020482D43616E74696461642064652048
:100300007072656D657A636C6120426562696461D3
:100310002031202830206120343230206D4C2900DB
:1003200020472D436F6E7374616E74652050726F39
:10033000706F7263696F6E616C20274B70273A0093
:1003400020462D4E6F6D627265206465206C6120C1
:100350004265626964612031202831302063617216
:10036000E1637465726573290020452D4E6F6D62DF
:100370007265206465206C61204265626964612059
:10038000342028313020636172E1637465726573D3
:10039000290020442D4E6F6D627265206465206CCB
:1003A0006120426562696461203320283130206316
:1003B0006172E1637465726573290020432D4E6F8D
:1003C0006D627265206465206C61204265626964BB
:1003D0006120322028313020636172E163746572DC
:1003E0006573290020422D4E6F6D62726520646531
:1003F000206C6120426562696461203120283130BF
:1004000020636172E1637465726573290020412D78
:1004100054656D70657261747572612044657365B1
:10042000616461202836302D3935292A4300202087
:10043000343434363636363636363636343435207D
:100440002020202020202020333030303630303023
:10045000202020202020202020202020202020209C
:100460003530303030303030303030303030303087
:10047000302020200020202020203030303030302C
:100480003030362020202020202020202020202036
:1004900039303020383030362020202020202037BE
:1004A000303030303030303030303030303030304C
:1004B00030303030303030303020200020202020CC
:1004C0002030303030303030303920202020202093
:1004D0002020202020202039303020303030303291
:1004E0002035303030303030303030303030303017
:1004F00030303030303030303030303030303030FC
:10050000302020200020202020203030303030309B
:100510003030303220202020202020202020202099
:1005200039303030303030303030303030303030C2
:1005300030303030303030303030303030303030BB
:10054000303030303030303030302020002020202B
:1005500020203030303030303030392020392020E9
:10056000202020202020202030303030303030300B
:10057000303030303030303030303030303030307B
:10058000303030303030303030303030303030306B
:1005900030303020200020202020203030303030FB
:1005A00030303030333720202020202020202020E1
:1005B0003630303030303030303030303030303035
:1005C000303030303030303030303030303030302B
:1005D0003030303030303030303030303520002066
:1005E00020202020202031202031202020202020E9
:1005F0002020202020202020393030303030303072
:1006000030303030303030303030303030303030EA
:1006100030303030303030303030303030303030DA
:100620003030303030382000202020202020202082
:100630003120203120202020202020202020202098
:1006400020303030303030303030303030303030BA
:10065000303030303030303030303030303030309A
:1006600030303030303030303030303030300020CA
:100670002020202020203120203120202020202058
:1006800020202020202020393030303030303030D1
:10069000303030303030303030303030303030305A
:1006A000303030303030303030303030303030304A
:1006B000303030303020002020202020202020200A
:1006C0002020202020202020202020202020203911
:1006D000303030303030303030303030303030301A
:1006E000303030303030303030303030303030300A
:1006F000303030303030303030303030200020205A
:1007000020202020202020202020202020202020E9
:100710002020202030303030303030303030303019
:1007200030303030303030303030303030303030C9
:1007300030303030303030303030303030303030B9
:1007400020002020202020202020202020202020C9
:100750002020202020202031303030303030303008
:100760003030303030303030303030303030303089
:100770003030303030303030303030303030303079
:100780003030312020202020202020202020202038
:1007900020434F4E534F4C4100202020202020204A
:1007A00020202020202020202020203030303030F9
:1007B0003030303030303030303030303030303039
:1007C0003030303030303030303030303030303029
:1007D0003030303030303036202020202020202093
:1007E000202020205554494C49434520455354412D
:1007F0002020200020202020202020202020202019
:1008000020383030303030303030303030303030F0
:1008100030303030303030303030303030303030D8
:1008200030303030303030303030303030303030C8
:100830003120202020202050415241204D4F44495A
:100840004649434152204553544F53202000202015
:100850002020202020202020202030303030303038
:100860003030303030303030303030303030303088
:100870003030303030303030303030303030303078
:1008800030303030303420202020202043414E545E
:1008900049444144204445205052454D455A434C1B
:1008A000412C4554432020002020202020202020BF
:1008B0002020203730303030303030303030303061
:1008C0003030303030303030303030303030303028
:1008D00030303037202020202020202020202020D1
:1008E000202050554544454E20434F4E54524F4CC6
:1008F00041522054454D50455241545552412C20AF
:1009000000202020202020202020202034303030C3
:1009100030303030303030303030303030303030D7
:100920003030303030303030302020202020202037
:10093000202020202027434146455445524127206E
:10094000455320554E2050524F594543544F204453
:100950004F4E4445205345200020202020202020B9
:1009600020202020303030302038303030303030CF
:100970003030303030303030303030303030202097
:100980002020202020202020202020202020202067
:100990002020202020202020202020202020202057
:1009A0002020002020202020202020202020343043
:1009B0003030303030303030303020203330303054
:1009C00030303030352020202020204E4F4D4252F4
:1009D000453A20464142524943494F2044415649F5
:1009E000442047414C4C4F20202020202020202014
:1009F0002020202020202020002020202020202017
:100A00002020202020202020203430303030303072
:100A1000303030303030303030303720202020201F
:100A200020202020202020202020202020202020C6
:100A300020202020202020202020204C4943204A14
:100A4000554C49414E204D494E4154454C202020A3
:100A500000202020202020202020202020202020B6
:100A600020202020203132333238303030303030C6
:100A70003030202020202020202020202020202056
:100A800020202020202050524F4645534F5245539E
:100A90003A20494E47204544554152444F2056453F
:100AA0004C415A5155455A0020202020202020201A
:100AB0002020202020202020202020202020202036
:100AC000203930202034303020202020205450463F
:100AD000492E2E2E20434154454452413A20202095
:100AE0002053495354454D415320444947495441AB
:100AF0004C4553204956003D3D3D3D3D3D3D3D3D2E
:100B00003D3D3D3D3D3D3D3D3D3D3D3D3D3D3E3E13
:100B1000007C204D45444943494F4E4553204143B5
:100B20005455414C4553207C3E3E003D3D3D3D3DAE
:100B30003D3D3D3D3D3D3D3D3D3D3D3D3D3D3D3DE5
:100B40003D3D3E3E003E3E203420436F6E66696769
:100B500075726172003E3E2033204461746F7320D1
:100B600064656C2050726F796563746F003E3E203F
:100B7000322056657220636F6E66696775726163B5
:100B8000696F6E6573003E3E203120566572204DC0
:100B900065646963696F6E657300202B58585858F7
:100BA0005858582020202058582B2020205858587A
:100BB000585858582B20202B5878202020785858E7
:100BC0003A202020202B58585858202020202078C8
:100BD0005858585858587820203A58582020203BC8
:100BE00058582B20202058583B202020585858581F
:100BF0005858582B2020202078585858585878207A
:100C00002000202B585820202058585820202058A9
:100C1000582B20202058582B202020202020202B0B
:100C2000587820203A5858583A2020202078585890
:100C300058582E202020207858782020202020204E
:100C4000203A585820202E5858582B2020205858E9
:100C50003B20202058582B20203B58583A20202B4E
:100C600058582E202E58582B2000202B5858202022
:100C7000202B58582E202058582B20202058582BF5
:100C8000202020202020202B5878202078585858C9
:100C90003A2020202058582B58582B2020202078EC
:100CA0005878202020202020203A585820202B58E7
:100CB00058582B20202058583B20202058582B20B3
:100CC000203A58583B2020785858202020585878EF
:100CD0002000202B585820202058585820202058D9
:100CE000582B20202058582B202020202020202B3B
:100CF0005878203A585858583A2020203B58583AAB
:100D00003B58582020202078587820202020202070
:100D1000203A58582020585858582B2020205858EE
:100D20003B20202058582B20203A58583B20207830
:100D300058582020205858782000202B58585858B0
:100D40005858782020202058582B202020585858B8
:100D50005858583B2020202B58782078583B58581A
:100D60003A202020585858202058583A20202078DF
:100D70005858585858782020203A58582078582BDE
:100D800058582B20202058583B20202058582B20E2
:100D9000203A58583B20207858582020205858781E
:100DA0002000202B58582E203B58583A20202058FD
:100DB000582B20202058582B202020202020202B6A
:100DC00058783A58782058583A20202058582B20E4
:100DD0002058583B202020785878202020202020A0
:100DE000203A58582058582058582B20202058581E
:100DF0003B20202058582B20203A58583B20207860
:100E000058582020205858782000202B585820204F
:100E10002058587820202058582B20202058582B14
:100E2000202020202020202B585858583A2058584D
:100E30003A20203A58583A202078587820202078B4
:100E40005878202020202020203A585858583B20FD
:100E500058582B20202058583B20202058582B2011
:100E6000203A58583B20207858582020205858784D
:100E70002000202B58582E203B58587820202058EE
:100E8000582B20202058582B202020202020202B99
:100E900058585878202058583A20202B58582E203F
:100EA000203A58582E2020785878202020202020C2
:100EB000203A58585858202058582B20202058584D
:100EC0003B20202058582B20202B58582E20202BF8
:100ED00058582E203A58582B00202B5858585858FC
:100EE00058782020202058582B2020205858585817
:100EF0005858582B20202B58585820202058583A02
:100F000020205858782020202058583B20207858FE
:100F100058585858587820203A5858583A2020584D
:100F2000582B20202058583B2020205858585858DB
:100F300058583A202020207858585858587820007F
:100F40003E3E4E6976656C6573206465206C6C6509
:100F50006E61646F206465206C6F7320646F7369C9
:100F600066696361646F7265732064652070726581
:100F70006D657A636C612028656E2025293A003EF4
:100F80003E4269646F6E3A00206D4C002D566F6CC6
:100F9000756D656E3A00202A43002D54656D7065AD
:100FA0007261747572613A003E3E4170726574659B
:100FB0002058207061726120766F6C7665722061B6
:100FC0006C206D656E7520696E696369616C0000E7
:100FD00011241FBECFEFD8E0DEBFCDBF12E0A0E0EE
:100FE000B1E0ECE5F1E302C005900D92A236B10745
:100FF000D9F722E0A2E6B2E001C01D92A43BB207FD
:10100000E1F70E94E2120C94AC180C940000ECE79B
:10101000F0E080818064808380818F7D8083EAE737
:10102000F0E080818760808380818068808308957C
:10103000ECE7F0E09081907F90839081892B808312
:10104000EAE7F0E080818064808380917A0086FD09
:10105000FCCF0895F999FECF92BD81BD60BD8FB3DD
:1010600084608FBB8FB382608FBB0895F999FECFE8
:1010700092BD81BD8FB381608FBB80B50895AF9263
:10108000BF92CF92DF92EF92FF920F931F93CF9375
:10109000DF936C015B01C0E0D0E00EC07E01EC0C80
:1010A000FD1CC7010E943608F8016081861719F0FF
:1010B000C7010E942A08219685010C0F1D1FF80107
:1010C00080818111EBCFCC0DDD1DCE010E94360851
:1010D000882321F060E0CE010E942A08DF91CF91A1
:1010E0001F910F91FF90EF90DF90CF90BF90AF9046
:1010F0000895AF92BF92CF92DF92EF92FF920F933B
:101100001F93CF93DF935C016B017A01C0E0D0E0C5
:101110000BC086010C0F1D1FCE018A0D9B1D0E9466
:101120003608F80180832196CE15DF0590F3F6018D
:10113000EE0DFF1D1082DF91CF911F910F91FF9057
:10114000EF90DF90CF90BF90AF90089589E18093AA
:10115000B8001092B900089584EA8093BC00809191
:10116000BC008823E4F708958093BB0084E8809353
:10117000BC008091BC008823E4F7089584E9809343
:10118000BC008091BC0080FDFCCF0895EBEBF0E04B
:1011900080818260808384E88093BC008091BC0061
:1011A0008823E4F789EF90E00197F1F700C0000091
:1011B000EBEBF0E080818D7F808384E88093BC003E
:1011C0008091BC008823E4F70895EBEBF0E0908178
:1011D0009E7F908394E89093BC009091BC009923EB
:1011E000E4F7EBEBF0E090819F70908394E89093AC
:1011F000BC009091BC009923E4F7EBEBF0E0908108
:10120000807F892B808384E88093BC008091BC0020
:101210008823E4F70E94C6080895CF93C82FEBEB0C
:10122000F0E080818E7F808384E88093BC00809191
:10123000BC008823E4F7EBEBF0E080818F708083C3
:1012400084E88093BC008091BC008823E4F7EBEB3A
:10125000F0E080819C2F907F892B808384E88093AD
:10126000BC008091BC008823E4F70E94C608EBEB29
:10127000F0E080818F70808384E88093BC0080914F
:10128000BC008823E4F7EBEBF0E0208130E1C39F62
:10129000C0011124822B808384E88093BC0080915C
:1012A000BC008823E4F70E94C608CF910895CF932D
:1012B000C82FEBEBF0E080818160808384E880932D
:1012C000BC008091BC008823E4F7EBEBF0E0808168
:1012D0008F70808384E88093BC008091BC00882359
:1012E000E4F7EBEBF0E080819C2F907F892B8083EB
:1012F00084E88093BC008091BC008823E4F70E94BE
:10130000C608EBEBF0E080818F70808384E88093E7
:10131000BC008091BC008823E4F7EBEBF0E0208177
:1013200030E1C39FC0011124822B808384E8809325
:10133000BC008091BC008823E4F70E94C608CF91CE
:1013400008950E94A6080E94AC0880E40E94B40898
:1013500081EE94E00197F1F700C0000080E30E9465
:10136000E50881EE94E00197F1F700C0000080E30A
:101370000E94E50880E20E94E50881EE94E0019772
:10138000F1F700C0000088E20E940D098CE00E9485
:101390000D0981E00E940D0986E00E940D0980E898
:1013A0000E940D090895CF93DF93EC0103C02196AD
:1013B0000E94570988818111FACFDF91CF9108955A
:1013C00081E00E940D0981E28A95F1F7000080E832
:1013D0000E940D0908952FE387E79BE1215080408B
:1013E0009040E1F700C000000E94E00982E491E033
:1013F0000E94D30983EC99E00197F1F700C0000047
:10140000089585E08093B800089584EA8093BC0035
:101410008091BC008823E4F708958093BB0084E8A2
:101420008093BC008091BC008823E4F7089584EC8D
:101430008093BC008091BC008823E4F78091BB00BE
:1014400090E0A0E0B0E08093710290937202A093CC
:101450007302B093740284EC8093BC008091BC0052
:101460008823E4F78091BB0090E0A0E0B0E0809397
:10147000790290937A02A0937B02B0937C0284E875
:101480008093BC008091BC008823E4F78091BB006E
:1014900090E0A0E0B0E08093750290937602A09374
:1014A0007702B0937802089584E98093BC00089590
:1014B0000E94050A80ED0E940D0A8CE10E940D0A2F
:1014C0000E94540A0895CF93DF930E94010A0E945C
:1014D000580A0E94050A81ED0E940D0A0E94170A0F
:1014E0002091710280E090E0922F990F990FC091A6
:1014F0007902D0917A02CC0FDD1FCC0FDD1FC82BF3
:10150000D92B8091750290917602082E892F000CBC
:10151000881F990B000C881F991FC82BD92B229765
:101520000E94540ACE01DF91CF9108950E94630A70
:10153000BC01990F880B990B0E949D1420E030E0AC
:1015400040E050E40E94871320E030E04AE754E492
:101550000E94291520E030EE4FEF54E40E94F3136F
:1015600020E030E040EA51E40E9429150E94651411
:10157000CB01089594EA9093BC009091BC0099230C
:10158000E4F79091B9009B7F983009F057C090E93B
:101590009093BB0094E89093BC009091BC00992379
:1015A000E4F79091B9009B7F983109F047C0809390
:1015B000BB0084E88093BC008091BC008823E4F7E2
:1015C0008091B9008B7F8832C9F584EA8093BC0092
:1015D0008091BC008823E4F78091B9008B7F803133
:1015E00069F581E98093BB0084E88093BC00809119
:1015F000BC008823E4F78091B9008B7F8034F1F43C
:1016000015C02115310521F484E88093BC0003C086
:1016100084EC8093BC008091BC008823E4F7809127
:10162000BB00FB018083A9016F5F7F4F9A012150AE
:101630003109452B31F784E98093BC00089594EA81
:101640009093BC009091BC009923E4F79091B9006D
:101650009B7F9830D1F590E99093BB0094E89093EC
:10166000BC009091BC009923E4F79091B9009B7F56
:10167000983159F58093BB0084E88093BC00809139
:10168000BC008823E4F78091B9008B7F8832E9F4AD
:1016900014C0FB013196DB018C918093BB0084E880
:1016A0008093BC008091BC008823E4F78091B9004E
:1016B000A9018B7F883249F4BF019A012150310979
:1016C000452B39F784E98093BC0008951F93CF938D
:1016D000DF931F92CDB7DEB7182F41E050E0BE0177
:1016E0006F5F7F4F81E00E94BA0A8981282F2F798E
:1016F00030E2139FC0011124822B898341E050E026
:10170000BE016F5F7F4F81E00E941F0B0F90DF9142
:10171000CF911F9108951F93CF93DF931F92CDB761
:10172000DEB7182F41E050E0BE016F5F7F4F81E0D0
:101730000E94BA0A89818E7F182B198341E050E0FC
:10174000BE016F5F7F4F81E00E941F0B0F90DF9102
:10175000CF911F910895EF92FF921F93CF93DF9344
:1017600000D0CDB7DEB742E050E0BE016F5F7F4FE3
:1017700080E00E94BA0AE980FA80B701772780E00A
:1017800090E00E949B141F2DF7FE06C020E030E081
:1017900040E05FE30E94871316FF06C020E030E0C0
:1017A00040E85EE30E94871315FF06C020E030E0AA
:1017B00040E05EE30E94871314FF06C020E030E0A3
:1017C00040E85DE30E9487130F900F90DF91CF9167
:1017D0001F91FF90EF9008958F929F92AF92BF92CA
:1017E000CF92DF92EF92FF920F931F93CF93DF93ED
:1017F000CDB7DEB7AA970FB6F894DEBF0FBECDBF48
:101800000E94E90C83E00E94660B80E00E948B0B33
:1018100001E010E03CC00E94AB0B4B015C010E9458
:1018200065146B017C01072E000C880B990B0E943C
:101830009D149B01AC01C501B4010E94861320E0F8
:1018400030E44CE156E40E9429150E9465149B0186
:10185000772324F422273327261B370B3F932F931C
:10186000DF92CF928EE191E09F938F93CE0101960C
:101870009F938F930E94C21583E491E00E94FC0C19
:101880000F5F1F4F0FB6F894DEBF0FBECDBF0B3FEB
:1018900011050CF283E491E00E94FC0CCE0101964C
:1018A0000E949C159F938F9386E391E09F938F9363
:1018B0008E010F5D1F4F1F930F930E94C215C80129
:1018C0000E949C150F900F900F900F900F900F900B
:1018D000AA960FB6F894DEBF0FBECDBFDF91CF91B1
:1018E0001F910F91FF90EF90DF90CF90BF90AF903E
:1018F0009F908F9008958AB1877F8AB98AB18F7E31
:101900008AB98BB188608BB98BB180618BB908952E
:1019100089B182958F7091E08927817080936402EC
:1019200090E0089589B186958695869591E08927FE
:1019300081708093650290E008958AB18F7D8AB9A5
:101940008AB18F7B8AB98BB180628BB98BB180648D
:101950008BB9089589B182958695877091E0892722
:1019600081708093630290E0089589B18295869595
:101970008695837091E0892781708093620290E060
:10198000089584B1886084B9E0EBF0E080818360E1
:101990008083A1EBB0E08C9182608C938081806821
:1019A000808308959C01629FC001639F900D729F88
:1019B000900D11248F3F910509F01CF4992334F404
:1019C00003C08FEF90E002C080E090E08093B3000E
:1019D00008951092C50087E68093C40088E1809343
:1019E000C10086E08093C20008959091C00095FFE9
:1019F000FCCF8093C6000895CF93DF93EC0103C022
:101A00000E94F50C219688818111FACFDF91CF9148
:101A100008958DE00E94F50C8AE00E94F50C08956F
:101A20008091C0008823E4F78091C6000895CF9389
:101A30000E94100DC82F0E94F50C0E94090D8C2FDA
:101A4000CF910895CF93DF93FC0103C00E94F50C62
:101A5000FE01EF01219684918111F8CFDF91CF91A2
:101A600008950E94090D89ED9EE00E94220D0E94BA
:101A7000090D82E79EE00E94220D0E94090D8AE076
:101A80009EE00E94220D0E94090D82EA9DE00E94C4
:101A9000220D0E94090D8AE39DE00E94220D0E9402
:101AA000090D82ED9CE00E94220D0E94090D8AE63C
:101AB0009CE00E94220D0E94090D82E09CE00E94A1
:101AC000220D0E94090D8AE99BE00E94220D0E94CE
:101AD000090D0E94090D08950E94090D0E94090D2B
:101AE00088EA9AE00E94220D0E94090D81E59AE0A1
:101AF0000E94220D0E94090D89EF99E00E94220D9B
:101B00000E94090D83EA99E00E94220D0E94090DAE
:101B100089E599E00E94220D0E94090D81E099E07B
:101B20000E94220D0E94090D88EA98E00E94220D71
:101B30000E94090D8EE498E00E94220D0E94090D7A
:101B400084EF97E00E94220D0E94090D89E997E039
:101B50000E94220D0E94090D82E497E00E94220D4E
:101B60000E94090D8EEF96E00E94220D0E94090D41
:101B700087EB96E00E94220D0E94090D8FE696E009
:101B80000E94220D0E94090D88E296E00E94220D1B
:101B90000E94090D8FED95E00E94220D0E94090D13
:101BA00086E995E00E94220D0E94090D8DE495E0E2
:101BB0000E94220D0E94090D85E095E00E94220DF1
:101BC0000E94090D8CEB94E00E94220D0E94090DE9
:101BD00085E794E00E94220D0E94090D8EE294E0B8
:101BE0000E94220D0E94090D08950E94090D86E8A9
:101BF0009BE00E94220D0E94090D8DE69BE00E9451
:101C0000220D0E94090D85E59BE00E94220D0E9495
:101C1000090D85E49BE00E94220D0E94090D88EACF
:101C20009FE00E94220D08956F927F928F929F9263
:101C3000AF92BF92CF92DF92EF92FF920F931F93DA
:101C4000CF93DF93782E692EC62FD72F942E852E13
:101C5000B22EA32E0E94090D8BE29BE00E94220D62
:101C60000E94090D81E19BE00E94220D0E94090D56
:101C700087EF9AE00E94220D0E94090D8FE79FE0F6
:101C80000E94220D0E94090D8AE99FE00E94220D08
:101C9000DF93CF930F2EF6E3CF2EF1E0DF2EF02D62
:101CA000DF92CF92C7E9D2E0DF93CF930E94C215B3
:101CB000CE010E94FC0C86E99FE00E94220D0E944A
:101CC000090D8CE89FE00E94220D6F927F92DF92B7
:101CD000CF92DF93CF930E94C215CE010E94FC0CDD
:101CE00088E89FE00E94220D0E94090D80E49FE099
:101CF0000E94220D0E94090D89E391E00E94FC0CD4
:101D00008F929F92DF92CF92DF93CF930E94C21562
:101D1000CE010E94FC0C0E94090D84E491E00E9417
:101D2000FC0CAF92BF92DF92CF92DF93CF930E94D1
:101D3000C215CE010E94FC0C0E94090D8FE491E0B7
:101D40000E94FC0C1F930F93DF92CF92DF93CF93EF
:101D50000E94C215CE010E94FC0C0E94090D8AE56A
:101D600091E00E94FC0CFF92EF92DF92CF92DF9302
:101D7000CF930E94C2158DB79EB784960FB6F89484
:101D80009EBF0FBE8DBFCE010E94FC0C0E94090DAC
:101D900088EA9FE00E94220DDF91CF911F910F9161
:101DA000FF90EF90DF90CF90BF90AF909F908F907B
:101DB0007F906F9008950E94090D8DE094E00E943D
:101DC000220D0E94090D84EE93E00E94220D0E94D4
:101DD000090D8BEB93E00E94220D0E94090D82E910
:101DE00093E00E94220D0E94090D89E693E00E9473
:101DF000220D0E94090D80E493E00E94220D0E94B2
:101E0000090D80E293E00E94220D0E94090D81EFEE
:101E100092E00E94220D0E94090D82EC92E00E9445
:101E2000220D0E94090D83E992E00E94220D0E947A
:101E3000090D84E692E00E94220D0E94090D8FE2B6
:101E400092E00E94220D0E94090D8AEF91E00E940B
:101E5000220D0E94090D85EC91E00E94220D0E9446
:101E6000090D80E991E00E94220D0E94090D82E691
:101E700091E00E94220D0E94090D84E391E00E94EE
:101E8000220D0E94090D86E091E00E94220D0E9421
:101E9000090D88ED90E00E94220D0E94090D88EB4B
:101EA00090E00E94220D0E94090D88EA9FE00E94A6
:101EB000220D08951F93CF93DF93CDB7DEB7E2973E
:101EC0000FB6F894DEBF0FBECDBF82E390E09A83D9
:101ED0008983FE01339688E0DF011D928A95E9F738
:101EE000BE016F5F7F4F80EA90E00E943F0886E06E
:101EF000E0E0F1E0DE011B9601900D928A95E1F79A
:101F000014E0FE017196DF01812F1D928A95E9F799
:101F1000BE01655F7F4F8AE090E00E943F084AE083
:101F200050E067E972E08AE090E00E94790885E677
:101F300091E00E94FC0C87E992E00E94FC0C84E591
:101F400095E49E8B8D8B188E1F8AFE01799686E014
:101F5000DF011D928A95E9F7BE016B5E7F4F89E133
:101F600090E00E943F084AE050E067E972E089E1B2
:101F700090E00E94790885E691E00E94FC0C87E9D8
:101F800092E00E94FC0C89E0EAE0F1E0DE015F965D
:101F900001900D928A95E1F718A6BE01615E7F4F10
:101FA00088E290E00E943F084AE050E067E972E072
:101FB00088E290E00E94790885E691E00E94FC0C9E
:101FC00087E992E00E94FC0C86E0E4E1F1E0DE01AA
:101FD000999601900D928A95E1F7FE01BF96DF0177
:101FE0001D921A95E9F7BE01675D7F4F87E390E088
:101FF0000E943F084AE050E067E972E087E390E022
:102000000E94790885E691E00E94FC0C87E992E045
:102010000E94FC0CE2960FB6F894DEBF0FBECDBF57
:10202000DF91CF911F9108954AE050E067E972E097
:1020300080EA90E00E94790887E992E00E949C156E
:102040000197029748F00E945A0F0E94090D89E6F5
:1020500091E00E94FC0C08950E94090D86E991E030
:102060000E94FC0C08950E94010A0E94580A0E94D6
:10207000960A9093900280938F020E94540A0E94C5
:10208000EC0B9093B1028093B0020895CF93DF934D
:10209000C0E0D0E00FC00E94EC0B9093B10280939F
:1020A000B00221966AE570E0681B790B81E090E050
:1020B0000E94D20CCA30D10571F7DF91CF910895FB
:1020C0000F931F93CF93DF938EEB91E00E94D30980
:1020D0000E94EB090E94461087EC91E00E94D30910
:1020E0000E94EB090E94461082ED91E00E94D30904
:1020F0000E94EB098BED91E00E94D3090E94EB094D
:102100000E94461080918E028F9380918D028F9352
:1021100006E311E01F930F93C7E9D2E0DF93CF935B
:102120000E94C215CE010E94D3090E94EB090E94B1
:102130004610809196028F93809195028F931F9302
:102140000F93DF93CF930E94C215CE010E94D30953
:102150000E94EB090E944610809194028F93809117
:1021600093028F931F930F93DF93CF930E94C21517
:10217000CE010E94D3090E94EB090E944610809173
:1021800092028F93809191028F931F930F93DF930D
:10219000CF930E94C215CE010E94D3090E94EB0981
:1021A0000E94461083EE91E00E94D3090E94EB0941
:1021B0008AEE91E00E94D3090E94EB090E9446102A
:1021C0008091B1028F938091B0028F931F930F93F0
:1021D000DF93CF930E94C215CE010E94D30987EFEF
:1021E00091E00E94D3090E94EB090E9446108AEFF9
:1021F00091E00E94D3090E94EB090E944610809151
:1022000090028F9380918F028F931F930F93DF9390
:10221000CF930E94C2158DB79EB784960FB6F894DF
:102220009EBF0FBE8DBFCE010E94D30983E092E016
:102230000E94D3099FED22EB83E091502040804023
:10224000E1F700C000000E94EB090E944610DF91F8
:10225000CF911F910F910895E1E8F0E080818860AF
:10226000808380E490E09093890080938800AFE6BB
:10227000B0E08C9182608C9380818360808308952C
:102280000E94AA0C80936C020E94B50C80936B0292
:1022900080916C028130A1F580916D028F5F8093F7
:1022A0006D02853019F481E080936D020E94A109CE
:1022B00080916D02823071F018F4813031F019C0D4
:1022C000833069F0843081F014C086E092E00E948F
:1022D000D309089580E192E00E94D30908958AE12C
:1022E00092E00E94D309089584E292E00E94D3090B
:1022F000089581E080936D0286E092E00E94D30908
:1023000008950E94920C80936F020E94880C809323
:102310006E020895CF93DF9380E00E941808C8E70B
:10232000D0E06881798180E090E00E949B1420E0F9
:1023300030EC4FE754E40E94F31320E030E048EC27
:1023400052E40E9429150E94651470938E026093D6
:102350008D0281E00E9418086881798180E090E018
:102360000E949B1420E030EC4FE754E40E94F313EA
:1023700020E030E048EC52E40E9429150E946514E8
:10238000709396026093950282E00E94180868811B
:10239000798180E090E00E949B1420E030EC4FE7D0
:1023A00054E40E94F31320E030E048EC52E40E9431
:1023B00029150E946514709394026093930283E040
:1023C0000E9418086881798180E090E00E949B1447
:1023D00020E030EC4FE754E40E94F31320E030E0BB
:1023E00048EC52E40E9429150E94651470939202F1
:1023F00060939102DF91CF9108950E948A110E940B
:1024000033100E9481110E94401108950E94070814
:102410000E94E90C0E947B0C0E949D0C0E942C11D2
:102420000E94C10C0E94310D0E9414100E94F50DF3
:1024300078940895EF92FF920F931F930E94170DC7
:102440008093AF0290E0FC01F197E832F10508F0CB
:10245000B4C0EC5CFF4F0C949615E0909102F090A4
:102460009202009193021091940220919502309172
:10247000960240918D0250918E026091B00270914F
:10248000B10280918F02909190020E94140E8EE210
:1024900092E08093AF0291C00E94DB0E8EE292E048
:1024A0008093AF028AC00E946C0D8EE292E080930E
:1024B000AF0283C00E94090D80E392E00E94FC0CF1
:1024C0000E94DB0E8EE292E08093AF0276C08EE235
:1024D00092E08093AF0271C08EE292E08093AF02EF
:1024E0006CC08EE292E08093AF0267C08EE292E011
:1024F0008093AF0262C00E946C0D8EE292E08093E6
:10250000AF025BC08EE292E08093AF0256C08EE2D3
:1025100092E08093AF0251C08EE292E08093AF02CE
:102520004CC00E946C0D49C08EE292E08093AF02D5
:1025300044C08EE292E08093AF023FC08EE292E010
:102540008093AF023AC00E946C0D8EE292E08093BD
:10255000AF0233C08EE292E08093AF022EC08EE2D3
:1025600092E08093AF0229C08EE292E08093AF02A6
:1025700024C08EE292E08093AF021FC08EE292E010
:102580008093AF021AC08EE292E08093AF0215C032
:102590008EE292E08093AF0210C08EE292E08093D0
:1025A000AF020BC08EE292E08093AF0206C00E94A1
:1025B000F50D8EE292E08093AF021F910F91FF9094
:1025C000EF900895CF93DF9300D0CDB7DEB780E3CF
:1025D00093E39A838983BE016F5F7F4F80EA90E027
:1025E0000E943F080E9406120E941A12FDCF1F92FD
:1025F0000F920FB60F9211242F933F934F935F9337
:102600006F937F938F939F93AF93BF93EF93FF93BA
:102610008091690290916A02019690936A02809378
:1026200069028091690290916A02CC9711F40E942C
:10263000FD118091690290916A028837910531F409
:102640000E94461010926A021092690280916C02F8
:10265000813091F480916B02813071F48091670236
:10266000909168020196909368028093670210929D
:1026700066020E94461006C010926802109267021D
:10268000109266028091670290916802883D9E4098
:1026900011F40E9433108091670290916802873391
:1026A0009A4419F581E080936602109268021092B4
:1026B00067021F928F9386E391E09F938F9387E940
:1026C00092E09F938F930E94C21587E992E00E9447
:1026D000FC0C0E94A1090E9460100E94BE080F908D
:1026E0000F900F900F900F900F90FF91EF91BF916F
:1026F000AF919F918F917F916F915F914F913F919A
:102700002F910F900FBE0F901F9018955058BB2718
:10271000AA270E949E130C94EF140E94E11438F033
:102720000E94E81420F039F49F3F19F426F40C9429
:10273000DE140EF4E095E7FB0C94D814E92F0E9408
:10274000001558F3BA17620773078407950720F03E
:1027500079F4A6F50C9422150EF4E0950B2EBA2F01
:10276000A02D0B01B90190010C01CA01A001112497
:10277000FF27591B99F0593F50F4503E68F11A1643
:10278000F040A22F232F342F4427585FF3CF4695D4
:1027900037952795A795F0405395C9F77EF41F16F6
:1027A000BA0B620B730B840BBAF09150A1F0FF0FC0
:1027B000BB1F661F771F881FC2F70EC0BA0F621FAC
:1027C000731F841F48F4879577956795B795F7959C
:1027D0009E3F08F0B0CF9395880F08F09927EE0F31
:1027E0009795879508950E9407140C94EF140E9402
:1027F000E81458F00E94E11440F029F45F3F29F0FA
:102800000C94D81451110C9423150C94DE140E94CE
:10281000001568F39923B1F3552391F3951B550BDC
:10282000BB27AA2762177307840738F09F5F5F4FA3
:10283000220F331F441FAA1FA9F335D00E2E3AF0E2
:10284000E0E832D091505040E695001CCAF72BD0FA
:10285000FE2F29D0660F771F881FBB1F261737074B
:102860004807AB07B0E809F0BB0B802DBF01FF277D
:1028700093585F4F3AF09E3F510578F00C94D8146E
:102880000C9423155F3FE4F3983ED4F38695779537
:102890006795B795F7959F5FC9F7880F911D969536
:1028A000879597F90895E1E0660F771F881FBB1F92
:1028B000621773078407BA0720F0621B730B840B3F
:1028C000BA0BEE1F88F7E09508950E946C14689487
:1028D000B1110C94231508950E94081588F09F5794
:1028E00098F0B92F9927B751B0F0E1F0660F771F34
:1028F000881F991F1AF0BA95C9F714C0B13091F02A
:102900000E942215B1E008950C942215672F782FAC
:102910008827B85F39F0B93FCCF3869577956795EE
:10292000B395D9F73EF490958095709561957F4F5A
:102930008F4F9F4F0895E89409C097FB3EF4909500
:102940008095709561957F4F8F4F9F4F9923A9F088
:10295000F92F96E9BB279395F69587957795679517
:10296000B795F111F8CFFAF4BB0F11F460FF1BC05B
:102970006F5F7F4F8F4F9F4F16C0882311F096E9EE
:1029800011C0772321F09EE8872F762F05C066239C
:1029900071F096E8862F70E060E02AF09A95660F55
:1029A000771F881FDAF7880F9695879597F908950E
:1029B00097F99F6780E870E060E008959FEF80ECF2
:1029C000089500240A941616170618060906089595
:1029D00000240A9412161306140605060895092EFB
:1029E0000394000C11F4882352F0BB0F40F4BF2B6A
:1029F00011F460FF04C06F5F7F4F8F4F9F4F0895AA
:102A000057FD9058440F551F59F05F3F71F047959F
:102A1000880F97FB991F61F09F3F79F08795089584
:102A2000121613061406551FF2CF4695F1DF08C0A3
:102A3000161617061806991FF1CF869571056105C0
:102A400008940895E894BB2766277727CB0197F968
:102A500008950E943C150C94EF140E94E11438F084
:102A60000E94E81420F0952311F00C94D8140C94D3
:102A7000DE1411240C9423150E94001570F3959F09
:102A8000C1F3950F50E0551F629FF001729FBB2765
:102A9000F00DB11D639FAA27F00DB11DAA1F649F01
:102AA0006627B00DA11D661F829F2227B00DA11DB4
:102AB000621F739FB00DA11D621F839FA00D611D3A
:102AC000221F749F3327A00D611D231F849F600D5B
:102AD000211D822F762F6A2F11249F5750409AF084
:102AE000F1F088234AF0EE0FFF1FBB1F661F771F10
:102AF000881F91505040A9F79E3F510580F00C94DB
:102B0000D8140C9423155F3FE4F3983ED4F38695D4
:102B100077956795B795F795E7959F5FC1F7FE2B7A
:102B2000880F911D9695879597F90895EE0FFF1FD1
:102B30000590F491E02D0994FC0188279927E894E9
:102B400021912032E9F3293010F02E30C8F32B32D6
:102B500041F02D3239F4689404C00E94BA15820FF6
:102B6000911D219120532A30C0F31EF49095819538
:102B70009F4F08957AE0979F902D879F802D910D0C
:102B800011240895AEE0B0E0E8ECF5E10C94831870
:102B90000D891E8986E08C831A8309838FEF9FE756
:102BA0009E838D83AE01475E5F4F6F89788DCE0126
:102BB00001960E94E415EF81F885E00FF11F108265
:102BC0002E96E4E00C949F18ABE0B0E0EAEEF5E15D
:102BD0000C9475186C017B018A01FC011782168226
:102BE000838181FFCCC1CE0101963C01F601938126
:102BF000F70193FD859193FF81917F01882309F46B
:102C0000BAC1853239F493FD859193FF81917F019B
:102C1000853229F4B60190E00E94DB17E7CF912CB2
:102C2000212C312CFFE1F315D8F08B3279F038F4F8
:102C3000803279F08332A1F4232D20611DC08D32C2
:102C400061F0803369F4232D216016C0832D8260EA
:102C5000382EE32DE4603E2E2AC0F32DF8601DC00F
:102C600037FC2DC020ED280F2A3040F08E32B9F409
:102C700036FC81C1232D2064322E19C036FE06C0D9
:102C80008AE0989E200D1124922E11C0EAE02E9E1B
:102C9000200D1124222EF32DF0623F2E08C08C3619
:102CA00021F4832D8068382E02C0883641F4F70164
:102CB00093FD859193FF81917F018111B3CF982F6F
:102CC0009F7D9554933028F40C5F1F4F9FE39983A9
:102CD0000DC0833631F0833771F0833509F059C068
:102CE00021C0F801808189830E5F1F4F882483945F
:102CF000912C530113C02801F2E04F0E511CF80132
:102D0000A080B18036FE03C0692D70E002C06FEF75
:102D10007FEFC5010E94D0174C018201F32DFF7790
:102D20003F2E16C0280122E0420E511CF801A0805F
:102D3000B18036FE03C0692D70E002C06FEF7FEFF7
:102D4000C5010E94C5174C01F32DF0683F2E82018A
:102D500033FC1BC0822D90E088169906B0F4B601B2
:102D600080E290E00E94DB172A94F4CFF50137FC53
:102D7000859137FE81915F01B60190E00E94DB17DB
:102D800021102A9421E0821A91088114910471F78C
:102D9000E8C0843611F0893641F5F80137FE07C0E6
:102DA00060817181828193810C5F1F4F08C06081B7
:102DB0007181072E000C880B990B0E5F1F4FF32DAE
:102DC000FF763F2E97FF09C090958095709561958D
:102DD0007F4F8F4F9F4FF0683F2E2AE030E0A301D6
:102DE0000E941718882E861845C0853731F4232D88
:102DF0002F7EB22E2AE030E025C0932D997FB92E88
:102E00008F36C1F018F4883579F0B5C0803719F0E5
:102E1000883721F0B0C0E92FE061BE2EB4FE0DC0AE
:102E2000FB2DF460BF2E09C034FE0AC0292F266096
:102E3000B22E06C028E030E005C020E130E002C03C
:102E400020E132E0F801B7FE07C060817181828124
:102E500093810C5F1F4F06C06081718180E090E01C
:102E60000E5F1F4FA3010E941718882E8618FB2D96
:102E7000FF773F2E36FE0DC0232D2E7FA22E891404
:102E800058F434FE0BC032FC09C0832D8E7EA82E70
:102E900005C0B82CA32C03C0B82C01C0B92CA4FECB
:102EA0000FC0FE01E80DF11D8081803321F49A2DC1
:102EB000997EA92E09C0A2FE06C0B394B39404C0A3
:102EC0008A2D867809F0B394A3FC11C0A0FE06C039
:102ED000B21488F4280C922C9B180EC0B21460F423
:102EE000B60180E290E00E94DB17B394F7CFB214F2
:102EF00018F42B1802C0982C212CA4FE10C0B60187
:102F000080E390E00E94DB17A2FE17C0A1FC03C083
:102F100088E790E002C088E590E0B6010CC08A2DF9
:102F2000867859F0A1FE02C08BE201C080E2A7FCC6
:102F30008DE2B60190E00E94DB17891438F4B601E7
:102F400080E390E00E94DB179A94F7CF8A94F30114
:102F5000E80DF11D8081B60190E00E94DB17811021
:102F6000F5CF222009F442CEB60180E290E00E9423
:102F7000DB172A94F6CFF6018681978102C08FEF86
:102F80009FEF2B96E2E10C949118FC0105906150A3
:102F900070400110D8F7809590958E0F9F1F08956F
:102FA000FC016150704001900110D8F78095909518
:102FB0008E0F9F1F08950F931F93CF93DF93FB01F5
:102FC000238121FD03C08FEF9FEF2CC022FF16C08D
:102FD00046815781248135814217530744F4A081EB
:102FE000B1819D012F5F3F4F318320838C932681D8
:102FF00037812F5F3F4F3783268314C08B01EC014D
:10300000FB010084F185E02D0995892BE1F6D801BB
:1030100016968D919C911797019617969C938E9377
:103020001697CE01DF91CF911F910F910895FA016C
:10303000AA27283051F1203181F1E8946F936E7FF7
:103040006E5F7F4F8F4F9F4FAF4FB1E03ED0B4E0E8
:103050003CD0670F781F891F9A1FA11D680F791F29
:103060008A1F911DA11D6A0F711D811D911DA11D3A
:1030700020D009F468943F912AE0269F112430194A
:10308000305D3193DEF6CF010895462F4770405DE5
:103090004193B3E00FD0C9F7F6CF462F4F70405D94
:1030A0004A3318F0495D31FD4052419302D0A9F7EF
:1030B000EACFB4E0A6959795879577956795BA95E9
:1030C000C9F700976105710508959B01AC010A2EAF
:1030D00006945795479537952795BA95C9F7620F86
:1030E000731F841F951FA01D08952F923F924F922A
:1030F0005F926F927F928F929F92AF92BF92CF9288
:10310000DF92EF92FF920F931F93CF93DF93CDB790
:10311000DEB7CA1BDB0B0FB6F894DEBF0FBECDBF08
:1031200009942A88398848885F846E847D848C84D9
:103130009B84AA84B984C884DF80EE80FD800C81E2
:103140001B81AA81B981CE0FD11D0FB6F894DEBFC5
:0C3150000FBECDBFED010895F894FFCF35
:10315C004341464645000000000059455242494152
:10316C00444F00004C4154544500000000002564BD
:10317C002E25303464002D0054656D7065726174B9
:10318C007572613A200025640042656269646120B1
:10319C00313A200042656269646120323A20004273
:1031AC00656269646120333A20004265626964613A
:1031BC0020343A2000202D3E00204C6120636166B3
:1031CC0065746572612066756520636F6E666967EC
:1031DC00757261646120657869746F73616D656E79
:1031EC007465203A29004C612063616665746572D0
:1031FC0061206573746120636F6E666967757261B7
:10320C0064612079206C69737461203A2900204D27
:10321C00656469646173004E6976656C65732064DE
:10322C006500506F6C766F732025002820656E202A
:10323C002529004269646F6E3A003E54656D7065D5
:10324C00726174757261002A43003E566F6C756D25
:10325C00656E006D6C00204265626964612031000E
:10326C0020426562696461203200204265626964B3
:10327C0061203300204265626964612034002C00B7
:10328C003E3E2044656C207369677569656E746594
:10329C00206C69737461646F2C206573636F6A6151
:1032AC002071756520636F6E666967757261723A1D
:0232BC00000010
:00000001FF
