:100000000C94A2090C94BF090C94BF090C94BF096D
:100010000C94BF090C94BF090C94BF090C94BF0940
:100020000C94BF090C94BF090C94BF090C94D61E04
:100030000C94BF090C94BF090C94FC1E0C94BF09CE
:100040000C94BF090C94BF090C94BF090C94BF0910
:100050000C94BF090C94BF090C94BF090C94BF0900
:100060000C94BF090C94BF09911DB01DB71DBE1D96
:10007000B81EB81EB81EB81EB81EB81EB81EB81ED0
:10008000B81EB81EB81EB81ED31DDC1DE71DF21D1C
:10009000FD1D081E0D1E161E1F1E241E2D1E411E98
:1000A000361EB81E4A1E531E5E1E671E701E791E27
:1000B000821E891E9A1EAB1EB81EB21E3E3EA14372
:1000C000616D62696F20657869746F736F21213C7F
:1000D0003C003D3D3D3D3D3D3D3D3D3D3D3D3D3D8E
:1000E0003D3D3D3D3D3D3D3D3D3D3D3D3D3D3D3D40
:1000F0003D3D3D3D3D3D3D3D3D3D3D3D3D3D3D3D30
:100100003D3D3D3D3D3D3D3D3D3D3D3D3D007C203A
:1001100020A14154454E43494F4E213A20434F4C74
:100120004F515545204E554D45524F532044454E55
:1001300054524F2044454C2052414E474F20504589
:10014000524D495449444F207C003D3D3D3D3D3D8D
:100150003D3D3D3D3D3D3D3D3D3D3D3D3D3D3D3DCF
:100160003D3D3D3D3D3D3D3D3D3D3D3D3D3D3D3DBF
:100170003D3D3D3D3D3D3D3D3D3D3D3D3D3D3D3DAF
:100180003D3D3D3D3D0032292D2041707265746535
:10019000202732272068617374612076657220738E
:1001A000752063616D62696F207265666C656A6156
:1001B000646F0020736920656C206E756D65726FC9
:1001C000206DE178696D6F206573203130302079C2
:1001D0002071756572656D6F7320706F6E6572202A
:1001E00032352D3E2027302720273227202735275C
:1001F000200031292D20436F6C6F71756520636974
:1002000066726120706F7220636966726120736527
:1002100067756E2073656120656C206D6178696D0E
:100220006F2E20506F7220656A656D706C6F3A009A
:1002300020506172612063616D62696172206C613E
:10024000207661726961626C652073696761206CF8
:100250006F73207369677569656E7465207061736B
:100260006F733A003D3D3D3D3D3D3D3D3D3D3D3D96
:100270003D3D3D3D3D3D3D3D3D3D3D3D3D3D3D3DAE
:100280003D3D3D3D3D3D3D3D3D3D3D3D3D3D3D3D9E
:10029000007C20A14154454E43494F4E213A203124
:1002A0003020434152414354455245532C20454E42
:1002B000204D4159555343554C412E207C003D3D26
:1002C0003D3D3D3D3D3D3D3D3D3D3D3D3D3D3D3D5E
:1002D0003D3D3D3D3D3D3D3D3D3D3D3D3D3D3D3D4E
:1002E0003D3D3D3D3D3D3D3D3D3D0033292D2041C2
:1002F00070726574652027322720686173746120ED
:100300007665722073752063616D62696F20726516
:10031000666C656A61646F0032292D20436F6C6FD3
:1003200071756520756E206775696F6E2062616AF0
:100330006F2028275F272920616C2066696E616C19
:100340000031292D20436F6C6F717565206C6574C9
:10035000726120706F72206C6574726120656C2010
:100360006E7565766F206E6F6D62726500205061EC
:1003700072612063616D62696172206465206E6FD5
:100380006D62726520756E612062656269646120CC
:1003900073696761206C6F73207369677569656E37
:1003A000746573207061736F733A0020572D20328B
:1003B00030204C0020562D203130204C003E3E5342
:1003C000656C656363696F6E6520656C206E75652D
:1003D000766F20766F6C756D656E207072657369CF
:1003E0006F6E616E646F20756E6120646520657349
:1003F000746173206C65747261733A0020552D54DA
:10040000616D61F16F206465204269646F6E202820
:100410003130204C202D3230204C29203D002054FA
:100420002D506F7263656E74616A65206465205437
:10043000646573636172676120426562696461200B
:100440003420283520612032352529203D002053D5
:100450002D506F7263656E74616A65206465205407
:1004600064657363617267612042656269646120DB
:100470003320283520612032352529203D002052A7
:100480002D506F7263656E74616A652064652054D7
:1004900064657363617267612042656269646120AB
:1004A0003220283520612032352529203D00205179
:1004B0002D506F7263656E74616A652064652054A7
:1004C000646573636172676120426562696461207B
:1004D0003120283520612032352529203D0020504B
:1004E0002D43616E74696461642064652061677581
:1004F000612043616C69656E746520426562696460
:100500006120342028313530206120333030206D97
:100510004C29203D00204F2D43616E746964616455
:1005200020646520616775612043616C69656E7444
:1005300065204265626964612033202831353020AE
:100540006120333030206D4C29203D00204E2D435A
:10055000616E7469646164206465206167756120FF
:1005600043616C69656E74652042656269646120EF
:10057000322028313530206120333030206D4C2935
:10058000203D00204D2D43616E74696461642064D8
:100590006520616775612043616C69656E746520D3
:1005A0004265626964612031202831353020612044
:1005B000333030206D4C29203D00204B2D43616E9F
:1005C0007469646164206465207072656D657A6326
:1005D0006C612042656269646120342028302061AA
:1005E00020343230206D4C29203D00204A2D4361BB
:1005F0006E7469646164206465207072656D657AEB
:10060000636C612042656269646120332028302078
:100610006120343230206D4C29203D0020492D438B
:10062000616E7469646164206465207072656D65D3
:100630007A636C61204265626964612032202830EF
:10064000206120343230206D4C29203D0020482D7F
:1006500043616E7469646164206465207072656DC5
:10066000657A636C6120426562696461203120288B
:1006700030206120343230206D4C29203D0020474D
:100680002D436F6E7374616E74652050726F706F5E
:100690007263696F6E616C20274B70273A002045AA
:1006A0002D4E6F6D627265206465206C612042651D
:1006B0006269646120342028313020636172E16313
:1006C000746572657329203D0020442D4E6F6D6264
:1006D0007265206465206C612042656269646120F6
:1006E000332028313020636172E163746572657371
:1006F00029203D0020432D4E6F6D62726520646598
:10070000206C6120426562696461203220283130AA
:1007100020636172E163746572657329203D002076
:10072000422D4E6F6D627265206465206C612042BF
:10073000656269646120312028313020636172E193
:1007400063746572657329203D0020412D54656DE9
:10075000706572617475726120446573656164616E
:10076000202836302D3935292A43203D00343434B1
:100770003636363636363636363434352020202076
:1007800020202020203330303036303030202020E0
:100790002020202020202020202020202035303024
:1007A0003030303030303030303030303030002089
:1007B00020203030303030303030362020202020A3
:1007C00020202020202020203930302038303036A2
:1007D0002020202020202037303030303030303082
:1007E0003030303030303030303030303030303009
:1007F0003000202020303030303030303039202070
:10080000202020202020202020202039303020309F
:1008100030303032203530303030303030303030E1
:1008200030303030303030303030303030303030C8
:100830003030303030002020203030303030303018
:10084000303032202020202020202020202020395D
:100850003030303030303030303030303030303098
:100860003030303030303030303030303030303088
:1008700030303030303030303000202020303030D8
:1008800030303030303920203920202020202020E6
:100890002020203030303030303030303030303088
:1008A0003030303030303030303030303030303048
:1008B0003030303030303030303030303030002078
:1008C000202030303030303030303033372020206E
:1008D0002020202020202036303030303030303082
:1008E0003030303030303030303030303030303008
:1008F00030303030303030303030303030303030F8
:1009000030303000202020202031202031202020B5
:10091000202020202020202020202039303030307E
:1009200030303030303030303030303030303030C7
:1009300030303030303030303030303030303030B7
:100940003030303030303030002020202020203136
:100950002020312020202020202020202020202086
:100960003030303030303030303030303030303087
:100970003030303030303030303030303030303077
:1009800030303030303030303030303030002020B7
:100990002020203120203120202020202020202035
:1009A000202020203930303030303030303030307E
:1009B0003030303030303030303030303030303037
:1009C0003030303030303030303030303030303027
:1009D0003000202020202020202020202020202027
:1009E000202020202020202039303030303030307E
:1009F00030303030303030303030303030303030F7
:100A000030303030303030303030303030303030E6
:100A100030303030002020202020202020202020B6
:100A20002020202020202020203030303030303056
:100A300030303030303030303030303030303030B6
:100A400030303030303030303030303030303030A6
:100A50003030303030002020202020202020202066
:100A60002020202020202020203130303030303015
:100A70003030303030303030303030303030303076
:100A80003030303030303030303030303030303066
:100A90003030303031202020202020202020202005
:100AA000202020434F4E534F4C4100202020202037
:100AB00020202020202020202020203030303030E6
:100AC0003030303030303030303030303030303026
:100AD0003030303030303030303030303030303016
:100AE0003030303030303036202020202020202080
:100AF000202020205554494C49434520455354411A
:100B000020202000202020202020202020202038ED
:100B100030303030303030303030303030303030D5
:100B200030303030303030303030303030303030C5
:100B300030303030303030303030303030303120C4
:100B4000202020202050415241204D4F4449464909
:100B5000434152204553544F532020002020202051
:100B600020202020202030303030303030303030E5
:100B70003030303030303030303030303030303075
:100B80003030303030303030303030303030303065
:100B9000303420202020202043414E5449444144F9
:100BA000204445205052454D455A434C412C455414
:100BB00043202000202020202020202020373030FB
:100BC0003030303030303030303030303030303025
:100BD0003030303030303030303030303020202045
:100BE0002020202020202020202020205055454457
:100BF000454E20434F4E54524F4C41522054454D88
:100C000050455241545552412C2000202020202094
:100C10002020202034303030303030303030303010
:100C200030303030303030303030303030303030C4
:100C30002020202020202020202020202027434169
:100C40004645544552412720455320554E20505289
:100C50004F594543544F20444F4E4445205345205F
:100C6000002020202020202020203030303020384C
:100C70003030303030303030303030303030303074
:100C80003030300020202020202020202034303020
:100C90003030303030303030302020333030303071
:100CA000303030352020202020204E4F4D425245FC
:100CB0003A20464142524943494F20444156494413
:100CC0002047414C4C4F0020202020202020202075
:100CD0002020203430303030303030303030303040
:100CE00030303030372020202020202020202020AD
:100CF00020202020202020202020202020202020F4
:100D000020202020204C4943204A554C49414E2068
:100D10004D494E4154454C002020202020202020C9
:100D20002020202020202031323332383030303023
:100D30003030303020202020202020202020202073
:100D4000202020202020202050524F4645534F5233
:100D500045533A20494E47204544554152444F207F
:100D600056454C415A5155455A00202020202020FC
:100D7000202020202020202020202020202039304A
:100D800020203430302020202020545046492E2E60
:100D90002E20434154454452413A202020205349BB
:100DA0005354454D4153204449474954414C4553C0
:100DB000204956003D3D3D3D3D3D3D3D3D3D3D3D98
:100DC0003D3D3D3D3D3D3D3D3D3D3D3E3E007C206C
:100DD0004D45444943494F4E4553204143545541A5
:100DE0004C4553207C3E3E003D3D3D3D3D3D3D3D1F
:100DF0003D3D3D3D3D3D3D3D3D3D3D3D3D3D3D3E22
:100E00003E003E3E203420436F6E66696775726116
:100E100072003E3E2033204461746F732064656C21
:100E20002050726F796563746F003E3E2032205609
:100E3000657220636F6E66696775726163696F6E54
:100E40006573003E3E203120566572204D65646911
:100E500063696F6E657300202B585858585858585E
:100E60002020202058582B202020585858585858B7
:100E7000582B20202B58782020207858583A2020B2
:100E800020202B5858585820202020207858585877
:100E90005858587820203A58582020203B58582B32
:100EA00020202058583B202020585858585858582F
:100EB0002B2020202078585858585878202000207F
:100EC0002B585820202058585820202058582B2084
:100ED000202058582B202020202020202B587820FC
:100EE000203A5858583A2020202078585858582EE0
:100EF00020202020785878202020202020203A58B8
:100F00005820202E5858582B20202058583B20205D
:100F10002058582B20203B58583A20202B58582E28
:100F2000202E58582B2000202B58582020202B589A
:100F3000582E202058582B20202058582B20202075
:100F4000202020202B58782020785858583A2020EC
:100F5000202058582B58582B2020202078587820B3
:100F60002020202020203A585820202B5858582B39
:100F700020202058583B20202058582B20203A5819
:100F8000583B20207858582020205858782000209E
:100F90002B585820202058585820202058582B20B3
:100FA000202058582B202020202020202B5878202B
:100FB0003A585858583A2020203B58583A3B5858ED
:100FC00020202020785878202020202020203A58E7
:100FD000582020585858582B20202058583B202063
:100FE0002058582B20203A58583B20207858582019
:100FF00020205858782000202B5858585858587896
:101000002020202058582B20202058585858585815
:101010003B2020202B58782078583B58583A2020E5
:1010200020585858202058583A202020785858588E
:101030005858782020203A58582078582B58582B48
:1010400020202058583B20202058582B20203A5848
:10105000583B2020785858202020585878200020CD
:101060002B58582E203B58583A20202058582B20D7
:10107000202058582B202020202020202B58783A40
:1010800058782058583A20202058582B202058585B
:101090003B202020785878202020202020203A58FB
:1010A000582058582058582B20202058583B202092
:1010B0002058582B20203A58583B20207858582048
:1010C00020205858782000202B585820202058588D
:1010D0007820202058582B20202058582B202020C2
:1010E000202020202B585858583A2058583A202071
:1010F0003A58583A2020785878202020785878207C
:101100002020202020203A585858583B2058582B4F
:1011100020202058583B20202058582B20203A5877
:10112000583B2020785858202020585878200020FC
:101130002B58582E203B58587820202058582B20C8
:10114000202058582B202020202020202B58585871
:1011500078202058583A20202B58582E20203A58D2
:10116000582E2020785878202020202020203A58FF
:10117000585858202058582B20202058583B2020C1
:101180002058582B20202B58582E20202B58582ED2
:10119000203A58582B00202B585858585858782027
:1011A00020202058582B202020585858585858583C
:1011B0002B20202B58585820202058583A202058AF
:1011C00058782020202058583B20207858585858CC
:1011D00058587820203A5858583A202058582B20F0
:1011E000202058583B202020585858585858583AD2
:1011F000202020207858585858587820003E3E4EDD
:101200006976656C6573206465206C6C656E6164DD
:101210006F206465206C6F7320646F736966696307
:1012200061646F726573206465207072656D657AA4
:10123000636C612028656E2025293A003E3E426994
:10124000646F6E3A00206D4C002D566F6C756D65A5
:101250006E3A00202A43002D54656D7065726174EA
:101260007572613A003E3E506F72206661766F7211
:101270002C20696E74656E74656C6F206E75657672
:10128000616D656E7465206DE173207461726465D3
:101290002E20414345505441523A204170726574AA
:1012A000652058003E3E4552524F523A204C412054
:1012B00043414E54494441442050524F50554553A8
:1012C000544120455354C120465545524120444580
:1012D0002052414E474F204F20454E20464F524D01
:1012E00041544F204552524F4E454F003E3E4170B3
:1012F000726574652058207061726120766F6C761B
:10130000657220616C206D656E7520696E69636918
:10131000616C003E3E53656C656363696F6E65206A
:10132000616C67756E61206465206C617320616E0D
:10133000746572696F726573206F7063696F6E6533
:101340007320000011241FBECFEFD8E0DEBFCDBF59
:1013500013E0A0E0B1E0E0EBF9E402C005900D92EB
:10136000AA38B107D9F723E0AAE8B3E001C01D927B
:10137000AE3EB207E1F70E94BF1E0C94D6240C9437
:101380000000ECE7F0E080818064808380818F7DC5
:101390008083EAE7F0E080818760808380818068D5
:1013A00080830895ECE7F0E09081907F90839081B6
:1013B000892B8083EAE7F0E08081806480838091DC
:1013C0007A0086FDFCCF089507C025E137EC3A95F9
:1013D000F1F72A95E1F701979923BCF70895CF9289
:1013E000DF92EF92FF92CF93DF9343E050E061ED05
:1013F00073E088E191E00E94D90E81ED93E00E94B4
:10140000C62190938B0380938A03BC01990F880BAC
:10141000990B0E949F2020E030E040E751E40E94B9
:10142000F51F20E030E04AE754E40E942B210E949F
:1014300067207093A4036093A30381E090E00E946F
:1014400022138091A3039091A4030E94E40944E035
:1014500050E061ED73E084E690E00E94D90E81EDEA
:1014600093E00E94C62190938B0380938A03BC0172
:10147000990F880B990B0E949F2020E030E048ECE8
:1014800051E40E94F51F20E030E04AE754E40E9456
:101490002B210E9467207093A2036093A10380E137
:1014A00090E00E9422138091A1039091A2030E94D8
:1014B000E40944E050E061ED73E08CE890E00E94C4
:1014C000D90E81ED93E00E94C621EC0190938B032D
:1014D00080938A036091A1037091A203072E000CF0
:1014E000880B990B0E949F206B017C01CE0164E662
:1014F00070E00E949821072E000C880B990B0E9427
:101500009F2020E030E040E85FE30E94891F9B01BC
:10151000AC01C701B6010E942B2120E030E04AE770
:1015200054E40E942B210E9467207093A6036093CD
:10153000A50380E091E00E9422138091A503909181
:10154000A6030E94E4090E943813DF91CF91FF9017
:10155000EF90DF90CF900895CF92DF92EF92FF92BD
:10156000CF93DF9343E050E061ED73E086E490E0D9
:101570000E94D90E81ED93E00E94C62190938B03C7
:1015800080938A03BC01990F880B990B0E949F20BE
:1015900020E030E040E751E40E94F51F20E030E019
:1015A0004AE754E40E942B210E9467207093A40311
:1015B0006093A30382E090E00E9422138091A30332
:1015C0009091A4030E94E40944E050E061ED73E0CF
:1015D0008EE690E00E94D90E81ED93E00E94C62134
:1015E00090938B0380938A03BC01990F880B990B0E
:1015F0000E949F2020E030E048EC51E40E94F51F5B
:1016000020E030E04AE754E40E942B210E9467204A
:101610007093A2036093A10380E290E00E942213E2
:101620008091A1039091A2030E94E40944E050E05C
:1016300061ED73E081E990E00E94D90E81ED93E0C5
:101640000E94C621EC0190938B0380938A036091E2
:10165000A1037091A203072E000C880B990B0E9426
:101660009F206B017C01CE0164E670E00E9498210E
:10167000072E000C880B990B0E949F2020E030E081
:1016800040E85FE30E94891F9B01AC01C701B601DE
:101690000E942B2120E030E04AE754E40E942B21F5
:1016A0000E9467207093A6036093A50380E092E0F8
:1016B0000E9422138091A5039091A6030E94E40941
:1016C0000E943813DF91CF91FF90EF90DF90CF9081
:1016D0000895CF92DF92EF92FF92CF93DF9343E092
:1016E00050E061ED73E080E590E00E94D90E81ED5D
:1016F00093E00E94C62190938B0380938A03BC01E0
:10170000990F880B990B0E949F2020E030E040E762
:1017100051E40E94F51F20E030E04AE754E40E94C3
:101720002B210E9467207093A4036093A30384E09D
:1017300090E00E9422138091A3039091A4030E9441
:10174000E40944E050E061ED73E084E690E00E943B
:10175000D90E81ED93E00E94C62190938B03809374
:101760008A03BC01990F880B990B0E949F2020E0EF
:1017700030E048EC51E40E94F51F20E030E04AE7F9
:1017800054E40E942B210E9467207093A20360936F
:10179000A10380E490E00E9422138091A103909124
:1017A000A2030E94E40944E050E061ED73E086E9A1
:1017B00090E00E94D90E81ED93E00E94C621EC01D9
:1017C00090938B0380938A036091A1037091A2038D
:1017D000072E000C880B990B0E949F206B017C0147
:1017E000CE0164E670E00E949821072E000C880B61
:1017F000990B0E949F2020E030E040E85FE30E94C8
:10180000891F9B01AC01C701B6010E942B2120E07A
:1018100030E04AE754E40E942B210E946720709335
:10182000A6036093A50380E094E00E9422138091B8
:10183000A5039091A6030E94E4090E943813DF914A
:10184000CF91FF90EF90DF90CF900895CF92DF92ED
:10185000EF92FF92CF93DF9343E050E061ED73E0AE
:101860008AE590E00E94D90E81ED93E00E94C621A6
:1018700090938B0380938A03BC01990F880B990B7B
:101880000E949F2020E030E040E751E40E94F51FD5
:1018900020E030E04AE754E40E942B210E946720B8
:1018A0007093A4036093A30388E090E00E94221346
:1018B0008091A3039091A4030E94E40944E050E0C6
:1018C00061ED73E082E890E00E94D90E81ED93E033
:1018D0000E94C62190938B0380938A03BC01990FC9
:1018E000880B990B0E949F2020E030E048EC51E4E7
:1018F0000E94F51F20E030E04AE754E40E942B21CB
:101900000E9467207093A2036093A10380E890E097
:101910000E9422138091A1039091A2030E94E409E6
:1019200044E050E061ED73E08BE990E00E94D90E55
:1019300081ED93E00E94C621EC0190938B0380938C
:101940008A036091A1037091A203072E000C880BFB
:10195000990B0E949F206B017C01CE0164E670E030
:101960000E949821072E000C880B990B0E949F2043
:1019700020E030E040E85FE30E94891F9B01AC015A
:10198000C701B6010E942B2120E030E04AE754E471
:101990000E942B210E9467207093A6036093A503E9
:1019A00080E098E00E9422138091A5039091A60305
:1019B0000E94E4090E943813DF91CF91FF90EF90CD
:1019C000DF90CF9008958230910569F01CF4019763
:1019D00039F008958330910549F0049751F0089546
:1019E0000E94EF0908950E94AC0A08950E94690BB5
:1019F00008950E94260C0895883121E0920759F13C
:101A00008634910551F18035910549F18A3591056A
:101A100041F18436910539F18E36910531F18837DF
:101A2000910529F18238910521F18C38910519F140
:101A30008139910511F18639910509F18B399105AB
:101A400001F1803A9105F9F08A3A9105F1F0843B71
:101A50009105E9F0089584E4089584E4089584E408
:101A6000089584E4089581E4089581E4089581E46B
:101A7000089581E4089580E5089580E5089580E55E
:101A8000089580E5089586E508958BE4089584E53A
:101A90000895EF92FF921F93CF93DF9300D01F9290
:101AA000CDB7DEB77C010E94C21710928B03109253
:101AB0008A030E940414898381E090E090938B0351
:101AC00080938A030E9404148A831B82C7010E94A8
:101AD000FC0C182F843591F4CE0101960E94C6218A
:101AE000803691054CF4CC973CF0BE016F5F7F4F80
:101AF000C7010E949F0E02C00E94B3171B3479F4E5
:101B0000CE0101960E94C621892B39F0BE016F5F7C
:101B10007F4FC7010E949F0E02C00E94B31710356D
:101B200091F4CE0101960E94C6218A3191054CF4B0
:101B300005973CF0BE016F5F7F4FC7010E949F0E6B
:101B400002C00E94B3170F900F900F90DF91CF91BA
:101B50001F91FF90EF9008950F931F93CF93DF9302
:101B6000CDB7DEB72B970FB6F894DEBF0FBECDBF53
:101B70008C0110928B0310928A030E9404148983B3
:101B800081E090E090938B0380938A030E94041479
:101B90008A8382E090E090938B0380938A030E9473
:101BA00004148B8383E090E090938B0380938A03EB
:101BB0000E9404148C8384E090E090938B038093C4
:101BC0008A030E9404148D8385E090E090938B0338
:101BD00080938A030E9404148E8386E090E09093A1
:101BE0008B0380938A030E9404148F8387E090E024
:101BF00090938B0380938A030E940414888788E063
:101C000090E090938B0380938A030E940414898749
:101C100089E090E090938B0380938A030E940414E0
:101C20008A871C86BE016F5F7F4FC8010E949F0E8E
:101C30008CEB90E00E940F140E94F3132B960FB6CA
:101C4000F894DEBF0FBECDBFDF91CF911F910F91F2
:101C50000895EF92FF921F93CF93DF9300D000D0AF
:101C6000CDB7DEB77C010E94C21710928B03109291
:101C70008A030E940414898381E090E090938B038F
:101C800080938A030E9404148A8382E090E09093F8
:101C90008B0380938A030E9404148B831C82C701E8
:101CA0000E94FC0C182F843499F4CE0101960E94F6
:101CB000C621853A21E092074CF499233CF0BE01FD
:101CC0006F5F7F4FC7010E949F0E02C00E94B31733
:101CD0001134A1F4CE0101960E94C6218D3221E07B
:101CE000920754F4863991053CF0BE016F5F7F4F37
:101CF000C7010E949F0E02C00E94B3170F900F9061
:101D00000F900F90DF91CF911F91FF90EF9008956A
:101D1000F894F999FECF92BD81BD60BD8FB3846008
:101D20008FBB8FB382608FBB78940895F999FECFF3
:101D300092BD81BD8FB381608FBB80B50895AF9296
:101D4000BF92CF92DF92EF92FF920F931F93CF93A8
:101D5000DF936C015B01C0E0D0E00EC07E01EC0CB3
:101D6000FD1CC7010E94960EF8016081861719F0CC
:101D7000C7010E94880E219685010C0F1D1FF801D6
:101D800080818111EBCFCC0DDD1DCE010E94960E1E
:101D9000882321F060E0CE010E94880EDF91CF9170
:101DA0001F910F91FF90EF90DF90CF90BF90AF9079
:101DB0000895AF92BF92CF92DF92EF92FF920F936E
:101DC0001F93CF93DF935C016B017A01C0E0D0E0F9
:101DD0000BC086010C0F1D1FCE018A0D9B1D0E949A
:101DE000960EF80180832196CE15DF0590F3F6015B
:101DF000EE0DFF1D1082DF91CF911F910F91FF908B
:101E0000EF90DF90CF90BF90AF90089589E18093DD
:101E1000B8001092B900089584EA8093BC008091C4
:101E2000BC008823E4F708958093BB0084E8809386
:101E3000BC008091BC008823E4F7089584E9809376
:101E4000BC008091BC0080FDFCCF0895EBEBF0E07E
:101E500080818260808384E88093BC008091BC0094
:101E60008823E4F789EF90E00197F1F700C00000C4
:101E7000EBEBF0E080818D7F808384E88093BC0071
:101E80008091BC008823E4F70895EBEBF0E09081AB
:101E90009E7F908394E89093BC009091BC0099231E
:101EA000E4F7EBEBF0E090819F70908394E89093DF
:101EB000BC009091BC009923E4F7EBEBF0E090813B
:101EC000807F892B808384E88093BC008091BC0054
:101ED0008823E4F70E94260F0895CF93C82FEBEBD9
:101EE000F0E080818E7F808384E88093BC008091C5
:101EF000BC008823E4F7EBEBF0E080818F708083F7
:101F000084E88093BC008091BC008823E4F7EBEB6D
:101F1000F0E080819C2F907F892B808384E88093E0
:101F2000BC008091BC008823E4F70E94260FEBEBF5
:101F3000F0E080818F70808384E88093BC00809182
:101F4000BC008823E4F7EBEBF0E0208130E1C39F95
:101F5000C0011124822B808384E88093BC0080918F
:101F6000BC008823E4F70E94260FCF910895CF93F9
:101F7000C82FEBEBF0E080818160808384E8809360
:101F8000BC008091BC008823E4F7EBEBF0E080819B
:101F90008F70808384E88093BC008091BC0088238C
:101FA000E4F7EBEBF0E080819C2F907F892B80831E
:101FB00084E88093BC008091BC008823E4F70E94F1
:101FC000260FEBEBF0E080818F70808384E88093B4
:101FD000BC008091BC008823E4F7EBEBF0E02081AB
:101FE00030E1C39FC0011124822B808384E8809359
:101FF000BC008091BC008823E4F70E94260FCF919B
:1020000008950E94060F0E940C0F80E40E94140F96
:1020100081EE94E00197F1F700C0000080E30E9498
:10202000450F81EE94E00197F1F700C0000080E3D6
:102030000E94450F80E20E94450F81EE94E00197D7
:10204000F1F700C0000088E20E946D0F8CE00E9452
:102050006D0F81E00E946D0F86E00E946D0F80E899
:102060000E946D0F0895CF93DF93EC0103C021967A
:102070000E94B70F88818111FACFDF91CF91089527
:10208000CF93DF93EC0180EC0E946D0F03C021968B
:102090000E94B70F88818111FACFDF91CF91089507
:1020A00081E00E946D0F81E28A95F1F7000080E8DF
:1020B0000E946D0F089585E08093B800089584EA2A
:1020C0008093BC008091BC008823E4F7089580933E
:1020D000BB0084E88093BC008091BC008823E4F7B7
:1020E000089584EC8093BC008091BC008823E4F7C1
:1020F0008091BB0090E0A0E0B0E08093A8039093B3
:10210000A903A093AA03B093AB0384EC8093BC0013
:102110008091BC008823E4F78091BB0090E0A0E0B0
:10212000B0E08093B0039093B103A093B203B09357
:10213000B30384E88093BC008091BC008823E4F75B
:102140008091BB0090E0A0E0B0E08093AC0390935E
:10215000AD03A093AE03B093AF03089584E98093D9
:10216000BC0008950E945F1080ED0E9467108CE112
:102170000E9467100E94AE100895CF93DF930E94D3
:102180005B100E94B2100E945F1081ED0E946710E8
:102190000E9471102091A80380E090E0922F990F87
:1021A000990FC091B003D091B103CC0FDD1FCC0FBC
:1021B000DD1FC82BD92B8091AC039091AD03082E65
:1021C000892F000C881F990B000C881F991FC82BA2
:1021D000D92B22970E94AE10CE01DF91CF910895A6
:1021E000CF92DF92EF92FF920F931F93CF93DF93E3
:1021F00000D01F92CDB7DEB70E94BD107C0142E037
:1022000050E0BE016F5F7F4F80EA90E00E94D90EE0
:10221000CE0101960E94C621BC01660F771F880F70
:10222000991F880F991F880F991F8B01080F191F7D
:10223000B701FF0C880B990B0E949F2020E030E033
:1022400040E050E40E94891F20E030E04AE754E477
:102250000E942B2120E030EE4FEF54E40E94F51F46
:102260006B017C01B801110F880B990B0E949F2014
:10227000A70196010E942B210E946720CB010F909D
:102280000F900F90DF91CF911F910F91FF90EF90E2
:10229000DF90CF90089594EA9093BC009091BC0099
:1022A0009923E4F79091B9009B7F983009F057C0CB
:1022B00090E99093BB0094E89093BC009091BC008F
:1022C0009923E4F79091B9009B7F983109F047C0BA
:1022D0008093BB0084E88093BC008091BC0088237D
:1022E000E4F78091B9008B7F8832C9F584EA809346
:1022F000BC008091BC008823E4F78091B9008B7FFB
:10230000803169F581E98093BB0084E88093BC004B
:102310008091BC008823E4F78091B9008B7F8034E2
:10232000F1F415C02115310521F484E88093BC0037
:1023300003C084EC8093BC008091BC008823E4F748
:102340008091BB00FB018083A9016F5F7F4F9A01E1
:1023500021503109452B31F784E98093BC00089561
:1023600094EA9093BC009091BC009923E4F790917B
:10237000B9009B7F9830D1F590E99093BB0094E829
:102380009093BC009091BC009923E4F79091B90020
:102390009B7F983159F58093BB0084E88093BC0003
:1023A0008091BC008823E4F78091B9008B7F88324C
:1023B000E9F414C0FB013196DB018C918093BB00E2
:1023C00084E88093BC008091BC008823E4F780916E
:1023D000B900A9018B7F883249F4BF019A012150CD
:1023E0003109452B39F784E98093BC0008951F9388
:1023F000CF93DF931F92CDB7DEB7182F41E050E0A7
:10240000BE016F5F7F4F81E00E944B118981282FB1
:102410002F7930E2139FC0011124822B898341E080
:1024200050E0BE016F5F7F4F81E00E94B0110F90BE
:10243000DF91CF911F9108951F93CF93DF931F9248
:10244000CDB7DEB7182F41E050E0BE016F5F7F4F80
:1024500081E00E944B1189818E7F182B198341E006
:1024600050E0BE016F5F7F4F81E00E94B0110F907E
:10247000DF91CF911F910895EF92FF921F93CF9319
:10248000DF9300D0CDB7DEB742E050E0BE016F5F12
:102490007F4F80E00E944B11E980FA80B7017727D7
:1024A00080E090E00E949D201F2DF7FE06C020E0F6
:1024B00030E040E05FE30E94891F16FF06C020E085
:1024C00030E040E85EE30E94891F15FF06C020E06F
:1024D00030E040E05EE30E94891F14FF06C020E068
:1024E00030E040E85DE30E94891F0F900F90DF917C
:1024F000CF911F91FF90EF9008958F929F92AF928E
:10250000BF92CF92DF92EF92FF920F931F93CF93E0
:10251000DF93CDB7DEB7AA970FB6F894DEBF0FBE34
:10252000CDBF0E94D31385EA9EE00197F1F700C06A
:10253000000083E00E94F71185EA9EE00197F1F721
:1025400000C0000080E00E941C1285EA9EE0019716
:10255000F1F700C0000001E010E03CC00E943C1216
:102560004B015C010E9467206B017C01072E000C6F
:10257000880B990B0E949F209B01AC01C501B401FF
:102580000E94881F20E030E44CE156E40E942B2199
:102590000E9467209B01772324F422273327261BE0
:1025A000370B3F932F93DF92CF928EE191E09F9371
:1025B0008F93CE0101969F938F930E94EC2185E328
:1025C00091E00E94E6130F5F1F4F0FB6F894DEBF35
:1025D0000FBECDBF0B3F11050CF285E391E00E94C9
:1025E000E613CE0101960E94C6219F938F9386E346
:1025F00091E09F938F938E010F5D1F4F1F930F9359
:102600000E94EC21C8010E94C6218C010E941E0F6D
:102610000F900F900F900F900F900F90C801AA96F7
:102620000FB6F894DEBF0FBECDBFDF91CF911F91E3
:102630000F91FF90EF90DF90CF90BF90AF909F9061
:102640008F900895CF93DF93D82FC92FF8940E94CD
:102650000C0F8EE40E94140F8D2F0E94140F8C2FEC
:102660000E94140F0E941E0F7894DF91CF9108955D
:1026700080E090E00E94221308958AB1877F8AB992
:102680008AB18F7E8AB98BB188608BB98BB180613A
:102690008BB9089589B182958F7091E089278170F7
:1026A00080938E0390E0089589B1869586958695EE
:1026B00091E08927817080938F0390E008958AB11B
:1026C0008F7D8AB98AB18F7B8AB98BB180628BB9D1
:1026D0008BB180648BB9089589B182958695877096
:1026E00091E08927817080938D0390E0089589B1EE
:1026F000829586958695837091E089278170809375
:102700008C0390E0089584B1886084B9E0EBF0E038
:10271000808183608083A1EBB0E08C9182608C9398
:1027200080818068808308959C01629FC001639FBF
:10273000900D729F900D11248F3F910509F01CF4AC
:10274000992334F403C08FEF90E002C080E090E062
:102750008093B300089514BC15BC16BC84B5826088
:1027600084BD85B5836085BD8FEF87BDEEE6F0E063
:10277000808182608083089510928000E1E8F0E01B
:10278000108280818860808388E09DE39093890037
:1027900080938800AFE6B0E08C9182608C9380815A
:1027A0008560808308951092C50080E18093C40005
:1027B00088E18093C10086E08093C20008959091E3
:1027C000C00095FFFCCF8093C6000895CF93DF93A0
:1027D000EC0103C00E94DF13219688818111FACF9A
:1027E000DF91CF9108958DE00E94DF138AE00E946F
:1027F000DF1308958091C0008823E4F78091C6001C
:102800008F3509F480E00895CF930E94FA13C82F02
:102810000E94DF130E94F3138C2FCF910895CF9362
:10282000DF93FC0103C00E94DF13FE01EF0121963C
:1028300084918111F8CFDF91CF9108958091C000EC
:1028400088231CF48091C60008958BE308950E94AC
:10285000F31386E991E10E940F140E94F3138FE2B3
:1028600091E10E940F140E94F31387EC90E10E9403
:102870000F140E94F3138FE590E10E940F140E9441
:10288000F31387EF9FE00E940F140E94F3138FE869
:102890009FE00E940F140E94F31387E29FE00E94C2
:1028A0000F140E94F3138FEB9EE00E940F140E94FE
:1028B000F31387E59EE00E940F140E94F3130E9419
:1028C000F31308950E94F3130E94F3138AE69DE028
:1028D0000E940F140E94F31388E19DE00E940F14E0
:1028E0000E94F31387EC9CE00E940F140E94F313E4
:1028F00084E89CE00E940F140E94F31381E69CE0A0
:102900000E940F140E94F3138BE09CE00E940F14AE
:102910000E94F31384EB9BE00E940F140E94F313B8
:102920008CE59BE00E940F140E94F31384E09BE06F
:102930000E940F140E94F3138BEA9AE00E940F1476
:102940000E94F31386E59AE00E940F140E94F3138D
:1029500085E19AE00E940F140E94F31382ED99E042
:102960000E940F140E94F3138EE899E00E940F1446
:102970000E94F31389E499E00E940F140E94F3135C
:1029800084E099E00E940F140E94F3138FEB98E00B
:102990000E940F140E94F3138AE798E00E940F141C
:1029A0000E94F31386E398E00E940F140E94F31331
:1029B00082EF97E00E940F140E94F3138FEA97E0D2
:1029C0000E940F140E94F3138DE697E00E940F14EB
:1029D0000E94F3130E94F31383E193E10E940F140A
:1029E00008950E94F31383E49EE00E940F140E9456
:1029F000F3138AE29EE00E940F140E94F31382E117
:102A00009EE00E940F140E94F31382E09EE00E9459
:102A10000F140E94F3138CEE92E10E940F140E9497
:102A2000F31383E193E10E940F1408956F927F9254
:102A30008F929F92AF92BF92CF92DF92EF92FF92CE
:102A40000F931F93CF93DF93782E692EC62FD72F26
:102A5000942E852EB22EA32E0E94F31388EE9DE0B5
:102A60000E940F140E94F3138EEC9DE00E940F143D
:102A70000E94F31384EB9DE00E940F140E94F31355
:102A80008CE392E10E940F140E94F31387E592E118
:102A90000E940F14DF93CF930F2EF6E3CF2EF1E0B9
:102AA000DF2EF02DDF92CF92C1EDD3E0DF93CF93F5
:102AB0000E94EC21CE010E94E61383E592E10E9480
:102AC0000F140E94F31389E492E10E940F146F9295
:102AD0007F92DF92CF92DF93CF930E94EC21CE01C1
:102AE0000E94E61385E492E10E940F140E94F31302
:102AF0008DEF91E10E940F140E94F31389E391E09E
:102B00000E94E6134CE050E0BE018AE090E00E9493
:102B1000D90ECE010E94E61383E391E00E94E613F2
:102B20008F929F92DF92CF92DF93CF930E94EC21FE
:102B3000CE010E94E6138DEB92E00E94E6130E9404
:102B4000F31385E491E00E94E6134CE050E0BE01EF
:102B500089E190E00E94D90ECE010E94E61383E342
:102B600091E00E94E613AF92BF92DF92CF92DF9383
:102B7000CF930E94EC21CE010E94E6138DEB92E0F0
:102B80000E94E6130E94F31381E591E00E94E61390
:102B90004CE050E0BE0188E290E00E94D90ECE01E8
:102BA0000E94E61383E391E00E94E6131F930F93C4
:102BB000DF92CF92DF93CF930E94EC21CE010E944F
:102BC000E6138DEB92E00E94E6130E94F3138DE56D
:102BD00091E00E94E6134CE050E0BE0187E390E0F4
:102BE0000E94D90ECE010E94E61383E391E00E9479
:102BF000E613FF92EF92DF92CF92DF93CF930E9482
:102C0000EC218DB79EB784960FB6F8949EBF0FBE89
:102C10008DBFCE010E94E6138DEB92E00E94E61379
:102C20000E94F3138CEE92E10E940F14DF91CF917A
:102C30001F910F91FF90EF90DF90CF90BF90AF90DA
:102C40009F908F907F906F9008950E94F3138AE475
:102C500097E00E940F144AE050E061ED73E084EBCE
:102C600090E00E94D90E81ED93E00E94E6130E944D
:102C7000F3138FE197E00E940F144CE050E061EDF8
:102C800073E08AE090E00E94D90E81ED93E00E940B
:102C9000E6130E94F31384EF96E00E940F144CE0B9
:102CA00050E061ED73E089E190E00E94D90E81ED82
:102CB00093E00E94E6130E94F31389EC96E00E94D1
:102CC0000F144AE050E061ED73E088E290E00E946A
:102CD000D90E81ED93E00E94E6130E94F3138EE972
:102CE00096E00E940F144AE050E061ED73E087E344
:102CF00090E00E94D90E81ED93E00E94E6130E94BD
:102D0000F3138EE796E00E940F1443E050E061ED6C
:102D100073E08AEA90E00E94D90E81ED93E00E9470
:102D2000E6130E94F3138DE496E00E940F1443E033
:102D300050E061ED73E088E191E00E94D90E81EDF1
:102D400093E00E94E6130E94F3138CE196E00E9448
:102D50000F1443E050E061ED73E086E490E00E94E0
:102D6000D90E81ED93E00E94E6130E94F3138BEEDF
:102D700095E00E940F1443E050E061ED73E080E5C0
:102D800090E00E94D90E81ED93E00E94E6130E942C
:102D9000F3138AEB95E00E940F1443E050E061EDDD
:102DA00073E08AE590E00E94D90E81ED93E00E94E5
:102DB000E6130E94F31383E895E00E940F1443E0AA
:102DC00050E061ED73E084E690E00E94D90E81ED61
:102DD00093E00E94E6130E94F3138CE495E00E94B6
:102DE0000F1443E050E061ED73E08EE690E00E9446
:102DF000D90E81ED93E00E94E6130E94F31385E162
:102E000095E00E940F1443E050E061ED73E088E725
:102E100090E00E94D90E81ED93E00E94E6130E949B
:102E2000F3138EED94E00E940F1443E050E061ED47
:102E300073E082E890E00E94D90E81ED93E00E9459
:102E4000E6130E94F3138EEA94E00E940F1443E00D
:102E500050E061ED73E08CE890E00E94D90E81EDC6
:102E600093E00E94E6130E94F3138EE794E00E9421
:102E70000F1443E050E061ED73E081E990E00E94BF
:102E8000D90E81ED93E00E94E6130E94F3138EE4C5
:102E900094E00E940F1443E050E061ED73E086E996
:102EA00090E00E94D90E81ED93E00E94E6130E940B
:102EB000F3138EE194E00E940F1443E050E061EDC3
:102EC00073E08BE990E00E94D90E81ED93E00E94BF
:102ED000E6130E94F3138CEF93E00E940F1443E07B
:102EE00050E061ED73E080EA90E00E94D90E81ED40
:102EF00093E00E94E61389E691E00E94E6130E94A7
:102F0000F3138CEE92E10E940F1408950E94F313C4
:102F10008DE693E00E940F140E94F31381E493E086
:102F20000E940F140E94F31388E193E00E940F1493
:102F30000E94F3138BEE92E00E940F140E94F31391
:102F40008EEB92E00E940F140E94F31381E992E04D
:102F50000E940F140E94F31384E692E00E940F1463
:102F60000E94F31308950E94F31384EA92E10E94F1
:102F70000F140E94F31385E692E10E940F140E9441
:102F8000F31308950E94F31380E392E00E940F145C
:102F90000E94F31382EF91E00E940F140E94F3133A
:102FA00083EB91E00E940F140E94F31386E891E0F6
:102FB0000E940F140E94F3138AE491E00E940F1400
:102FC0000E94F3138EE091E00E940F140E94F3130D
:102FD00082ED90E00E940F140E94F31308950E9466
:102FE000F3138DEB93E00E940F140E94F31384EB14
:102FF00093E00E940F140E94F3138BEA93E00E9467
:103000000F140E94F31308950E9454138093A00399
:103010000E944A1380939F03811106C08091A003F0
:10302000882321F081E003C081E001C080E080932B
:103030009003809190038823E9F10E9401100E947F
:1030400050100E94011082E791E00E94331027E7A0
:103050008BE292E0215080409040E1F700C00000F8
:103060000E94501081E891E00E94331027E78BE224
:1030700092E0215080409040E1F700C000000E94A3
:1030800050108CE891E00E94331027E78BE292E029
:10309000215080409040E1F700C000000E94501095
:1030A0000E94F3138DE991E00E94E6130E94381309
:1030B0000C94000008950E940418809192038823C4
:1030C00061F180919003811128C00E9401100E943B
:1030D00050100E94F31380EE91E00E94E61388EFF7
:1030E00091E00E94E61388E292E00E94331085EAA4
:1030F0009EE00197F1F700C0000080919E0390E0F0
:103100000E94E30C0E9401100E9450101092920342
:1031100086E392E00E94E61308950E940418089541
:10312000CF92DF92EF92FF920F931F93CF93DF9393
:10313000CDB7DEB7C055D1090FB6F894DEBF0FBECC
:10314000CDBF02E310E01A830983FE01339688E0C5
:10315000DF011D928A95E9F7BE016F5F7F4F80EA1C
:1031600090E00E949F0E86E0E0E0F1E0DE011B9619
:1031700001900D928A95E1F76894FF24F2F8FE0120
:103180007196DF018F2D1D928A95E9F7BE01655F6B
:103190007F4F8AE090E00E949F0E4AE050E061ED90
:1031A00073E08AE090E00E94D90E81E491E00E94F1
:1031B000E61381ED93E00E94E61384E595E49E8B8F
:1031C0008D8B188E1F8AFE01799686E0DF011D9295
:1031D0008A95E9F7BE016B5E7F4F89E190E00E941E
:1031E0009F0E4AE050E061ED73E089E190E00E94BB
:1031F000D90E81E491E00E94E61381ED93E00E94F4
:10320000E61389E0EAE0F1E0DE015F9601900D92BD
:103210008A95E1F718A6BE01615E7F4F88E290E0D3
:103220000E949F0E4AE050E061ED73E088E290E07A
:103230000E94D90E81E491E00E94E61381ED93E0B3
:103240000E94E61386E0E4E1F1E0DE019996019048
:103250000D928A95E1F7FE01BF96DF011D92FA9467
:10326000E9F7BE01675D7F4F87E390E00E949F0E04
:103270004AE050E061ED73E087E390E00E94D90EF0
:1032800081E491E00E94E61381ED93E00E94E61351
:103290000F2EF1E3EF2EF0E3FF2EF02DFCAAEBAAA8
:1032A0000F2EF0E3CF2ED12CF02DDEAACDAA1FAA2F
:1032B000BE016D5C7F4F88E191E00E949F0EBE01D0
:1032C0006D5C7F4F86E490E00E949F0EBE016D5CB6
:1032D0007F4F80E590E00E949F0EBE016D5C7F4FA6
:1032E0008AE590E00E949F0E82E390E399AF88AF59
:1032F000DBAECAAE1CAEBE01685C7F4F84E690E0D8
:103300000E949F0EBE01685C7F4F8EE690E00E9497
:103310009F0EBE01685C7F4F88E790E00E949F0E81
:10332000BE01685C7F4F82E890E00E949F0EFEAE77
:10333000EDAE21961FAE1EAE219722961FAE2297AC
:10334000BE01635C7F4F8CE890E00E949F0EBE013F
:10335000635C7F4F81E990E00E949F0EBE01635C39
:103360007F4F86E990E00E949F0EBE01635C7F4F15
:103370008BE990E00E949F0EFE01EE5BFF4F0193F0
:10338000119313E0DF01812F1D928A95E9F7BE01A9
:103390006E5B7F4F80EA90E00E949F0E88E395E38A
:1033A00029969FAF8EAF29972B961FAE1EAE2B97F7
:1033B0002C961FAE2C97BE01695B7F4F84EB90E08B
:1033C0000E949F0EFE01E45BFF4F81E390E081933A
:1033D0009193DF011D921A95E9F7BE01645B7F4F5F
:1033E0008AEA90E00E949F0EC05BDF4F0FB6F89410
:1033F000DEBF0FBECDBFDF91CF911F910F91FF9028
:10340000EF90DF90CF9008954AE050E061ED73E0D7
:1034100080EA90E00E94D90E81ED93E00E94C621DF
:103420000197029748F00E9490180E94F3138BE4D2
:1034300092E00E94E61308950E94F31388E792E059
:103440000E94E61308950E945B100E94B2100E9431
:10345000F0109093C9038093C8030E94AE100E949D
:103460007D129093EB038093EA0308950F931F93CB
:10347000CF93DF930E94231AC0E0D0E031C02196A1
:1034800044E050E061ED73E08AEA90E00E94D90EDA
:1034900081ED93E00E94C6218C0144E050E061ED93
:1034A00073E084EB90E00E94D90E81ED93E00E94DE
:1034B000C6212091EA033091EB03821B930B2091EC
:1034C000C8033091C903232B29F0BC01C8010E9415
:1034D000941306C060E070E081E090E00E949413D5
:1034E000C530D10561F6DF91CF911F910F910895FD
:1034F0000F931F93CF93DF93F8940E941E0F0E94A7
:10350000060F0E94011080EA92E00E94331027E328
:1035100081E796E0215080409040E1F700C0000034
:103520000E94501089EA92E00E94331027E381E75D
:1035300096E0215080409040E1F700C000000E94DA
:10354000501085EB92E00E94331027E381E796E06C
:10355000215080409040E1F700C000000E945010D0
:103560008FEB92E00E94331027EB8BE89CE0215018
:1035700080409040E1F700C000000E94501084E3BA
:1035800091E00E9433104AE050E061ED73E08AE080
:1035900090E00E94D90E81ED93E00E94331027EB5A
:1035A0008BE89CE0215080409040E1F700C0000093
:1035B0000E94501084E391E00E9433108091C70371
:1035C0008F938091C6038F9306E311E01F930F93AF
:1035D000C1EDD3E0DF93CF930E94EC21CE010E9496
:1035E000331097EB2BE88CE0915020408040E1F7BE
:1035F00000C000000E94501084E391E00E9433104C
:103600004AE050E0BE0189E190E00E94D90ECE016F
:103610000E94331097EB2BE88CE0915020408040C3
:10362000E1F700C000000E9450100E94501084E397
:1036300091E00E9433108091CF038F938091CE034D
:103640008F931F930F93DF93CF930E94EC21CE01B2
:103650000E94331087EB9BE82CE081509040204083
:10366000E1F700C000000E94501084E391E00E9446
:1036700033104AE050E0BE0188E290E00E94D90E8B
:10368000CE010E94331087EB9BE82CE081509040E4
:103690002040E1F700C000000E94501084E391E058
:1036A0000E9433108091CD038F938091CC038F9330
:1036B0001F930F93DF93CF930E94EC21CE010E94C2
:1036C000331027EB8BE89CE0215080409040E1F7DD
:1036D00000C000000E94501084E391E00E9433106B
:1036E0004AE050E0BE0187E390E00E94D90ECE018F
:1036F0000E94331027EB8BE89CE0215080409040E3
:10370000E1F700C000000E9450100E94501084E3B6
:1037100091E00E9433108091CB038F938091CA0374
:103720008F931F930F93DF93CF930E94EC21CE01D1
:103730000E94331097EB2BE88CE0915020408040A2
:10374000E1F700C000000E94501088EC92E00E9457
:10375000331097EB2BE88CE0915020408040E1F74C
:1037600000C000000E94501084E391E00E943310DA
:1037700080ED92E00E94331097EB2BE88CE09150A3
:1037800020408040E1F700C000000E94501084E318
:1037900091E00E9433108091EA039091EB039F9394
:1037A0008F931F930F93DF93CF930E94EC21CE0151
:1037B0000E9433108DED92E00E94331087EB9BE85E
:1037C0002CE0815090402040E1F700C000000E94B2
:1037D000501084E391E00E94331080EE92E00E944A
:1037E000331087EB9BE82CE0815090402040E1F7BC
:1037F00000C000000E94501084E391E00E9433104A
:103800008091C8039091C9039F938F931F930F9347
:10381000DF93CF930E94EC218DB79EB784960FB6AD
:10382000F8949EBF0FBE8DBFCE010E94331089EE6B
:1038300092E00E9433109FED22EB83E091502040F4
:103840008040E1F700C0000097EB2BE88CE091503E
:1038500020408040E1F700C000000E945010DF913E
:10386000CF911F910F9108950E946C1380939D0337
:103870000E94771380939C0380919203811173C0FF
:1038800080919D03813009F06EC080919E038F5F0F
:1038900080939E03853019F481E080939E030E94FB
:1038A00001108091950390919603019731F40E9445
:1038B000781A109296031092950380919E0382309D
:1038C000D1F018F4813031F049C0833029F18430CF
:1038D000A1F144C04AE050E061ED73E08AE090E07D
:1038E0000E94D90E86E291E00E94331081ED93E0B0
:1038F0000E94331008954AE050E061ED73E089E1E1
:1039000090E00E94D90E86E291E00E94331081ED92
:1039100093E00E94331008954AE050E061ED73E0B7
:1039200088E290E00E94D90E86E291E00E94331076
:1039300081ED93E00E94331008954AE050E061ED7C
:1039400073E087E390E00E94D90E86E291E00E9446
:10395000331081ED93E00E943310089581E080934D
:103960009E030E94341C08950E9454138093A00368
:103970000E944A1380939F03811106C08091A00387
:10398000882321F081E003C081E001C080E08093C2
:1039900090038091900381110E9404180895CF93A1
:1039A000DF9380E00E94D209C8E7D0E06881798186
:1039B00080E090E00E949D2020E030EC4FE754E44E
:1039C0000E94F51F20E030E048EC52E40E942B21D9
:1039D0000E9467207093C7036093C60381E00E9432
:1039E000D2096881798180E090E00E949D2020E0EA
:1039F00030EC4FE754E40E94F51F20E030E048EC43
:103A000052E40E942B210E9467207093CF036093A1
:103A1000CE0382E00E94D2096881798180E090E043
:103A20000E949D2020E030EC4FE754E40E94F51FF7
:103A300020E030E048EC52E40E942B210E946720F5
:103A40007093CD036093CC0383E00E94D209688118
:103A5000798180E090E00E949D2020E030EC4FE7EB
:103A600054E40E94F51F20E030E048EC52E40E944C
:103A70002B210E9467207093CB036093CA03DF91D0
:103A8000CF9108950E94CF1C0E94231A0E94B41C5B
:103A90000E94341C08950E9438130E94C1090E949C
:103AA000D3130E943D130E945F130E9483138091E1
:103AB0009103811115C080919003811111C00E9462
:103AC000271481E0809391030E9401108CEE92E014
:103AD0000E9433108CEF92E00E9440100E941E0F53
:103AE0000E94041A0E94F1140E94AB130E94BC139E
:103AF0000895EF92FF920F931F93CF93DF930E944D
:103B00001E148093E903E091E9038E2F90E0FC01FD
:103B1000F197EA32F10508F02BC1EC5CFF4F0C94F1
:103B2000AC216091EA037091EB038091C8039091FE
:103B3000C903E090CA03F090CB030091CC0310912D
:103B4000CD032091CE033091CF034091C603509115
:103B5000C7030E9416158DE093E08093E90308C126
:103B60000E9425168DE093E08093E90301C10E9435
:103B700062148DE093E08093E903FAC00E94F3138E
:103B80008FE093E00E94E6130E9425160E94F31333
:103B90008FE393E00E94E6130E94F3138DE093E01D
:103BA0008093E903E5C084EB90E00E94490D8DE02D
:103BB00093E08093E903DCC00E9486178AE090E0DE
:103BC0000E94AC0D8DE093E08093E903D1C00E9488
:103BD000861789E190E00E94AC0D8DE093E0809320
:103BE000E903C6C00E94861788E290E00E94AC0DEF
:103BF0008DE093E08093E903BBC00E94861787E3C2
:103C000090E00E94AC0D8DE093E08093E903B0C09A
:103C10008DE093E08093E903ABC08AEA90E00E94D4
:103C2000490D8DE093E08093E903A2C088E191E023
:103C30000E94290E8DE093E08093E90399C086E409
:103C400090E00E94290E94C080E590E00E94290E29
:103C50008DE093E08093E9038BC08AE590E00E94B9
:103C6000290E8DE093E08093E90382C084E690E022
:103C70000E94290E8DE093E08093E9038093E9038D
:103C800077C08DE093E08093E9038EE690E00E9498
:103C9000290E6EC08DE093E08093E90388E790E001
:103CA0000E94290E65C0CDE0D3E0C093E90382E80D
:103CB00090E00E94290EC093E9035AC08DE093E082
:103CC0008093E9038CE890E00E94490D51C08DE09B
:103CD00093E08093E90381E990E00E94490D48C098
:103CE0008DE093E08093E90386E990E00E94490D1E
:103CF0003FC08DE093E08093E9038BE990E00E9460
:103D0000490D36C00E94EF178DE093E08093E903E0
:103D10002FC065E873E080EA90E00E949F0E0E9449
:103D2000F3130E94F1140E94F3138DE093E080934B
:103D3000E9031EC00E94F31367E873E080EA90E095
:103D40000E949F0E0E94F1140E94F3138DE093E0F5
:103D50008093E9030DC00E94F1148DE093E08093FD
:103D6000E90306C00E9490188DE093E08093E90378
:103D7000DF91CF911F910F91FF90EF900895F894EC
:103D80000E944B1DC0E0D0E003C00E94421D21965E
:103D9000C630D105D4F378940E94041878940E9418
:103DA00004180E945B180E94791DF8CF1F920F9291
:103DB0000FB60F9211242F933F934F935F936F93FE
:103DC0007F938F939F93AF93BF93EF93FF930E9443
:103DD000421D0E94361AFF91EF91BF91AF919F91C2
:103DE0008F917F916F915F914F913F912F910F90A4
:103DF0000FBE0F901F9018951F920F920FB60F9243
:103E000011242F933F934F935F936F937F938F93DF
:103E10009F93AF93BF93CF93EF93FF9389B1C82F35
:103E2000C0748091930390919403019690939403AE
:103E3000809393038091930390919403C79741F4E7
:103E40000E94341C0E94B41C10929403109293039D
:103E500080919C03882329F080919D03811103C0E8
:103E600003C080E001C081E080939B0380919B03AD
:103E70008823A1F08091970390919803A0919903D2
:103E8000B0919A030196A11DB11D80939703909361
:103E90009803A0939903B0939A0309C0C11107C076
:103EA00080919D03811103C081E0809392038091F2
:103EB0009B038823D9F08091970390919803A09158
:103EC0009903B0919A03843C9940A105B10570F023
:103ED00081E090E09093960380939503109297036E
:103EE000109298031092990310929A03FF91EF9108
:103EF000CF91BF91AF919F918F917F916F915F9182
:103F00004F913F912F910F900FBE0F901F901895DA
:103F10005058BB27AA270E94A01F0C94F1200E9492
:103F2000E32038F00E94EA2020F039F49F3F19F492
:103F300026F40C94E0200EF4E095E7FB0C94DA20D4
:103F4000E92F0E94022158F3BA176207730784070A
:103F5000950720F079F4A6F50C9424210EF4E09551
:103F60000B2EBA2FA02D0B01B90190010C01CA0133
:103F7000A0011124FF27591B99F0593F50F4503EDE
:103F800068F11A16F040A22F232F342F4427585FD0
:103F9000F3CF469537952795A795F0405395C9F7E8
:103FA0007EF41F16BA0B620B730B840BBAF09150A0
:103FB000A1F0FF0FBB1F661F771F881FC2F70EC03F
:103FC000BA0F621F731F841F48F487957795679512
:103FD000B795F7959E3F08F0B0CF9395880F08F0FE
:103FE0009927EE0F9795879508950E9409200C94C4
:103FF000F1200E94EA2058F00E94E32040F029F4CA
:104000005F3F29F00C94DA2051110C9425210C9477
:10401000E0200E94022168F39923B1F3552391F324
:10402000951B550BBB27AA2762177307840738F027
:104030009F5F5F4F220F331F441FAA1FA9F335D084
:104040000E2E3AF0E0E832D091505040E695001C38
:10405000CAF72BD0FE2F29D0660F771F881FBB1FF2
:10406000261737074807AB07B0E809F0BB0B802DD0
:10407000BF01FF2793585F4F3AF09E3F510578F0FC
:104080000C94DA200C9425215F3FE4F3983ED4F39E
:10409000869577956795B795F7959F5FC9F7880FD0
:1040A000911D9695879597F90895E1E0660F771F22
:1040B000881FBB1F621773078407BA0720F0621BB3
:1040C000730B840BBA0BEE1F88F7E09508950E94DE
:1040D0006E206894B1110C94252108950E940A2144
:1040E00088F09F5798F0B92F9927B751B0F0E1F0B9
:1040F000660F771F881F991F1AF0BA95C9F714C069
:10410000B13091F00E942421B1E008950C94242153
:10411000672F782F8827B85F39F0B93FCCF38695A1
:1041200077956795B395D9F73EF4909580957095FE
:1041300061957F4F8F4F9F4F0895E89409C097FB7B
:104140003EF490958095709561957F4F8F4F9F4F6E
:104150009923A9F0F92F96E9BB279395F6958795B2
:1041600077956795B795F111F8CFFAF4BB0F11F475
:1041700060FF1BC06F5F7F4F8F4F9F4F16C088231C
:1041800011F096E911C0772321F09EE8872F762F52
:1041900005C0662371F096E8862F70E060E02AF093
:1041A0009A95660F771F881FDAF7880F969587957F
:1041B00097F9089597F99F6780E870E060E00895A7
:1041C0009FEF80EC089500240A941616170618062F
:1041D0000906089500240A9412161306140605060B
:1041E0000895092E0394000C11F4882352F0BB0F9C
:1041F00040F4BF2B11F460FF04C06F5F7F4F8F4FFF
:104200009F4F089557FD9058440F551F59F05F3F39
:1042100071F04795880F97FB991F61F09F3F79F0E8
:1042200087950895121613061406551FF2CF46956A
:10423000F1DF08C0161617061806991FF1CF8695EC
:104240007105610508940895E894BB2766277727D0
:10425000CB0197F908950E943E210C94F1200E9411
:10426000E32038F00E94EA2020F0952311F00C940E
:10427000DA200C94E02011240C9425210E940221C4
:1042800070F3959FC1F3950F50E0551F629FF001A9
:10429000729FBB27F00DB11D639FAA27F00DB11DC2
:1042A000AA1F649F6627B00DA11D661F829F22274B
:1042B000B00DA11D621F739FB00DA11D621F839FD2
:1042C000A00D611D221F749F3327A00D611D231FA8
:1042D000849F600D211D822F762F6A2F11249F57F6
:1042E00050409AF0F1F088234AF0EE0FFF1FBB1FF9
:1042F000661F771F881F91505040A9F79E3F5105B8
:1043000080F00C94DA200C9425215F3FE4F3983E72
:10431000D4F3869577956795B795F795E7959F5F61
:10432000C1F7FE2B880F911D9695879597F90895F3
:1043300097FB072E16F4009407D077FD09D00E9452
:10434000B22107FC05D03EF4909581959F4F0895CA
:10435000709561957F4F0895EE0FFF1F0590F491C2
:10436000E02D0994AA1BBB1B51E107C0AA1FBB1F6C
:10437000A617B70710F0A61BB70B881F991F5A95F1
:10438000A9F780959095BC01CD010895FC0188277F
:104390009927E89421912032E9F3293010F02E304A
:1043A000C8F32B3241F02D3239F4689404C00E94D6
:1043B000E421820F911D219120532A30C0F31EF475
:1043C000909581959F4F08957AE0979F902D879FB4
:1043D000802D910D11240895AEE0B0E0E2EFF1E2FE
:1043E0000C94AD240D891E8986E08C831A83098381
:1043F0008FEF9FE79E838D83AE01475E5F4F6F898E
:10440000788DCE0101960E940E22EF81F885E00F93
:10441000F11F10822E96E4E00C94C924ABE0B0E0CA
:10442000E4E1F2E20C949F246C017B018A01FC011F
:1044300017821682838181FFCCC1CE0101963C0197
:10444000F6019381F70193FD859193FF81917F019F
:10445000882309F4BAC1853239F493FD859193FF1D
:1044600081917F01853229F4B60190E00E940524F4
:10447000E7CF912C212C312CFFE1F315D8F08B32B2
:1044800079F038F4803279F08332A1F4232D206161
:104490001DC08D3261F0803369F4232D216016C078
:1044A000832D8260382EE32DE4603E2E2AC0F32D4A
:1044B000F8601DC037FC2DC020ED280F2A3040F0D9
:1044C0008E32B9F436FC81C1232D2064322E19C0FE
:1044D00036FE06C08AE0989E200D1124922E11C04F
:1044E000EAE02E9E200D1124222EF32DF0623F2EA5
:1044F00008C08C3621F4832D8068382E02C088369F
:1045000041F4F70193FD859193FF81917F01811122
:10451000B3CF982F9F7D9554933028F40C5F1F4F95
:104520009FE399830DC0833631F0833771F0833573
:1045300009F059C021C0F801808189830E5F1F4FA7
:1045400088248394912C530113C02801F2E04F0E6C
:10455000511CF801A080B18036FE03C0692D70E0C7
:1045600002C06FEF7FEFC5010E94FA234C01820168
:10457000F32DFF773F2E16C0280122E0420E511C7A
:10458000F801A080B18036FE03C0692D70E002C042
:104590006FEF7FEFC5010E94EF234C01F32DF06810
:1045A0003F2E820133FC1BC0822D90E088169906B5
:1045B000B0F4B60180E290E00E9405242A94F4CF82
:1045C000F50137FC859137FE81915F01B60190E0DE
:1045D0000E94052421102A9421E0821A9108811456
:1045E000910471F7E8C0843611F0893641F5F8017D
:1045F00037FE07C060817181828193810C5F1F4FFC
:1046000008C060817181072E000C880B990B0E5F2A
:104610001F4FF32DFF763F2E97FF09C09095809591
:10462000709561957F4F8F4F9F4FF0683F2E2AE026
:1046300030E0A3010E944124882E861845C08537AA
:1046400031F4232D2F7EB22E2AE030E025C0932DA9
:10465000997FB92E8F36C1F018F4883579F0B5C03E
:10466000803719F0883721F0B0C0E92FE061BE2E05
:10467000B4FE0DC0FB2DF460BF2E09C034FE0AC08D
:10468000292F2660B22E06C028E030E005C020E1C8
:1046900030E002C020E132E0F801B7FE07C06081DF
:1046A0007181828193810C5F1F4F06C0608171818F
:1046B00080E090E00E5F1F4FA3010E944124882EEE
:1046C0008618FB2DFF773F2E36FE0DC0232D2E7F43
:1046D000A22E891458F434FE0BC032FC09C0832D7D
:1046E0008E7EA82E05C0B82CA32C03C0B82C01C008
:1046F000B92CA4FE0FC0FE01E80DF11D80818033AE
:1047000021F49A2D997EA92E09C0A2FE06C0B39469
:10471000B39404C08A2D867809F0B394A3FC11C029
:10472000A0FE06C0B21488F4280C922C9B180EC070
:10473000B21460F4B60180E290E00E940524B394C4
:10474000F7CFB21418F42B1802C0982C212CA4FE19
:1047500010C0B60180E390E00E940524A2FE17C0BD
:10476000A1FC03C088E790E002C088E590E0B601B4
:104770000CC08A2D867859F0A1FE02C08BE201C0E0
:1047800080E2A7FC8DE2B60190E00E940524891426
:1047900038F4B60180E390E00E9405249A94F7CFA4
:1047A0008A94F301E80DF11D8081B60190E00E942A
:1047B00005248110F5CF222009F442CEB60180E213
:1047C00090E00E9405242A94F6CFF6018681978115
:1047D00002C08FEF9FEF2B96E2E10C94BB24FC010B
:1047E0000590615070400110D8F7809590958E0F1C
:1047F0009F1F0895FC016150704001900110D8F78F
:10480000809590958E0F9F1F08950F931F93CF93C0
:10481000DF93FB01238121FD03C08FEF9FEF2CC0AD
:1048200022FF16C0468157812481358142175307E4
:1048300044F4A081B1819D012F5F3F4F31832083DC
:104840008C93268137812F5F3F4F3783268314C097
:104850008B01EC01FB010084F185E02D0995892B8A
:10486000E1F6D80116968D919C91179701961796AF
:104870009C938E931697CE01DF91CF911F910F914C
:104880000895FA01AA27283051F1203181F1E894E6
:104890006F936E7F6E5F7F4F8F4F9F4FAF4FB1E033
:1048A0003ED0B4E03CD0670F781F891F9A1FA11D2E
:1048B000680F791F8A1F911DA11D6A0F711D811D2F
:1048C000911DA11D20D009F468943F912AE0269FF4
:1048D00011243019305D3193DEF6CF010895462F53
:1048E0004770405D4193B3E00FD0C9F7F6CF462F34
:1048F0004F70405D4A3318F0495D31FD405241939D
:1049000002D0A9F7EACFB4E0A69597958795779559
:104910006795BA95C9F700976105710508959B01E0
:10492000AC010A2E06945795479537952795BA9569
:10493000C9F7620F731F841F951FA01D08952F9242
:104940003F924F925F926F927F928F929F92AF921F
:10495000BF92CF92DF92EF92FF920F931F93CF936C
:10496000DF93CDB7DEB7CA1BDB0B0FB6F894DEBF03
:104970000FBECDBF09942A88398848885F846E8429
:104980007D848C849B84AA84B984C884DF80EE8073
:10499000FD800C811B81AA81B981CE0FD11D0FB67C
:1049A000F894DEBF0FBECDBFED010895F894FFCFA0
:1049B00043414646450000000000594552424941E6
:1049C000444F00004C415454450000000000256451
:1049D0002E25303464002D0054656D70657261744D
:1049E0007572613A20002564004265626964612045
:1049F00031202D3E004265626964612032202D3EE7
:104A0000004265626964612033202D3E0042656288
:104A10006964612034202D3E0030204C6974726F2F
:104A20007300204552524F52205055455254412058
:104A3000002041424945525441204F002054415AE0
:104A400041204D414C20505545535441003E3E4578
:104A500052524F523A20436965727265206C612050
:104A6000707565727461206F20636F6C6F7175650E
:104A7000206269656E206C612074617A61207061CA
:104A8000726120636F6E74696E7561722E2E2E00D6
:104A9000536520696E696369F320656C20736572E4
:104AA0007669646F2E2E2E00436F6E736F6C6120DB
:104AB000626C6F71756561646120686173746120F7
:104AC0007465726D696E61722020656C2070726F02
:104AD0006365736F2E2E2E00205369727669656EA2
:104AE000646F2E2E2E003E3E5365727669646F20F1
:104AF00066696E616C697A61646F00204C61206345
:104B0000616665746572612066756520636F6E66A7
:104B10006967757261646120657869746F73616D2E
:104B2000656E7465203A29004C6120636166657486
:104B3000657261206573746120636F6E6669677565
:104B4000726164612079206C69737461203A290074
:104B5000204D65646964617300204E6976656C65FB
:104B6000732064650020506F6C766F7320250020E1
:104B70002820656E20252900204269646F6E3A0066
:104B80003E54656D7065726174757261002A4300F0
:104B90003E566F6C756D656E006D6C0020426965E8
:104BA0006E76656E69646F20557755003E5F5F5F76
:104BB0005F5F5F5F5F5F5F5F5F5F5F3C002C003E3A
:104BC0003E44656C207369677569656E7465206C19
:104BD00069737461646F2C206573636F6A612071FF
:104BE000756520636F6E666967757261723A003E23
:104BF0003E53656C656363696F6E6520756E6120F9
:104C00006465206C617320616E746572696F726592
:104C100073206F7063696F6E6573207920736967A5
:104C200061206C617320696E737472756363696F60
:0A4C30006E657320003100320000B1
:00000001FF
