S00A000074502E7372656356
S11300000C9434000C9451000C9451000C94510045
S11300100C9451000C9451000C9451000C94510018
S11300200C9451000C9451000C9451000C94510008
S11300300C9451000C9451000C9451000C945100F8
S11300400C9451000C9451000C9451000C945100E8
S11300500C9451000C9451000C9451000C945100D8
S11300600C9451000C94510011241FBECFEFD8E022
S1130070DEBFCDBF11E0A0E0B1E0E0EBF0E002C0F4
S113008005900D92A030B107D9F721E0A0E0B1E0CE
S113009001C01D92A030B207E1F70E9453000C94F6
S11300A056000C94000080E090E00895F894FFCF8F
S9030000FC
