S00A000074502E7372656356
S11300000C9434000C9451000C9451000C94510045
S11300100C9451000C9451000C9451000C94510018
S11300200C9451000C9451000C9451000C94510008
S11300300C9451000C9451000C9451000C945100F8
S11300400C9451000C9451000C9451000C945100E8
S11300500C9451000C9451000C9451000C945100D8
S11300600C9451000C94510011241FBECFEFD8E022
S1130070DEBFCDBF11E0A0E0B1E0EAEDFEE002C0DA
S113008005900D92A032B107D9F721E0A0E2B1E0CA
S113009001C01D92A032B207E1F70E9453000C94F4
S11300A06B070C940000CF93DF93CDB7DEB7609756
S11300B00FB6F894DEBF0FBECDBF0E94AE010E9402
S11300C02F029F938F9380E091E09F938F938E01F3
S11300D00F5F1F4F1F930F930E94810483E091E0F1
S11300E00E94A902C8010E94A9020F900F900F90CC
S11300F00F900F900F90E1CF94EA9093BC009091F1
S1130100BC009923E4F79091B9009B7F983009F0E3
S113011057C090E99093BB0094E89093BC009091F1
S1130120BC009923E4F79091B9009B7F983109F0C2
S113013047C08093BB0084E88093BC008091BC00DE
S11301408823E4F78091B9008B7F8832C9F584EA6B
S11301508093BC008091BC008823E4F78091B900AF
S11301608B7F803169F581E98093BB0084E88093BB
S1130170BC008091BC008823E4F78091B9008B7F98
S11301808034F1F415C02115310521F484E88093FD
S1130190BC0003C084EC8093BC008091BC00882325
S11301A0E4F78091BB00FB018083A9016F5F7F4F5F
S11301B09A0121503109452B31F784E98093BC0021
S11301C0089594EA9093BC009091BC009923E4F7BD
S11301D09091B9009B7F9830D1F590E99093BB0042
S11301E094E89093BC009091BC009923E4F790911B
S11301F0B9009B7F983159F58093BB0084E88093C4
S1130200BC008091BC008823E4F78091B9008B7F07
S11302108832E9F414C0FB013196DB018C918093A0
S1130220BB0084E88093BC008091BC008823E4F781
S11302308091B900A9018B7F883249F4BF019A01EA
S113024021503109452B39F784E98093BC00089586
S11302501F93CF93DF931F92CDB7DEB7182F41E0E2
S113026050E0BE016F5F7F4F81E00E947C00898176
S1130270282F2F7930E2139FC0011124822B898308
S113028041E050E0BE016F5F7F4F81E00E94E100DA
S11302900F90DF91CF911F9108951F93CF93DF9318
S11302A01F92CDB7DEB7182F41E050E0BE016F5F5B
S11302B07F4F81E00E947C0089818E7F182B1983F7
S11302C041E050E0BE016F5F7F4F81E00E94E1009A
S11302D00F90DF91CF911F910895EF92FF921F939A
S11302E0CF93DF9300D0CDB7DEB742E050E0BE013C
S11302F06F5F7F4F80E00E947C00E980FA80B70145
S1130300772780E090E00E9460031F2DF7FE06C06F
S113031020E030E040E05FE30E94BE0216FF06C02A
S113032020E030E040E85EE30E94BE0215FF06C014
S113033020E030E040E05EE30E94BE0214FF06C00D
S113034020E030E040E85DE30E94BE020F900F9091
S1130350DF91CF911F91FF90EF9008958F929F921C
S1130360AF92BF92CF92DF92EF92FF920F931F93BF
S1130370CF93DF93CDB7DEB7AA970FB6F894DEBF5D
S11303800FBECDBF0E94960283E00E94280180E048
S11303900E944D010E946D014B015C010E942A03E1
S11303A06B017C01072E000C880B990B0E946203E1
S11303B09B01AC01C501B4010E94BD0220E030E400
S11303C04CE156E40E94EE030E942A039B0177232A
S11303D024F422273327261B370B3F932F93DF92D6
S11303E0CF928AE091E09F938F938E010F5F1F4F0E
S11303F01F930F930E94810482E191E00E94A9025D
S1130400C8010E94A9020E94B602C8010E945B04AE
S11304109F938F9380E091E09F938F93005E1F4F93
S11304201F930F930E948104C8010E94A9020FB672
S1130430F894DEBF0FBECDBFAA960FB6F894DEBF08
S11304400FBECDBFDF91CF911F910F91FF90EF9021
S1130450DF90CF90BF90AF909F908F9008958F9230
S11304609F92AF92BF92CF92DF92EF92FF920F933F
S11304701F93CF93DF93CDB7DEB7A0970FB6F89451
S1130480DEBF0FBECDBF83E00E94280180E00E9442
S11304904D010E946D014B015C010E942A036B0116
S11304A07C01072E000C880B990B0E9462039B01B0
S11304B0AC01C501B4010E94BD0220E030E44CE16E
S11304C056E40E94EE030E942A039B01772324F43E
S11304D022273327261B370B3F932F93DF92CF928C
S11304E08AE091E09F938F938E010F5F1F4F1F93BC
S11304F00F930E948104C8010E945B040FB6F89414
S1130500DEBF0FBECDBFA0960FB6F894DEBF0FBE00
S1130510CDBFDF91CF911F910F91FF90EF90DF90AE
S1130520CF90BF90AF909F908F9008951092C50088
S113053087E68093C40088E18093C10086E08093BD
S1130540C20008959091C00095FFFCCF8093C6002F
S11305500895CF93DF93EC0103C00E94A202219679
S113056088818111FACFDF91CF9108958DE00E94A7
S1130570A2028AE00E94A20208955058BB27AA272B
S11305800E94D5020C94B4030E94A60338F00E9482
S1130590AD0320F039F49F3F19F426F40C94A3031F
S11305A00EF4E095E7FB0C949D03E92F0E94C5032C
S11305B058F3BA17620773078407950720F079F494
S11305C0A6F50C94E7030EF4E0950B2EBA2FA02D9C
S11305D00B01B90190010C01CA01A0011124FF27EC
S11305E0591B99F0593F50F4503E68F11A16F040E7
S11305F0A22F232F342F4427585FF3CF46953795E6
S11306002795A795F0405395C9F77EF41F16BA0BAA
S1130610620B730B840BBAF09150A1F0FF0FBB1F58
S1130620661F771F881FC2F70EC0BA0F621F731FA1
S1130630841F48F4879577956795B795F7959E3FFE
S113064008F0B0CF9395880F08F09927EE0F97958F
S1130650879508950E9431036894B1110C94E803BE
S113066008950E94CD0388F09F5798F0B92F9927D9
S1130670B751B0F0E1F0660F771F881F991F1AF089
S1130680BA95C9F714C0B13091F00E94E703B1E004
S113069008950C94E703672F782F8827B85F39F003
S11306A0B93FCCF3869577956795B395D9F73EF422
S11306B090958095709561957F4F8F4F9F4F0895CA
S11306C0E89409C097FB3EF49095809570956195E8
S11306D07F4F8F4F9F4F9923A9F0F92F96E9BB279E
S11306E09395F695879577956795B795F111F8CF1A
S11306F0FAF4BB0F11F460FF1BC06F5F7F4F8F4F85
S11307009F4F16C0882311F096E911C0772321F07A
S11307109EE8872F762F05C0662371F096E8862F12
S113072070E060E02AF09A95660F771F881FDAF769
S1130730880F9695879597F9089597F99F6780E8AC
S113074070E060E008959FEF80EC089500240A941F
S11307501616170618060906089500240A94121698
S11307601306140605060895092E0394000C11F4CB
S1130770882352F0BB0F40F4BF2B11F460FF04C078
S11307806F5F7F4F8F4F9F4F089557FD9058440FD1
S1130790551F59F05F3F71F04795880F97FB991FDC
S11307A061F09F3F79F08795089512161306140699
S11307B0551FF2CF4695F1DF08C016161706180626
S11307C0991FF1CF86957105610508940895E89401
S11307D0BB2766277727CB0197F908950E94010468
S11307E00C94B4030E94A60338F00E94AD0320F0D9
S11307F0952311F00C949D030C94A30311240C94E1
S1130800E8030E94C50370F3959FC1F3950F50E070
S1130810551F629FF001729FBB27F00DB11D639FAE
S1130820AA27F00DB11DAA1F649F6627B00DA11D54
S1130830661F829F2227B00DA11D621F739FB00DFA
S1130840A11D621F839FA00D611D221F749F33276A
S1130850A00D611D231F849F600D211D822F762F03
S11308606A2F11249F5750409AF0F1F088234AF0E0
S1130870EE0FFF1FBB1F661F771F881F915050404C
S1130880A9F79E3F510580F00C949D030C94E80356
S11308905F3FE4F3983ED4F3869577956795B795D3
S11308A0F795E7959F5FC1F7FE2B880F911D9695ED
S11308B0879597F90895FC0188279927E894219151
S11308C02032E9F3293010F02E30C8F32B3241F0F6
S11308D02D3239F4689404C00E947904820F911D6A
S11308E0219120532A30C0F31EF4909581959F4F97
S11308F008957AE0979F902D879F802D910D112464
S11309000895AEE0B0E0E7E8F4E00C9442070D8906
S11309101E8986E08C831A8309838FEF9FE79E8369
S11309208D83AE01475E5F4F6F89788DCE0101964E
S11309300E94A304EF81F885E00FF11F10822E9628
S1130940E4E00C945E07ABE0B0E0E9EAF4E00C9478
S113095034076C017B018A01FC01178216828381B2
S113096081FFCCC1CE0101963C01F6019381F701D0
S113097093FD859193FF81917F01882309F4BAC186
S1130980853239F493FD859193FF81917F018532FE
S113099029F4B60190E00E949A06E7CF912C212C0D
S11309A0312CFFE1F315D8F08B3279F038F4803232
S11309B079F08332A1F4232D20611DC08D3261F0C2
S11309C0803369F4232D216016C0832D8260382E74
S11309D0E32DE4603E2E2AC0F32DF8601DC037FCE1
S11309E02DC020ED280F2A3040F08E32B9F436FCA9
S11309F081C1232D2064322E19C036FE06C08AE040
S1130A00989E200D1124922E11C0EAE02E9E200DF6
S1130A101124222EF32DF0623F2E08C08C3621F4CF
S1130A20832D8068382E02C0883641F4F70193FD87
S1130A30859193FF81917F018111B3CF982F9F7D81
S1130A409554933028F40C5F1F4F9FE399830DC096
S1130A50833631F0833771F0833509F059C021C0F2
S1130A60F801808189830E5F1F4F88248394912C21
S1130A70530113C02801F2E04F0E511CF801A0806D
S1130A80B18036FE03C0692D70E002C06FEF7FEFC6
S1130A90C5010E948F064C018201F32DFF773F2E82
S1130AA016C0280122E0420E511CF801A080B1803A
S1130AB036FE03C0692D70E002C06FEF7FEFC50101
S1130AC00E9484064C01F32DF0683F2E820133FC12
S1130AD01BC0822D90E088169906B0F4B60180E21E
S1130AE090E00E949A062A94F4CFF50137FC859190
S1130AF037FE81915F01B60190E00E949A062110B1
S1130B002A9421E0821A91088114910471F7E8C0B3
S1130B10843611F0893641F5F80137FE07C060814B
S1130B207181828193810C5F1F4F08C06081718144
S1130B30072E000C880B990B0E5F1F4FF32DFF76C9
S1130B403F2E97FF09C090958095709561957F4FD2
S1130B508F4F9F4FF0683F2E2AE030E0A3010E94A0
S1130B60D606882E861845C0853731F4232D2F7E6E
S1130B70B22E2AE030E025C0932D997FB92E8F360E
S1130B80C1F018F4883579F0B5C0803719F088378A
S1130B9021F0B0C0E92FE061BE2EB4FE0DC0FB2DE4
S1130BA0F460BF2E09C034FE0AC0292F2660B22E7D
S1130BB006C028E030E005C020E130E002C020E1BA
S1130BC032E0F801B7FE07C06081718182819381B0
S1130BD00C5F1F4F06C06081718180E090E00E5F62
S1130BE01F4FA3010E94D606882E8618FB2DFF777F
S1130BF03F2E36FE0DC0232D2E7FA22E891458F4CD
S1130C0034FE0BC032FC09C0832D8E7EA82E05C095
S1130C10B82CA32C03C0B82C01C0B92CA4FE0FC05F
S1130C20FE01E80DF11D8081803321F49A2D997E17
S1130C30A92E09C0A2FE06C0B394B39404C08A2DA1
S1130C40867809F0B394A3FC11C0A0FE06C0B214C8
S1130C5088F4280C922C9B180EC0B21460F4B601D0
S1130C6080E290E00E949A06B394F7CFB21418F48D
S1130C702B1802C0982C212CA4FE10C0B60180E3CE
S1130C8090E00E949A06A2FE17C0A1FC03C088E768
S1130C9090E002C088E590E0B6010CC08A2D867809
S1130CA059F0A1FE02C08BE201C080E2A7FC8DE2F4
S1130CB0B60190E00E949A06891438F4B60180E3E4
S1130CC090E00E949A069A94F7CF8A94F301E80D73
S1130CD0F11D8081B60190E00E949A068110F5CF43
S1130CE0222009F442CEB60180E290E00E949A06E6
S1130CF02A94F6CFF6018681978102C08FEF9FEF89
S1130D002B96E2E10C945007FC0105906150704071
S1130D100110D8F7809590958E0F9F1F0895FC01C0
S1130D206150704001900110D8F7809590958E0F16
S1130D309F1F08950F931F93CF93DF93FB0123818C
S1130D4021FD03C08FEF9FEF2CC022FF16C0468108
S1130D505781248135814217530744F4A081B1811E
S1130D609D012F5F3F4F318320838C9326813781F0
S1130D702F5F3F4F3783268314C08B01EC01FB01A7
S1130D800084F185E02D0995892BE1F6D8011696AA
S1130D908D919C911797019617969C938E93169715
S1130DA0CE01DF91CF911F910F910895FA01AA27E7
S1130DB0283051F1203181F1E8946F936E7F6E5F9A
S1130DC07F4F8F4F9F4FAF4FB1E03ED0B4E03CD048
S1130DD0670F781F891F9A1FA11D680F791F8A1F2B
S1130DE0911DA11D6A0F711D811D911DA11D20D092
S1130DF009F468943F912AE0269F11243019305D4C
S1130E003193DEF6CF010895462F4770405D41933C
S1130E10B3E00FD0C9F7F6CF462F4F70405D4A3389
S1130E2018F0495D31FD4052419302D0A9F7EACF51
S1130E30B4E0A6959795879577956795BA95C9F780
S1130E4000976105710508959B01AC010A2E069473
S1130E505795479537952795BA95C9F7620F731F2C
S1130E60841F951FA01D08952F923F924F925F9269
S1130E706F927F928F929F92AF92BF92CF92DF92A6
S1130E80EF92FF920F931F93CF93DF93CDB7DEB70B
S1130E90CA1BDB0B0FB6F894DEBF0FBECDBF09949F
S1130EA02A88398848885F846E847D848C849B84F6
S1130EB0AA84B984C884DF80EE80FD800C811B8104
S1130EC0AA81B981CE0FD11D0FB6F894DEBF0FBE33
S10D0ED0CDBFED010895F894FFCFA3
S1130EDA256400706570693A200025642E25303433
S1130EEA640054656D70657261747572613A2000AC
S9030000FC
