S00A000074502E7372656356
S11300000C94A2090C94BF090C94BF090C94BF0969
S11300100C94BF090C94BF090C94BF090C94BF093C
S11300200C94BF090C94BF090C94BF090C94651E71
S11300300C94BF090C94BF090C948B1E0C94BF093B
S11300400C94BF090C94BF090C94BF090C94BF090C
S11300500C94BF090C94BF090C94BF090C94BF09FC
S11300600C94BF090C94BF09141D331D3A1D411D86
S11300703B1E3B1E3B1E3B1E3B1E3B1E3B1E3B1EB4
S11300803B1E3B1E3B1E3B1E561D5F1D6A1D751D00
S1130090801D8B1D901D991DA21DA71DB01DC41D83
S11300A0B91D3B1ECD1DD61DE11DEA1DF31DFC1D12
S11300B0051E0C1E1D1E2E1E3B1E351E3E3EA1435C
S11300C0616D62696F20657869746F736F21213C7B
S11300D03C003D3D3D3D3D3D3D3D3D3D3D3D3D3D8A
S11300E03D3D3D3D3D3D3D3D3D3D3D3D3D3D3D3D3C
S11300F03D3D3D3D3D3D3D3D3D3D3D3D3D3D3D3D2C
S11301003D3D3D3D3D3D3D3D3D3D3D3D3D007C2036
S113011020A14154454E43494F4E213A20434F4C70
S11301204F515545204E554D45524F532044454E51
S113013054524F2044454C2052414E474F20504585
S1130140524D495449444F207C003D3D3D3D3D3D89
S11301503D3D3D3D3D3D3D3D3D3D3D3D3D3D3D3DCB
S11301603D3D3D3D3D3D3D3D3D3D3D3D3D3D3D3DBB
S11301703D3D3D3D3D3D3D3D3D3D3D3D3D3D3D3DAB
S11301803D3D3D3D3D0032292D2041707265746531
S1130190202732272068617374612076657220738A
S11301A0752063616D62696F207265666C656A6152
S11301B0646F0020736920656C206E756D65726FC5
S11301C0206DE178696D6F206573203130302079BE
S11301D02071756572656D6F7320706F6E65722026
S11301E032352D3E20273027202732272027352758
S11301F0200031292D20436F6C6F71756520636970
S113020066726120706F7220636966726120736523
S113021067756E2073656120656C206D6178696D0A
S11302206F2E20506F7220656A656D706C6F3A0096
S113023020506172612063616D62696172206C613A
S1130240207661726961626C652073696761206CF4
S11302506F73207369677569656E74652070617367
S11302606F733A003D3D3D3D3D3D3D3D3D3D3D3D92
S11302703D3D3D3D3D3D3D3D3D3D3D3D3D3D3D3DAA
S11302803D3D3D3D3D3D3D3D3D3D3D3D3D3D3D3D9A
S1130290007C20A14154454E43494F4E213A203120
S11302A03020434152414354455245532C20454E3E
S11302B0204D4159555343554C412E207C003D3D22
S11302C03D3D3D3D3D3D3D3D3D3D3D3D3D3D3D3D5A
S11302D03D3D3D3D3D3D3D3D3D3D3D3D3D3D3D3D4A
S11302E03D3D3D3D3D3D3D3D3D3D0033292D2041BE
S11302F070726574652027322720686173746120E9
S11303007665722073752063616D62696F20726512
S1130310666C656A61646F0032292D20436F6C6FCF
S113032071756520756E206775696F6E2062616AEC
S11303306F2028275F272920616C2066696E616C15
S11303400031292D20436F6C6F717565206C6574C5
S1130350726120706F72206C6574726120656C200C
S11303606E7565766F206E6F6D62726500205061E8
S113037072612063616D62696172206465206E6FD1
S11303806D62726520756E612062656269646120C8
S113039073696761206C6F73207369677569656E33
S11303A0746573207061736F733A0020572D203287
S11303B030204C0020562D203130204C003E3E533E
S11303C0656C656363696F6E6520656C206E756529
S11303D0766F20766F6C756D656E207072657369CB
S11303E06F6E616E646F20756E6120646520657345
S11303F0746173206C65747261733A0020552D54D6
S1130400616D61F16F206465204269646F6E20281C
S11304103130204C202D3230204C29203D002054F6
S11304202D506F7263656E74616A65206465205433
S11304306465736361726761204265626964612007
S11304403420283520612032352529203D002053D1
S11304502D506F7263656E74616A65206465205403
S113046064657363617267612042656269646120D7
S11304703320283520612032352529203D002052A3
S11304802D506F7263656E74616A652064652054D3
S113049064657363617267612042656269646120A7
S11304A03220283520612032352529203D00205175
S11304B02D506F7263656E74616A652064652054A3
S11304C06465736361726761204265626964612077
S11304D03120283520612032352529203D00205047
S11304E02D43616E7469646164206465206167757D
S11304F0612043616C69656E74652042656269645C
S11305006120342028313530206120333030206D93
S11305104C29203D00204F2D43616E746964616451
S113052020646520616775612043616C69656E7440
S113053065204265626964612033202831353020AA
S11305406120333030206D4C29203D00204E2D4356
S1130550616E7469646164206465206167756120FB
S113056043616C69656E74652042656269646120EB
S1130570322028313530206120333030206D4C2931
S1130580203D00204D2D43616E74696461642064D4
S11305906520616775612043616C69656E746520CF
S11305A04265626964612031202831353020612040
S11305B0333030206D4C29203D00204B2D43616E9B
S11305C07469646164206465207072656D657A6322
S11305D06C612042656269646120342028302061A6
S11305E020343230206D4C29203D00204A2D4361B7
S11305F06E7469646164206465207072656D657AE7
S1130600636C612042656269646120332028302074
S11306106120343230206D4C29203D0020492D4387
S1130620616E7469646164206465207072656D65CF
S11306307A636C61204265626964612032202830EB
S1130640206120343230206D4C29203D0020482D7B
S113065043616E7469646164206465207072656DC1
S1130660657A636C61204265626964612031202887
S113067030206120343230206D4C29203D00204749
S11306802D436F6E7374616E74652050726F706F5A
S11306907263696F6E616C20274B70273A002045A6
S11306A02D4E6F6D627265206465206C6120426519
S11306B06269646120342028313020636172E1630F
S11306C0746572657329203D0020442D4E6F6D6260
S11306D07265206465206C612042656269646120F2
S11306E0332028313020636172E16374657265736D
S11306F029203D0020432D4E6F6D62726520646594
S1130700206C6120426562696461203220283130A6
S113071020636172E163746572657329203D002072
S1130720422D4E6F6D627265206465206C612042BB
S1130730656269646120312028313020636172E18F
S113074063746572657329203D0020412D54656DE5
S1130750706572617475726120446573656164616A
S1130760202836302D3935292A43203D00343434AD
S11307703636363636363636363434352020202072
S113078020202020203330303036303030202020DC
S11307902020202020202020202020202035303020
S11307A03030303030303030303030303030002085
S11307B0202030303030303030303620202020209F
S11307C0202020202020202039303020383030369E
S11307D0202020202020203730303030303030307E
S11307E03030303030303030303030303030303005
S11307F0300020202030303030303030303920206C
S1130800202020202020202020202039303020309B
S113081030303032203530303030303030303030DD
S113082030303030303030303030303030303030C4
S11308303030303030002020203030303030303014
S11308403030322020202020202020202020203959
S11308503030303030303030303030303030303094
S11308603030303030303030303030303030303084
S113087030303030303030303000202020303030D4
S113088030303030303920203920202020202020E2
S11308902020203030303030303030303030303084
S11308A03030303030303030303030303030303044
S11308B03030303030303030303030303030002074
S11308C0202030303030303030303033372020206A
S11308D0202020202020203630303030303030307E
S11308E03030303030303030303030303030303004
S11308F030303030303030303030303030303030F4
S113090030303000202020202031202031202020B1
S1130910202020202020202020202039303030307A
S113092030303030303030303030303030303030C3
S113093030303030303030303030303030303030B3
S11309403030303030303030002020202020203132
S11309502020312020202020202020202020202082
S11309603030303030303030303030303030303083
S11309703030303030303030303030303030303073
S113098030303030303030303030303030002020B3
S11309902020203120203120202020202020202031
S11309A0202020203930303030303030303030307A
S11309B03030303030303030303030303030303033
S11309C03030303030303030303030303030303023
S11309D03000202020202020202020202020202023
S11309E0202020202020202039303030303030307A
S11309F030303030303030303030303030303030F3
S1130A0030303030303030303030303030303030E2
S1130A1030303030002020202020202020202020B2
S1130A202020202020202020203030303030303052
S1130A3030303030303030303030303030303030B2
S1130A4030303030303030303030303030303030A2
S1130A503030303030002020202020202020202062
S1130A602020202020202020203130303030303011
S1130A703030303030303030303030303030303072
S1130A803030303030303030303030303030303062
S1130A903030303031202020202020202020202001
S1130AA0202020434F4E534F4C4100202020202033
S1130AB020202020202020202020203030303030E2
S1130AC03030303030303030303030303030303022
S1130AD03030303030303030303030303030303012
S1130AE0303030303030303620202020202020207C
S1130AF0202020205554494C494345204553544116
S1130B0020202000202020202020202020202038E9
S1130B1030303030303030303030303030303030D1
S1130B2030303030303030303030303030303030C1
S1130B3030303030303030303030303030303120C0
S1130B40202020202050415241204D4F4449464905
S1130B50434152204553544F53202000202020204D
S1130B6020202020202030303030303030303030E1
S1130B703030303030303030303030303030303071
S1130B803030303030303030303030303030303061
S1130B90303420202020202043414E5449444144F5
S1130BA0204445205052454D455A434C412C455410
S1130BB043202000202020202020202020373030F7
S1130BC03030303030303030303030303030303021
S1130BD03030303030303030303030303020202041
S1130BE02020202020202020202020205055454453
S1130BF0454E20434F4E54524F4C41522054454D84
S1130C0050455241545552412C2000202020202090
S1130C10202020203430303030303030303030300C
S1130C2030303030303030303030303030303030C0
S1130C302020202020202020202020202027434165
S1130C404645544552412720455320554E20505285
S1130C504F594543544F20444F4E4445205345205B
S1130C600020202020202020202030303030203848
S1130C703030303030303030303030303030303070
S1130C80303030002020202020202020203430301C
S1130C90303030303030303030202033303030306D
S1130CA0303030352020202020204E4F4D425245F8
S1130CB03A20464142524943494F2044415649440F
S1130CC02047414C4C4F0020202020202020202071
S1130CD0202020343030303030303030303030303C
S1130CE030303030372020202020202020202020A9
S1130CF020202020202020202020202020202020F0
S1130D0020202020204C4943204A554C49414E2064
S1130D104D494E4154454C002020202020202020C5
S1130D20202020202020203132333238303030301F
S1130D30303030302020202020202020202020206F
S1130D40202020202020202050524F4645534F522F
S1130D5045533A20494E47204544554152444F207B
S1130D6056454C415A5155455A00202020202020F8
S1130D702020202020202020202020202020393046
S1130D8020203430302020202020545046492E2E5C
S1130D902E20434154454452413A202020205349B7
S1130DA05354454D4153204449474954414C4553BC
S1130DB0204956003D3D3D3D3D3D3D3D3D3D3D3D94
S1130DC03D3D3D3D3D3D3D3D3D3D3D3E3E007C2068
S1130DD04D45444943494F4E4553204143545541A1
S1130DE04C4553207C3E3E003D3D3D3D3D3D3D3D1B
S1130DF03D3D3D3D3D3D3D3D3D3D3D3D3D3D3D3E1E
S1130E003E003E3E203420436F6E66696775726112
S1130E1072003E3E2033204461746F732064656C1D
S1130E202050726F796563746F003E3E2032205605
S1130E30657220636F6E66696775726163696F6E50
S1130E406573003E3E203120566572204D6564690D
S1130E5063696F6E657300202B585858585858585A
S1130E602020202058582B202020585858585858B3
S1130E70582B20202B58782020207858583A2020AE
S1130E8020202B5858585820202020207858585873
S1130E905858587820203A58582020203B58582B2E
S1130EA020202058583B202020585858585858582B
S1130EB02B2020202078585858585878202000207B
S1130EC02B585820202058585820202058582B2080
S1130ED0202058582B202020202020202B587820F8
S1130EE0203A5858583A2020202078585858582EDC
S1130EF020202020785878202020202020203A58B4
S1130F005820202E5858582B20202058583B202059
S1130F102058582B20203B58583A20202B58582E24
S1130F20202E58582B2000202B58582020202B5896
S1130F30582E202058582B20202058582B20202071
S1130F40202020202B58782020785858583A2020E8
S1130F50202058582B58582B2020202078587820AF
S1130F602020202020203A585820202B5858582B35
S1130F7020202058583B20202058582B20203A5815
S1130F80583B20207858582020205858782000209A
S1130F902B585820202058585820202058582B20AF
S1130FA0202058582B202020202020202B58782027
S1130FB03A585858583A2020203B58583A3B5858E9
S1130FC020202020785878202020202020203A58E3
S1130FD0582020585858582B20202058583B20205F
S1130FE02058582B20203A58583B20207858582015
S1130FF020205858782000202B5858585858587892
S11310002020202058582B20202058585858585811
S11310103B2020202B58782078583B58583A2020E1
S113102020585858202058583A202020785858588A
S11310305858782020203A58582078582B58582B44
S113104020202058583B20202058582B20203A5844
S1131050583B2020785858202020585878200020C9
S11310602B58582E203B58583A20202058582B20D3
S1131070202058582B202020202020202B58783A3C
S113108058782058583A20202058582B2020585857
S11310903B202020785878202020202020203A58F7
S11310A0582058582058582B20202058583B20208E
S11310B02058582B20203A58583B20207858582044
S11310C020205858782000202B5858202020585889
S11310D07820202058582B20202058582B202020BE
S11310E0202020202B585858583A2058583A20206D
S11310F03A58583A20207858782020207858782078
S11311002020202020203A585858583B2058582B4B
S113111020202058583B20202058582B20203A5873
S1131120583B2020785858202020585878200020F8
S11311302B58582E203B58587820202058582B20C4
S1131140202058582B202020202020202B5858586D
S113115078202058583A20202B58582E20203A58CE
S1131160582E2020785878202020202020203A58FB
S1131170585858202058582B20202058583B2020BD
S11311802058582B20202B58582E20202B58582ECE
S1131190203A58582B00202B585858585858782023
S11311A020202058582B2020205858585858585838
S11311B02B20202B58585820202058583A202058AB
S11311C058782020202058583B20207858585858C8
S11311D058587820203A5858583A202058582B20EC
S11311E0202058583B202020585858585858583ACE
S11311F0202020207858585858587820003E3E4ED9
S11312006976656C6573206465206C6C656E6164D9
S11312106F206465206C6F7320646F736966696303
S113122061646F726573206465207072656D657AA0
S1131230636C612028656E2025293A003E3E426990
S1131240646F6E3A00206D4C002D566F6C756D65A1
S11312506E3A00202A43002D54656D7065726174E6
S11312607572613A003E3E506F72206661766F720D
S11312702C20696E74656E74656C6F206E7565766E
S1131280616D656E7465206DE173207461726465CF
S11312902E20414345505441523A204170726574A6
S11312A0652058003E3E4552524F523A204C412050
S11312B043414E54494441442050524F50554553A4
S11312C0544120455354C12046554552412044457C
S11312D02052414E474F204F20454E20464F524DFD
S11312E041544F204552524F4E454F003E3E4170AF
S11312F0726574652058207061726120766F6C7617
S1131300657220616C206D656E7520696E69636914
S1131310616C003E3E53656C656363696F6E652066
S1131320616C67756E61206465206C617320616E09
S1131330746572696F726573206F7063696F6E652F
S11313407320000011241FBECFEFD8E0DEBFCDBF55
S113135013E0A0E0B1E0EAE7F8E402C005900D92E2
S1131360AA38B107D9F723E0AAE8B3E001C01D9277
S1131370AE3EB207E1F70E94421E0C943B240C944B
S11313800000ECE7F0E080818064808380818F7DC1
S11313908083EAE7F0E080818760808380818068D1
S11313A080830895ECE7F0E09081907F90839081B2
S11313B0892B8083EAE7F0E08081806480838091D8
S11313C07A0086FDFCCF089507C025E137EC3A95F5
S11313D0F1F72A95E1F701979923BCF70895CF9285
S11313E0DF92EF92FF92CF93DF9343E050E061ED01
S11313F073E088E191E00E94C50E81ED93E00E94C4
S11314002B2190938B0380938A03BC01990F880B43
S1131410990B0E942C2020E030E040E751E40E9428
S1131420821F20E030E04AE754E40E94B8200E9482
S1131430F41F7093A4036093A30381E090E00E94DF
S11314400E138091A3039091A4030E94E40944E045
S113145050E061ED73E084E690E00E94C50E81EDFA
S113146093E00E942B2190938B0380938A03BC0109
S1131470990F880B990B0E942C2020E030E048EC57
S113148051E40E94821F20E030E04AE754E40E94C5
S1131490B8200E94F41F7093A2036093A10380E11B
S11314A090E00E940E138091A1039091A2030E94E8
S11314B0E40944E050E061ED73E08CE890E00E94C0
S11314C0C50E81ED93E00E942B21EC0190938B03D8
S11314D080938A036091A1037091A203072E000CEC
S11314E0880B990B0E942C206B017C01BE01DD0F3F
S11314F0880B990B0E942C2020E030E048EC52E449
S11315000E94821F20E030E040E85FE30E94161F43
S11315109B01AC01C701B6010E94B8200E94F41FD0
S11315207093A6036093A50380E091E00E940E13DC
S11315308091A5039091A6030E94E4090E942413BC
S1131540DF91CF91FF90EF90DF90CF900895CF92ED
S1131550DF92EF92FF92CF93DF9343E050E061ED8F
S113156073E086E490E00E94C50E81ED93E00E9452
S11315702B2190938B0380938A03BC01990F880BD2
S1131580990B0E942C2020E030E040E751E40E94B7
S1131590821F20E030E04AE754E40E94B8200E9411
S11315A0F41F7093A4036093A30382E090E00E946D
S11315B00E138091A3039091A4030E94E40944E0D4
S11315C050E061ED73E08EE690E00E94C50E81ED7F
S11315D093E00E942B2190938B0380938A03BC0198
S11315E0990F880B990B0E942C2020E030E048ECE6
S11315F051E40E94821F20E030E04AE754E40E9454
S1131600B8200E94F41F7093A2036093A10380E2A8
S113161090E00E940E138091A1039091A2030E9476
S1131620E40944E050E061ED73E081E990E00E9458
S1131630C50E81ED93E00E942B21EC0190938B0366
S113164080938A036091A1037091A203072E000C7A
S1131650880B990B0E942C206B017C01BE01DD0FCD
S1131660880B990B0E942C2020E030E048EC52E4D7
S11316700E94821F20E030E040E85FE30E94161FD2
S11316809B01AC01C701B6010E94B8200E94F41F5F
S11316907093A6036093A50380E092E00E940E136A
S11316A08091A5039091A6030E94E4090E9424134B
S11316B0DF91CF91FF90EF90DF90CF900895CF927C
S11316C0DF92EF92FF92CF93DF9343E050E061ED1E
S11316D073E080E590E00E94C50E81ED93E00E94E6
S11316E02B2190938B0380938A03BC01990F880B61
S11316F0990B0E942C2020E030E040E751E40E9446
S1131700821F20E030E04AE754E40E94B8200E949F
S1131710F41F7093A4036093A30384E090E00E94F9
S11317200E138091A3039091A4030E94E40944E062
S113173050E061ED73E084E690E00E94C50E81ED17
S113174093E00E942B2190938B0380938A03BC0126
S1131750990F880B990B0E942C2020E030E048EC74
S113176051E40E94821F20E030E04AE754E40E94E2
S1131770B8200E94F41F7093A2036093A10380E435
S113178090E00E940E138091A1039091A2030E9405
S1131790E40944E050E061ED73E086E990E00E94E2
S11317A0C50E81ED93E00E942B21EC0190938B03F5
S11317B080938A036091A1037091A203072E000C09
S11317C0880B990B0E942C206B017C01BE01DD0F5C
S11317D0880B990B0E942C2020E030E048EC52E466
S11317E00E94821F20E030E040E85FE30E94161F61
S11317F09B01AC01C701B6010E94B8200E94F41FEE
S11318007093A6036093A50380E094E00E940E13F6
S11318108091A5039091A6030E94E4090E942413D9
S1131820DF91CF91FF90EF90DF90CF900895CF920A
S1131830DF92EF92FF92CF93DF9343E050E061EDAC
S113184073E08AE590E00E94C50E81ED93E00E946A
S11318502B2190938B0380938A03BC01990F880BEF
S1131860990B0E942C2020E030E040E751E40E94D4
S1131870821F20E030E04AE754E40E94B8200E942E
S1131880F41F7093A4036093A30388E090E00E9484
S11318900E138091A3039091A4030E94E40944E0F1
S11318A050E061ED73E082E890E00E94C50E81EDA6
S11318B093E00E942B2190938B0380938A03BC01B5
S11318C0990F880B990B0E942C2020E030E048EC03
S11318D051E40E94821F20E030E04AE754E40E9471
S11318E0B8200E94F41F7093A2036093A10380E8C0
S11318F090E00E940E138091A1039091A2030E9494
S1131900E40944E050E061ED73E08BE990E00E946B
S1131910C50E81ED93E00E942B21EC0190938B0383
S113192080938A036091A1037091A203072E000C97
S1131930880B990B0E942C206B017C01BE01DD0FEA
S1131940880B990B0E942C2020E030E048EC52E4F4
S11319500E94821F20E030E040E85FE30E94161FEF
S11319609B01AC01C701B6010E94B8200E94F41F7C
S11319707093A6036093A50380E098E00E940E1381
S11319808091A5039091A6030E94E4090E94241368
S1131990DF91CF91FF90EF90DF90CF900895823048
S11319A0910569F01CF4019739F00895833091058D
S11319B049F0049751F008950E94EF0908950E9498
S11319C0A70A08950E945F0B08950E94170C0895BA
S11319D0883121E0920759F18634910551F180351F
S11319E0910549F18A35910541F18436910539F122
S11319F08E36910531F18837910529F182389105A8
S1131A0021F18C38910519F18139910511F186394B
S1131A10910509F18B39910501F1803A9105F9F0AD
S1131A208A3A9105F1F0843B9105E9F0089584E444
S1131A30089584E4089584E4089584E4089581E491
S1131A40089581E4089581E4089581E4089580E58A
S1131A50089580E5089580E5089580E5089586E574
S1131A6008958BE4089584E50895EF92FF921F93FF
S1131A70CF93DF9300D01F92CDB7DEB77C010E94D5
S1131A80AE1710928B0310928A030E94F01389837D
S1131A9081E090E090938B0380938A030E94F0137B
S1131AA08A831B82C7010E94E80C182F843591F4A5
S1131AB0CE0101960E942B21803691054CF4CC97DF
S1131AC03CF0BE016F5F7F4FC7010E948B0E02C0C6
S1131AD00E949F171B3479F4CE0101960E942B219A
S1131AE0892B39F0BE016F5F7F4FC7010E948B0EB7
S1131AF002C00E949F17103591F4CE0101960E94F6
S1131B002B218A3191054CF405973CF0BE016F5F9F
S1131B107F4FC7010E948B0E02C00E949F170F9037
S1131B200F900F90DF91CF911F91FF90EF90089548
S1131B300F931F93CF93DF93CDB7DEB72B970FB6D9
S1131B40F894DEBF0FBECDBF8C0110928B031092B0
S1131B508A030E94F013898381E090E090938B03C1
S1131B6080938A030E94F0138A8382E090E090932A
S1131B708B0380938A030E94F0138B8383E090E0AD
S1131B8090938B0380938A030E94F0138C8384E0E8
S1131B9090E090938B0380938A030E94F0138D83CB
S1131BA085E090E090938B0380938A030E94F01366
S1131BB08E8386E090E090938B0380938A030E9447
S1131BC0F0138F8387E090E090938B0380938A03D4
S1131BD00E94F013888788E090E090938B038093B1
S1131BE08A030E94F013898789E090E090938B0325
S1131BF080938A030E94F0138A871C86BE016F5F5C
S1131C007F4FC8010E948B0E8CEB90E00E94FB1367
S1131C100E94DF132B960FB6F894DEBF0FBECDBF24
S1131C20DF91CF911F910F910895EF92FF921F932F
S1131C30CF93DF9300D000D0CDB7DEB77C010E94F4
S1131C40AE1710928B0310928A030E94F0138983BB
S1131C5081E090E090938B0380938A030E94F013B9
S1131C608A8382E090E090938B0380938A030E949E
S1131C70F0138B831C82C7010E94E80C182F843454
S1131C8099F4CE0101960E942B21853A21E0920716
S1131C904CF499233CF0BE016F5F7F4FC7010E9453
S1131CA08B0E02C00E949F171134A1F4CE0101963D
S1131CB00E942B218D3221E0920754F4863991053C
S1131CC03CF0BE016F5F7F4FC7010E948B0E02C0C4
S1131CD00E949F170F900F900F900F90DF91CF915C
S1131CE01F91FF90EF900895F894F999FECF92BD5B
S1131CF081BD60BD8FB384608FBB8FB382608FBBA7
S1131D0078940895F999FECF92BD81BD8FB3816017
S1131D108FBB80B50895AF92BF92CF92DF92EF92BE
S1131D20FF920F931F93CF93DF936C015B01C0E08D
S1131D30D0E00EC07E01EC0CFD1CC7010E94820E97
S1131D40F8016081861719F0C7010E94740E21966C
S1131D5085010C0F1D1FF80180818111EBCFCC0D83
S1131D60DD1DCE010E94820E882321F060E0CE01A9
S1131D700E94740EDF91CF911F910F91FF90EF900D
S1131D80DF90CF90BF90AF900895AF92BF92CF9263
S1131D90DF92EF92FF920F931F93CF93DF935C0137
S1131DA06B017A01C0E0D0E00BC086010C0F1D1F4F
S1131DB0CE018A0D9B1D0E94820EF801808321961C
S1131DC0CE15DF0590F3F601EE0DFF1D1082DF91B5
S1131DD0CF911F910F91FF90EF90DF90CF90BF9024
S1131DE0AF90089589E18093B8001092B9000895E6
S1131DF084EA8093BC008091BC008823E4F70895B2
S1131E008093BB0084E88093BC008091BC0088234D
S1131E10E4F7089584E98093BC008091BC0080FDC0
S1131E20FCCF0895EBEBF0E080818260808384E84E
S1131E308093BC008091BC008823E4F789EF90E094
S1131E400197F1F700C00000EBEBF0E080818D7F9B
S1131E50808384E88093BC008091BC008823E4F7ED
S1131E600895EBEBF0E090819E7F908394E890934B
S1131E70BC009091BC009923E4F7EBEBF0E0908177
S1131E809F70908394E89093BC009091BC00992338
S1131E90E4F7EBEBF0E09081807F892B808384E88A
S1131EA08093BC008091BC008823E4F70E94120F49
S1131EB00895CF93C82FEBEBF0E080818E7F808371
S1131EC084E88093BC008091BC008823E4F7EBEBAA
S1131ED0F0E080818F70808384E88093BC008091DF
S1131EE0BC008823E4F7EBEBF0E080819C2F907F2B
S1131EF0892B808384E88093BC008091BC00882374
S1131F00E4F70E94120FEBEBF0E080818F70808386
S1131F1084E88093BC008091BC008823E4F7EBEB59
S1131F20F0E0208130E1C39FC0011124822B808323
S1131F3084E88093BC008091BC008823E4F70E946D
S1131F40120FCF910895CF93C82FEBEBF0E080816F
S1131F508160808384E88093BC008091BC008823E6
S1131F60E4F7EBEBF0E080818F70808384E880936A
S1131F70BC008091BC008823E4F7EBEBF0E08081A7
S1131F809C2F907F892B808384E88093BC00809170
S1131F90BC008823E4F70E94120FEBEBF0E0808191
S1131FA08F70808384E88093BC008091BC00882378
S1131FB0E4F7EBEBF0E0208130E1C39FC001112492
S1131FC0822B808384E88093BC008091BC008823AA
S1131FD0E4F70E94120FCF9108950E94F20E0E941E
S1131FE0F80E80E40E94000F81EE94E00197F1F76F
S1131FF000C0000080E30E94310F81EE94E001975D
S1132000F1F700C0000080E30E94310F80E20E94DB
S1132010310F81EE94E00197F1F700C0000088E2EF
S11320200E94590F8CE00E94590F81E00E94590FC1
S113203086E00E94590F80E80E94590F0895CF93BB
S1132040DF93EC0103C021960E94A30F88818111C4
S1132050FACFDF91CF910895CF93DF93EC0180EC19
S11320600E94590F03C021960E94A30F88818111F9
S1132070FACFDF91CF91089581E00E94590F81E258
S11320808A95F1F7000080E80E94590F089585E0D1
S11320908093B800089584EA8093BC008091BC00CA
S11320A08823E4F708958093BB0084E88093BC0000
S11320B08091BC008823E4F7089584EC8093BC00ED
S11320C08091BC008823E4F78091BB0090E0A0E0FD
S11320D0B0E08093A8039093A903A093AA03B093BC
S11320E0AB0384EC8093BC008091BC008823E4F7AC
S11320F08091BB0090E0A0E0B0E08093B0039093A7
S1132100B103A093B203B093B30384E88093BC00FB
S11321108091BC008823E4F78091BB0090E0A0E0AC
S1132120B0E08093AC039093AD03A093AE03B0935F
S1132130AF03089584E98093BC0008950E944B1076
S113214080ED0E9453108CE10E9453100E949A105B
S11321500895CF93DF930E9447100E949E100E941F
S11321604B1081ED0E9453100E945D102091A80332
S113217080E090E0922F990F990FC091B003D09115
S1132180B103CC0FDD1FCC0FDD1FC82BD92B8091E1
S1132190AC039091AD03082E892F000C881F990B76
S11321A0000C881F991FC82BD92B22970E949A10C4
S11321B0CE01DF91CF910895CF92DF92EF92FF92FB
S11321C00F931F93CF93DF9300D01F92CDB7DEB749
S11321D00E94A9107C0142E050E0BE016F5F7F4F76
S11321E080EA90E00E94C50ECE0101960E942B2148
S11321F0BC01660F771F880F991F880F991F880FDE
S1132200991F8B01080F191FB701FF0C880B990B3D
S11322100E942C2020E030E040E050E40E94161F91
S113222020E030E04AE754E40E94B82020E030EE99
S11322304FEF54E40E94821F6B017C01B801110F1F
S1132240880B990B0E942C20A70196010E94B820AC
S11322500E94F41FCB010F900F900F90DF91CF914C
S11322601F910F91FF90EF90DF90CF90089594EA23
S11322709093BC009091BC009923E4F79091B9002D
S11322809B7F983009F057C090E99093BB0094E885
S11322909093BC009091BC009923E4F79091B9000D
S11322A09B7F983109F047C08093BB0084E88093FA
S11322B0BC008091BC008823E4F78091B9008B7F37
S11322C08832C9F584EA8093BC008091BC008823DD
S11322D0E4F78091B9008B7F803169F581E98093BF
S11322E0BB0084E88093BC008091BC008823E4F7A1
S11322F08091B9008B7F8034F1F415C0211531052C
S113230021F484E88093BC0003C084EC8093BC0077
S11323108091BC008823E4F78091BB00FB0180839B
S1132320A9016F5F7F4F9A0121503109452B31F785
S113233084E98093BC00089594EA9093BC00909142
S1132340BC009923E4F79091B9009B7F9830D1F5B4
S113235090E99093BB0094E89093BC009091BC00EA
S11323609923E4F79091B9009B7F983159F58093B4
S1132370BB0084E88093BC008091BC008823E4F710
S11323808091B9008B7F8832E9F414C0FB01319647
S1132390DB018C918093BB0084E88093BC00809126
S11323A0BC008823E4F78091B900A9018B7F8832AF
S11323B049F4BF019A0121503109452B39F784E9C9
S11323C08093BC0008951F93CF93DF931F92CDB7E2
S11323D0DEB7182F41E050E0BE016F5F7F4F81E010
S11323E00E9437118981282F2F7930E2139FC00171
S11323F01124822B898341E050E0BE016F5F7F4F3F
S113240081E00E949C110F90DF91CF911F9108955C
S11324101F93CF93DF931F92CDB7DEB7182F41E000
S113242050E0BE016F5F7F4F81E00E9437118981C8
S11324308E7F182B198341E050E0BE016F5F7F4F00
S113244081E00E949C110F90DF91CF911F9108951C
S1132450EF92FF921F93CF93DF9300D0CDB7DEB7F7
S113246042E050E0BE016F5F7F4F80E00E94371171
S1132470E980FA80B701772780E090E00E942A2063
S11324801F2DF7FE06C020E030E040E05FE30E942D
S1132490161F16FF06C020E030E040E85EE30E940D
S11324A0161F15FF06C020E030E040E05EE30E9406
S11324B0161F14FF06C020E030E040E85DE30E94F0
S11324C0161F0F900F90DF91CF911F91FF90EF9007
S11324D008958F929F92AF92BF92CF92DF92EF9224
S11324E0FF920F931F93CF93DF93CDB7DEB7AA97D5
S11324F00FB6F894DEBF0FBECDBF0E94BF1385EAAE
S11325009EE00197F1F700C0000083E00E94E31110
S113251085EA9EE00197F1F700C0000080E00E9488
S1132520081285EA9EE00197F1F700C0000001E07F
S113253010E03CC00E9428124B015C010E94F41F71
S11325406B017C01072E000C880B990B0E942C2038
S11325509B01AC01C501B4010E94151F20E030E4C9
S11325604CE156E40E94B8200E94F41F9B0177239B
S113257024F422273327261B370B3F932F93DF9214
S1132580CF928EE191E09F938F93CE0101969F931A
S11325908F930E94512185E391E00E94D2130F5F33
S11325A01F4F0FB6F894DEBF0FBECDBF0B3F110512
S11325B00CF285E391E00E94D213CE0101960E94B1
S11325C02B219F938F9386E391E09F938F938E01AA
S11325D00F5D1F4F1F930F930E945121C8010E944A
S11325E02B218C010E940A0F0F900F900F900F90D7
S11325F00F900F90C801AA960FB6F894DEBF0FBED5
S1132600CDBFDF91CF911F910F91FF90EF90DF909D
S1132610CF90BF90AF909F908F900895CF93DF930A
S1132620D82FC92FF8940E94F80E8EE40E94000F50
S11326308D2F0E94000F8C2F0E94000F0E940A0F02
S11326407894DF91CF91089580E090E00E940E137A
S113265008958AB1877F8AB98AB18F7E8AB98BB18E
S113266088608BB98BB180618BB9089589B18295EB
S11326708F7091E08927817080938E0390E0089594
S113268089B186958695869591E089278170809396
S11326908F0390E008958AB18F7D8AB98AB18F7BC8
S11326A08AB98BB180628BB98BB180648BB9089580
S11326B089B182958695877091E08927817080938E
S11326C08D0390E0089589B18295869586958370EF
S11326D091E08927817080938C0390E0089584B100
S11326E0886084B9E0EBF0E0808183608083A1EBB3
S11326F0B0E08C9182608C9380818068808308959F
S11327009C01629FC001639F900D729F900D1124E4
S11327108F3F910509F01CF4992334F403C08FEF23
S113272090E002C080E090E08093B300089514BC70
S113273015BC16BC84B5826084BD85B5836085BD37
S11327408FEF87BDEEE6F0E080818260808308959C
S113275010928000E1E8F0E010828081886080833C
S113276088E09DE39093890080938800AFE6B0E011
S11327708C9182608C93808185608083089510920F
S1132780C50080E18093C40088E18093C10086E0A5
S11327908093C20008959091C00095FFFCCF809370
S11327A0C6000895CF93DF93EC0103C00E94CB13BE
S11327B0219688818111FACFDF91CF9108958DE020
S11327C00E94CB138AE00E94CB1308958091C0002D
S11327D08823E4F78091C6008F3509F480E00895DA
S11327E0CF930E94E613C82F0E94CB130E94DF13DD
S11327F08C2FCF910895CF93DF93FC0103C00E94E7
S1132800CB13FE01EF01219684918111F8CFDF9162
S1132810CF9108958091C00088231CF48091C60054
S113282008958BE308950E94DF1386E991E10E94E5
S1132830FB130E94DF138FE291E10E94FB130E94BD
S1132840DF1387EC90E10E94FB130E94DF138FE5F6
S113285090E10E94FB130E94DF1387EF9FE00E9428
S1132860FB130E94DF138FE89FE00E94FB130E947A
S1132870DF1387E29FE00E94FB130E94DF138FEBBC
S11328809EE00E94FB130E94DF1387E59EE00E94F6
S1132890FB130E94DF130E94DF1308950E94DF13CD
S11328A00E94DF138AE69DE00E94FB130E94DF135F
S11328B088E19DE00E94FB130E94DF1387EC9CE0FB
S11328C00E94FB130E94DF1384E89CE00E94FB1328
S11328D00E94DF1381E69CE00E94FB130E94DF1339
S11328E08BE09CE00E94FB130E94DF1384EB9BE0CF
S11328F00E94FB130E94DF138CE59BE00E94FB13F4
S11329000E94DF1384E09BE00E94FB130E94DF130C
S11329108BEA9AE00E94FB130E94DF1386E59AE09B
S11329200E94FB130E94DF1385E19AE00E94FB13CF
S11329300E94DF1382ED99E00E94FB130E94DF13D3
S11329408EE899E00E94FB130E94DF1389E499E06A
S11329500E94FB130E94DF1384E099E00E94FB13A2
S11329600E94DF138FEB98E00E94FB130E94DF1399
S11329708AE798E00E94FB130E94DF1386E398E045
S11329800E94FB130E94DF1382EF97E00E94FB1367
S11329900E94DF138FEA97E00E94FB130E94DF136B
S11329A08DE697E00E94FB130E94DF130E94DF1361
S11329B083E193E10E94FB1308950E94DF1383E4F3
S11329C09EE00E94FB130E94DF138AE29EE00E94B5
S11329D0FB130E94DF1382E19EE00E94FB130E941E
S11329E0DF1382E09EE00E94FB130E94DF138CEE53
S11329F092E10E94FB130E94DF1383E193E10E94A2
S1132A00FB1308956F927F928F929F92AF92BF9221
S1132A10CF92DF92EF92FF920F931F93CF93DF93A6
S1132A20782E692EC62FD72F942E852EB22EA32E44
S1132A300E94DF1388EE9DE00E94FB130E94DF13C7
S1132A408EEC9DE00E94FB130E94DF1384EB9DE05B
S1132A500E94FB130E94DF138CE392E10E94FB139C
S1132A600E94DF1387E592E10E94FB13DF93CF936B
S1132A700F2EF6E3CF2EF1E0DF2EF02DDF92CF9272
S1132A80C1EDD3E0DF93CF930E945121CE010E9488
S1132A90D21383E592E10E94FB130E94DF1389E4C1
S1132AA092E10E94FB136F927F92DF92CF92DF93A9
S1132AB0CF930E945121CE010E94D21385E492E16A
S1132AC00E94FB130E94DF138DEF91E10E94FB1320
S1132AD00E94DF1389E391E00E94D2134CE050E09E
S1132AE0BE018AE090E00E94C50ECE010E94D2137E
S1132AF083E391E00E94D2138F929F92DF92CF9250
S1132B00DF93CF930E945121CE010E94D2138DEB0B
S1132B1092E00E94D2130E94DF1385E491E00E94A8
S1132B20D2134CE050E0BE0189E190E00E94C50E52
S1132B30CE010E94D21383E391E00E94D213AF929C
S1132B40BF92DF92CF92DF93CF930E945121CE01A7
S1132B500E94D2138DEB92E00E94D2130E94DF13E5
S1132B6081E591E00E94D2134CE050E0BE0188E27E
S1132B7090E00E94C50ECE010E94D21383E391E03F
S1132B800E94D2131F930F93DF92CF92DF93CF93C0
S1132B900E945121CE010E94D2138DEB92E00E943B
S1132BA0D2130E94DF138DE591E00E94D2134CE012
S1132BB050E0BE0187E390E00E94C50ECE010E9462
S1132BC0D21383E391E00E94D213FF92EF92DF923B
S1132BD0CF92DF93CF930E9451218DB79EB78496F5
S1132BE00FB6F8949EBF0FBE8DBFCE010E94D213C4
S1132BF08DEB92E00E94D2130E94DF138CEE92E1DF
S1132C000E94FB13DF91CF911F910F91FF90EF90E2
S1132C10DF90CF90BF90AF909F908F907F906F90F8
S1132C2008950E94DF138AE497E00E94FB134AE0B0
S1132C3050E061ED73E084EB90E00E94C50E81EDFD
S1132C4093E00E94D2130E94DF138FE197E00E9469
S1132C50FB134CE050E061ED73E08AE090E00E94E9
S1132C60C50E81ED93E00E94D2130E94DF1384EF1E
S1132C7096E00E94FB134CE050E061ED73E089E1C3
S1132C8090E00E94C50E81ED93E00E94D2130E9451
S1132C90DF1389EC96E00E94FB134AE050E061EDFB
S1132CA073E088E290E00E94C50E81ED93E00E94FB
S1132CB0D2130E94DF138EE996E00E94FB134AE0D0
S1132CC050E061ED73E087E390E00E94C50E81ED72
S1132CD093E00E94D2130E94DF138EE796E00E94D5
S1132CE0FB1343E050E061ED73E08AEA90E00E9458
S1132CF0C50E81ED93E00E94D2130E94DF138DE490
S1132D0096E00E94FB1343E050E061ED73E088E13C
S1132D1091E00E94C50E81ED93E00E94D2130E94BF
S1132D20DF138CE196E00E94FB1343E050E061ED79
S1132D3073E086E490E00E94C50E81ED93E00E946A
S1132D40D2130E94DF138BEE95E00E94FB1343E045
S1132D5050E061ED73E080E590E00E94C50E81EDE6
S1132D6093E00E94D2130E94DF138AEB95E00E9445
S1132D70FB1343E050E061ED73E08AE590E00E94CC
S1132D80C50E81ED93E00E94D2130E94DF1383E805
S1132D9095E00E94FB1343E050E061ED73E084E6AC
S1132DA090E00E94C50E81ED93E00E94D2130E9430
S1132DB0DF138CE495E00E94FB1343E050E061EDE7
S1132DC073E08EE690E00E94C50E81ED93E00E94D0
S1132DD0D2130E94DF1385E195E00E94FB1343E0C8
S1132DE050E061ED73E088E790E00E94C50E81ED4C
S1132DF093E00E94D2130E94DF138EED94E00E94B0
S1132E00FB1343E050E061ED73E082E890E00E9440
S1132E10C50E81ED93E00E94D2130E94DF138EEA67
S1132E2094E00E94FB1343E050E061ED73E08CE812
S1132E3090E00E94C50E81ED93E00E94D2130E949F
S1132E40DF138EE794E00E94FB1343E050E061ED52
S1132E5073E081E990E00E94C50E81ED93E00E9449
S1132E60D2130E94DF138EE494E00E94FB1343E02C
S1132E7050E061ED73E086E990E00E94C50E81EDBB
S1132E8093E00E94D2130E94DF138EE194E00E942B
S1132E90FB1343E050E061ED73E08BE990E00E94A6
S1132EA0C50E81ED93E00E94D2130E94DF138CEFD4
S1132EB093E00E94FB1343E050E061ED73E080EA8D
S1132EC090E00E94C50E81ED93E00E94D21389E642
S1132ED091E00E94D2130E94DF138CEE92E10E94D3
S1132EE0FB1308950E94DF138DE693E00E94FB1309
S1132EF00E94DF1381E493E00E94FB130E94DF131E
S1132F0088E193E00E94FB130E94DF138BEE92E0B2
S1132F100E94FB130E94DF138EEB92E00E94FB13CE
S1132F200E94DF1381E992E00E94FB130E94DF13E9
S1132F3084E692E00E94FB130E94DF1308950E942E
S1132F40DF1384EA92E10E94FB130E94DF1385E6FB
S1132F5092E10E94FB130E94DF1308950E94DF1385
S1132F6080E392E00E94FB130E94DF1382EF91E062
S1132F700E94FB130E94DF1383EB91E00E94FB137A
S1132F800E94DF1386E891E00E94FB130E94DF1386
S1132F908AE491E00E94FB130E94DF138EE091E02B
S1132FA00E94FB130E94DF1382ED90E00E94FB134A
S1132FB00E94DF1308950E94DF138DEB93E00E94BB
S1132FC0FB130E94DF1384EB93E00E94FB130E9427
S1132FD0DF138BEA93E00E94FB130E94DF13089532
S1132FE00E9440138093A0030E94361380939F0392
S1132FF0811106C08091A003882321F081E003C0E1
S113300081E001C080E08093900380919003882345
S113301071F10E94ED0F0E943C100E94ED0F82E7B7
S113302091E00E941F1084EC91E00E94E4090E9448
S11330303C1081E891E00E941F1084EC91E00E9412
S1133040E4090E943C108CE891E00E941F1084EC7B
S113305091E00E94E4090E943C100E94DF138DE974
S113306091E00E94D2130E9424130C94000008954E
S11330700E94F01780919203882361F1809190035C
S1133080811128C00E94ED0F0E943C100E94DF13A2
S113309080EE91E00E94D21388EF91E00E94D21357
S11330A088E292E00E941F1085EA9EE00197F1F702
S11330B000C0000080919E0390E00E94CF0C0E940B
S11330C0ED0F0E943C101092920386E392E00E945E
S11330D0D21308950E94F0170895CF92DF92EF92D1
S11330E0FF920F931F93CF93DF93CDB7DEB7C055F5
S11330F0D1090FB6F894DEBF0FBECDBF02E310E0D6
S11331001A830983FE01339688E0DF011D928A95B4
S1133110E9F7BE016F5F7F4F80EA90E00E948B0E5B
S113312086E0E0E0F1E0DE011B9601900D928A95C5
S1133130E1F76894FF24F2F8FE017196DF018F2D08
S11331401D928A95E9F7BE01655F7F4F8AE090E0A2
S11331500E948B0E4AE050E061ED73E08AE090E05B
S11331600E94C50E81E491E00E94D21381ED93E0A8
S11331700E94D21384E595E49E8B8D8B188E1F8A52
S1133180FE01799686E0DF011D928A95E9F7BE017A
S11331906B5E7F4F89E190E00E948B0E4AE050E025
S11331A061ED73E089E190E00E94C50E81E491E055
S11331B00E94D21381ED93E00E94D21389E0EAE0E9
S11331C0F1E0DE015F9601900D928A95E1F718A671
S11331D0BE01615E7F4F88E290E00E948B0E4AE060
S11331E050E061ED73E088E290E00E94C50E81E456
S11331F091E00E94D21381ED93E00E94D21386E005
S1133200E4E1F1E0DE01999601900D928A95E1F7EF
S1133210FE01BF96DF011D92FA94E9F7BE01675DD6
S11332207F4F87E390E00E948B0E4AE050E061ED0F
S113323073E087E390E00E94C50E81E491E00E9470
S1133240D21381ED93E00E94D2130F2EF1E3EF2EFF
S1133250F0E3FF2EF02DFCAAEBAA0F2EF0E3CF2E05
S1133260D12CF02DDEAACDAA1FAABE016D5C7F4F22
S113327088E191E00E948B0EBE016D5C7F4F86E475
S113328090E00E948B0EBE016D5C7F4F80E590E064
S11332900E948B0EBE016D5C7F4F8AE590E00E9418
S11332A08B0E82E390E399AF88AFDBAECAAE1CAE5F
S11332B0BE01685C7F4F84E690E00E948B0EBE01E5
S11332C0685C7F4F8EE690E00E948B0EBE01685CC6
S11332D07F4F88E790E00E948B0EBE01685C7F4FB1
S11332E082E890E00E948B0EFEAEEDAE21961FAEFA
S11332F01EAE219722961FAE2297BE01635C7F4FBC
S11333008CE890E00E948B0EBE01635C7F4F81E9E4
S113331090E00E948B0EBE01635C7F4F86E990E0D3
S11333200E948B0EBE01635C7F4F8BE990E00E948C
S11333308B0EFE01EE5BFF4F0193119313E0DF014F
S1133340812F1D928A95E9F7BE016E5B7F4F80EA5B
S113335090E00E948B0E88E395E329969FAF8EAF91
S113336029972B961FAE1EAE2B972C961FAE2C972B
S1133370BE01695B7F4F84EB90E00E948B0EFE01DF
S1133380E45BFF4F81E390E081939193DF011D9211
S11333901A95E9F7BE01645B7F4F8AEA90E00E94C8
S11333A08B0EC05BDF4F0FB6F894DEBF0FBECDBFF0
S11333B0DF91CF911F910F91FF90EF90DF90CF900D
S11333C008954AE050E061ED73E080EA90E00E94E5
S11333D0C50E81ED93E00E942B210197029748F0DE
S11333E00E946D180E94DF138BE492E00E94D213B6
S11333F008950E94DF1388E792E00E94D213089593
S11334000E9447100E949E100E94DC109093C903F2
S11334108093C8030E949A100E9469129093EB0350
S11334208093EA0308950F931F93CF93DF930E9431
S1133430001AC0E0D0E031C0219644E050E061EDD4
S113344073E08AEA90E00E94C50E81ED93E00E9449
S11334502B218C0144E050E061ED73E084EB90E0BB
S11334600E94C50E81ED93E00E942B212091EA0376
S11334703091EB03821B930B2091C8033091C90355
S1133480232B29F0BC01C8010E94801306C060E010
S113349070E081E090E00E948013C530D10561F6B0
S11334A0DF91CF911F910F9108950F931F93CF93A5
S11334B0DF930E940A0FF8940E94ED0F80EA92E0D5
S11334C00E941F108BE391E00E94E4090E943C10CB
S11334D089EA92E00E941F108BE391E00E94E409C4
S11334E00E943C1085EB92E00E941F108BE391E058
S11334F00E94E4090E943C108FEB92E00E941F108E
S11335008BE391E00E94E4090E943C1084E391E083
S11335100E941F104AE050E061ED73E08AE090E001
S11335200E94C50E81ED93E00E941F108BE391E091
S11335300E94E4090E943C1084E391E00E941F1061
S11335408091C7038F938091C6038F9306E311E0A4
S11335501F930F93C1EDD3E0DF93CF930E945121CA
S1133560CE010E941F108BE391E00E94E4090E94A7
S11335703C1084E391E00E941F104AE050E0BE0139
S113358089E190E00E94C50ECE010E941F108BE3DA
S113359091E00E94E4090E943C100E943C1084E3E4
S11335A091E00E941F108091CF038F938091CE03EE
S11335B08F931F930F93DF93CF930E945121CE01DA
S11335C00E941F108BE391E00E94E4090E943C10CA
S11335D084E391E00E941F104AE050E0BE0188E2BB
S11335E090E00E94C50ECE010E941F108BE391E073
S11335F00E94E4090E943C1084E391E00E941F10A1
S11336008091CD038F938091CC038F931F930F935D
S1133610DF93CF930E945121CE010E941F1083E0BB
S113362092E00E94E4090E943C1084E391E00E942D
S11336301F104AE050E0BE0187E390E00E94C50EEF
S1133640CE010E941F108BE391E00E94E4090E94C6
S11336503C100E943C1084E391E00E941F10809172
S1133660CB038F938091CA038F931F930F93DF93A0
S1133670CF930E945121CE010E941F108BE391E051
S11336800E94E4090E943C1088EC92E00E941F1002
S11336908FE991E00E94E4090E943C1084E391E0E8
S11336A00E941F1080ED92E00E941F1087ED90E0B1
S11336B00E94E4090E943C1084E391E00E941F10E0
S11336C08091EA039091EB039F938F931F930F9341
S11336D0DF93CF930E945121CE010E941F108DEDE4
S11336E092E00E941F108FE991E00E94E4090E9479
S11336F03C1084E391E00E941F1080EE92E00E944F
S11337001F108FE991E00E94E4090E943C1084E3B9
S113371091E00E941F108091C8039091C9039F9368
S11337208F931F930F93DF93CF930E9451218DB7F3
S11337309EB784960FB6F8949EBF0FBE8DBFCE0180
S11337400E941F1089EE92E00E941F1087EC91E006
S11337500E94E4098FE991E00E94E4090E943C1070
S11337607894DF91CF911F910F9108950E9458137F
S113377080939D030E94631380939C038091920322
S1133780811174C080919D03813009F06FC08091D4
S11337909E038F5F80939E03853019F481E08093AC
S11337A09E030E94ED0F80919503909196030197DB
S11337B029F484E391E00E94D213089580919E033A
S11337C08230D1F018F4813031F049C0833029F1CE
S11337D08430A1F144C04AE050E061ED73E08AE036
S11337E090E00E94C50E86E291E00E941F1081EDD8
S11337F093E00E941F1038C04AE050E061ED73E08E
S113380089E190E00E94C50E86E291E00E941F10BB
S113381081ED93E00E941F1027C04AE050E061ED63
S113382073E088E290E00E94C50E86E291E00E9477
S11338301F1081ED93E00E941F1016C04AE050E073
S113384061ED73E087E390E00E94C50E86E291E0AB
S11338500E941F1081ED93E00E941F1005C081E0BB
S113386080939E030E94B61B0E940A0F08950E9433
S113387040138093A0030E94361380939F03811109
S113388006C08091A003882321F081E003C081E079
S113389001C080E0809390038091900381110E9485
S11338A0F0170895CF93DF9380E00E94D209C8E710
S11338B0D0E06881798180E090E00E942A2020E0B5
S11338C030EC4FE754E40E94821F20E030E048ECE3
S11338D052E40E94B8200E94F41F7093C7036093BF
S11338E0C60381E00E94D2096881798180E090E07A
S11338F00E942A2020E030EC4FE754E40E94821F0B
S113390020E030E048EC52E40E94B8200E94F41F0A
S11339107093CF036093CE0382E00E94D209688142
S1133920798180E090E00E942A2020E030EC4FE78B
S113393054E40E94821F20E030E048EC52E40E94EC
S1133940B8200E94F41F7093CD036093CC0383E0EE
S11339500E94D2096881798180E090E00E942A2047
S113396020E030EC4FE754E40E94821F20E030E076
S113397048EC52E40E94B8200E94F41F7093CB03D9
S11339806093CA03DF91CF9108950E94521C0E9454
S1133990001A0E94371C0E94B61B08950E9424132B
S11339A00E94C1090E94BF130E9429130E944B1355
S11339B00E946F1380919103811115C0809190032F
S11339C0811111C00E94131481E0809391030E941D
S11339D0ED0F8CEE92E00E941F108CEF92E00E949B
S11339E02C100E940A0F0E94E1190E94DD140E940B
S11339F097130E94A8130895EF92FF920F931F93B9
S1133A00CF93DF930E940A148093E903E091E903C2
S1133A108E2F90E0FC01F197EA32F10508F02BC1FA
S1133A20EC5CFF4F0C9425216091EA037091EB0349
S1133A308091C8039091C903E090CA03F090CB032E
S1133A400091CC031091CD032091CE033091CF038C
S1133A504091C6035091C7030E9402158DE093E084
S1133A608093E90308C10E9411168DE093E08093CE
S1133A70E90301C10E944E148DE093E08093E903B1
S1133A80FAC00E94DF138FE093E00E94D2130E94D9
S1133A9011160E94DF138FE393E00E94D2130E9459
S1133AA0DF138DE093E08093E903E5C084EB90E0BD
S1133AB00E94350D8DE093E08093E903DCC00E9401
S1133AC072178AE090E00E94980D8DE093E0809355
S1133AD0E903D1C00E94721789E190E00E94980D19
S1133AE08DE093E08093E903C6C00E94721788E2D8
S1133AF090E00E94980D8DE093E08093E903BBC0B1
S1133B000E94721787E390E00E94980D8DE093E085
S1133B108093E903B0C08DE093E08093E903ABC0E8
S1133B208AEA90E00E94350D8DE093E08093E903EA
S1133B30A2C088E191E00E94150E8DE093E080938D
S1133B40E90399C086E490E00E94150E94C080E5D4
S1133B5090E00E94150E8DE093E08093E9038BC002
S1133B608AE590E00E94150E8DE093E08093E903CE
S1133B7082C084E690E00E94150E8DE093E080936D
S1133B80E9038093E90377C08DE093E08093E90330
S1133B908EE690E00E94150E6EC08DE093E0809357
S1133BA0E90388E790E00E94150E65C0CDE0D3E0FC
S1133BB0C093E90382E890E00E94150EC093E903E4
S1133BC05AC08DE093E08093E9038CE890E00E9472
S1133BD0350D51C08DE093E08093E90381E990E0D5
S1133BE00E94350D48C08DE093E08093E90386E997
S1133BF090E00E94350D3FC08DE093E08093E9038F
S1133C008BE990E00E94350D36C00E94DB178DE0F1
S1133C1093E08093E9032FC065E873E080EA90E0C5
S1133C200E948B0E0E94DF130E94DD140E94DF139A
S1133C308DE093E08093E9031EC00E94DF1367E8E0
S1133C4073E080EA90E00E948B0E0E94DD140E94D3
S1133C50DF138DE093E08093E9030DC00E94DD142F
S1133C608DE093E08093E90306C00E946D188DE017
S1133C7093E08093E903DF91CF911F910F91FF901F
S1133C80EF900895F8940E94CE1CC0E0D0E003C0E9
S1133C900E94C51C2196C630D105D4F378940E94A5
S1133CA0F01778948091950390919603019731F4DD
S1133CB00E94551A10929603109295030E94F017D1
S1133CC00E9438180E94FC1CECCF1F920F920FB672
S1133CD00F9211242F933F934F935F936F937F938E
S1133CE08F939F93AF93BF93EF93FF930E94C51C51
S1133CF00E94131AFF91EF91BF91AF919F918F9101
S1133D007F916F915F914F913F912F910F900FBED3
S1133D100F901F9018951F920F920FB60F921124B7
S1133D202F933F934F935F936F937F938F939F93BF
S1133D30AF93BF93CF93EF93FF9389B1C82FC07410
S1133D4080919303909194030196909394038093AC
S1133D5093038091930390919403C79731F40E9445
S1133D60B61B109294031092930380919C038823B2
S1133D7029F080919D03811103C003C080E001C03C
S1133D8081E080939B0380919B038823A1F0809121
S1133D90970390919803A0919903B0919A03019687
S1133DA0A11DB11D8093970390939803A093990349
S1133DB0B0939A0309C0C11107C080919D0381117A
S1133DC003C081E08093920380919B038823D9F000
S1133DD08091970390919803A0919903B0919A03CD
S1133DE084379E40A105B10570F081E090E0909386
S1133DF09603809395031092970310929803109260
S1133E00990310929A03FF91EF91CF91BF91AF91D3
S1133E109F918F917F916F915F914F913F912F91DE
S1133E200F900FBE0F901F9018955058BB27AA27CC
S1133E300E942D1F0C947E200E94702038F00E9456
S1133E40772020F039F49F3F19F426F40C946D2068
S1133E500EF4E095E7FB0C946720E92F0E948F2075
S1133E6058F3BA17620773078407950720F079F4AB
S1133E70A6F50C94B1200EF4E0950B2EBA2FA02DCC
S1133E800B01B90190010C01CA01A0011124FF2703
S1133E90591B99F0593F50F4503E68F11A16F040FE
S1133EA0A22F232F342F4427585FF3CF46953795FD
S1133EB02795A795F0405395C9F77EF41F16BA0BC2
S1133EC0620B730B840BBAF09150A1F0FF0FBB1F70
S1133ED0661F771F881FC2F70EC0BA0F621F731FB9
S1133EE0841F48F4879577956795B795F7959E3F16
S1133EF008F0B0CF9395880F08F09927EE0F9795A7
S1133F00879508950E94961F0C947E200E94772026
S1133F1058F00E94702040F029F45F3F29F00C947F
S1133F20672051110C94B2200C946D200E948F20B4
S1133F3068F39923B1F3552391F3951B550BBB27D4
S1133F40AA2762177307840738F09F5F5F4F220F19
S1133F50331F441FAA1FA9F335D00E2E3AF0E0E810
S1133F6032D091505040E695001CCAF72BD0FE2F5A
S1133F7029D0660F771F881FBB1F261737074807EE
S1133F80AB07B0E809F0BB0B802DBF01FF279358A6
S1133F905F4F3AF09E3F510578F00C9467200C94E3
S1133FA0B2205F3FE4F3983ED4F386957795679506
S1133FB0B795F7959F5FC9F7880F911D96958795DB
S1133FC097F90895E1E0660F771F881FBB1F6217FA
S1133FD073078407BA0720F0621B730B840BBA0BB8
S1133FE0EE1F88F7E09508950E94FB1F6894B111B5
S1133FF00C94B22008950E94972088F09F5798F05F
S1134000B92F9927B751B0F0E1F0660F771F881FD9
S1134010991F1AF0BA95C9F714C0B13091F00E94F3
S1134020B120B1E008950C94B120672F782F882730
S1134030B85F39F0B93FCCF3869577956795B3951A
S1134040D9F73EF490958095709561957F4F8F4F89
S11340509F4F0895E89409C097FB3EF4909580958E
S1134060709561957F4F8F4F9F4F9923A9F0F92F3A
S113407096E9BB279395F695879577956795B795B8
S1134080F111F8CFFAF4BB0F11F460FF1BC06F5F9E
S11340907F4F8F4F9F4F16C0882311F096E911C0B0
S11340A0772321F09EE8872F762F05C0662371F0D1
S11340B096E8862F70E060E02AF09A95660F771FE5
S11340C0881FDAF7880F9695879597F9089597F9D9
S11340D09F6780E870E060E008959FEF80EC0895AA
S11340E000240A94161617061806090608950024D3
S11340F00A9412161306140605060895092E03944D
S1134100000C11F4882352F0BB0F40F4BF2B11F4C0
S113411060FF04C06F5F7F4F8F4F9F4F089557FD1F
S11341209058440F551F59F05F3F71F04795880F21
S113413097FB991F61F09F3F79F0879508951216B8
S113414013061406551FF2CF4695F1DF08C0161664
S113415017061806991FF1CF869571056105089415
S11341600895E894BB2766277727CB0197F908952C
S11341700E94CB200C947E200E94702038F00E9474
S1134180772020F0952311F00C9467200C946D2077
S113419011240C94B2200E948F2070F3959FC1F3D8
S11341A0950F50E0551F629FF001729FBB27F00DE1
S11341B0B11D639FAA27F00DB11DAA1F649F662736
S11341C0B00DA11D661F829F2227B00DA11D621F85
S11341D0739FB00DA11D621F839FA00D611D221F3F
S11341E0749F3327A00D611D231F849F600D211D23
S11341F0822F762F6A2F11249F5750409AF0F1F0A6
S113420088234AF0EE0FFF1FBB1F661F771F881F0E
S113421091505040A9F79E3F510580F00C946720BF
S11342200C94B2205F3FE4F3983ED4F386957795DF
S11342306795B795F795E7959F5FC1F7FE2B880FB4
S1134240911D9695879597F90895EE0FFF1F059098
S1134250F491E02D0994FC0188279927E894219191
S11342602032E9F3293010F02E30C8F32B3241F01C
S11342702D3239F4689404C00E944921820F911DA3
S1134280219120532A30C0F31EF4909581959F4FBD
S113429008957AE0979F902D879F802D910D11248A
S11342A00895AEE0B0E0E7E5F1E20C9412240D8944
S11342B01E8986E08C831A8309838FEF9FE79E8390
S11342C08D83AE01475E5F4F6F89788DCE01019675
S11342D00E947321EF81F885E00FF11F10822E9662
S11342E0E4E00C942E24ABE0B0E0E9E7F1E20C94B6
S11342F004246C017B018A01FC01178216828381EC
S113430081FFCCC1CE0101963C01F6019381F701F6
S113431093FD859193FF81917F01882309F4BAC1AC
S1134320853239F493FD859193FF81917F01853224
S113433029F4B60190E00E946A23E7CF912C212C46
S1134340312CFFE1F315D8F08B3279F038F4803258
S113435079F08332A1F4232D20611DC08D3261F0E8
S1134360803369F4232D216016C0832D8260382E9A
S1134370E32DE4603E2E2AC0F32DF8601DC037FC07
S11343802DC020ED280F2A3040F08E32B9F436FCCF
S113439081C1232D2064322E19C036FE06C08AE066
S11343A0989E200D1124922E11C0EAE02E9E200D1D
S11343B01124222EF32DF0623F2E08C08C3621F4F6
S11343C0832D8068382E02C0883641F4F70193FDAE
S11343D0859193FF81917F018111B3CF982F9F7DA8
S11343E09554933028F40C5F1F4F9FE399830DC0BD
S11343F0833631F0833771F0833509F059C021C019
S1134400F801808189830E5F1F4F88248394912C47
S1134410530113C02801F2E04F0E511CF801A08093
S1134420B18036FE03C0692D70E002C06FEF7FEFEC
S1134430C5010E945F234C018201F32DFF773F2EBB
S113444016C0280122E0420E511CF801A080B18060
S113445036FE03C0692D70E002C06FEF7FEFC50127
S11344600E9454234C01F32DF0683F2E820133FC4B
S11344701BC0822D90E088169906B0F4B60180E244
S113448090E00E946A232A94F4CFF50137FC8591C9
S113449037FE81915F01B60190E00E946A232110EA
S11344A02A9421E0821A91088114910471F7E8C0DA
S11344B0843611F0893641F5F80137FE07C0608172
S11344C07181828193810C5F1F4F08C0608171816B
S11344D0072E000C880B990B0E5F1F4FF32DFF76F0
S11344E03F2E97FF09C090958095709561957F4FF9
S11344F08F4F9F4FF0683F2E2AE030E0A3010E94C7
S1134500A623882E861845C0853731F4232D2F7EA7
S1134510B22E2AE030E025C0932D997FB92E8F3634
S1134520C1F018F4883579F0B5C0803719F08837B0
S113453021F0B0C0E92FE061BE2EB4FE0DC0FB2D0A
S1134540F460BF2E09C034FE0AC0292F2660B22EA3
S113455006C028E030E005C020E130E002C020E1E0
S113456032E0F801B7FE07C06081718182819381D6
S11345700C5F1F4F06C06081718180E090E00E5F88
S11345801F4FA3010E94A623882E8618FB2DFF77B8
S11345903F2E36FE0DC0232D2E7FA22E891458F4F3
S11345A034FE0BC032FC09C0832D8E7EA82E05C0BC
S11345B0B82CA32C03C0B82C01C0B92CA4FE0FC086
S11345C0FE01E80DF11D8081803321F49A2D997E3E
S11345D0A92E09C0A2FE06C0B394B39404C08A2DC8
S11345E0867809F0B394A3FC11C0A0FE06C0B214EF
S11345F088F4280C922C9B180EC0B21460F4B601F7
S113460080E290E00E946A23B394F7CFB21418F4C6
S11346102B1802C0982C212CA4FE10C0B60180E3F4
S113462090E00E946A23A2FE17C0A1FC03C088E7A1
S113463090E002C088E590E0B6010CC08A2D86782F
S113464059F0A1FE02C08BE201C080E2A7FC8DE21A
S1134650B60190E00E946A23891438F4B60180E31D
S113466090E00E946A239A94F7CF8A94F301E80DAC
S1134670F11D8081B60190E00E946A238110F5CF7C
S1134680222009F442CEB60180E290E00E946A231F
S11346902A94F6CFF6018681978102C08FEF9FEFAF
S11346A02B96E2E10C942024FC01059061507040AB
S11346B00110D8F7809590958E0F9F1F0895FC01E7
S11346C06150704001900110D8F7809590958E0F3D
S11346D09F1F08950F931F93CF93DF93FB012381B3
S11346E021FD03C08FEF9FEF2CC022FF16C046812F
S11346F05781248135814217530744F4A081B18145
S11347009D012F5F3F4F318320838C932681378116
S11347102F5F3F4F3783268314C08B01EC01FB01CD
S11347200084F185E02D0995892BE1F6D8011696D0
S11347308D919C911797019617969C938E9316973B
S1134740CE01DF91CF911F910F910895FA01AA270D
S1134750283051F1203181F1E8946F936E7F6E5FC0
S11347607F4F8F4F9F4FAF4FB1E03ED0B4E03CD06E
S1134770670F781F891F9A1FA11D680F791F8A1F51
S1134780911DA11D6A0F711D811D911DA11D20D0B8
S113479009F468943F912AE0269F11243019305D72
S11347A03193DEF6CF010895462F4770405D419363
S11347B0B3E00FD0C9F7F6CF462F4F70405D4A33B0
S11347C018F0495D31FD4052419302D0A9F7EACF78
S11347D0B4E0A6959795879577956795BA95C9F7A7
S11347E000976105710508959B01AC010A2E06949A
S11347F05795479537952795BA95C9F7620F731F53
S1134800841F951FA01D08952F923F924F925F928F
S11348106F927F928F929F92AF92BF92CF92DF92CC
S1134820EF92FF920F931F93CF93DF93CDB7DEB731
S1134830CA1BDB0B0FB6F894DEBF0FBECDBF0994C5
S11348402A88398848885F846E847D848C849B841C
S1134850AA84B984C884DF80EE80FD800C811B812A
S1134860AA81B981CE0FD11D0FB6F894DEBF0FBE59
S10D4870CDBFED010895F894FFCFC9
S113487A4341464645000000000059455242494119
S113488A444F00004C415454450000000000256484
S113489A2E25303464002D0054656D706572617480
S11348AA7572613A20002564004265626964612078
S11348BA31202D3E004265626964612032202D3E1A
S11348CA004265626964612033202D3E00426562BC
S11348DA6964612034202D3E0030204C6974726F63
S11348EA7300204552524F5220505545525441208C
S11348FA002041424945525441204F002054415A14
S113490A41204D414C20505545535441003E3E45AB
S113491A52524F523A20436965727265206C612083
S113492A707565727461206F20636F6C6F71756541
S113493A206269656E206C612074617A61207061FD
S113494A726120636F6E74696E7561722E2E2E0009
S113495A536520696E696369F320656C2073657217
S113496A7669646F2E2E2E00436F6E736F6C61200E
S113497A626C6F717565616461206861737461202A
S113498A7465726D696E61722020656C2070726F35
S113499A6365736F2E2E2E00205369727669656ED5
S11349AA646F2E2E2E003E3E5365727669646F2024
S11349BA66696E616C697A61646F00204C61206378
S11349CA616665746572612066756520636F6E66DB
S11349DA6967757261646120657869746F73616D62
S11349EA656E7465203A29004C61206361666574BA
S11349FA657261206573746120636F6E6669677599
S1134A0A726164612079206C69737461203A2900A7
S1134A1A204D65646964617300204E6976656C652E
S1134A2A732064650020506F6C766F732025002014
S1134A3A2820656E20252900204269646F6E3A0099
S1134A4A3E54656D7065726174757261002A430023
S1134A5A3E566F6C756D656E006D6C00204269651B
S1134A6A6E76656E69646F20557755003E5F5F5FA9
S1134A7A5F5F5F5F5F5F5F5F5F5F5F3C002C003E6D
S1134A8A3E44656C207369677569656E7465206C4C
S1134A9A69737461646F2C206573636F6A61207132
S1134AAA756520636F6E666967757261723A003E56
S1134ABA3E53656C656363696F6E6520756E61202C
S1134ACA6465206C617320616E746572696F7265C6
S1134ADA73206F7063696F6E6573207920736967D9
S1134AEA61206C617320696E737472756363696F94
S10D4AFA6E657320003100320000E5
S9030000FC
