S00A000074502E7372656356
S11300000C94FF070C941C080C941C080C941C08FA
S11300100C941C080C941C080C941C080C941C08CC
S11300200C941C080C941C080C941C080C940710C9
S11300300C941C080C941C080C941C080C941C08AC
S11300400C941C080C941C080C941C080C941C089C
S11300500C941C080C941C080C941C080C941C088C
S11300600C941C080C941C086F118A118D119011AA
S1130070A411A411A411A411A411A411A411A411D4
S1130080A411A411A411A411A411A411A411A411C4
S11300909911A411A411A4119C11A411A4119F11CC
S11300A0A411A411A411A411A411A411A411A411A4
S11300B0A411A411A411A21120552D54616D61F154
S11300C06F206465204269646F6E20283130204CB3
S11300D0202D3230204C290020542D506F7263653E
S11300E06E74616A6520646520546465736361722B
S11300F0676120426562696461203420283520618B
S113010020323525290020532D506F7263656E749B
S1130110616A652064652054646573636172676114
S113012020426562696461203320283520612032D1
S11301303525290020522D506F7263656E74616AF3
S1130140652064652054646573636172676120424D
S113015065626964612032202835206120323525AA
S1130160290020512D506F7263656E74616A652099
S113017064652054646573636172676120426562DB
S11301806964612031202835206120323525290019
S113019020502D43616E746964616420646520613C
S11301A06775612043616C69656E746520426562A0
S11301B069646120342028313530206120333030A7
S11301C0206D4C2900204F2D43616E746964616475
S11301D020646520616775612043616C69656E7494
S11301E065204265626964612033202831353020FE
S11301F06120333030206D4C2900204E2D43616E38
S11302007469646164206465206167756120436179
S11302106C69656E74652042656269646120322090
S113022028313530206120333030206D4C290020B6
S11302304D2D43616E746964616420646520616757
S113024075612043616C69656E74652042656269FD
S11302506461203120283135302061203330302052
S11302606D4C2900204B2D43616E746964616420D8
S11302706465207072656D657A636C6120426562A5
S11302806964612034202830206120343230206DAC
S11302904C2900204A2D43616E74696461642064B2
S11302A065207072656D657A636C61204265626970
S11302B064612033202830206120343230206D4C9A
S11302C0290020492D43616E74696461642064656A
S11302D0207072656D657A636C6120426562696441
S11302E0612032202830206120343230206D4C29A6
S11302F00020482D43616E74696461642064652044
S11303007072656D657A636C6120426562696461CF
S11303102031202830206120343230206D4C2900D7
S113032020472D436F6E7374616E74652050726F35
S1130330706F7263696F6E616C20274B70273A008F
S113034020462D4E6F6D627265206465206C6120BD
S11303504265626964612031202831302063617212
S1130360E1637465726573290020452D4E6F6D62DB
S11303707265206465206C61204265626964612055
S1130380342028313020636172E1637465726573CF
S1130390290020442D4E6F6D627265206465206CC7
S11303A06120426562696461203320283130206312
S11303B06172E1637465726573290020432D4E6F89
S11303C06D627265206465206C61204265626964B7
S11303D06120322028313020636172E163746572D8
S11303E06573290020422D4E6F6D6272652064652D
S11303F0206C6120426562696461203120283130BB
S113040020636172E1637465726573290020412D74
S113041054656D70657261747572612044657365AD
S1130420616461202836302D3935292A4300202083
S11304303434343636363636363636363434352079
S1130440202020202020202033303030363030301F
S11304502020202020202020202020202020202098
S11304603530303030303030303030303030303083
S11304703020202000202020202030303030303028
S11304803030362020202020202020202020202032
S113049039303020383030362020202020202037BA
S11304A03030303030303030303030303030303048
S11304B030303030303030303020200020202020C8
S11304C0203030303030303030392020202020208F
S11304D0202020202020203930302030303030328D
S11304E02035303030303030303030303030303013
S11304F030303030303030303030303030303030F8
S11305003020202000202020202030303030303097
S11305103030303220202020202020202020202095
S113052039303030303030303030303030303030BE
S113053030303030303030303030303030303030B7
S11305403030303030303030303020200020202027
S113055020203030303030303030392020392020E5
S11305602020202020202020303030303030303007
S11305703030303030303030303030303030303077
S11305803030303030303030303030303030303067
S113059030303020200020202020203030303030F7
S11305A030303030333720202020202020202020DD
S11305B03630303030303030303030303030303031
S11305C03030303030303030303030303030303027
S11305D03030303030303030303030303520002062
S11305E020202020202031202031202020202020E5
S11305F0202020202020202039303030303030306E
S113060030303030303030303030303030303030E6
S113061030303030303030303030303030303030D6
S1130620303030303038200020202020202020207E
S11306303120203120202020202020202020202094
S113064020303030303030303030303030303030B6
S11306503030303030303030303030303030303096
S113066030303030303030303030303030300020C6
S11306702020202020203120203120202020202054
S113068020202020202020393030303030303030CD
S11306903030303030303030303030303030303056
S11306A03030303030303030303030303030303046
S11306B03030303030200020202020202020202006
S11306C0202020202020202020202020202020390D
S11306D03030303030303030303030303030303016
S11306E03030303030303030303030303030303006
S11306F03030303030303030303030302000202056
S113070020202020202020202020202020202020E5
S11307102020202030303030303030303030303015
S113072030303030303030303030303030303030C5
S113073030303030303030303030303030303030B5
S113074020002020202020202020202020202020C5
S11307502020202020202031303030303030303004
S11307603030303030303030303030303030303085
S11307703030303030303030303030303030303075
S11307803030312020202020202020202020202034
S113079020434F4E534F4C41002020202020202046
S11307A020202020202020202020203030303030F5
S11307B03030303030303030303030303030303035
S11307C03030303030303030303030303030303025
S11307D0303030303030303620202020202020208F
S11307E0202020205554494C494345204553544129
S11307F02020200020202020202020202020202015
S113080020383030303030303030303030303030EC
S113081030303030303030303030303030303030D4
S113082030303030303030303030303030303030C4
S11308303120202020202050415241204D4F444956
S11308404649434152204553544F53202000202011
S11308502020202020202020202030303030303034
S11308603030303030303030303030303030303084
S11308703030303030303030303030303030303074
S113088030303030303420202020202043414E545A
S113089049444144204445205052454D455A434C17
S11308A0412C4554432020002020202020202020BB
S11308B0202020373030303030303030303030305D
S11308C03030303030303030303030303030303024
S11308D030303037202020202020202020202020CD
S11308E0202050554544454E20434F4E54524F4CC2
S11308F041522054454D50455241545552412C20AB
S113090000202020202020202020202034303030BF
S113091030303030303030303030303030303030D3
S11309203030303030303030302020202020202033
S1130930202020202027434146455445524127206A
S1130940455320554E2050524F594543544F20444F
S11309504F4E4445205345200020202020202020B5
S113096020202020303030302038303030303030CB
S11309703030303030303030303030303030202093
S11309802020202020202020202020202020202063
S11309902020202020202020202020202020202053
S11309A0202000202020202020202020202034303F
S11309B03030303030303030303020203330303050
S11309C030303030352020202020204E4F4D4252F0
S11309D0453A20464142524943494F2044415649F1
S11309E0442047414C4C4F20202020202020202010
S11309F02020202020202020002020202020202013
S1130A00202020202020202020343030303030306E
S1130A10303030303030303030303720202020201B
S1130A2020202020202020202020202020202020C2
S1130A3020202020202020202020204C4943204A10
S1130A40554C49414E204D494E4154454C2020209F
S1130A5000202020202020202020202020202020B2
S1130A6020202020203132333238303030303030C2
S1130A703030202020202020202020202020202052
S1130A8020202020202050524F4645534F5245539A
S1130A903A20494E47204544554152444F2056453B
S1130AA04C415A5155455A00202020202020202016
S1130AB02020202020202020202020202020202032
S1130AC0203930202034303020202020205450463B
S1130AD0492E2E2E20434154454452413A20202091
S1130AE02053495354454D415320444947495441A7
S1130AF04C4553204956003D3D3D3D3D3D3D3D3D2A
S1130B003D3D3D3D3D3D3D3D3D3D3D3D3D3D3E3E0F
S1130B10007C204D45444943494F4E4553204143B1
S1130B205455414C4553207C3E3E003D3D3D3D3DAA
S1130B303D3D3D3D3D3D3D3D3D3D3D3D3D3D3D3DE1
S1130B403D3D3E3E003E3E203420436F6E66696765
S1130B5075726172003E3E2033204461746F7320CD
S1130B6064656C2050726F796563746F003E3E203B
S1130B70322056657220636F6E66696775726163B1
S1130B80696F6E6573003E3E203120566572204DBC
S1130B9065646963696F6E657300202B58585858F3
S1130BA05858582020202058582B20202058585876
S1130BB0585858582B20202B5878202020785858E3
S1130BC03A202020202B58585858202020202078C4
S1130BD05858585858587820203A58582020203BC4
S1130BE058582B20202058583B202020585858581B
S1130BF05858582B20202020785858585858782076
S1130C002000202B585820202058585820202058A5
S1130C10582B20202058582B202020202020202B07
S1130C20587820203A5858583A202020207858588C
S1130C3058582E202020207858782020202020204A
S1130C40203A585820202E5858582B2020205858E5
S1130C503B20202058582B20203B58583A20202B4A
S1130C6058582E202E58582B2000202B585820201E
S1130C70202B58582E202058582B20202058582BF1
S1130C80202020202020202B5878202078585858C5
S1130C903A2020202058582B58582B2020202078E8
S1130CA05878202020202020203A585820202B58E3
S1130CB058582B20202058583B20202058582B20AF
S1130CC0203A58583B2020785858202020585878EB
S1130CD02000202B585820202058585820202058D5
S1130CE0582B20202058582B202020202020202B37
S1130CF05878203A585858583A2020203B58583AA7
S1130D003B5858202020207858782020202020206C
S1130D10203A58582020585858582B2020205858EA
S1130D203B20202058582B20203A58583B2020782C
S1130D3058582020205858782000202B58585858AC
S1130D405858782020202058582B202020585858B4
S1130D505858583B2020202B58782078583B585816
S1130D603A202020585858202058583A20202078DB
S1130D705858585858782020203A58582078582BDA
S1130D8058582B20202058583B20202058582B20DE
S1130D90203A58583B20207858582020205858781A
S1130DA02000202B58582E203B58583A20202058F9
S1130DB0582B20202058582B202020202020202B66
S1130DC058783A58782058583A20202058582B20E0
S1130DD02058583B2020207858782020202020209C
S1130DE0203A58582058582058582B20202058581A
S1130DF03B20202058582B20203A58583B2020785C
S1130E0058582020205858782000202B585820204B
S1130E102058587820202058582B20202058582B10
S1130E20202020202020202B585858583A20585849
S1130E303A20203A58583A202078587820202078B0
S1130E405878202020202020203A585858583B20F9
S1130E5058582B20202058583B20202058582B200D
S1130E60203A58583B202078585820202058587849
S1130E702000202B58582E203B58587820202058EA
S1130E80582B20202058582B202020202020202B95
S1130E9058585878202058583A20202B58582E203B
S1130EA0203A58582E2020785878202020202020BE
S1130EB0203A58585858202058582B202020585849
S1130EC03B20202058582B20202B58582E20202BF4
S1130ED058582E203A58582B00202B5858585858F8
S1130EE058782020202058582B2020205858585813
S1130EF05858582B20202B58585820202058583AFE
S1130F0020205858782020202058583B20207858FA
S1130F1058585858587820203A5858583A20205849
S1130F20582B20202058583B2020205858585858D7
S1130F3058583A202020207858585858587820007B
S1130F403E3E4E6976656C6573206465206C6C6505
S1130F506E61646F206465206C6F7320646F7369C5
S1130F6066696361646F726573206465207072657D
S1130F706D657A636C612028656E2025293A003EF0
S1130F803E4269646F6E3A00206D4C002D566F6CC2
S1130F90756D656E3A00202A43002D54656D7065A9
S1130FA07261747572613A003E3E41707265746597
S1130FB02058207061726120766F6C7665722061B2
S1130FC06C206D656E7520696E696369616C003EA5
S1130FD03E53656C656363696F6E6520616C67750C
S1130FE06E61206465206C6173207369677569653F
S1130FF06E746573206F7063696F6E65730011247E
S11310001FBECFEFD8E0DEBFCDBF11E0A0E0B1E05E
S1131010E2ECFDE202C005900D92A83EB107D9F7BB
S113102022E0A8EEB1E001C01D92A533B207E1F7BA
S11310300E94AA110C94DF160C940000ECE7F0E077
S113104080818064808380818F7D8083EAE7F0E003
S11310508081876080838081806880830895ECE745
S1131060F0E09081907F90839081892B8083EAE7E0
S1131070F0E080818064808380917A0086FDFCCFDB
S1131080089589E18093B8001092B900089584EA24
S11310908093BC008091BC008823E4F7089580937A
S11310A0BB0084E88093BC008091BC008823E4F7F3
S11310B0089584E98093BC008091BC0080FDFCCF3E
S11310C00895EBEBF0E080818260808384E8809374
S11310D0BC008091BC008823E4F789EF90E001977D
S11310E0F1F700C00000EBEBF0E080818D7F80839E
S11310F084E88093BC008091BC008823E4F70895C1
S1131100EBEBF0E090819E7F908394E89093BC0099
S11311109091BC009923E4F7EBEBF0E090819F7091
S1131120908394E89093BC009091BC009923E4F7D9
S1131130EBEBF0E09081807F892B808384E88093BF
S1131140BC008091BC008823E4F70E9461080895E4
S1131150CF93C82FEBEBF0E080818E7F808384E80F
S11311608093BC008091BC008823E4F7EBEBF0E0B3
S113117080818F70808384E88093BC008091BC0060
S11311808823E4F7EBEBF0E080819C2F907F892BA0
S1131190808384E88093BC008091BC008823E4F7BA
S11311A00E946108EBEBF0E080818F70808384E81B
S11311B08093BC008091BC008823E4F7EBEBF0E063
S11311C0208130E1C39FC0011124822B808384E8F5
S11311D08093BC008091BC008823E4F70E946108DE
S11311E0CF910895CF93C82FEBEBF0E0808181601D
S11311F0808384E88093BC008091BC008823E4F75A
S1131200EBEBF0E080818F70808384E88093BC00F6
S11312108091BC008823E4F7EBEBF0E080819C2F05
S1131220907F892B808384E88093BC008091BC00EC
S11312308823E4F70E946108EBEBF0E080818F7073
S1131240808384E88093BC008091BC008823E4F709
S1131250EBEBF0E0208130E1C39FC0011124822B2D
S1131260808384E88093BC008091BC008823E4F7E9
S11312700E946108CF9108950E9441080E94470886
S113128080E40E944F0881EE94E00197F1F700C0DA
S1131290000080E30E94800881EE94E00197F1F75A
S11312A000C0000080E30E94800880E20E94800861
S11312B081EE94E00197F1F700C0000088E20E94FB
S11312C0A8088CE00E94A80881E00E94A80886E093
S11312D00E94A80880E80E94A8080895CF93DF938D
S11312E0EC0103C021960E94F20888818111FACF93
S11312F0DF91CF91089581E00E94A80881E28A9548
S1131300F1F7000080E80E94A80808952FE387E71A
S11313109BE1215080409040E1F700C000000E9412
S11313207B0984E291E00E946E0983EC99E00197C5
S1131330F1F700C00000089585E08093B800089597
S113134084EA8093BC008091BC008823E4F708956C
S11313508093BB0084E88093BC008091BC00882308
S1131360E4F7089584EC8093BC008091BC0088234A
S1131370E4F78091BB0090E0A0E0B0E08093F50139
S11313809093F601A093F701B093F80184EC809355
S1131390BC008091BC008823E4F78091BB0090E0FE
S11313A0A0E0B0E08093FD019093FE01A093FF01C3
S11313B0B093000284E88093BC008091BC00882331
S11313C0E4F78091BB0090E0A0E0B0E08093F901E5
S11313D09093FA01A093FB01B093FC01089584E972
S11313E08093BC0008950E94A00980ED0E94A80982
S11313F08CE10E94A8090E94EF090895CF93DF931E
S11314000E949C090E94F3090E94A00981ED0E9498
S1131410A8090E94B2092091F50180E090E0922F82
S1131420990F990FC091FD01D091FE01CC0FDD1FE2
S1131430CC0FDD1FC82BD92B8091F9019091FA01B3
S1131440082E892F000C881F990B000C881F991FE8
S1131450C82BD92B22970E94EF09CE01DF91CF919F
S113146008950E94FE09BC01990F880B990B0E94F4
S1131470D01220E030E040E050E40E94BA1120E0B5
S113148030E04AE754E40E945C1320E030EE4FEF72
S113149054E40E94261220E030E040EA51E40E9425
S11314A05C130E949812CB01089594EA9093BC00B7
S11314B09091BC009923E4F79091B9009B7F9830F8
S11314C009F057C090E99093BB0094E89093BC0056
S11314D09091BC009923E4F79091B9009B7F9831D7
S11314E009F047C08093BB0084E88093BC008091DE
S11314F0BC008823E4F78091B9008B7F8832C9F55A
S113150084EA8093BC008091BC008823E4F7809136
S1131510B9008B7F803169F581E98093BB0084E851
S11315208093BC008091BC008823E4F78091B900CB
S11315308B7F8034F1F415C02115310521F484E842
S11315408093BC0003C084EC8093BC008091BC00F9
S11315508823E4F78091BB00FB018083A9016F5FBE
S11315607F4F9A0121503109452B31F784E980934B
S1131570BC00089594EA9093BC009091BC00992318
S1131580E4F79091B9009B7F9830D1F590E990935E
S1131590BB0094E89093BC009091BC009923E4F7BD
S11315A09091B9009B7F983159F58093BB0084E8F2
S11315B08093BC008091BC008823E4F78091B9003B
S11315C08B7F8832E9F414C0FB013196DB018C91E6
S11315D08093BB0084E88093BC008091BC00882386
S11315E0E4F78091B900A9018B7F883249F4BF01E7
S11315F09A0121503109452B39F784E98093BC00C5
S113160008951F93CF93DF931F92CDB7DEB7182FA2
S113161041E050E0BE016F5F7F4F81E00E94550AB8
S11316208981282F2F7930E2139FC0011124822B46
S1131630898341E050E0BE016F5F7F4F81E00E94EB
S1131640BA0A0F90DF91CF911F9108951F93CF9302
S1131650DF931F92CDB7DEB7182F41E050E0BE01F3
S11316606F5F7F4F81E00E94550A89818E7F182B1E
S1131670198341E050E0BE016F5F7F4F81E00E941B
S1131680BA0A0F90DF91CF911F910895EF92FF92C4
S11316901F93CF93DF9300D0CDB7DEB742E050E085
S11316A0BE016F5F7F4F80E00E94550AE980FA8097
S11316B0B701772780E090E00E94CE121F2DF7FE3D
S11316C006C020E030E040E05FE30E94BA1116FF5C
S11316D006C020E030E040E85EE30E94BA1115FF46
S11316E006C020E030E040E05EE30E94BA1114FF3F
S11316F006C020E030E040E85DE30E94BA110F909C
S11317000F90DF91CF911F91FF90EF9008958F92EA
S11317109F92AF92BF92CF92DF92EF92FF920F937C
S11317201F93CF93DF93CDB7DEB7AA970FB6F89484
S1131730DEBF0FBECDBF0E94840C83E00E94010B6C
S113174080E00E94260B01E010E03CC00E94460BA2
S11317504B015C010E9498126B017C01072E000C66
S1131760880B990B0E94D0129B01AC01C501B401F6
S11317700E94B91120E030E44CE156E40E945C136D
S11317800E9498129B01772324F422273327261BD7
S1131790370B3F932F93DF92CF9280E091E09F939A
S11317A08F93CE0101969F938F930E94F51385E248
S11317B091E00E94970C0F5F1F4F0FB6F894DEBFA5
S11317C00FBECDBF0B3F11050CF285E291E00E94E4
S11317D0970CCE0101960E94CF139F938F9388E1BB
S11317E091E09F938F938E010F5D1F4F1F930F9373
S11317F00E94F513C8010E94CF130F900F900F9011
S11318000F900F900F90AA960FB6F894DEBF0FBEFC
S1131810CDBFDF91CF911F910F91FF90EF90DF909B
S1131820CF90BF90AF909F908F9008958AB1877F9B
S11318308AB98AB18F7E8AB98BB188608BB98BB132
S113184080618BB9089589B182958F7091E0892761
S113185081708093EA0190E0089589B18695869518
S1131860869591E0892781708093EB0190E008953B
S11318708AB18F7D8AB98AB18F7B8AB98BB1806234
S11318808BB98BB180648BB9089589B182958695A3
S1131890877091E0892781708093E90190E0089531
S11318A089B1829586958695837091E089278170A8
S11318B08093E80190E0089584B1886084B9E0EBF6
S11318C0F0E0808183608083A1EBB0E08C91826042
S11318D08C9380818068808308959C01629FC001FD
S11318E0639F900D729F900D11248F3F910509F015
S11318F01CF4992334F403C08FEF90E002C080E01D
S113190090E08093B30008951092C50087E6809319
S1131910C40088E18093C10086E08093C2000895EA
S11319209091C00095FFFCCF8093C6000895CF939B
S1131930DF93EC0103C00E94900C219688818111F1
S1131940FACFDF91CF9108958DE00E94900C8AE048
S11319500E94900C08958091C0008823E4F7809140
S1131960C6000895CF930E94AB0CC82F0E94900C20
S11319700E94A40C8C2FCF910895CF93DF93FC0188
S113198003C00E94900CFE01EF0121968491811105
S1131990F8CFDF91CF9108950E94A40C8FEC9FE0C3
S11319A00E94BD0C08950E94A40C89ED9EE00E9443
S11319B0BD0C0E94A40C82E79EE00E94BD0C0E9414
S11319C0A40C8AE09EE00E94BD0C0E94A40C82EA52
S11319D09DE00E94BD0C0E94A40C8AE39DE00E943D
S11319E0BD0C0E94A40C82ED9CE00E94BD0C0E94E0
S11319F0A40C8AE69CE00E94BD0C0E94A40C82E028
S1131A009CE00E94BD0C0E94A40C8AE99BE00E9409
S1131A10BD0C0E94A40C08950E94A40C0E94A40C66
S1131A2088EA9AE00E94BD0C0E94A40C81E59AE029
S1131A300E94BD0C0E94A40C89EF99E00E94BD0C89
S1131A400E94A40C83EA99E00E94BD0C0E94A40C9D
S1131A5089E599E00E94BD0C0E94A40C81E099E004
S1131A600E94BD0C0E94A40C88EA98E00E94BD0C60
S1131A700E94A40C8EE498E00E94BD0C0E94A40C69
S1131A8084EF97E00E94BD0C0E94A40C89E997E0C2
S1131A900E94BD0C0E94A40C82E497E00E94BD0C3D
S1131AA00E94A40C8EEF96E00E94BD0C0E94A40C30
S1131AB087EB96E00E94BD0C0E94A40C8FE696E092
S1131AC00E94BD0C0E94A40C88E296E00E94BD0C0A
S1131AD00E94A40C8FED95E00E94BD0C0E94A40C02
S1131AE086E995E00E94BD0C0E94A40C8DE495E06B
S1131AF00E94BD0C0E94A40C85E095E00E94BD0CE0
S1131B000E94A40C8CEB94E00E94BD0C0E94A40CD7
S1131B1085E794E00E94BD0C0E94A40C8EE294E040
S1131B200E94BD0C0E94A40C08950E94A40C86E897
S1131B309BE00E94BD0C0E94A40C8DE69BE00E94D9
S1131B40BD0C0E94A40C85E59BE00E94BD0C0E9484
S1131B50A40C85E49BE00E94BD0C0E94A40C88EABE
S1131B609FE00E94BD0C08956F927F928F929F9286
S1131B70AF92BF92CF92DF92EF92FF920F931F9397
S1131B80CF93DF93782E692EC62FD72F942E852ED0
S1131B90B22EA32E0E94A40C8BE29BE00E94BD0CEB
S1131BA00E94A40C81E19BE00E94BD0C0E94A40C45
S1131BB087EF9AE00E94BD0C0E94A40C8FE79FE07F
S1131BC00E94BD0C0E94A40C8AE99FE00E94BD0CF7
S1131BD0DF93CF930F2EF8E1CF2EF1E0DF2EF02D1F
S1131BE0DF92CF92CBE1D2E0DF93CF930E94F51343
S1131BF0CE010E94970C86E99FE00E94BD0C0E94D2
S1131C00A40C8CE89FE00E94BD0C6F927F92DF923F
S1131C10CF92DF93CF930E94F513CE010E94970CCD
S1131C2088E89FE00E94BD0C0E94A40C80E49FE021
S1131C300E94BD0C0E94A40C8BE191E00E94970CC1
S1131C408F929F92DF92CF92DF93CF930E94F513EE
S1131C50CE010E94970C0E94A40C86E291E00E949F
S1131C60970CAF92BF92DF92CF92DF93CF930E94F3
S1131C70F513CE010E94970C0E94A40C81E391E01D
S1131C800E94970C1F930F93DF92CF92DF93CF9311
S1131C900E94F513CE010E94970C0E94A40C8CE3C1
S1131CA091E00E94970CFF92EF92DF92CF92DF9324
S1131CB0CF930E94F5138DB79EB784960FB6F89410
S1131CC09EBF0FBE8DBFCE010E94970C0E94A40C34
S1131CD088EA9FE00E94BD0CDF91CF911F910F9184
S1131CE0FF90EF90DF90CF90BF90AF909F908F9038
S1131CF07F906F9008950E94A40C8DE094E00E9460
S1131D00BD0C0E94A40C84EE93E00E94BD0C0E94C2
S1131D10A40C8BEB93E00E94BD0C0E94A40C82E9FE
S1131D2093E00E94BD0C0E94A40C89E693E00E94FB
S1131D30BD0C0E94A40C80E493E00E94BD0C0E94A0
S1131D40A40C80E293E00E94BD0C0E94A40C81EFDD
S1131D5092E00E94BD0C0E94A40C82EC92E00E94CE
S1131D60BD0C0E94A40C83E992E00E94BD0C0E9469
S1131D70A40C84E692E00E94BD0C0E94A40C8FE2A5
S1131D8092E00E94BD0C0E94A40C8AEF91E00E9494
S1131D90BD0C0E94A40C85EC91E00E94BD0C0E9435
S1131DA0A40C80E991E00E94BD0C0E94A40C82E680
S1131DB091E00E94BD0C0E94A40C84E391E00E9477
S1131DC0BD0C0E94A40C86E091E00E94BD0C0E9410
S1131DD0A40C88ED90E00E94BD0C0E94A40C88EB3A
S1131DE090E00E94BD0C0E94A40C88EA9FE00E942F
S1131DF0BD0C08950E949C090E94F3090E94310AB7
S1131E0090931402809313020E94EF090E94870B9F
S1131E1090933402809333020895CF93DF93C0E00C
S1131E20D0E00FC00E94870B90933402809333025A
S1131E3021966AE570E0681B790B81E090E00E94CE
S1131E406D0CCA30D10571F7DF91CF9108950F93CE
S1131E501F93CF93DF9387E491E00E946E090E9461
S1131E6086090E940D0F80E591E00E946E090E9490
S1131E7086090E940D0F8BE591E00E946E090E9475
S1131E80860984E691E00E946E090E9486090E94F8
S1131E900D0F809112028F93809111028F9308E1AC
S1131EA011E01F930F93CBE1D2E0DF93CF930E9415
S1131EB0F513CE010E946E090E9486090E940D0F3F
S1131EC080911A028F93809119028F931F930F931D
S1131ED0DF93CF930E94F513CE010E946E090E94F6
S1131EE086090E940D0F809118028F93809117022A
S1131EF08F931F930F93DF93CF930E94F513CE011B
S1131F000E946E090E9486090E940D0F809116029C
S1131F108F93809115028F931F930F93DF93CF9329
S1131F200E94F513CE010E946E090E9486090E9448
S1131F300D0F8CE691E00E946E090E94860983E7EA
S1131F4091E00E946E090E9486090E940D0F809103
S1131F5034028F93809133028F931F930F93DF93F7
S1131F60CF930E94F513CE010E946E0980E891E0A0
S1131F700E946E090E9486090E940D0F83E891E079
S1131F800E946E090E9486090E940D0F809114021E
S1131F908F93809113028F931F930F93DF93CF93AB
S1131FA00E94F5138DB79EB784960FB6F8949EBF22
S1131FB00FBE8DBFCE010E946E098CE891E00E9495
S1131FC06E099FED22EB83E0915020408040E1F7C1
S1131FD000C000000E9486090E940D0FDF91CF917E
S1131FE01F910F910895E1E8F0E08081886080837B
S1131FF080E490E09093890080938800AFE6B0E09D
S11320008C9182608C9380818360808308951F9279
S11320100F920FB60F9211242F933F934F935F9318
S11320206F937F938F939F93AF93BF93EF93FF939C
S11320308091F001813091F48091EF01813071F44D
S11320408091ED019091EE0101969093EE018093C1
S1132050ED011092EC010E940D0F06C01092EE01EA
S11320601092ED011092EC018091ED019091EE013E
S1132070883D9E4011F40E94FA0E8091ED019091EA
S1132080EE0187339A4419F581E08093EC011092B4
S1132090EE011092ED011F928F9388E191E09F93DE
S11320A08F938BE192E09F938F930E94F5138BE1C2
S11320B092E00E94970C0E943C090E94270F0E9404
S11320C059080F900F900F900F900F900F90FF9161
S11320D0EF91BF91AF919F918F917F916F915F919C
S11320E04F913F912F910F900FBE0F901F90189515
S11320F00E94450C8093F0010E94500C8093EF01E4
S11321008091F001813009F041C08091F1018F5F2D
S11321108093F101853061F481E08093F10108C07E
S11321208091EC01811104C00E94450C8093F00160
S11321308091F0018130A1F30E943C098091F1016A
S1132140823071F018F4813031F019C0833069F0B5
S1132150843081F014C08FE891E00E946E090895E4
S113216089E991E00E946E09089583EA91E00E9452
S11321706E0908958DEA91E00E946E09089581E048
S11321808093F1018FE891E00E946E0908950E9406
S11321902D0C8093F3010E94230C8093F201089587
S11321A0CF93DF9380E00E942F08C8E7D0E06881D6
S11321B0798180E090E00E94CE1220E030EC4FE77D
S11321C054E40E94261220E030E048EC52E40E94DD
S11321D05C130E949812709312026093110281E0C2
S11321E00E942F086881798180E090E00E94CE12DD
S11321F020E030EC4FE754E40E94261220E030E067
S113220048EC52E40E945C130E94981270931A02E4
S11322106093190282E00E942F086881798180E02E
S113222090E00E94CE1220E030EC4FE754E40E948C
S1132230261220E030E048EC52E40E945C130E9435
S11322409812709318026093170283E00E942F087B
S11322506881798180E090E00E94CE1220E030EC29
S11322604FE754E40E94261220E030E048EC52E4A8
S11322700E945C130E9498127093160260931502D8
S1132280DF91CF9108950E94D0100E94FA0E0E940F
S1132290C7100E94781008950E941E080E94840CA2
S11322A00E94160C0E94380C0E94F30F0E945C0CD2
S11322B078940895EF92FF920F931F93CF930E9407
S11322C0B20CC82F0E94A40C8C2F90E0FC01F19753
S11322D0E832F105C8F5EC5CFF4F0C94C913E090AB
S11322E01502F09016020091170210911802209125
S11322F0190230911A024091110250911202609118
S113230033027091340280911302909114020E945E
S1132310B40D1AC00E947B0E17C00E940C0D14C08D
S11323200E94A40C87EB91E00E94970C0E947B0E04
S11323300BC00E940C0D08C00E940C0D05C00E9429
S11323400C0D02C00E94950DCF911F910F91FF902B
S1132350EF9008950E944C110E94D30C0E94CC0C63
S11323600E94950D0E9443110E940D0F0E945A1164
S1132370F9CF5058BB27AA270E94D1110C942213DD
S11323800E94141338F00E941B1320F039F49F3F6D
S113239019F426F40C9411130EF4E095E7FB0C9455
S11323A00B13E92F0E94331358F3BA17620773070C
S11323B08407950720F079F4A6F50C9455130EF4D0
S11323C0E0950B2EBA2FA02D0B01B90190010C0141
S11323D0CA01A0011124FF27591B99F0593F50F459
S11323E0503E68F11A16F040A22F232F342F4427B1
S11323F0585FF3CF469537952795A795F0405395A9
S1132400C9F77EF41F16BA0B620B730B840BBAF078
S11324109150A1F0FF0FBB1F661F771F881FC2F7E3
S11324200EC0BA0F621F731F841F48F487957795F7
S11324306795B795F7959E3F08F0B0CF9395880FB1
S113244008F09927EE0F9795879508950E943A1200
S11324500C9422130E941B1358F00E94141340F092
S113246029F45F3F29F00C940B1351110C9456136B
S11324700C9411130E94331368F39923B1F3552379
S113248091F3951B550BBB27AA2762177307840783
S113249038F09F5F5F4F220F331F441FAA1FA9F319
S11324A035D00E2E3AF0E0E832D091505040E69507
S11324B0001CCAF72BD0FE2F29D0660F771F881F68
S11324C0BB1F261737074807AB07B0E809F0BB0B5B
S11324D0802DBF01FF2793585F4F3AF09E3F51056F
S11324E078F00C940B130C9456135F3FE4F3983E6E
S11324F0D4F3869577956795B795F7959F5FC9F758
S1132500880F911D9695879597F90895E1E0660FD8
S1132510771F881FBB1F621773078407BA0720F051
S1132520621B730B840BBA0BEE1F88F7E0950895BA
S11325300E949F126894B1110C94561308950E943E
S11325403B1388F09F5798F0B92F9927B751B0F0F3
S1132550E1F0660F771F881F991F1AF0BA95C9F723
S113256014C0B13091F00E945513B1E008950C9459
S11325705513672F782F8827B85F39F0B93FCCF30C
S1132580869577956795B395D9F73EF490958095A0
S1132590709561957F4F8F4F9F4F0895E89409C0C0
S11325A097FB3EF490958095709561957F4F8F4F82
S11325B09F4F9923A9F0F92F96E9BB279395F69598
S11325C0879577956795B795F111F8CFFAF4BB0F16
S11325D011F460FF1BC06F5F7F4F8F4F9F4F16C07A
S11325E0882311F096E911C0772321F09EE8872F04
S11325F0762F05C0662371F096E8862F70E060E0C0
S11326002AF09A95660F771F881FDAF7880F969538
S1132610879597F9089597F99F6780E870E060E0DF
S113262008959FEF80EC089500240A941616170667
S113263018060906089500240A94121613061406AF
S113264005060895092E0394000C11F4882352F012
S1132650BB0F40F4BF2B11F460FF04C06F5F7F4FCA
S11326608F4F9F4F089557FD9058440F551F59F0B1
S11326705F3F71F04795880F97FB991F61F09F3F6B
S113268079F087950895121613061406551FF2CF94
S11326904695F1DF08C0161617061806991FF1CFE4
S11326A086957105610508940895E894BB2766270B
S11326B07727CB0197F908950E946F130C94221386
S11326C00E94141338F00E941B1320F0952311F07C
S11326D00C940B130C94111311240C9456130E9494
S11326E0331370F3959FC1F3950F50E0551F629F0C
S11326F0F001729FBB27F00DB11D639FAA27F00D57
S1132700B11DAA1F649F6627B00DA11D661F829F7D
S11327102227B00DA11D621F739FB00DA11D621F62
S1132720839FA00D611D221F749F3327A00D611D7F
S1132730231F849F600D211D822F762F6A2F112461
S11327409F5750409AF0F1F088234AF0EE0FFF1F94
S1132750BB1F661F771F881F91505040A9F79E3FEB
S1132760510580F00C940B130C9456135F3FE4F363
S1132770983ED4F3869577956795B795F795E79541
S11327809F5FC1F7FE2B880F911D9695879597F94A
S11327900895EE0FFF1F0590F491E02D0994FC01BC
S11327A088279927E89421912032E9F3293010F001
S11327B02E30C8F32B3241F02D3239F4689404C022
S11327C00E94ED13820F911D219120532A30C0F3F2
S11327D01EF4909581959F4F08957AE0979F902DD0
S11327E0879F802D910D11240895AEE0B0E0EBEFAA
S11327F0F3E10C94B6160D891E8986E08C831A8346
S113280009838FEF9FE79E838D83AE01475E5F4F01
S11328106F89788DCE0101960E941714EF81F88597
S1132820E00FF11F10822E96E4E00C94D216ABE078
S1132830B0E0EDE1F4E10C94A8166C017B018A018F
S1132840FC0117821682838181FFCCC1CE010196DF
S11328503C01F6019381F70193FD859193FF8191EA
S11328607F01882309F4BAC1853239F493FD859137
S113287093FF81917F01853229F4B60190E00E9493
S11328800E16E7CF912C212C312CFFE1F315D8F053
S11328908B3279F038F4803279F08332A1F4232D2D
S11328A020611DC08D3261F0803369F4232D2160D5
S11328B016C0832D8260382EE32DE4603E2E2AC09C
S11328C0F32DF8601DC037FC2DC020ED280F2A30F1
S11328D040F08E32B9F436FC81C1232D2064322EAF
S11328E019C036FE06C08AE0989E200D1124922E4F
S11328F011C0EAE02E9E200D1124222EF32DF06249
S11329003F2E08C08C3621F4832D8068382E02C0F7
S1132910883641F4F70193FD859193FF81917F01FE
S11329208111B3CF982F9F7D9554933028F40C5F79
S11329301F4F9FE399830DC0833631F0833771F0C5
S1132940833509F059C021C0F801808189830E5F65
S11329501F4F88248394912C530113C02801F2E063
S11329604F0E511CF801A080B18036FE03C0692DC2
S113297070E002C06FEF7FEFC5010E9403164C01A7
S11329808201F32DFF773F2E16C0280122E0420E6C
S1132990511CF801A080B18036FE03C0692D70E09F
S11329A002C06FEF7FEFC5010E94F8154C01F32DB3
S11329B0F0683F2E820133FC1BC0822D90E0881604
S11329C09906B0F4B60180E290E00E940E162A94B3
S11329D0F4CFF50137FC859137FE81915F01B60193
S11329E090E00E940E1621102A9421E0821A910888
S11329F08114910471F7E8C0843611F0893641F5E9
S1132A00F80137FE07C060817181828193810C5F78
S1132A101F4F08C060817181072E000C880B990B31
S1132A200E5F1F4FF32DFF763F2E97FF09C0909541
S1132A308095709561957F4F8F4F9F4FF0683F2E23
S1132A402AE030E0A3010E944A16882E861845C069
S1132A50853731F4232D2F7EB22E2AE030E025C0B5
S1132A60932D997FB92E8F36C1F018F4883579F0FB
S1132A70B5C0803719F0883721F0B0C0E92FE06184
S1132A80BE2EB4FE0DC0FB2DF460BF2E09C034FE73
S1132A900AC0292F2660B22E06C028E030E005C007
S1132AA020E130E002C020E132E0F801B7FE07C0C7
S1132AB060817181828193810C5F1F4F06C06081A8
S1132AC0718180E090E00E5F1F4FA3010E944A16BF
S1132AD0882E8618FB2DFF773F2E36FE0DC0232D42
S1132AE02E7FA22E891458F434FE0BC032FC09C088
S1132AF0832D8E7EA82E05C0B82CA32C03C0B82C21
S1132B0001C0B92CA4FE0FC0FE01E80DF11D8081A7
S1132B10803321F49A2D997EA92E09C0A2FE06C005
S1132B20B394B39404C08A2D867809F0B394A3FCBB
S1132B3011C0A0FE06C0B21488F4280C922C9B1875
S1132B400EC0B21460F4B60180E290E00E940E164A
S1132B50B394F7CFB21418F42B1802C0982C212C7C
S1132B60A4FE10C0B60180E390E00E940E16A2FEFF
S1132B7017C0A1FC03C088E790E002C088E590E09C
S1132B80B6010CC08A2D867859F0A1FE02C08BE2F2
S1132B9001C080E2A7FC8DE2B60190E00E940E160F
S1132BA0891438F4B60180E390E00E940E169A94DA
S1132BB0F7CF8A94F301E80DF11D8081B60190E00E
S1132BC00E940E168110F5CF222009F442CEB601E0
S1132BD080E290E00E940E162A94F6CFF6018681D8
S1132BE0978102C08FEF9FEF2B96E2E10C94C416FD
S1132BF0FC010590615070400110D8F780959095C4
S1132C008E0F9F1F0895FC016150704001900110C8
S1132C10D8F7809590958E0F9F1F08950F931F935B
S1132C20CF93DF93FB01238121FD03C08FEF9FEF3F
S1132C302CC022FF16C0468157812481358142175A
S1132C40530744F4A081B1819D012F5F3F4F31832D
S1132C5020838C93268137812F5F3F4F37832683D0
S1132C6014C08B01EC01FB010084F185E02D099572
S1132C70892BE1F6D80116968D919C9117970196B0
S1132C8017969C938E931697CE01DF91CF911F9147
S1132C900F910895FA01AA27283051F1203181F1CA
S1132CA0E8946F936E7F6E5F7F4F8F4F9F4FAF4F50
S1132CB0B1E03ED0B4E03CD0670F781F891F9A1F63
S1132CC0A11D680F791F8A1F911DA11D6A0F711D17
S1132CD0811D911DA11D20D009F468943F912AE023
S1132CE0269F11243019305D3193DEF6CF0108950B
S1132CF0462F4770405D4193B3E00FD0C9F7F6CF3C
S1132D00462F4F70405D4A3318F0495D31FD405203
S1132D10419302D0A9F7EACFB4E0A6959795879599
S1132D2077956795BA95C9F7009761057105089578
S1132D309B01AC010A2E0694579547953795279524
S1132D40BA95C9F7620F731F841F951FA01D0895BC
S1132D502F923F924F925F926F927F928F929F92A7
S1132D60AF92BF92CF92DF92EF92FF920F931F9395
S1132D70CF93DF93CDB7DEB7CA1BDB0B0FB6F89446
S1132D80DEBF0FBECDBF09942A88398848885F8486
S1132D906E847D848C849B84AA84B984C884DF80F7
S1132DA0EE80FD800C811B81AA81B981CE0FD11DDB
S1132DB00FB6F894DEBF0FBECDBFED010895F894B1
S1052DC0FFCF3F
S1132DC225642E25303464002D0054656D706572BF
S1132DD261747572613A2000256400426562696417
S1132DE26120313A200042656269646120323A20EE
S1132DF20042656269646120333A20004265626977
S1132E02646120343A2000204D6564696461730072
S1132E124E6976656C657320646500506F6C766FDD
S1132E22732025002820656E202529004269646FDD
S1132E326E3A003E54656D7065726174757261001C
S1132E422A43003E566F6C756D656E006D6C0020F2
S1132E52426562696461203100204265626964618D
S1132E622032002042656269646120330020426599
S1132E72626964612034003E3E2044656C207369BB
S1132E82677569656E7465206C69737461646F2C0F
S1132E92206573636F6A612071756520636F6E6666
S10B2EA26967757261723A0060
S9030000FC
