S00A000074502E7372656356
S11300000C94A2090C94BF090C94BF090C94BF0969
S11300100C94BF090C94BF090C94BF090C94BF093C
S11300200C94BF090C94BF090C94BF090C945B1E7B
S11300300C94BF090C94BF090C947F1E0C94BF0947
S11300400C94BF090C94BF090C94BF090C94BF090C
S11300500C94BF090C94BF090C94BF090C94BF09FC
S11300600C94BF090C94BF091B1D3A1D411D481D6A
S1130070421E421E421E421E421E421E421E421E7C
S1130080421E421E421E421E5D1D661D711D7C1DC8
S1130090871D921D971DA01DA91DAE1DB71DCB1D4B
S11300A0C01D421ED41DDD1DE81DF11DFA1D031ED9
S11300B00C1E131E241E351E421E3C1E3E3EA14332
S11300C0616D62696F20657869746F736F21213C7B
S11300D03C003D3D3D3D3D3D3D3D3D3D3D3D3D3D8A
S11300E03D3D3D3D3D3D3D3D3D3D3D3D3D3D3D3D3C
S11300F03D3D3D3D3D3D3D3D3D3D3D3D3D3D3D3D2C
S11301003D3D3D3D3D3D3D3D3D3D3D3D3D007C2036
S113011020A14154454E43494F4E213A20434F4C70
S11301204F515545204E554D45524F532044454E51
S113013054524F2044454C2052414E474F20504585
S1130140524D495449444F207C003D3D3D3D3D3D89
S11301503D3D3D3D3D3D3D3D3D3D3D3D3D3D3D3DCB
S11301603D3D3D3D3D3D3D3D3D3D3D3D3D3D3D3DBB
S11301703D3D3D3D3D3D3D3D3D3D3D3D3D3D3D3DAB
S11301803D3D3D3D3D0032292D2041707265746531
S1130190202732272068617374612076657220738A
S11301A0752063616D62696F207265666C656A6152
S11301B0646F0020736920656C206E756D65726FC5
S11301C0206DE178696D6F206573203130302079BE
S11301D02071756572656D6F7320706F6E65722026
S11301E032352D3E20273027202732272027352758
S11301F0200031292D20436F6C6F71756520636970
S113020066726120706F7220636966726120736523
S113021067756E2073656120656C206D6178696D0A
S11302206F2E20506F7220656A656D706C6F3A0096
S113023020506172612063616D62696172206C613A
S1130240207661726961626C652073696761206CF4
S11302506F73207369677569656E74652070617367
S11302606F733A003D3D3D3D3D3D3D3D3D3D3D3D92
S11302703D3D3D3D3D3D3D3D3D3D3D3D3D3D3D3DAA
S11302803D3D3D3D3D3D3D3D3D3D3D3D3D3D3D3D9A
S1130290007C20A14154454E43494F4E213A203120
S11302A03020434152414354455245532C20454E3E
S11302B0204D4159555343554C412E207C003D3D22
S11302C03D3D3D3D3D3D3D3D3D3D3D3D3D3D3D3D5A
S11302D03D3D3D3D3D3D3D3D3D3D3D3D3D3D3D3D4A
S11302E03D3D3D3D3D3D3D3D3D3D0033292D2041BE
S11302F070726574652027322720686173746120E9
S11303007665722073752063616D62696F20726512
S1130310666C656A61646F0032292D20436F6C6FCF
S113032071756520756E206775696F6E2062616AEC
S11303306F2028275F272920616C2066696E616C15
S11303400031292D20436F6C6F717565206C6574C5
S1130350726120706F72206C6574726120656C200C
S11303606E7565766F206E6F6D62726500205061E8
S113037072612063616D62696172206465206E6FD1
S11303806D62726520756E612062656269646120C8
S113039073696761206C6F73207369677569656E33
S11303A0746573207061736F733A0020572D203287
S11303B030204C0020562D203130204C003E3E533E
S11303C0656C656363696F6E6520656C206E756529
S11303D0766F20766F6C756D656E207072657369CB
S11303E06F6E616E646F20756E6120646520657345
S11303F0746173206C65747261733A0020552D54D6
S1130400616D61F16F206465204269646F6E20281C
S11304103130204C202D3230204C29203D002054F6
S11304202D506F7263656E74616A65206465205433
S11304306465736361726761204265626964612007
S11304403420283520612032352529203D002053D1
S11304502D506F7263656E74616A65206465205403
S113046064657363617267612042656269646120D7
S11304703320283520612032352529203D002052A3
S11304802D506F7263656E74616A652064652054D3
S113049064657363617267612042656269646120A7
S11304A03220283520612032352529203D00205175
S11304B02D506F7263656E74616A652064652054A3
S11304C06465736361726761204265626964612077
S11304D03120283520612032352529203D00205047
S11304E02D43616E7469646164206465206167757D
S11304F0612043616C69656E74652042656269645C
S11305006120342028313530206120333030206D93
S11305104C29203D00204F2D43616E746964616451
S113052020646520616775612043616C69656E7440
S113053065204265626964612033202831353020AA
S11305406120333030206D4C29203D00204E2D4356
S1130550616E7469646164206465206167756120FB
S113056043616C69656E74652042656269646120EB
S1130570322028313530206120333030206D4C2931
S1130580203D00204D2D43616E74696461642064D4
S11305906520616775612043616C69656E746520CF
S11305A04265626964612031202831353020612040
S11305B0333030206D4C29203D00204B2D43616E9B
S11305C07469646164206465207072656D657A6322
S11305D06C612042656269646120342028302061A6
S11305E020343230206D4C29203D00204A2D4361B7
S11305F06E7469646164206465207072656D657AE7
S1130600636C612042656269646120332028302074
S11306106120343230206D4C29203D0020492D4387
S1130620616E7469646164206465207072656D65CF
S11306307A636C61204265626964612032202830EB
S1130640206120343230206D4C29203D0020482D7B
S113065043616E7469646164206465207072656DC1
S1130660657A636C61204265626964612031202887
S113067030206120343230206D4C29203D00204749
S11306802D436F6E7374616E74652050726F706F5A
S11306907263696F6E616C20274B70273A002045A6
S11306A02D4E6F6D627265206465206C6120426519
S11306B06269646120342028313020636172E1630F
S11306C0746572657329203D0020442D4E6F6D6260
S11306D07265206465206C612042656269646120F2
S11306E0332028313020636172E16374657265736D
S11306F029203D0020432D4E6F6D62726520646594
S1130700206C6120426562696461203220283130A6
S113071020636172E163746572657329203D002072
S1130720422D4E6F6D627265206465206C612042BB
S1130730656269646120312028313020636172E18F
S113074063746572657329203D0020412D54656DE5
S1130750706572617475726120446573656164616A
S1130760202836302D3935292A43203D00343434AD
S11307703636363636363636363434352020202072
S113078020202020203330303036303030202020DC
S11307902020202020202020202020202035303020
S11307A03030303030303030303030303030002085
S11307B0202030303030303030303620202020209F
S11307C0202020202020202039303020383030369E
S11307D0202020202020203730303030303030307E
S11307E03030303030303030303030303030303005
S11307F0300020202030303030303030303920206C
S1130800202020202020202020202039303020309B
S113081030303032203530303030303030303030DD
S113082030303030303030303030303030303030C4
S11308303030303030002020203030303030303014
S11308403030322020202020202020202020203959
S11308503030303030303030303030303030303094
S11308603030303030303030303030303030303084
S113087030303030303030303000202020303030D4
S113088030303030303920203920202020202020E2
S11308902020203030303030303030303030303084
S11308A03030303030303030303030303030303044
S11308B03030303030303030303030303030002074
S11308C0202030303030303030303033372020206A
S11308D0202020202020203630303030303030307E
S11308E03030303030303030303030303030303004
S11308F030303030303030303030303030303030F4
S113090030303000202020202031202031202020B1
S1130910202020202020202020202039303030307A
S113092030303030303030303030303030303030C3
S113093030303030303030303030303030303030B3
S11309403030303030303030002020202020203132
S11309502020312020202020202020202020202082
S11309603030303030303030303030303030303083
S11309703030303030303030303030303030303073
S113098030303030303030303030303030002020B3
S11309902020203120203120202020202020202031
S11309A0202020203930303030303030303030307A
S11309B03030303030303030303030303030303033
S11309C03030303030303030303030303030303023
S11309D03000202020202020202020202020202023
S11309E0202020202020202039303030303030307A
S11309F030303030303030303030303030303030F3
S1130A0030303030303030303030303030303030E2
S1130A1030303030002020202020202020202020B2
S1130A202020202020202020203030303030303052
S1130A3030303030303030303030303030303030B2
S1130A4030303030303030303030303030303030A2
S1130A503030303030002020202020202020202062
S1130A602020202020202020203130303030303011
S1130A703030303030303030303030303030303072
S1130A803030303030303030303030303030303062
S1130A903030303031202020202020202020202001
S1130AA0202020434F4E534F4C4100202020202033
S1130AB020202020202020202020203030303030E2
S1130AC03030303030303030303030303030303022
S1130AD03030303030303030303030303030303012
S1130AE0303030303030303620202020202020207C
S1130AF0202020205554494C494345204553544116
S1130B0020202000202020202020202020202038E9
S1130B1030303030303030303030303030303030D1
S1130B2030303030303030303030303030303030C1
S1130B3030303030303030303030303030303120C0
S1130B40202020202050415241204D4F4449464905
S1130B50434152204553544F53202000202020204D
S1130B6020202020202030303030303030303030E1
S1130B703030303030303030303030303030303071
S1130B803030303030303030303030303030303061
S1130B90303420202020202043414E5449444144F5
S1130BA0204445205052454D455A434C412C455410
S1130BB043202000202020202020202020373030F7
S1130BC03030303030303030303030303030303021
S1130BD03030303030303030303030303020202041
S1130BE02020202020202020202020205055454453
S1130BF0454E20434F4E54524F4C41522054454D84
S1130C0050455241545552412C2000202020202090
S1130C10202020203430303030303030303030300C
S1130C2030303030303030303030303030303030C0
S1130C302020202020202020202020202027434165
S1130C404645544552412720455320554E20505285
S1130C504F594543544F20444F4E4445205345205B
S1130C600020202020202020202030303030203848
S1130C703030303030303030303030303030303070
S1130C80303030002020202020202020203430301C
S1130C90303030303030303030202033303030306D
S1130CA0303030352020202020204E4F4D425245F8
S1130CB03A20464142524943494F2044415649440F
S1130CC02047414C4C4F0020202020202020202071
S1130CD0202020343030303030303030303030303C
S1130CE030303030372020202020202020202020A9
S1130CF020202020202020202020202020202020F0
S1130D0020202020204C4943204A554C49414E2064
S1130D104D494E4154454C002020202020202020C5
S1130D20202020202020203132333238303030301F
S1130D30303030302020202020202020202020206F
S1130D40202020202020202050524F4645534F522F
S1130D5045533A20494E47204544554152444F207B
S1130D6056454C415A5155455A00202020202020F8
S1130D702020202020202020202020202020393046
S1130D8020203430302020202020545046492E2E5C
S1130D902E20434154454452413A202020205349B7
S1130DA05354454D4153204449474954414C4553BC
S1130DB0204956003D3D3D3D3D3D3D3D3D3D3D3D94
S1130DC03D3D3D3D3D3D3D3D3D3D3D3E3E007C2068
S1130DD04D45444943494F4E4553204143545541A1
S1130DE04C4553207C3E3E003D3D3D3D3D3D3D3D1B
S1130DF03D3D3D3D3D3D3D3D3D3D3D3D3D3D3D3E1E
S1130E003E003E3E203420436F6E66696775726112
S1130E1072003E3E2033204461746F732064656C1D
S1130E202050726F796563746F003E3E2032205605
S1130E30657220636F6E66696775726163696F6E50
S1130E406573003E3E203120566572204D6564690D
S1130E5063696F6E657300202B585858585858585A
S1130E602020202058582B202020585858585858B3
S1130E70582B20202B58782020207858583A2020AE
S1130E8020202B5858585820202020207858585873
S1130E905858587820203A58582020203B58582B2E
S1130EA020202058583B202020585858585858582B
S1130EB02B2020202078585858585878202000207B
S1130EC02B585820202058585820202058582B2080
S1130ED0202058582B202020202020202B587820F8
S1130EE0203A5858583A2020202078585858582EDC
S1130EF020202020785878202020202020203A58B4
S1130F005820202E5858582B20202058583B202059
S1130F102058582B20203B58583A20202B58582E24
S1130F20202E58582B2000202B58582020202B5896
S1130F30582E202058582B20202058582B20202071
S1130F40202020202B58782020785858583A2020E8
S1130F50202058582B58582B2020202078587820AF
S1130F602020202020203A585820202B5858582B35
S1130F7020202058583B20202058582B20203A5815
S1130F80583B20207858582020205858782000209A
S1130F902B585820202058585820202058582B20AF
S1130FA0202058582B202020202020202B58782027
S1130FB03A585858583A2020203B58583A3B5858E9
S1130FC020202020785878202020202020203A58E3
S1130FD0582020585858582B20202058583B20205F
S1130FE02058582B20203A58583B20207858582015
S1130FF020205858782000202B5858585858587892
S11310002020202058582B20202058585858585811
S11310103B2020202B58782078583B58583A2020E1
S113102020585858202058583A202020785858588A
S11310305858782020203A58582078582B58582B44
S113104020202058583B20202058582B20203A5844
S1131050583B2020785858202020585878200020C9
S11310602B58582E203B58583A20202058582B20D3
S1131070202058582B202020202020202B58783A3C
S113108058782058583A20202058582B2020585857
S11310903B202020785878202020202020203A58F7
S11310A0582058582058582B20202058583B20208E
S11310B02058582B20203A58583B20207858582044
S11310C020205858782000202B5858202020585889
S11310D07820202058582B20202058582B202020BE
S11310E0202020202B585858583A2058583A20206D
S11310F03A58583A20207858782020207858782078
S11311002020202020203A585858583B2058582B4B
S113111020202058583B20202058582B20203A5873
S1131120583B2020785858202020585878200020F8
S11311302B58582E203B58587820202058582B20C4
S1131140202058582B202020202020202B5858586D
S113115078202058583A20202B58582E20203A58CE
S1131160582E2020785878202020202020203A58FB
S1131170585858202058582B20202058583B2020BD
S11311802058582B20202B58582E20202B58582ECE
S1131190203A58582B00202B585858585858782023
S11311A020202058582B2020205858585858585838
S11311B02B20202B58585820202058583A202058AB
S11311C058782020202058583B20207858585858C8
S11311D058587820203A5858583A202058582B20EC
S11311E0202058583B202020585858585858583ACE
S11311F0202020207858585858587820003E3E4ED9
S11312006976656C6573206465206C6C656E6164D9
S11312106F206465206C6F7320646F736966696303
S113122061646F726573206465207072656D657AA0
S1131230636C612028656E2025293A003E3E426990
S1131240646F6E3A00206D4C002D566F6C756D65A1
S11312506E3A00202A43002D54656D7065726174E6
S11312607572613A003E3E506F72206661766F720D
S11312702C20696E74656E74656C6F206E7565766E
S1131280616D656E7465206DE173207461726465CF
S11312902E20414345505441523A204170726574A6
S11312A0652058003E3E4552524F523A204C412050
S11312B043414E54494441442050524F50554553A4
S11312C0544120455354C12046554552412044457C
S11312D02052414E474F204F20454E20464F524DFD
S11312E041544F204552524F4E454F003E3E4170AF
S11312F0726574652058207061726120766F6C7617
S1131300657220616C206D656E7520696E69636914
S1131310616C003E3E53656C656363696F6E652066
S1131320616C67756E61206465206C617320616E09
S1131330746572696F726573206F7063696F6E652F
S11313407320000011241FBECFEFD8E0DEBFCDBF55
S113135013E0A0E0B1E0E8EBF8E402C005900D92E0
S1131360A836B107D9F723E0A8E6B3E001C01D927F
S1131370AB3CB207E1F70E94491E0C945A240C942A
S11313800000ECE7F0E080818064808380818F7DC1
S11313908083EAE7F0E080818760808380818068D1
S11313A080830895ECE7F0E09081907F90839081B2
S11313B0892B8083EAE7F0E08081806480838091D8
S11313C07A0086FDFCCF089507C025E137EC3A95F5
S11313D0F1F72A95E1F701979923BCF70895CF9285
S11313E0DF92EF92FF92CF93DF9343E050E06EEAF7
S11313F073E088E191E00E94D90E8EEA93E00E94A6
S11314004A219093690380936803BC01990F880B68
S1131410990B0E94232020E030E040E751E40E9431
S1131420791F20E030E04AE754E40E94AF200E9494
S1131430EB1F709382036093810381E090E00E942C
S1131440C51280918103909182030E94E40944E0D3
S113145050E06EEA73E084E690E00E94D90E8EEAD2
S113146093E00E944A219093690380936803BC012E
S1131470990F880B990B0E94232020E030E048EC60
S113148051E40E94791F20E030E04AE754E40E94CE
S1131490AF200E94EB1F7093800360937F0380E171
S11314A090E00E94C51280917F03909180030E9476
S11314B0E40944E050E06EEA73E08CE890E00E94B6
S11314C0D90E8EEA93E00E944A21EC0190936903BD
S11314D08093680360917F0370918003072E000C52
S11314E0880B990B0E9423206B017C01CE0164E6DA
S11314F070E00E941C21072E000C880B990B0E949F
S1131500232020E030E040E85FE30E940D1F9B01B0
S1131510AC01C701B6010E94AF2020E030E04AE7E9
S113152054E40E94AF200E94EB1F709384036093E5
S1131530830380E091E00E94C5128091830390911F
S113154084030E94E4090E94DB12DF91CF91FF9093
S1131550EF90DF90CF900895CF92DF92EF92FF92B9
S1131560CF93DF9343E050E06EEA73E086E490E0CB
S11315700E94D90E8EEA93E00E944A219093690357
S113158080936803BC01990F880B990B0E94232058
S113159020E030E040E751E40E94791F20E030E091
S11315A04AE754E40E94AF200E94EB1F7093820329
S11315B06093810382E090E00E94C51280918103D0
S11315C0909182030E94E40944E050E06EEA73E0E3
S11315D08EE690E00E94D90E8EEA93E00E944A21A2
S11315E09093690380936803BC01990F880B990B4E
S11315F00E94232020E030E048EC51E40E94791F4F
S113160020E030E04AE754E40E94AF200E94EB1F40
S11316107093800360937F0380E290E00E94C51280
S113162080917F03909180030E94E40944E050E09C
S11316306EEA73E081E990E00E94D90E8EEA93E0AD
S11316400E944A21EC01909369038093680360919E
S11316507F0370918003072E000C880B990B0E9466
S113166023206B017C01CE0164E670E00E941C2102
S1131670072E000C880B990B0E94232020E030E0F9
S113168040E85FE30E940D1F9B01AC01C701B60156
S11316900E94AF2020E030E04AE754E40E94AF20EB
S11316A00E94EB1F709384036093830380E092E0B5
S11316B00E94C51280918303909184030E94E409DF
S11316C00E94DB12DF91CF91FF90EF90DF90CF90DB
S11316D00895CF92DF92EF92FF92CF93DF9343E08E
S11316E050E06EEA73E080E590E00E94D90E8EEA45
S11316F093E00E944A219093690380936803BC019C
S1131700990F880B990B0E94232020E030E040E7DA
S113171051E40E94791F20E030E04AE754E40E943B
S1131720AF200E94EB1F709382036093810384E0D7
S113173090E00E94C51280918103909182030E94DF
S1131740E40944E050E06EEA73E084E690E00E942D
S1131750D90E8EEA93E00E944A2190936903809304
S11317606803BC01990F880B990B0E94232020E089
S113177030E048EC51E40E94791F20E030E04AE771
S113178054E40E94AF200E94EB1F70938003609387
S11317907F0380E490E00E94C51280917F039091C2
S11317A080030E94E40944E050E06EEA73E086E9B5
S11317B090E00E94D90E8EEA93E00E944A21EC0147
S11317C0909369038093680360917F037091800311
S11317D0072E000C880B990B0E9423206B017C01BF
S11317E0CE0164E670E00E941C21072E000C880BD9
S11317F0990B0E94232020E030E040E85FE30E9440
S11318000D1F9B01AC01C701B6010E94AF2020E06F
S113181030E04AE754E40E94AF200E94EB1F70932B
S113182084036093830380E094E00E94C512809156
S11318308303909184030E94E4090E94DB12DF91E8
S1131840CF91FF90EF90DF90CF900895CF92DF92E9
S1131850EF92FF92CF93DF9343E050E06EEA73E0A0
S11318608AE590E00E94D90E8EEA93E00E944A2114
S11318709093690380936803BC01990F880B990BBB
S11318800E94232020E030E040E751E40E94791FC9
S113189020E030E04AE754E40E94AF200E94EB1FAE
S11318A0709382036093810388E090E00E94C512E4
S11318B080918103909182030E94E40944E050E006
S11318C06EEA73E082E890E00E94D90E8EEA93E01B
S11318D00E944A219093690380936803BC01990F85
S11318E0880B990B0E94232020E030E048EC51E45F
S11318F00E94791F20E030E04AE754E40E94AF20C0
S11319000E94EB1F7093800360937F0380E890E054
S11319100E94C51280917F03909180030E94E40984
S113192044E050E06EEA73E08BE990E00E94D90E47
S11319308EEA93E00E944A21EC019093690380931C
S1131940680360917F0370918003072E000C880B5D
S1131950990B0E9423206B017C01CE0164E670E0A8
S11319600E941C21072E000C880B990B0E94232037
S113197020E030E040E85FE30E940D1F9B01AC01D2
S1131980C701B6010E94AF2020E030E04AE754E4EA
S11319900E94AF200E94EB1F709384036093830323
S11319A080E098E00E94C5128091830390918403A3
S11319B00E94E4090E94DB12DF91CF91FF90EF9027
S11319C0DF90CF9008958230910569F01CF401975F
S11319D039F008958330910549F0049751F0089542
S11319E00E94EF0908950E94AC0A08950E94690BB1
S11319F008950E94260C0895883121E0920759F138
S1131A008634910551F18035910549F18A35910566
S1131A1041F18436910539F18E36910531F18837DB
S1131A20910529F18238910521F18C38910519F13C
S1131A308139910511F18639910509F18B399105A7
S1131A4001F1803A9105F9F08A3A9105F1F0843B6D
S1131A509105E9F0089584E4089584E4089584E404
S1131A60089584E4089581E4089581E4089581E467
S1131A70089581E4089580E5089580E5089580E55A
S1131A80089580E5089586E508958BE4089584E536
S1131A900895EF92FF921F93CF93DF9300D01F928C
S1131AA0CDB7DEB77C010E947A17109269031092B9
S1131AB068030E94C513898381E090E090936903D1
S1131AC0809368030E94C5138A831B82C7010E9406
S1131AD0FC0C182F843591F4CE0101960E944A2102
S1131AE0803691054CF4CC973CF0BE016F5F7F4F7C
S1131AF0C7010E949F0E02C00E946B171B3479F429
S1131B00CE0101960E944A21892B39F0BE016F5FF4
S1131B107F4FC7010E949F0E02C00E946B171035B1
S1131B2091F4CE0101960E944A218A3191054CF428
S1131B3005973CF0BE016F5F7F4FC7010E949F0E67
S1131B4002C00E946B170F900F900F90DF91CF91FE
S1131B501F91FF90EF9008950F931F93CF93DF93FE
S1131B60CDB7DEB72B970FB6F894DEBF0FBECDBF4F
S1131B708C0110926903109268030E94C513898333
S1131B8081E090E090936903809368030E94C513F9
S1131B908A8382E090E090936903809368030E94B3
S1131BA0C5138B8383E090E090936903809368036B
S1131BB00E94C5138C8384E090E090936903809322
S1131BC068030E94C5138D8385E090E090936903B8
S1131BD0809368030E94C5138E8386E090E09093FF
S1131BE06903809368030E94C5138F8387E090E0A4
S1131BF090936903809368030E94C513888788E0E3
S1131C0090E090936903809368030E94C5138987C9
S1131C1089E090E090936903809368030E94C51360
S1131C208A871C86BE016F5F7F4FC8010E949F0E8A
S1131C308CEB90E00E94D0130E9496132B960FB663
S1131C40F894DEBF0FBECDBFDF91CF911F910F91EE
S1131C500895EF92FF921F93CF93DF9300D000D0AB
S1131C60CDB7DEB77C010E947A17109269031092F7
S1131C7068030E94C513898381E090E0909369030F
S1131C80809368030E94C5138A8382E090E0909356
S1131C906903809368030E94C5138B831C82C70168
S1131CA00E94FC0C182F843499F4CE0101960E94F2
S1131CB04A21853A21E092074CF499233CF0BE0175
S1131CC06F5F7F4FC7010E949F0E02C00E946B1777
S1131CD01134A1F4CE0101960E944A218D3221E0F3
S1131CE0920754F4863991053CF0BE016F5F7F4F33
S1131CF0C7010E949F0E02C00E946B170F900F90A5
S1131D000F900F90DF91CF911F91FF90EF90089566
S1131D10F894F999FECF92BD81BD60BD8FB3846004
S1131D208FBB8FB382608FBB78940895F999FECFEF
S1131D3092BD81BD8FB381608FBB80B50895AF9292
S1131D40BF92CF92DF92EF92FF920F931F93CF93A4
S1131D50DF936C015B01C0E0D0E00EC07E01EC0CAF
S1131D60FD1CC7010E94960EF8016081861719F0C8
S1131D70C7010E94880E219685010C0F1D1FF801D2
S1131D8080818111EBCFCC0DDD1DCE010E94960E1A
S1131D90882321F060E0CE010E94880EDF91CF916C
S1131DA01F910F91FF90EF90DF90CF90BF90AF9075
S1131DB00895AF92BF92CF92DF92EF92FF920F936A
S1131DC01F93CF93DF935C016B017A01C0E0D0E0F5
S1131DD00BC086010C0F1D1FCE018A0D9B1D0E9496
S1131DE0960EF80180832196CE15DF0590F3F60157
S1131DF0EE0DFF1D1082DF91CF911F910F91FF9087
S1131E00EF90DF90CF90BF90AF90089589E18093D9
S1131E10B8001092B900089584EA8093BC008091C0
S1131E20BC008823E4F708958093BB0084E8809382
S1131E30BC008091BC008823E4F7089584E9809372
S1131E40BC008091BC0080FDFCCF0895EBEBF0E07A
S1131E5080818260808384E88093BC008091BC0090
S1131E608823E4F789EF90E00197F1F700C00000C0
S1131E70EBEBF0E080818D7F808384E88093BC006D
S1131E808091BC008823E4F70895EBEBF0E09081A7
S1131E909E7F908394E89093BC009091BC0099231A
S1131EA0E4F7EBEBF0E090819F70908394E89093DB
S1131EB0BC009091BC009923E4F7EBEBF0E0908137
S1131EC0807F892B808384E88093BC008091BC0050
S1131ED08823E4F70E94260F0895CF93C82FEBEBD5
S1131EE0F0E080818E7F808384E88093BC008091C1
S1131EF0BC008823E4F7EBEBF0E080818F708083F3
S1131F0084E88093BC008091BC008823E4F7EBEB69
S1131F10F0E080819C2F907F892B808384E88093DC
S1131F20BC008091BC008823E4F70E94260FEBEBF1
S1131F30F0E080818F70808384E88093BC0080917E
S1131F40BC008823E4F7EBEBF0E0208130E1C39F91
S1131F50C0011124822B808384E88093BC0080918B
S1131F60BC008823E4F70E94260FCF910895CF93F5
S1131F70C82FEBEBF0E080818160808384E880935C
S1131F80BC008091BC008823E4F7EBEBF0E0808197
S1131F908F70808384E88093BC008091BC00882388
S1131FA0E4F7EBEBF0E080819C2F907F892B80831A
S1131FB084E88093BC008091BC008823E4F70E94ED
S1131FC0260FEBEBF0E080818F70808384E88093B0
S1131FD0BC008091BC008823E4F7EBEBF0E02081A7
S1131FE030E1C39FC0011124822B808384E8809355
S1131FF0BC008091BC008823E4F70E94260FCF9197
S113200008950E94060F0E940C0F80E40E94140F92
S113201081EE94E00197F1F700C0000080E30E9494
S1132020450F81EE94E00197F1F700C0000080E3D2
S11320300E94450F80E20E94450F81EE94E00197D3
S1132040F1F700C0000088E20E946D0F8CE00E944E
S11320506D0F81E00E946D0F86E00E946D0F80E895
S11320600E946D0F0895CF93DF93EC0103C0219676
S11320700E94B70F88818111FACFDF91CF91089523
S113208081E00E946D0F81E28A95F1F7000080E8FB
S11320900E946D0F089585E08093B800089584EA46
S11320A08093BC008091BC008823E4F7089580935A
S11320B0BB0084E88093BC008091BC008823E4F7D3
S11320C0089584EC8093BC008091BC008823E4F7DD
S11320D08091BB0090E0A0E0B0E0809386039093F1
S11320E08703A0938803B093890384EC8093BC0096
S11320F08091BC008823E4F78091BB0090E0A0E0CD
S1132100B0E080938E0390938F03A0939003B093D9
S1132110910384E88093BC008091BC008823E4F799
S11321208091BB0090E0A0E0B0E080938A0390939C
S11321308B03A0938C03B0938D03089584E980935B
S1132140BC0008950E944F1080ED0E9457108CE14E
S11321500E9457100E949E100895CF93DF930E940F
S11321604B100E94A2100E944F1081ED0E94571044
S11321700E9461102091860380E090E0922F990FD5
S1132180990FC0918E03D0918F03CC0FDD1FCC0F1C
S1132190DD1FC82BD92B80918A0390918B03082EC5
S11321A0892F000C881F990B000C881F991FC82BBE
S11321B0D92B22970E949E10CE01DF91CF910895D2
S11321C00E94AD10BC01990F880B990B0E9423202B
S11321D020E030E040E050E40E940D1F20E030E0B9
S11321E04AE754E40E94AF2020E030EE4FEF54E47D
S11321F00E94791F20E030E040EA51E40E94AF20C1
S11322000E94EB1FCB01089594EA9093BC00909137
S1132210BC009923E4F79091B9009B7F983009F0B2
S113222057C090E99093BB0094E89093BC009091C0
S1132230BC009923E4F79091B9009B7F983109F091
S113224047C08093BB0084E88093BC008091BC00AD
S11322508823E4F78091B9008B7F8832C9F584EA3A
S11322608093BC008091BC008823E4F78091B9007E
S11322708B7F803169F581E98093BB0084E880938A
S1132280BC008091BC008823E4F78091B9008B7F67
S11322908034F1F415C02115310521F484E88093CC
S11322A0BC0003C084EC8093BC008091BC008823F4
S11322B0E4F78091BB00FB018083A9016F5F7F4F2E
S11322C09A0121503109452B31F784E98093BC00F0
S11322D0089594EA9093BC009091BC009923E4F78C
S11322E09091B9009B7F9830D1F590E99093BB0011
S11322F094E89093BC009091BC009923E4F79091EA
S1132300B9009B7F983159F58093BB0084E8809392
S1132310BC008091BC008823E4F78091B9008B7FD6
S11323208832E9F414C0FB013196DB018C9180936F
S1132330BB0084E88093BC008091BC008823E4F750
S11323408091B900A9018B7F883249F4BF019A01B9
S113235021503109452B39F784E98093BC00089555
S11323601F93CF93DF931F92CDB7DEB7182F41E0B1
S113237050E0BE016F5F7F4F81E00E9404118981AC
S1132380282F2F7930E2139FC0011124822B8983D7
S113239041E050E0BE016F5F7F4F81E00E94691110
S11323A00F90DF91CF911F9108951F93CF93DF93E7
S11323B01F92CDB7DEB7182F41E050E0BE016F5F2A
S11323C07F4F81E00E94041189818E7F182B19832D
S11323D041E050E0BE016F5F7F4F81E00E946911D0
S11323E00F90DF91CF911F910895EF92FF921F9369
S11323F0CF93DF9300D0CDB7DEB742E050E0BE010B
S11324006F5F7F4F80E00E940411E980FA80B7017A
S1132410772780E090E00E9421201F2DF7FE06C060
S113242020E030E040E05FE30E940D1F16FF06C08D
S113243020E030E040E85EE30E940D1F15FF06C077
S113244020E030E040E05EE30E940D1F14FF06C070
S113245020E030E040E85DE30E940D1F0F900F90F4
S1132460DF91CF911F91FF90EF9008958F929F92EB
S1132470AF92BF92CF92DF92EF92FF920F931F938E
S1132480CF93DF93CDB7DEB7AA970FB6F894DEBF2C
S11324900FBECDBF0E94761383E00E94B01180E08E
S11324A00E94D51101E010E03CC00E94F5114B01DF
S11324B05C010E94EB1F6B017C01072E000C880B52
S11324C0990B0E9423209B01AC01C501B4010E9419
S11324D00C1F20E030E44CE156E40E94AF200E943F
S11324E0EB1F9B01772324F422273327261B370B6A
S11324F03F932F93DF92CF928EE191E09F938F933E
S1132500CE0101969F938F930E94702185E391E001
S11325100E9489130F5F1F4F0FB6F894DEBF0FBEE2
S1132520CDBF0B3F11050CF285E391E00E948913A6
S1132530CE0101960E944A219F938F9386E391E0F6
S11325409F938F938E010F5D1F4F1F930F930E94D4
S11325507021C8010E944A210F900F900F900F9094
S11325600F900F90AA960FB6F894DEBF0FBECDBFA2
S1132570DF91CF911F910F91FF90EF90DF90CF905B
S1132580BF90AF909F908F900895CF93DF93D82FF3
S1132590C92FF8940E940C0F8EE40E94140F8D2F03
S11325A00E94140F8C2F0E94140F0E941E0F789407
S11325B0DF91CF91089580E090E00E94C5120895C4
S11325C08AB1877F8AB98AB18F7E8AB98BB18860D4
S11325D08BB98BB180618BB9089589B182958F7065
S11325E091E08927817080936C0390E0089589B10C
S11325F086958695869591E08927817080936D03F1
S113260090E008958AB18F7D8AB98AB18F7B8AB9A7
S11326108BB180628BB98BB180648BB9089589B119
S113262082958695877091E08927817080936B03EA
S113263090E0089589B1829586958695837091E09E
S11326408927817080936A0390E0089584B188603B
S113265084B9E0EBF0E0808183608083A1EBB0E09B
S11326608C9182608C9380818068808308959C0122
S1132670629FC001639F900D729F900D11248F3F44
S1132680910509F01CF4992334F403C08FEF90E012
S113269002C080E090E08093B300089514BC15BCA0
S11326A016BC84B5826084BD85B5836085BD8FEF1B
S11326B087BDEEE6F0E08081826080830895109209
S11326C08000E1E8F0E0108280818860808388E007
S11326D09DE39093890080938800AFE6B0E08C91ED
S11326E082608C9380818560808308951092C500F8
S11326F080E18093C40088E18093C10086E08093E8
S1132700C20008959091C00095FFFCCF8093C6004D
S11327100895CF93DF93EC0103C00E9482132196A6
S113272088818111FACFDF91CF9108958DE00E94C5
S113273082138AE00E94821308958091C000882346
S1132740E4F78091C6008F3509F480E00895CF93B3
S1132750892B39F4452B41F4672B49F081E090E053
S113276008C081E090E005C081E090E002C080E014
S113277090E0892B39F40E949D13C82F0E94821384
S11327808C2F01C08BE3CF910895CF930E949D13AA
S1132790C82F0E9482130E9496138C2FCF91089504
S11327A0CF93DF93FC0103C00E948213FE01EF016B
S11327B0219684918111F8CFDF91CF9108950E94E1
S11327C0961386E991E10E94D0130E9496138FE23A
S11327D091E10E94D0130E94961387EC90E10E942D
S11327E0D0130E9496138FE590E10E94D0130E94AB
S11327F0961387EF9FE00E94D0130E9496138FE8F0
S11328009FE00E94D0130E94961387E29FE00E94EB
S1132810D0130E9496138FEB9EE00E94D0130E9467
S1132820961387E59EE00E94D0130E9496130E949F
S1132830961308950E9496130E9496138AE69DE0CB
S11328400E94D0130E94961388E19DE00E94D01349
S11328500E94961387EC9CE00E94D0130E9496136A
S113286084E89CE00E94D0130E94961381E69CE0C9
S11328700E94D0130E9496138BE09CE00E94D01318
S11328800E94961384EB9BE00E94D0130E9496133F
S11328908CE59BE00E94D0130E94961384E09BE099
S11328A00E94D0130E9496138BEA9AE00E94D013E0
S11328B00E94961386E59AE00E94D0130E94961314
S11328C085E19AE00E94D0130E94961382ED99E06C
S11328D00E94D0130E9496138EE899E00E94D013B0
S11328E00E94961389E499E00E94D0130E949613E3
S11328F084E099E00E94D0130E9496138FEB98E035
S11329000E94D0130E9496138AE798E00E94D01385
S11329100E94961386E398E00E94D0130E949613B7
S113292082EF97E00E94D0130E9496138FEA97E0FB
S11329300E94D0130E9496138DE697E00E94D01354
S11329400E9496130E94961383E193E10E94D01390
S113295008950E94961383E49EE00E94D0130E947F
S113296096138AE29EE00E94D0130E94961382E19D
S11329709EE00E94D0130E94961382E09EE00E9483
S1132980D0130E9496138CEE92E10E94D0130E9401
S1132990961383E193E10E94D01308956F927F927E
S11329A08F929F92AF92BF92CF92DF92EF92FF925B
S11329B00F931F93CF93DF93782E692EC62FD72FB3
S11329C0942E852EB22EA32E0E94961388EE9DE09F
S11329D00E94D0130E9496138EEC9DE00E94D013A7
S11329E00E94961384EB9DE00E94D0130E949613DC
S11329F08CE392E10E94D0130E94961387E592E142
S1132A000E94D013DF93CF930F2EF6E3CF2EF1E085
S1132A10DF2EF02DDF92CF92CEEAD3E0DF93CF9377
S1132A200E947021CE010E94891383E592E10E94E5
S1132A30D0130E94961389E492E10E94D0136F92FE
S1132A407F92DF92CF92DF93CF930E947021CE01C9
S1132A500E94891385E492E10E94D0130E94961388
S1132A608DEF91E10E94D0130E94961389E391E0C7
S1132A700E9489134CE050E0BE018AE090E00E947D
S1132A80D90ECE010E94891383E391E00E94891339
S1132A908F929F92DF92CF92DF93CF930E94702107
S1132AA0CE010E9489138DEB92E00E9489130E944B
S1132AB0961385E491E00E9489134CE050E0BE0136
S1132AC089E190E00E94D90ECE010E94891383E32C
S1132AD091E00E948913AF92BF92DF92CF92DF936D
S1132AE0CF930E947021CE010E9489138DEB92E056
S1132AF00E9489130E94961381E591E00E94891334
S1132B004CE050E0BE0188E290E00E94D90ECE0174
S1132B100E94891383E391E00E9489131F930F930A
S1132B20DF92CF92DF93CF930E947021CE010E9457
S1132B3089138DEB92E00E9489130E9496138DE510
S1132B4091E00E9489134CE050E0BE0187E390E0DD
S1132B500E94D90ECE010E94891383E391E00E9462
S1132B608913FF92EF92DF92CF92DF93CF930E946B
S1132B7070218DB79EB784960FB6F8949EBF0FBE92
S1132B808DBFCE010E9489138DEB92E00E948913C0
S1132B900E9496138CEE92E10E94D013DF91CF91A4
S1132BA01F910F91FF90EF90DF90CF90BF90AF9067
S1132BB09F908F907F906F9008950E9496138AE45F
S1132BC097E00E94D0134AE050E06EEA73E084EB91
S1132BD090E00E94D90E8EEA93E00E9489130E942D
S1132BE096138FE197E00E94D0134CE050E06EEA18
S1132BF073E08AE090E00E94D90E8EEA93E00E948E
S1132C0089130E94961384EF96E00E94D0134CE03F
S1132C1050E06EEA73E089E190E00E94D90E8EEAFA
S1132C2093E00E9489130E94961389EC96E00E9417
S1132C30D0134AE050E06EEA73E088E290E00E942C
S1132C40D90E8EEA93E00E9489130E9496138EE9AE
S1132C5096E00E94D0134AE050E06EEA73E087E306
S1132C6090E00E94D90E8EEA93E00E9489130E949C
S1132C7096138EE796E00E94D01343E050E06EEA8C
S1132C8073E08AEA90E00E94D90E8EEA93E00E94F3
S1132C9089130E9496138DE496E00E94D01343E0BA
S1132CA050E06EEA73E088E191E00E94D90E8EEA6A
S1132CB093E00E9489130E9496138CE196E00E948F
S1132CC0D01343E050E06EEA73E086E490E00E94A3
S1132CD0D90E8EEA93E00E9489130E9496138BEE1C
S1132CE095E00E94D01343E050E06EEA73E080E583
S1132CF090E00E94D90E8EEA93E00E9489130E940C
S1132D0096138AEB95E00E94D01343E050E06EEAFC
S1132D1073E08AE590E00E94D90E8EEA93E00E9467
S1132D2089130E94961383E895E00E94D01343E030
S1132D3050E06EEA73E084E690E00E94D90E8EEAD9
S1132D4093E00E9489130E9496138CE495E00E94FC
S1132D50D01343E050E06EEA73E08EE690E00E9408
S1132D60D90E8EEA93E00E9489130E94961385E19E
S1132D7095E00E94D01343E050E06EEA73E088E7E8
S1132D8090E00E94D90E8EEA93E00E9489130E947B
S1132D9096138EED94E00E94D01343E050E06EEA67
S1132DA073E082E890E00E94D90E8EEA93E00E94DC
S1132DB089130E9496138EEA94E00E94D01343E094
S1132DC050E06EEA73E08CE890E00E94D90E8EEA3F
S1132DD093E00E9489130E9496138EE794E00E9468
S1132DE0D01343E050E06EEA73E081E990E00E9482
S1132DF0D90E8EEA93E00E9489130E9496138EE402
S1132E0094E00E94D01343E050E06EEA73E086E958
S1132E1090E00E94D90E8EEA93E00E9489130E94EA
S1132E2096138EE194E00E94D01343E050E06EEAE2
S1132E3073E08BE990E00E94D90E8EEA93E00E9441
S1132E4089130E9496138CEF93E00E94D01343E001
S1132E5050E06EEA73E080EA90E00E94D90E8EEAB8
S1132E6093E00E94891389E691E00E9489130E94ED
S1132E7096138CEE92E10E94D01308950E9496134B
S1132E808DE693E00E94D0130E94961381E493E0B0
S1132E900E94D0130E94961388E193E00E94D013FD
S1132EA00E9496138BEE92E00E94D0130E94961318
S1132EB08EEB92E00E94D0130E94961381E992E077
S1132EC00E94D0130E94961384E692E00E94D013CD
S1132ED00E94961308950E94961384EA92E10E9438
S1132EE0D0130E94961385E692E10E94D0130E94AB
S1132EF0961308950E94961380E392E00E94D013E3
S1132F000E94961382EF91E00E94D0130E949613C0
S1132F1083EB91E00E94D0130E94961386E891E01F
S1132F200E94D0130E9496138AE491E00E94D01369
S1132F300E9496138EE091E00E94D0130E94961393
S1132F4082ED90E00E94D0130E94961308950E948F
S1132F5096138DEB93E00E94D0130E94961384EB9A
S1132F6093E00E94D0130E9496138BEA93E00E9490
S1132F70D0130E949613089580916E038823D9F18B
S1132F800E9440100E94011082E791E00E943310D9
S1132F9027E78BE292E0215080409040E1F700C0A7
S1132FA000000E94401081E891E00E94331027E75E
S1132FB08BE292E0215080409040E1F700C0000095
S1132FC00E9440108CE891E00E94331027E78BE2C6
S1132FD092E0215080409040E1F700C000000E9440
S1132FE040100E941E0F0E9496138DE991E00E94EA
S1132FF0891310926E0308950E94BC178091700388
S1133000882361F180916E03811128C00E94011010
S11330100E9440100E94961380EE91E00E94891352
S113302088EF91E00E94891388E292E00E943310B5
S113303085EA9EE00197F1F700C0000080917C03CF
S113304090E00E94E30C0E9401100E944010109234
S1133050700386E392E00E94891308950E94BC17CE
S11330600895CF92DF92EF92FF920F931F93CF9325
S1133070DF93CDB7DEB7C055D1090FB6F894DEBFE4
S11330800FBECDBF02E310E01A830983FE0133961D
S113309088E0DF011D928A95E9F7BE016F5F7F4FDB
S11330A080EA90E00E949F0E86E0E0E0F1E0DE011D
S11330B01B9601900D928A95E1F76894FF24F2F82B
S11330C0FE017196DF018F2D1D928A95E9F7BE01ED
S11330D0655F7F4F8AE090E00E949F0E4AE050E0D7
S11330E06EEA73E08AE090E00E94D90E81E491E0F8
S11330F00E9489138EEA93E00E94891384E595E483
S11331009E8B8D8B188E1F8AFE01799686E0DF01D7
S11331101D928A95E9F7BE016B5E7F4F89E190E0CD
S11331200E949F0E4AE050E06EEA73E089E190E06D
S11331300E94D90E81E491E00E9489138EEA93E003
S11331400E94891389E0EAE0F1E0DE015F960190D4
S11331500D928A95E1F718A6BE01615E7F4F88E261
S113316090E00E949F0E4AE050E06EEA73E088E22D
S113317090E00E94D90E81E491E00E9489138EEAC6
S113318093E00E94891386E0E4E1F1E0DE01999680
S113319001900D928A95E1F7FE01BF96DF011D9221
S11331A0FA94E9F7BE01675D7F4F87E390E00E94E0
S11331B09F0E4AE050E06EEA73E087E390E00E94DD
S11331C0D90E81E491E00E9489138EEA93E00E9473
S11331D089130F2EF1E3EF2EF0E3FF2EF02DFCAA5E
S11331E0EBAA0F2EF0E3CF2ED12CF02DDEAACDAA20
S11331F01FAABE016D5C7F4F88E191E00E949F0E83
S1133200BE016D5C7F4F86E490E00E949F0EBE017C
S11332106D5C7F4F80E590E00E949F0EBE016D5C67
S11332207F4F8AE590E00E949F0E82E390E399AF7E
S113323088AFDBAECAAE1CAEBE01685C7F4F84E6CD
S113324090E00E949F0EBE01685C7F4F8EE690E086
S11332500E949F0EBE01685C7F4F88E790E00E9449
S11332609F0EBE01685C7F4F82E890E00E949F0E33
S1133270FEAEEDAE21961FAE1EAE219722961FAE76
S11332802297BE01635C7F4F8CE890E00E949F0E02
S1133290BE01635C7F4F81E990E00E949F0EBE01F6
S11332A0635C7F4F86E990E00E949F0EBE01635CE1
S11332B07F4F8BE990E00E949F0EFE01EE5BFF4F73
S11332C00193119313E0DF01812F1D928A95E9F791
S11332D0BE016E5B7F4F80EA90E00E949F0E88E300
S11332E095E329969FAF8EAF29972B961FAE1EAEFE
S11332F02B972C961FAE2C97BE01695B7F4F84EBF6
S113330090E00E949F0EFE01E45BFF4F81E390E09A
S113331081939193DF011D921A95E9F7BE01645BD5
S11333207F4F8AEA90E00E949F0EC05BDF4F0FB68A
S1133330F894DEBF0FBECDBFDF91CF911F910F91E7
S1133340FF90EF90DF90CF9008954AE050E06EEA4E
S113335073E080EA90E00E94D90E8EEA93E00E9426
S11333604A210197029748F00E9431180E9496134F
S11333708BE492E00E94891308950E94961388E7D3
S113338092E00E94891308950E944B100E94A2109B
S11333900E94E0109093A7038093A6030E949E10BE
S11333A00E9436129093C8038093C70308950F9325
S11333B01F93CF93DF93C0E0D0E033C00E94C419C1
S11333C0219644E050E06EEA73E08AEA90E00E94BD
S11333D0D90E8EEA93E00E944A218C0144E050E029
S11333E06EEA73E084EB90E00E94D90E8EEA93E0DB
S11333F00E944A212091C7033091C803821B930B7A
S11334002091A6033091A703232B29F0BC01C80106
S11334100E94371306C060E070E081E090E00E94F3
S11334203713C530D10551F6DF91CF911F910F911C
S113343008950F931F93CF93DF93F89480EA92E05B
S11334400E94331027E381E796E0215080409040AA
S1133450E1F700C000000E94401089EA92E00E9457
S1133460331027E381E796E0215080409040E1F754
S113347000C000000E94401085EB92E00E943310CF
S113348027E381E796E0215080409040E1F700C0B7
S113349000000E9440108FEB92E00E94331027EB53
S11334A08BE89CE0215080409040E1F700C0000090
S11334B00E94401084E391E00E9433104AE050E0FF
S11334C06EEA73E08AE090E00E94D90E8EEA93E0FF
S11334D00E94331027EB8BE89CE021508040904001
S11334E0E1F700C000000E94401084E391E00E94D4
S11334F033108091A5038F938091A4038F9306E3E7
S113350011E01F930F93CEEAD3E0DF93CF930E9491
S11335107021CE010E94331097EB2BE88CE0915080
S113352020408040E1F700C000000E94401084E386
S113353091E00E9433104AE050E0BE0189E190E03E
S11335400E94D90ECE010E94331097EB2BE88CE039
S1133550915020408040E1F700C000000E944010DC
S11335600E94401084E391E00E9433108091AD03E7
S11335708F938091AC038F931F930F93DF93CF931B
S11335800E947021CE010E94331087EB9BE82CE04F
S1133590815090402040E1F700C000000E9440109C
S11335A084E391E00E9433104AE050E0BE0188E2D7
S11335B090E00E94D90ECE010E94331087EB9BE865
S11335C02CE0815090402040E1F700C000000E94B0
S11335D0401084E391E00E9433108091AB038F93F9
S11335E08091AA038F931F930F93DF93CF930E942D
S11335F07021CE010E94331027EB8BE89CE0215010
S113360080409040E1F700C000000E94401084E335
S113361091E00E9433104AE050E0BE0187E390E05D
S11336200E94D90ECE010E94331027EB8BE89CE058
S1133630215080409040E1F700C000000E944010FB
S11336400E94401084E391E00E9433108091A9030A
S11336508F938091A8038F931F930F93DF93CF933E
S11336600E947021CE010E94331097EB2BE88CE06E
S1133670915020408040E1F700C000000E944010BB
S113368088EC92E00E94331097EB2BE88CE0915089
S113369020408040E1F700C000000E94401084E315
S11336A091E00E94331080ED92E00E94331097EB7A
S11336B02BE88CE0915020408040E1F700C00000EE
S11336C00E94401084E391E00E9433108091C7036C
S11336D09091C8039F938F931F930F93DF93CF937E
S11336E00E947021CE010E9433108DED92E00E9461
S11336F0331087EB9BE82CE0815090402040E1F7A9
S113370000C000000E94401084E391E00E94331046
S113371080EE92E00E94331087EB9BE82CE081500E
S113372090402040E1F700C000000E94401084E374
S113373091E00E9433108091A6039091A7039F9378
S11337408F931F930F93DF93CF930E9470218DB7B4
S11337509EB784960FB6F8949EBF0FBE8DBFCE0160
S11337600E94331089EE92E00E9433109FED22EB09
S113377083E0915020408040E1F700C0000097EBC7
S11337802BE88CE0915020408040E1F700C000001D
S11337900E944010DF91CF911F910F9108950E94D4
S11337A00F1380937B030E941A1380937A038091F2
S11337B07B03813009F06EC080917C038F5F80931E
S11337C07C03853019F481E080937C030E9401100E
S11337D08091730390917403019731F40E94191A34
S11337E0109274031092730380917C038230D1F0A1
S11337F018F4813031F049C0833029F18430A1F1CB
S113380044C04AE050E06EEA73E08AE090E00E942F
S1133810D90E86E291E00E9433108EEA93E00E9472
S1133820331008954AE050E06EEA73E089E190E0D5
S11338300E94D90E86E291E00E9433108EEA93E052
S11338400E94331008954AE050E06EEA73E088E283
S113385090E00E94D90E86E291E00E9433108EEA35
S113386093E00E94331008954AE050E06EEA73E05A
S113387087E390E00E94D90E86E291E00E94331023
S11338808EEA93E00E943310089581E080937C03D4
S11338900E94CF1B08950E94F71280937E030E941A
S11338A0ED1280937D03811106C080917E038823ED
S11338B021F081E003C081E001C080E080936E03C9
S11338C00895CF93DF9380E00E94D209C8E7D0E047
S11338D06881798180E090E00E94212020E030EC32
S11338E04FE754E40E94791F20E030E048EC52E4B2
S11338F00E94AF200E94EB1F7093A5036093A40362
S113390081E00E94D2096881798180E090E00E9480
S1133910212020E030EC4FE754E40E94791F20E09E
S113392030E048EC52E40E94AF200E94EB1F7093F9
S1133930AD036093AC0382E00E94D209688179816F
S113394080E090E00E94212020E030EC4FE754E436
S11339500E94791F20E030E048EC52E40E94AF203E
S11339600E94EB1F7093AB036093AA0383E00E9451
S1133970D2096881798180E090E00E94212020E0D2
S113398030EC4FE754E40E94791F20E030E048EC2B
S113399052E40E94AF200E94EB1F7093A90360932E
S11339A0A803DF91CF9108950E94611C0E94C4195D
S11339B00E944B1C0E94CF1B08950E94DB120E94A0
S11339C0C1090E9476130E94E0120E9402130E9411
S11339D0261380916F03811105C00E94DF1381E0DB
S11339E080936F030E94A5190E94A9140E944E138C
S11339F00E945F130895EF92FF920F931F93CF934A
S1133A00DF9360916E038091700370E040E050E0BA
S1133A1090E00E94A7138093C603E091C6038E2F03
S1133A2090E0FC01F197EA32F10508F02BC1EC5C5F
S1133A30FF4F0C9430216091C7037091C8038091AB
S1133A40A6039091A703E090A803F090A903009126
S1133A50AA031091AB032091AC033091AD034091C4
S1133A60A4035091A5030E94CE148CEE92E080939F
S1133A70C60308C10E94DD158CEE92E08093C60354
S1133A8001C10E941A148CEE92E08093C603FAC01E
S1133A900E9496138EEE92E00E9489130E94DD1517
S1133AA00E9496138EE193E00E9489130E9496135C
S1133AB08CEE92E08093C603E5C084EB90E00E9414
S1133AC0490D8CEE92E08093C603DCC00E943E1741
S1133AD08AE090E00E94AC0D8CEE92E08093C603E5
S1133AE0D1C00E943E1789E190E00E94AC0D8CEE9B
S1133AF092E08093C603C6C00E943E1788E290E01D
S1133B000E94AC0D8CEE92E08093C603BBC00E9471
S1133B103E1787E390E00E94AC0D8CEE92E0809318
S1133B20C603B0C08CEE92E08093C603ABC08AEAB1
S1133B3090E00E94490D8CEE92E08093C603A2C0EF
S1133B4088E191E00E94290E8CEE92E08093C603F6
S1133B5099C086E490E00E94290E94C080E590E02C
S1133B600E94290E8CEE92E08093C6038BC08AE5F6
S1133B7090E00E94290E8CEE92E08093C60382C0EE
S1133B8084E690E00E94290E8CEE92E08093C603B6
S1133B908093C60377C08CEE92E08093C6038EE6D2
S1133BA090E00E94290E6EC08CEE92E08093C603D2
S1133BB088E790E00E94290E65C0CCEED2E0C09365
S1133BC0C60382E890E00E94290EC093C6035AC03F
S1133BD08CEE92E08093C6038CE890E00E94490D3D
S1133BE051C08CEE92E08093C60381E990E00E947C
S1133BF0490D48C08CEE92E08093C60386E990E0BC
S1133C000E94490D3FC08CEE92E08093C6038BE97D
S1133C1090E00E94490D36C00E94A7178CEE92E0F6
S1133C208093C6032FC064E673E080EA90E00E94AC
S1133C309F0E0E9496130E94A9140E9496138CEE64
S1133C4092E08093C6031EC00E94961366E673E05A
S1133C5080EA90E00E949F0E0E94A9140E9496138D
S1133C608CEE92E08093C6030DC00E94A9148CEEE2
S1133C7092E08093C60306C00E9431188CEE92E055
S1133C808093C603DF91CF911F910F91FF90EF9026
S1133C900895F8940E94DD1C0E94D41C78940E941C
S1133CA0BC1778940E94BC170E94FC170E94D41C75
S1133CB00E94FB1CF6CF1F920F920FB60F92112495
S1133CC02F933F934F935F936F937F938F939F9320
S1133CD0AF93BF93EF93FF930E94D719FF91EF9196
S1133CE0BF91AF919F918F917F916F915F914F9110
S1133CF03F912F910F900FBE0F901F9018951F9218
S1133D000F920FB60F9211242F933F934F935F930B
S1133D106F937F938F939F93AF93BF93CF93EF93BF
S1133D20FF9389B1C82FC07480917103909172037D
S1133D300196909372038093710380917103909123
S1133D4072038D37910541F40E94CF1B0E944B1CD6
S1133D50109272031092710380917A03882329F0E0
S1133D6080917B03811103C003C080E001C081E026
S1133D7080937903809179038823A1F0809175035E
S1133D8090917603A0917703B09178030196A11DD9
S1133D90B11D8093750390937603A0937703B0933A
S1133DA0780309C0C11107C080917B03811103C04E
S1133DB081E080937003809179038823D9F0809106
S1133DC0750390917603A0917703B0917803843CB6
S1133DD09940A105B10570F081E090E090937403DF
S1133DE080937303109275031092760310927703F5
S1133DF010927803FF91EF91CF91BF91AF919F9172
S1133E008F917F916F915F914F913F912F910F907F
S1133E100FBE0F901F9018955058BB27AA270E94D9
S1133E20241F0C9475200E94672038F00E946E2095
S1133E3020F039F49F3F19F426F40C9464200EF416
S1133E40E095E7FB0C945E20E92F0E94862058F34E
S1133E50BA17620773078407950720F079F4A6F56B
S1133E600C94A8200EF4E0950B2EBA2FA02D0B0174
S1133E70B90190010C01CA01A0011124FF27591BAB
S1133E8099F0593F50F4503E68F11A16F040A22FB1
S1133E90232F342F4427585FF3CF46953795279522
S1133EA0A795F0405395C9F77EF41F16BA0B620B21
S1133EB0730B840BBAF09150A1F0FF0FBB1F661F68
S1133EC0771F881FC2F70EC0BA0F621F731F841FAB
S1133ED048F4879577956795B795F7959E3F08F0D1
S1133EE0B0CF9395880F08F09927EE0F9795879593
S1133EF008950E948D1F0C9475200E946E2058F026
S1133F000E94672040F029F45F3F29F00C945E2062
S1133F1051110C94A9200C9464200E94862068F30B
S1133F209923B1F3552391F3951B550BBB27AA276E
S1133F3062177307840738F09F5F5F4F220F331FA8
S1133F40441FAA1FA9F335D00E2E3AF0E0E832D070
S1133F5091505040E695001CCAF72BD0FE2F29D073
S1133F60660F771F881FBB1F261737074807AB0745
S1133F70B0E809F0BB0B802DBF01FF2793585F4FBA
S1133F803AF09E3F510578F00C945E200C94A920E1
S1133F905F3FE4F3983ED4F3869577956795B7959C
S1133FA0F7959F5FC9F7880F911D9695879597F9A7
S1133FB00895E1E0660F771F881FBB1F6217730720
S1133FC08407BA0720F0621B730B840BBA0BEE1F35
S1133FD088F7E09508950E94F21F6894B1110C943B
S1133FE0A92008950E948E2088F09F5798F0B92F39
S1133FF09927B751B0F0E1F0660F771F881F991F1A
S11340001AF0BA95C9F714C0B13091F00E94A820F3
S1134010B1E008950C94A820672F782F8827B85F03
S113402039F0B93FCCF3869577956795B395D9F771
S11340303EF490958095709561957F4F8F4F9F4F7B
S11340400895E89409C097FB3EF490958095709587
S113405061957F4F8F4F9F4F9923A9F0F92F96E9D0
S1134060BB279395F695879577956795B795F11145
S1134070F8CFFAF4BB0F11F460FF1BC06F5F7F4FE2
S11340808F4F9F4F16C0882311F096E911C07723F4
S113409021F09EE8872F762F05C0662371F096E8FD
S11340A0862F70E060E02AF09A95660F771F881FCC
S11340B0DAF7880F9695879597F9089597F99F678A
S11340C080E870E060E008959FEF80EC089500249C
S11340D00A941616170618060906089500240A9469
S11340E012161306140605060895092E0394000CEF
S11340F011F4882352F0BB0F40F4BF2B11F460FF7E
S113410004C06F5F7F4F8F4F9F4F089557FD9058A6
S1134110440F551F59F05F3F71F04795880F97FB87
S1134120991F61F09F3F79F0879508951216130641
S11341301406551FF2CF4695F1DF08C01616170670
S11341401806991FF1CF86957105610508940895A5
S1134150E894BB2766277727CB0197F908950E9437
S1134160C2200C9475200E94672038F00E946E20B3
S113417020F0952311F00C945E200C9464201124FB
S11341800C94A9200E94862070F3959FC1F3950F8B
S113419050E0551F629FF001729FBB27F00DB11DC7
S11341A0639FAA27F00DB11DAA1F649F6627B00D57
S11341B0A11D661F829F2227B00DA11D621F739F40
S11341C0B00DA11D621F839FA00D611D221F749F4E
S11341D03327A00D611D231F849F600D211D822F95
S11341E0762F6A2F11249F5750409AF0F1F08823BC
S11341F04AF0EE0FFF1FBB1F661F771F881F9150E9
S11342005040A9F79E3F510580F00C945E200C9419
S1134210A9205F3FE4F3983ED4F38695779567959C
S1134220B795F795E7959F5FC1F7FE2B880F911D12
S11342309695879597F9089597FB072E16F40094A1
S113424007D077FD09D00E94362107FC05D03EF443
S1134250909581959F4F0895709561957F4F08952E
S1134260EE0FFF1F0590F491E02D0994AA1BBB1BD0
S113427051E107C0AA1FBB1FA617B70710F0A61B62
S1134280B70B881F991F5A95A9F780959095BC0183
S1134290CD010895FC0188279927E89421912032C3
S11342A0E9F3293010F02E30C8F32B3241F02D32CF
S11342B039F4689404C00E946821820F911D2191F1
S11342C020532A30C0F31EF4909581959F4F089592
S11342D07AE0979F902D879F802D910D112408954A
S11342E0AEE0B0E0E6E7F1E20C9431240D891E89DA
S11342F086E08C831A8309838FEF9FE79E838D83E7
S1134300AE01475E5F4F6F89788DCE0101960E94A2
S11343109221EF81F885E00FF11F10822E96E4E0E0
S11343200C944D24ABE0B0E0E8E9F1E20C942324D2
S11343306C017B018A01FC0117821682838181FF53
S1134340CCC1CE0101963C01F6019381F70193FDA6
S1134350859193FF81917F01882309F4BAC1853245
S113436039F493FD859193FF81917F01853229F47E
S1134370B60190E00E948923E7CF912C212C312CA7
S1134380FFE1F315D8F08B3279F038F4803279F00C
S11343908332A1F4232D20611DC08D3261F080335E
S11343A069F4232D216016C0832D8260382EE32DFD
S11343B0E4603E2E2AC0F32DF8601DC037FC2DC0EA
S11343C020ED280F2A3040F08E32B9F436FC81C13A
S11343D0232D2064322E19C036FE06C08AE0989E32
S11343E0200D1124922E11C0EAE02E9E200D1124DE
S11343F0222EF32DF0623F2E08C08C3621F4832D3B
S11344008068382E02C0883641F4F70193FD859107
S113441093FF81917F018111B3CF982F9F7D955494
S1134420933028F40C5F1F4F9FE399830DC08336AC
S113443031F0833771F0833509F059C021C0F80198
S1134440808189830E5F1F4F88248394912C5301AC
S113445013C02801F2E04F0E511CF801A080B18076
S113446036FE03C0692D70E002C06FEF7FEFC50117
S11344700E947E234C018201F32DFF773F2E16C04C
S1134480280122E0420E511CF801A080B18036FEC2
S113449003C0692D70E002C06FEF7FEFC5010E9479
S11344A073234C01F32DF0683F2E820133FC1BC0B3
S11344B0822D90E088169906B0F4B60180E290E06F
S11344C00E9489232A94F4CFF50137FC859137FEA5
S11344D081915F01B60190E00E94892321102A9402
S11344E021E0821A91088114910471F7E8C084369E
S11344F011F0893641F5F80137FE07C060817181FA
S1134500828193810C5F1F4F08C060817181072EE7
S1134510000C880B990B0E5F1F4FF32DFF763F2E77
S113452097FF09C090958095709561957F4F8F4F47
S11345309F4FF0683F2E2AE030E0A3010E94C5237C
S1134540882E861845C0853731F4232D2F7EB22E50
S11345502AE030E025C0932D997FB92E8F36C1F023
S113456018F4883579F0B5C0803719F0883721F010
S1134570B0C0E92FE061BE2EB4FE0DC0FB2DF46087
S1134580BF2E09C034FE0AC0292F2660B22E06C0F1
S113459028E030E005C020E130E002C020E132E054
S11345A0F801B7FE07C060817181828193810C5F3D
S11345B01F4F06C06081718180E090E00E5F1F4F45
S11345C0A3010E94C523882E8618FB2DFF773F2E5A
S11345D036FE0DC0232D2E7FA22E891458F434FEEE
S11345E00BC032FC09C0832D8E7EA82E05C0B82CCA
S11345F0A32C03C0B82C01C0B92CA4FE0FC0FE012B
S1134600E80DF11D8081803321F49A2D997EA92E25
S113461009C0A2FE06C0B394B39404C08A2D867860
S113462009F0B394A3FC11C0A0FE06C0B21488F430
S1134630280C922C9B180EC0B21460F4B60180E2D0
S113464090E00E948923B394F7CFB21418F42B1886
S113465002C0982C212CA4FE10C0B60180E390E087
S11346600E948923A2FE17C0A1FC03C088E790E042
S113467002C088E590E0B6010CC08A2D867859F016
S1134680A1FE02C08BE201C080E2A7FC8DE2B6016C
S113469090E00E948923891438F4B60180E390E005
S11346A00E9489239A94F7CF8A94F301E80DF11DAF
S11346B08081B60190E00E9489238110F5CF2220E9
S11346C009F442CEB60180E290E00E9489232A9444
S11346D0F6CFF6018681978102C08FEF9FEF2B966C
S11346E0E2E10C943F24FC010590615070400110FC
S11346F0D8F7809590958E0F9F1F0895FC01615007
S1134700704001900110D8F7809590958E0F9F1FEF
S113471008950F931F93CF93DF93FB01238121FD12
S113472003C08FEF9FEF2CC022FF16C04681578134
S1134730248135814217530744F4A081B1819D013E
S11347402F5F3F4F318320838C93268137812F5FE6
S11347503F4F3783268314C08B01EC01FB01008497
S1134760F185E02D0995892BE1F6D80116968D91F6
S11347709C911797019617969C938E931697CE014A
S1134780DF91CF911F910F910895FA01AA27283044
S113479051F1203181F1E8946F936E7F6E5F7F4F0A
S11347A08F4F9F4FAF4FB1E03ED0B4E03CD0670F86
S11347B0781F891F9A1FA11D680F791F8A1F911DD9
S11347C0A11D6A0F711D811D911DA11D20D009F429
S11347D068943F912AE0269F11243019305D31936B
S11347E0DEF6CF010895462F4770405D4193B3E054
S11347F00FD0C9F7F6CF462F4F70405D4A3318F0FB
S1134800495D31FD4052419302D0A9F7EACFB4E0AB
S1134810A6959795879577956795BA95C9F7009763
S11348206105710508959B01AC010A2E0694579504
S1134830479537952795BA95C9F7620F731F841F5B
S1134840951FA01D08952F923F924F925F926F92F1
S11348507F928F929F92AF92BF92CF92DF92EF920C
S1134860FF920F931F93CF93DF93CDB7DEB7CA1B8D
S1134870DB0B0FB6F894DEBF0FBECDBF09942A88B8
S1134880398848885F846E847D848C849B84AA8460
S1134890B984C884DF80EE80FD800C811B81AA81ED
S11348A0B981CE0FD11D0FB6F894DEBF0FBECDBFB8
S10B48B0ED010895F894FFCF17
S11348B843414646450000000000594552424941DB
S11348C8444F00004C415454450000000000256446
S11348D82E25303464002D0054656D706572617442
S11348E87572613A2000256400426562696461203A
S11348F831202D3E004265626964612032202D3EDC
S1134908004265626964612033202D3E004265627D
S11349186964612034202D3E0030204C6974726F24
S11349287300204552524F5220505545525441204D
S1134938002041424945525441204F002054415AD5
S113494841204D414C20505545535441003E3E456D
S113495852524F523A20436965727265206C612045
S1134968707565727461206F20636F6C6F71756503
S1134978206269656E206C612074617A61207061BF
S1134988726120636F6E74696E7561722E2E2E00CB
S1134998536520696E696369F320656C20736572D9
S11349A87669646F2E2E2E00436F6E736F6C6120D0
S11349B8626C6F71756561646120686173746120EC
S11349C87465726D696E61722020656C2070726FF7
S11349D86365736F2E2E2E00205369727669656E97
S11349E8646F2E2E2E003E3E5365727669646F20E6
S11349F866696E616C697A61646F00204C6120633A
S1134A08616665746572612066756520636F6E669C
S1134A186967757261646120657869746F73616D23
S1134A28656E7465203A29004C612063616665747B
S1134A38657261206573746120636F6E666967755A
S1134A48726164612079206C69737461203A290069
S1134A58204D65646964617300204E6976656C65F0
S1134A68732064650020506F6C766F7320250020D6
S1134A782820656E20252900204269646F6E3A005B
S1134A883E54656D7065726174757261002A4300E5
S1134A983E566F6C756D656E006D6C002C003E3E65
S1134AA844656C207369677569656E7465206C6903
S1134AB8737461646F2C206573636F6A6120717508
S1134AC86520636F6E666967757261723A003E3E6F
S1134AD853656C656363696F6E6520756E612064E8
S1134AE865206C617320616E746572696F72657399
S1134AF8206F7063696F6E657320792073696761CD
S1134B08206C617320696E737472756363696F6E68
S10B4B18657320003100320036
S9030000FC
